{
	"contracts/DEX.sol": {
		"DEX": {
			"abi": [
				{
					"inputs": [
						{
							"internalType": "address",
							"name": "_token1",
							"type": "address"
						},
						{
							"internalType": "address",
							"name": "_token2",
							"type": "address"
						}
					],
					"stateMutability": "nonpayable",
					"type": "constructor"
				},
				{
					"anonymous": false,
					"inputs": [
						{
							"indexed": true,
							"internalType": "address",
							"name": "provider",
							"type": "address"
						},
						{
							"indexed": false,
							"internalType": "uint256",
							"name": "token1Amount",
							"type": "uint256"
						},
						{
							"indexed": false,
							"internalType": "uint256",
							"name": "token2Amount",
							"type": "uint256"
						}
					],
					"name": "LiquidityAdded",
					"type": "event"
				},
				{
					"anonymous": false,
					"inputs": [
						{
							"indexed": true,
							"internalType": "address",
							"name": "provider",
							"type": "address"
						},
						{
							"indexed": false,
							"internalType": "uint256",
							"name": "token1Amount",
							"type": "uint256"
						},
						{
							"indexed": false,
							"internalType": "uint256",
							"name": "token2Amount",
							"type": "uint256"
						}
					],
					"name": "LiquidityRemoved",
					"type": "event"
				},
				{
					"anonymous": false,
					"inputs": [
						{
							"indexed": true,
							"internalType": "address",
							"name": "previousOwner",
							"type": "address"
						},
						{
							"indexed": true,
							"internalType": "address",
							"name": "newOwner",
							"type": "address"
						}
					],
					"name": "OwnershipTransferred",
					"type": "event"
				},
				{
					"anonymous": false,
					"inputs": [
						{
							"indexed": true,
							"internalType": "address",
							"name": "user",
							"type": "address"
						},
						{
							"indexed": false,
							"internalType": "address",
							"name": "tokenIn",
							"type": "address"
						},
						{
							"indexed": false,
							"internalType": "uint256",
							"name": "amountIn",
							"type": "uint256"
						},
						{
							"indexed": false,
							"internalType": "address",
							"name": "tokenOut",
							"type": "address"
						},
						{
							"indexed": false,
							"internalType": "uint256",
							"name": "amountOut",
							"type": "uint256"
						}
					],
					"name": "Swap",
					"type": "event"
				},
				{
					"inputs": [
						{
							"internalType": "uint256",
							"name": "_token1Amount",
							"type": "uint256"
						},
						{
							"internalType": "uint256",
							"name": "_token2Amount",
							"type": "uint256"
						}
					],
					"name": "addLiquidity",
					"outputs": [],
					"stateMutability": "nonpayable",
					"type": "function"
				},
				{
					"inputs": [
						{
							"internalType": "address",
							"name": "_tokenIn",
							"type": "address"
						},
						{
							"internalType": "uint256",
							"name": "_amountIn",
							"type": "uint256"
						}
					],
					"name": "getPrice",
					"outputs": [
						{
							"internalType": "uint256",
							"name": "",
							"type": "uint256"
						}
					],
					"stateMutability": "view",
					"type": "function"
				},
				{
					"inputs": [],
					"name": "getReserves",
					"outputs": [
						{
							"internalType": "uint256",
							"name": "reserve1",
							"type": "uint256"
						},
						{
							"internalType": "uint256",
							"name": "reserve2",
							"type": "uint256"
						}
					],
					"stateMutability": "view",
					"type": "function"
				},
				{
					"inputs": [],
					"name": "owner",
					"outputs": [
						{
							"internalType": "address",
							"name": "",
							"type": "address"
						}
					],
					"stateMutability": "view",
					"type": "function"
				},
				{
					"inputs": [
						{
							"internalType": "uint256",
							"name": "_token1Amount",
							"type": "uint256"
						},
						{
							"internalType": "uint256",
							"name": "_token2Amount",
							"type": "uint256"
						}
					],
					"name": "removeLiquidity",
					"outputs": [],
					"stateMutability": "nonpayable",
					"type": "function"
				},
				{
					"inputs": [],
					"name": "renounceOwnership",
					"outputs": [],
					"stateMutability": "nonpayable",
					"type": "function"
				},
				{
					"inputs": [
						{
							"internalType": "address",
							"name": "_tokenIn",
							"type": "address"
						},
						{
							"internalType": "uint256",
							"name": "_amountIn",
							"type": "uint256"
						}
					],
					"name": "swap",
					"outputs": [
						{
							"internalType": "uint256",
							"name": "amountOut",
							"type": "uint256"
						}
					],
					"stateMutability": "nonpayable",
					"type": "function"
				},
				{
					"inputs": [
						{
							"internalType": "address",
							"name": "_tokenIn",
							"type": "address"
						},
						{
							"internalType": "uint256",
							"name": "_amountIn",
							"type": "uint256"
						},
						{
							"internalType": "uint256",
							"name": "_minAmountOut",
							"type": "uint256"
						}
					],
					"name": "swapWithSlippage",
					"outputs": [
						{
							"internalType": "uint256",
							"name": "amountOut",
							"type": "uint256"
						}
					],
					"stateMutability": "nonpayable",
					"type": "function"
				},
				{
					"inputs": [],
					"name": "token1",
					"outputs": [
						{
							"internalType": "contract IERC20",
							"name": "",
							"type": "address"
						}
					],
					"stateMutability": "view",
					"type": "function"
				},
				{
					"inputs": [],
					"name": "token1Balance",
					"outputs": [
						{
							"internalType": "uint256",
							"name": "",
							"type": "uint256"
						}
					],
					"stateMutability": "view",
					"type": "function"
				},
				{
					"inputs": [],
					"name": "token2",
					"outputs": [
						{
							"internalType": "contract IERC20",
							"name": "",
							"type": "address"
						}
					],
					"stateMutability": "view",
					"type": "function"
				},
				{
					"inputs": [],
					"name": "token2Balance",
					"outputs": [
						{
							"internalType": "uint256",
							"name": "",
							"type": "uint256"
						}
					],
					"stateMutability": "view",
					"type": "function"
				},
				{
					"inputs": [
						{
							"internalType": "address",
							"name": "newOwner",
							"type": "address"
						}
					],
					"name": "transferOwnership",
					"outputs": [],
					"stateMutability": "nonpayable",
					"type": "function"
				}
			],
			"devdoc": {
				"kind": "dev",
				"methods": {
					"owner()": {
						"details": "Returns the address of the current owner."
					},
					"renounceOwnership()": {
						"details": "Leaves the contract without owner. It will not be possible to call `onlyOwner` functions anymore. Can only be called by the current owner. NOTE: Renouncing ownership will leave the contract without an owner, thereby removing any functionality that is only available to the owner."
					},
					"transferOwnership(address)": {
						"details": "Transfers ownership of the contract to a new account (`newOwner`). Can only be called by the current owner."
					}
				},
				"version": 1
			},
			"evm": {
				"assembly": "    /* \"contracts/DEX.sol\":517:5159  contract DEX is Ownable, ReentrancyGuard {... */\n  mstore(0x40, 0x80)\n    /* \"contracts/DEX.sol\":1037:1305  constructor(address _token1, address _token2) Ownable() {... */\n  callvalue\n  dup1\n  iszero\n  tag_1\n  jumpi\n  0x00\n  dup1\n  revert\ntag_1:\n  pop\n  mload(0x40)\n  sub(codesize, bytecodeSize)\n  dup1\n  bytecodeSize\n  dup4\n  codecopy\n  dup2\n  dup2\n  add\n  0x40\n  mstore\n  dup2\n  add\n  swap1\n  tag_2\n  swap2\n  swap1\n  tag_3\n  jump\t// in\ntag_2:\n    /* \"https://github.com/OpenZeppelin/openzeppelin-contracts/blob/v4.8.0/contracts/access/Ownable.sol\":936:968  _transferOwnership(_msgSender()) */\n  tag_8\n    /* \"https://github.com/OpenZeppelin/openzeppelin-contracts/blob/v4.8.0/contracts/access/Ownable.sol\":955:967  _msgSender() */\n  tag_9\n    /* \"https://github.com/OpenZeppelin/openzeppelin-contracts/blob/v4.8.0/contracts/access/Ownable.sol\":955:965  _msgSender */\n  shl(0x20, tag_10)\n    /* \"https://github.com/OpenZeppelin/openzeppelin-contracts/blob/v4.8.0/contracts/access/Ownable.sol\":955:967  _msgSender() */\n  0x20\n  shr\n  jump\t// in\ntag_9:\n    /* \"https://github.com/OpenZeppelin/openzeppelin-contracts/blob/v4.8.0/contracts/access/Ownable.sol\":936:954  _transferOwnership */\n  shl(0x20, tag_11)\n    /* \"https://github.com/OpenZeppelin/openzeppelin-contracts/blob/v4.8.0/contracts/access/Ownable.sol\":936:968  _transferOwnership(_msgSender()) */\n  0x20\n  shr\n  jump\t// in\ntag_8:\n    /* \"https://github.com/OpenZeppelin/openzeppelin-contracts/blob/v4.8.0/contracts/security/ReentrancyGuard.sol\":1716:1717  1 */\n  0x01\n    /* \"https://github.com/OpenZeppelin/openzeppelin-contracts/blob/v4.8.0/contracts/security/ReentrancyGuard.sol\":1821:1828  _status */\n  dup1\n    /* \"https://github.com/OpenZeppelin/openzeppelin-contracts/blob/v4.8.0/contracts/security/ReentrancyGuard.sol\":1821:1843  _status = _NOT_ENTERED */\n  dup2\n  swap1\n  sstore\n  pop\n    /* \"contracts/DEX.sol\":1131:1132  0 */\n  0x00\n    /* \"contracts/DEX.sol\":1112:1133  _token1 != address(0) */\n  0xffffffffffffffffffffffffffffffffffffffff\n  and\n    /* \"contracts/DEX.sol\":1112:1119  _token1 */\n  dup3\n    /* \"contracts/DEX.sol\":1112:1133  _token1 != address(0) */\n  0xffffffffffffffffffffffffffffffffffffffff\n  and\n  eq\n  iszero\n    /* \"contracts/DEX.sol\":1112:1158  _token1 != address(0) && _token2 != address(0) */\n  dup1\n  iszero\n  tag_14\n  jumpi\n  pop\n    /* \"contracts/DEX.sol\":1156:1157  0 */\n  0x00\n    /* \"contracts/DEX.sol\":1137:1158  _token2 != address(0) */\n  0xffffffffffffffffffffffffffffffffffffffff\n  and\n    /* \"contracts/DEX.sol\":1137:1144  _token2 */\n  dup2\n    /* \"contracts/DEX.sol\":1137:1158  _token2 != address(0) */\n  0xffffffffffffffffffffffffffffffffffffffff\n  and\n  eq\n  iszero\n    /* \"contracts/DEX.sol\":1112:1158  _token1 != address(0) && _token2 != address(0) */\ntag_14:\n    /* \"contracts/DEX.sol\":1104:1186  require(_token1 != address(0) && _token2 != address(0), \"Invalid token addresses\") */\n  tag_15\n  jumpi\n  mload(0x40)\n  0x08c379a000000000000000000000000000000000000000000000000000000000\n  dup2\n  mstore\n  0x04\n  add\n  tag_16\n  swap1\n  tag_17\n  jump\t// in\ntag_16:\n  mload(0x40)\n  dup1\n  swap2\n  sub\n  swap1\n  revert\ntag_15:\n    /* \"contracts/DEX.sol\":1213:1220  _token1 */\n  dup2\n    /* \"contracts/DEX.sol\":1197:1203  token1 */\n  0x02\n  0x00\n    /* \"contracts/DEX.sol\":1197:1221  token1 = IERC20(_token1) */\n  0x0100\n  exp\n  dup2\n  sload\n  dup2\n  0xffffffffffffffffffffffffffffffffffffffff\n  mul\n  not\n  and\n  swap1\n  dup4\n  0xffffffffffffffffffffffffffffffffffffffff\n  and\n  mul\n  or\n  swap1\n  sstore\n  pop\n    /* \"contracts/DEX.sol\":1248:1255  _token2 */\n  dup1\n    /* \"contracts/DEX.sol\":1232:1238  token2 */\n  0x03\n  0x00\n    /* \"contracts/DEX.sol\":1232:1256  token2 = IERC20(_token2) */\n  0x0100\n  exp\n  dup2\n  sload\n  dup2\n  0xffffffffffffffffffffffffffffffffffffffff\n  mul\n  not\n  and\n  swap1\n  dup4\n  0xffffffffffffffffffffffffffffffffffffffff\n  and\n  mul\n  or\n  swap1\n  sstore\n  pop\n    /* \"contracts/DEX.sol\":1267:1297  _transferOwnership(msg.sender) */\n  tag_18\n    /* \"contracts/DEX.sol\":1286:1296  msg.sender */\n  caller\n    /* \"contracts/DEX.sol\":1267:1285  _transferOwnership */\n  shl(0x20, tag_11)\n    /* \"contracts/DEX.sol\":1267:1297  _transferOwnership(msg.sender) */\n  0x20\n  shr\n  jump\t// in\ntag_18:\n    /* \"contracts/DEX.sol\":1037:1305  constructor(address _token1, address _token2) Ownable() {... */\n  pop\n  pop\n    /* \"contracts/DEX.sol\":517:5159  contract DEX is Ownable, ReentrancyGuard {... */\n  jump(tag_19)\n    /* \"https://github.com/OpenZeppelin/openzeppelin-contracts/blob/v4.8.0/contracts/utils/Context.sol\":640:736  function _msgSender() internal view virtual returns (address) {... */\ntag_10:\n    /* \"https://github.com/OpenZeppelin/openzeppelin-contracts/blob/v4.8.0/contracts/utils/Context.sol\":693:700  address */\n  0x00\n    /* \"https://github.com/OpenZeppelin/openzeppelin-contracts/blob/v4.8.0/contracts/utils/Context.sol\":719:729  msg.sender */\n  caller\n    /* \"https://github.com/OpenZeppelin/openzeppelin-contracts/blob/v4.8.0/contracts/utils/Context.sol\":712:729  return msg.sender */\n  swap1\n  pop\n    /* \"https://github.com/OpenZeppelin/openzeppelin-contracts/blob/v4.8.0/contracts/utils/Context.sol\":640:736  function _msgSender() internal view virtual returns (address) {... */\n  swap1\n  jump\t// out\n    /* \"https://github.com/OpenZeppelin/openzeppelin-contracts/blob/v4.8.0/contracts/access/Ownable.sol\":2433:2620  function _transferOwnership(address newOwner) internal virtual {... */\ntag_11:\n    /* \"https://github.com/OpenZeppelin/openzeppelin-contracts/blob/v4.8.0/contracts/access/Ownable.sol\":2506:2522  address oldOwner */\n  0x00\n    /* \"https://github.com/OpenZeppelin/openzeppelin-contracts/blob/v4.8.0/contracts/access/Ownable.sol\":2525:2531  _owner */\n  dup1\n  0x00\n  swap1\n  sload\n  swap1\n  0x0100\n  exp\n  swap1\n  div\n  0xffffffffffffffffffffffffffffffffffffffff\n  and\n    /* \"https://github.com/OpenZeppelin/openzeppelin-contracts/blob/v4.8.0/contracts/access/Ownable.sol\":2506:2531  address oldOwner = _owner */\n  swap1\n  pop\n    /* \"https://github.com/OpenZeppelin/openzeppelin-contracts/blob/v4.8.0/contracts/access/Ownable.sol\":2550:2558  newOwner */\n  dup2\n    /* \"https://github.com/OpenZeppelin/openzeppelin-contracts/blob/v4.8.0/contracts/access/Ownable.sol\":2541:2547  _owner */\n  0x00\n  dup1\n    /* \"https://github.com/OpenZeppelin/openzeppelin-contracts/blob/v4.8.0/contracts/access/Ownable.sol\":2541:2558  _owner = newOwner */\n  0x0100\n  exp\n  dup2\n  sload\n  dup2\n  0xffffffffffffffffffffffffffffffffffffffff\n  mul\n  not\n  and\n  swap1\n  dup4\n  0xffffffffffffffffffffffffffffffffffffffff\n  and\n  mul\n  or\n  swap1\n  sstore\n  pop\n    /* \"https://github.com/OpenZeppelin/openzeppelin-contracts/blob/v4.8.0/contracts/access/Ownable.sol\":2604:2612  newOwner */\n  dup2\n    /* \"https://github.com/OpenZeppelin/openzeppelin-contracts/blob/v4.8.0/contracts/access/Ownable.sol\":2573:2613  OwnershipTransferred(oldOwner, newOwner) */\n  0xffffffffffffffffffffffffffffffffffffffff\n  and\n    /* \"https://github.com/OpenZeppelin/openzeppelin-contracts/blob/v4.8.0/contracts/access/Ownable.sol\":2594:2602  oldOwner */\n  dup2\n    /* \"https://github.com/OpenZeppelin/openzeppelin-contracts/blob/v4.8.0/contracts/access/Ownable.sol\":2573:2613  OwnershipTransferred(oldOwner, newOwner) */\n  0xffffffffffffffffffffffffffffffffffffffff\n  and\n  0x8be0079c531659141344cd1fd0a4f28419497f9722a3daafe3b4186f6b6457e0\n  mload(0x40)\n  mload(0x40)\n  dup1\n  swap2\n  sub\n  swap1\n  log3\n    /* \"https://github.com/OpenZeppelin/openzeppelin-contracts/blob/v4.8.0/contracts/access/Ownable.sol\":2496:2620  {... */\n  pop\n    /* \"https://github.com/OpenZeppelin/openzeppelin-contracts/blob/v4.8.0/contracts/access/Ownable.sol\":2433:2620  function _transferOwnership(address newOwner) internal virtual {... */\n  pop\n  jump\t// out\n    /* \"#utility.yul\":88:205   */\ntag_23:\n    /* \"#utility.yul\":197:198   */\n  0x00\n    /* \"#utility.yul\":194:195   */\n  dup1\n    /* \"#utility.yul\":187:199   */\n  revert\n    /* \"#utility.yul\":334:460   */\ntag_25:\n    /* \"#utility.yul\":371:378   */\n  0x00\n    /* \"#utility.yul\":411:453   */\n  0xffffffffffffffffffffffffffffffffffffffff\n    /* \"#utility.yul\":404:409   */\n  dup3\n    /* \"#utility.yul\":400:454   */\n  and\n    /* \"#utility.yul\":389:454   */\n  swap1\n  pop\n    /* \"#utility.yul\":334:460   */\n  swap2\n  swap1\n  pop\n  jump\t// out\n    /* \"#utility.yul\":466:562   */\ntag_26:\n    /* \"#utility.yul\":503:510   */\n  0x00\n    /* \"#utility.yul\":532:556   */\n  tag_38\n    /* \"#utility.yul\":550:555   */\n  dup3\n    /* \"#utility.yul\":532:556   */\n  tag_25\n  jump\t// in\ntag_38:\n    /* \"#utility.yul\":521:556   */\n  swap1\n  pop\n    /* \"#utility.yul\":466:562   */\n  swap2\n  swap1\n  pop\n  jump\t// out\n    /* \"#utility.yul\":568:690   */\ntag_27:\n    /* \"#utility.yul\":641:665   */\n  tag_40\n    /* \"#utility.yul\":659:664   */\n  dup2\n    /* \"#utility.yul\":641:665   */\n  tag_26\n  jump\t// in\ntag_40:\n    /* \"#utility.yul\":634:639   */\n  dup2\n    /* \"#utility.yul\":631:666   */\n  eq\n    /* \"#utility.yul\":621:684   */\n  tag_41\n  jumpi\n    /* \"#utility.yul\":680:681   */\n  0x00\n    /* \"#utility.yul\":677:678   */\n  dup1\n    /* \"#utility.yul\":670:682   */\n  revert\n    /* \"#utility.yul\":621:684   */\ntag_41:\n    /* \"#utility.yul\":568:690   */\n  pop\n  jump\t// out\n    /* \"#utility.yul\":696:839   */\ntag_28:\n    /* \"#utility.yul\":753:758   */\n  0x00\n    /* \"#utility.yul\":784:790   */\n  dup2\n    /* \"#utility.yul\":778:791   */\n  mload\n    /* \"#utility.yul\":769:791   */\n  swap1\n  pop\n    /* \"#utility.yul\":800:833   */\n  tag_43\n    /* \"#utility.yul\":827:832   */\n  dup2\n    /* \"#utility.yul\":800:833   */\n  tag_27\n  jump\t// in\ntag_43:\n    /* \"#utility.yul\":696:839   */\n  swap3\n  swap2\n  pop\n  pop\n  jump\t// out\n    /* \"#utility.yul\":845:1352   */\ntag_3:\n    /* \"#utility.yul\":924:930   */\n  0x00\n    /* \"#utility.yul\":932:938   */\n  dup1\n    /* \"#utility.yul\":981:983   */\n  0x40\n    /* \"#utility.yul\":969:978   */\n  dup4\n    /* \"#utility.yul\":960:967   */\n  dup6\n    /* \"#utility.yul\":956:979   */\n  sub\n    /* \"#utility.yul\":952:984   */\n  slt\n    /* \"#utility.yul\":949:1068   */\n  iszero\n  tag_45\n  jumpi\n    /* \"#utility.yul\":987:1066   */\n  tag_46\n  tag_23\n  jump\t// in\ntag_46:\n    /* \"#utility.yul\":949:1068   */\ntag_45:\n    /* \"#utility.yul\":1107:1108   */\n  0x00\n    /* \"#utility.yul\":1132:1196   */\n  tag_47\n    /* \"#utility.yul\":1188:1195   */\n  dup6\n    /* \"#utility.yul\":1179:1185   */\n  dup3\n    /* \"#utility.yul\":1168:1177   */\n  dup7\n    /* \"#utility.yul\":1164:1186   */\n  add\n    /* \"#utility.yul\":1132:1196   */\n  tag_28\n  jump\t// in\ntag_47:\n    /* \"#utility.yul\":1122:1196   */\n  swap3\n  pop\n    /* \"#utility.yul\":1078:1206   */\n  pop\n    /* \"#utility.yul\":1245:1247   */\n  0x20\n    /* \"#utility.yul\":1271:1335   */\n  tag_48\n    /* \"#utility.yul\":1327:1334   */\n  dup6\n    /* \"#utility.yul\":1318:1324   */\n  dup3\n    /* \"#utility.yul\":1307:1316   */\n  dup7\n    /* \"#utility.yul\":1303:1325   */\n  add\n    /* \"#utility.yul\":1271:1335   */\n  tag_28\n  jump\t// in\ntag_48:\n    /* \"#utility.yul\":1261:1335   */\n  swap2\n  pop\n    /* \"#utility.yul\":1216:1345   */\n  pop\n    /* \"#utility.yul\":845:1352   */\n  swap3\n  pop\n  swap3\n  swap1\n  pop\n  jump\t// out\n    /* \"#utility.yul\":1358:1527   */\ntag_29:\n    /* \"#utility.yul\":1442:1453   */\n  0x00\n    /* \"#utility.yul\":1476:1482   */\n  dup3\n    /* \"#utility.yul\":1471:1474   */\n  dup3\n    /* \"#utility.yul\":1464:1483   */\n  mstore\n    /* \"#utility.yul\":1516:1520   */\n  0x20\n    /* \"#utility.yul\":1511:1514   */\n  dup3\n    /* \"#utility.yul\":1507:1521   */\n  add\n    /* \"#utility.yul\":1492:1521   */\n  swap1\n  pop\n    /* \"#utility.yul\":1358:1527   */\n  swap3\n  swap2\n  pop\n  pop\n  jump\t// out\n    /* \"#utility.yul\":1533:1706   */\ntag_30:\n    /* \"#utility.yul\":1673:1698   */\n  0x496e76616c696420746f6b656e20616464726573736573000000000000000000\n    /* \"#utility.yul\":1669:1670   */\n  0x00\n    /* \"#utility.yul\":1661:1667   */\n  dup3\n    /* \"#utility.yul\":1657:1671   */\n  add\n    /* \"#utility.yul\":1650:1699   */\n  mstore\n    /* \"#utility.yul\":1533:1706   */\n  pop\n  jump\t// out\n    /* \"#utility.yul\":1712:2078   */\ntag_31:\n    /* \"#utility.yul\":1854:1857   */\n  0x00\n    /* \"#utility.yul\":1875:1942   */\n  tag_52\n    /* \"#utility.yul\":1939:1941   */\n  0x17\n    /* \"#utility.yul\":1934:1937   */\n  dup4\n    /* \"#utility.yul\":1875:1942   */\n  tag_29\n  jump\t// in\ntag_52:\n    /* \"#utility.yul\":1868:1942   */\n  swap2\n  pop\n    /* \"#utility.yul\":1951:2044   */\n  tag_53\n    /* \"#utility.yul\":2040:2043   */\n  dup3\n    /* \"#utility.yul\":1951:2044   */\n  tag_30\n  jump\t// in\ntag_53:\n    /* \"#utility.yul\":2069:2071   */\n  0x20\n    /* \"#utility.yul\":2064:2067   */\n  dup3\n    /* \"#utility.yul\":2060:2072   */\n  add\n    /* \"#utility.yul\":2053:2072   */\n  swap1\n  pop\n    /* \"#utility.yul\":1712:2078   */\n  swap2\n  swap1\n  pop\n  jump\t// out\n    /* \"#utility.yul\":2084:2503   */\ntag_17:\n    /* \"#utility.yul\":2250:2254   */\n  0x00\n    /* \"#utility.yul\":2288:2290   */\n  0x20\n    /* \"#utility.yul\":2277:2286   */\n  dup3\n    /* \"#utility.yul\":2273:2291   */\n  add\n    /* \"#utility.yul\":2265:2291   */\n  swap1\n  pop\n    /* \"#utility.yul\":2337:2346   */\n  dup2\n    /* \"#utility.yul\":2331:2335   */\n  dup2\n    /* \"#utility.yul\":2327:2347   */\n  sub\n    /* \"#utility.yul\":2323:2324   */\n  0x00\n    /* \"#utility.yul\":2312:2321   */\n  dup4\n    /* \"#utility.yul\":2308:2325   */\n  add\n    /* \"#utility.yul\":2301:2348   */\n  mstore\n    /* \"#utility.yul\":2365:2496   */\n  tag_55\n    /* \"#utility.yul\":2491:2495   */\n  dup2\n    /* \"#utility.yul\":2365:2496   */\n  tag_31\n  jump\t// in\ntag_55:\n    /* \"#utility.yul\":2357:2496   */\n  swap1\n  pop\n    /* \"#utility.yul\":2084:2503   */\n  swap2\n  swap1\n  pop\n  jump\t// out\n    /* \"contracts/DEX.sol\":517:5159  contract DEX is Ownable, ReentrancyGuard {... */\ntag_19:\n  dataSize(sub_0)\n  dup1\n  dataOffset(sub_0)\n  0x00\n  codecopy\n  0x00\n  return\nstop\n\nsub_0: assembly {\n        /* \"contracts/DEX.sol\":517:5159  contract DEX is Ownable, ReentrancyGuard {... */\n      mstore(0x40, 0x80)\n      callvalue\n      dup1\n      iszero\n      tag_1\n      jumpi\n      0x00\n      dup1\n      revert\n    tag_1:\n      pop\n      jumpi(tag_2, lt(calldatasize, 0x04))\n      shr(0xe0, calldataload(0x00))\n      dup1\n      0x8da5cb5b\n      gt\n      tag_16\n      jumpi\n      dup1\n      0xb9ffa6a8\n      gt\n      tag_17\n      jumpi\n      dup1\n      0xb9ffa6a8\n      eq\n      tag_12\n      jumpi\n      dup1\n      0xd004f0f7\n      eq\n      tag_13\n      jumpi\n      dup1\n      0xd21220a7\n      eq\n      tag_14\n      jumpi\n      dup1\n      0xf2fde38b\n      eq\n      tag_15\n      jumpi\n      jump(tag_2)\n    tag_17:\n      dup1\n      0x8da5cb5b\n      eq\n      tag_9\n      jumpi\n      dup1\n      0x9cd441da\n      eq\n      tag_10\n      jumpi\n      dup1\n      0x9d7de6b3\n      eq\n      tag_11\n      jumpi\n      jump(tag_2)\n    tag_16:\n      dup1\n      0x0902f1ac\n      eq\n      tag_3\n      jumpi\n      dup1\n      0x25be124e\n      eq\n      tag_4\n      jumpi\n      dup1\n      0x449e815d\n      eq\n      tag_5\n      jumpi\n      dup1\n      0x68a455f1\n      eq\n      tag_6\n      jumpi\n      dup1\n      0x709c50f6\n      eq\n      tag_7\n      jumpi\n      dup1\n      0x715018a6\n      eq\n      tag_8\n      jumpi\n    tag_2:\n      0x00\n      dup1\n      revert\n        /* \"contracts/DEX.sol\":4861:4997  function getReserves() public view returns (uint256 reserve1, uint256 reserve2) {... */\n    tag_3:\n      tag_18\n      tag_19\n      jump\t// in\n    tag_18:\n      mload(0x40)\n      tag_20\n      swap3\n      swap2\n      swap1\n      tag_21\n      jump\t// in\n    tag_20:\n      mload(0x40)\n      dup1\n      swap2\n      sub\n      swap1\n      return\n        /* \"contracts/DEX.sol\":627:647  IERC20 public token2 */\n    tag_4:\n      tag_22\n      tag_23\n      jump\t// in\n    tag_22:\n      mload(0x40)\n      tag_24\n      swap2\n      swap1\n      tag_25\n      jump\t// in\n    tag_24:\n      mload(0x40)\n      dup1\n      swap2\n      sub\n      swap1\n      return\n        /* \"contracts/DEX.sol\":5005:5156  function getPrice(address _tokenIn, uint256 _amountIn) public view returns (uint256) {... */\n    tag_5:\n      tag_26\n      0x04\n      dup1\n      calldatasize\n      sub\n      dup2\n      add\n      swap1\n      tag_27\n      swap2\n      swap1\n      tag_28\n      jump\t// in\n    tag_27:\n      tag_29\n      jump\t// in\n    tag_26:\n      mload(0x40)\n      tag_30\n      swap2\n      swap1\n      tag_31\n      jump\t// in\n    tag_30:\n      mload(0x40)\n      dup1\n      swap2\n      sub\n      swap1\n      return\n        /* \"contracts/DEX.sol\":691:719  uint256 public token2Balance */\n    tag_6:\n      tag_32\n      tag_33\n      jump\t// in\n    tag_32:\n      mload(0x40)\n      tag_34\n      swap2\n      swap1\n      tag_31\n      jump\t// in\n    tag_34:\n      mload(0x40)\n      dup1\n      swap2\n      sub\n      swap1\n      return\n        /* \"contracts/DEX.sol\":4019:4315  function swapWithSlippage(address _tokenIn, uint256 _amountIn, uint256 _minAmountOut) external nonReentrant returns (uint256 amountOut) {... */\n    tag_7:\n      tag_35\n      0x04\n      dup1\n      calldatasize\n      sub\n      dup2\n      add\n      swap1\n      tag_36\n      swap2\n      swap1\n      tag_37\n      jump\t// in\n    tag_36:\n      tag_38\n      jump\t// in\n    tag_35:\n      mload(0x40)\n      tag_39\n      swap2\n      swap1\n      tag_31\n      jump\t// in\n    tag_39:\n      mload(0x40)\n      dup1\n      swap2\n      sub\n      swap1\n      return\n        /* \"https://github.com/OpenZeppelin/openzeppelin-contracts/blob/v4.8.0/contracts/access/Ownable.sol\":1831:1932  function renounceOwnership() public virtual onlyOwner {... */\n    tag_8:\n      tag_40\n      tag_41\n      jump\t// in\n    tag_40:\n      stop\n        /* \"https://github.com/OpenZeppelin/openzeppelin-contracts/blob/v4.8.0/contracts/access/Ownable.sol\":1201:1286  function owner() public view virtual returns (address) {... */\n    tag_9:\n      tag_42\n      tag_43\n      jump\t// in\n    tag_42:\n      mload(0x40)\n      tag_44\n      swap2\n      swap1\n      tag_45\n      jump\t// in\n    tag_44:\n      mload(0x40)\n      dup1\n      swap2\n      sub\n      swap1\n      return\n        /* \"contracts/DEX.sol\":1313:2397  function addLiquidity(uint256 _token1Amount, uint256 _token2Amount) external nonReentrant {... */\n    tag_10:\n      tag_46\n      0x04\n      dup1\n      calldatasize\n      sub\n      dup2\n      add\n      swap1\n      tag_47\n      swap2\n      swap1\n      tag_48\n      jump\t// in\n    tag_47:\n      tag_49\n      jump\t// in\n    tag_46:\n      stop\n        /* \"contracts/DEX.sol\":2405:2985  function removeLiquidity(uint256 _token1Amount, uint256 _token2Amount) external onlyOwner nonReentrant {... */\n    tag_11:\n      tag_50\n      0x04\n      dup1\n      calldatasize\n      sub\n      dup2\n      add\n      swap1\n      tag_51\n      swap2\n      swap1\n      tag_48\n      jump\t// in\n    tag_51:\n      tag_52\n      jump\t// in\n    tag_50:\n      stop\n        /* \"contracts/DEX.sol\":656:684  uint256 public token1Balance */\n    tag_12:\n      tag_53\n      tag_54\n      jump\t// in\n    tag_53:\n      mload(0x40)\n      tag_55\n      swap2\n      swap1\n      tag_31\n      jump\t// in\n    tag_55:\n      mload(0x40)\n      dup1\n      swap2\n      sub\n      swap1\n      return\n        /* \"contracts/DEX.sol\":2993:4011  function swap(address _tokenIn, uint256 _amountIn) public nonReentrant returns (uint256 amountOut) {... */\n    tag_13:\n      tag_56\n      0x04\n      dup1\n      calldatasize\n      sub\n      dup2\n      add\n      swap1\n      tag_57\n      swap2\n      swap1\n      tag_28\n      jump\t// in\n    tag_57:\n      tag_58\n      jump\t// in\n    tag_56:\n      mload(0x40)\n      tag_59\n      swap2\n      swap1\n      tag_31\n      jump\t// in\n    tag_59:\n      mload(0x40)\n      dup1\n      swap2\n      sub\n      swap1\n      return\n        /* \"contracts/DEX.sol\":600:620  IERC20 public token1 */\n    tag_14:\n      tag_60\n      tag_61\n      jump\t// in\n    tag_60:\n      mload(0x40)\n      tag_62\n      swap2\n      swap1\n      tag_25\n      jump\t// in\n    tag_62:\n      mload(0x40)\n      dup1\n      swap2\n      sub\n      swap1\n      return\n        /* \"https://github.com/OpenZeppelin/openzeppelin-contracts/blob/v4.8.0/contracts/access/Ownable.sol\":2081:2279  function transferOwnership(address newOwner) public virtual onlyOwner {... */\n    tag_15:\n      tag_63\n      0x04\n      dup1\n      calldatasize\n      sub\n      dup2\n      add\n      swap1\n      tag_64\n      swap2\n      swap1\n      tag_65\n      jump\t// in\n    tag_64:\n      tag_66\n      jump\t// in\n    tag_63:\n      stop\n        /* \"contracts/DEX.sol\":4861:4997  function getReserves() public view returns (uint256 reserve1, uint256 reserve2) {... */\n    tag_19:\n        /* \"contracts/DEX.sol\":4905:4921  uint256 reserve1 */\n      0x00\n        /* \"contracts/DEX.sol\":4923:4939  uint256 reserve2 */\n      dup1\n        /* \"contracts/DEX.sol\":4960:4973  token1Balance */\n      sload(0x04)\n        /* \"contracts/DEX.sol\":4975:4988  token2Balance */\n      sload(0x05)\n        /* \"contracts/DEX.sol\":4952:4989  return (token1Balance, token2Balance) */\n      swap2\n      pop\n      swap2\n      pop\n        /* \"contracts/DEX.sol\":4861:4997  function getReserves() public view returns (uint256 reserve1, uint256 reserve2) {... */\n      swap1\n      swap2\n      jump\t// out\n        /* \"contracts/DEX.sol\":627:647  IERC20 public token2 */\n    tag_23:\n      0x03\n      0x00\n      swap1\n      sload\n      swap1\n      0x0100\n      exp\n      swap1\n      div\n      0xffffffffffffffffffffffffffffffffffffffff\n      and\n      dup2\n      jump\t// out\n        /* \"contracts/DEX.sol\":5005:5156  function getPrice(address _tokenIn, uint256 _amountIn) public view returns (uint256) {... */\n    tag_29:\n        /* \"contracts/DEX.sol\":5081:5088  uint256 */\n      0x00\n        /* \"contracts/DEX.sol\":5108:5148  calculateSwapOutput(_tokenIn, _amountIn) */\n      tag_69\n        /* \"contracts/DEX.sol\":5128:5136  _tokenIn */\n      dup4\n        /* \"contracts/DEX.sol\":5138:5147  _amountIn */\n      dup4\n        /* \"contracts/DEX.sol\":5108:5127  calculateSwapOutput */\n      tag_70\n        /* \"contracts/DEX.sol\":5108:5148  calculateSwapOutput(_tokenIn, _amountIn) */\n      jump\t// in\n    tag_69:\n        /* \"contracts/DEX.sol\":5101:5148  return calculateSwapOutput(_tokenIn, _amountIn) */\n      swap1\n      pop\n        /* \"contracts/DEX.sol\":5005:5156  function getPrice(address _tokenIn, uint256 _amountIn) public view returns (uint256) {... */\n      swap3\n      swap2\n      pop\n      pop\n      jump\t// out\n        /* \"contracts/DEX.sol\":691:719  uint256 public token2Balance */\n    tag_33:\n      sload(0x05)\n      dup2\n      jump\t// out\n        /* \"contracts/DEX.sol\":4019:4315  function swapWithSlippage(address _tokenIn, uint256 _amountIn, uint256 _minAmountOut) external nonReentrant returns (uint256 amountOut) {... */\n    tag_38:\n        /* \"contracts/DEX.sol\":4136:4153  uint256 amountOut */\n      0x00\n        /* \"https://github.com/OpenZeppelin/openzeppelin-contracts/blob/v4.8.0/contracts/security/ReentrancyGuard.sol\":2261:2282  _nonReentrantBefore() */\n      tag_72\n        /* \"https://github.com/OpenZeppelin/openzeppelin-contracts/blob/v4.8.0/contracts/security/ReentrancyGuard.sol\":2261:2280  _nonReentrantBefore */\n      tag_73\n        /* \"https://github.com/OpenZeppelin/openzeppelin-contracts/blob/v4.8.0/contracts/security/ReentrancyGuard.sol\":2261:2282  _nonReentrantBefore() */\n      jump\t// in\n    tag_72:\n        /* \"contracts/DEX.sol\":4178:4203  swap(_tokenIn, _amountIn) */\n      tag_75\n        /* \"contracts/DEX.sol\":4183:4191  _tokenIn */\n      dup5\n        /* \"contracts/DEX.sol\":4193:4202  _amountIn */\n      dup5\n        /* \"contracts/DEX.sol\":4178:4182  swap */\n      tag_58\n        /* \"contracts/DEX.sol\":4178:4203  swap(_tokenIn, _amountIn) */\n      jump\t// in\n    tag_75:\n        /* \"contracts/DEX.sol\":4166:4203  amountOut = swap(_tokenIn, _amountIn) */\n      swap1\n      pop\n        /* \"contracts/DEX.sol\":4235:4248  _minAmountOut */\n      dup2\n        /* \"contracts/DEX.sol\":4222:4231  amountOut */\n      dup2\n        /* \"contracts/DEX.sol\":4222:4248  amountOut >= _minAmountOut */\n      lt\n      iszero\n        /* \"contracts/DEX.sol\":4214:4280  require(amountOut >= _minAmountOut, \"Slippage tolerance exceeded\") */\n      tag_76\n      jumpi\n      mload(0x40)\n      0x08c379a000000000000000000000000000000000000000000000000000000000\n      dup2\n      mstore\n      0x04\n      add\n      tag_77\n      swap1\n      tag_78\n      jump\t// in\n    tag_77:\n      mload(0x40)\n      dup1\n      swap2\n      sub\n      swap1\n      revert\n    tag_76:\n        /* \"https://github.com/OpenZeppelin/openzeppelin-contracts/blob/v4.8.0/contracts/security/ReentrancyGuard.sol\":2303:2323  _nonReentrantAfter() */\n      tag_79\n        /* \"https://github.com/OpenZeppelin/openzeppelin-contracts/blob/v4.8.0/contracts/security/ReentrancyGuard.sol\":2303:2321  _nonReentrantAfter */\n      tag_80\n        /* \"https://github.com/OpenZeppelin/openzeppelin-contracts/blob/v4.8.0/contracts/security/ReentrancyGuard.sol\":2303:2323  _nonReentrantAfter() */\n      jump\t// in\n    tag_79:\n        /* \"contracts/DEX.sol\":4019:4315  function swapWithSlippage(address _tokenIn, uint256 _amountIn, uint256 _minAmountOut) external nonReentrant returns (uint256 amountOut) {... */\n      swap4\n      swap3\n      pop\n      pop\n      pop\n      jump\t// out\n        /* \"https://github.com/OpenZeppelin/openzeppelin-contracts/blob/v4.8.0/contracts/access/Ownable.sol\":1831:1932  function renounceOwnership() public virtual onlyOwner {... */\n    tag_41:\n        /* \"https://github.com/OpenZeppelin/openzeppelin-contracts/blob/v4.8.0/contracts/access/Ownable.sol\":1094:1107  _checkOwner() */\n      tag_82\n        /* \"https://github.com/OpenZeppelin/openzeppelin-contracts/blob/v4.8.0/contracts/access/Ownable.sol\":1094:1105  _checkOwner */\n      tag_83\n        /* \"https://github.com/OpenZeppelin/openzeppelin-contracts/blob/v4.8.0/contracts/access/Ownable.sol\":1094:1107  _checkOwner() */\n      jump\t// in\n    tag_82:\n        /* \"https://github.com/OpenZeppelin/openzeppelin-contracts/blob/v4.8.0/contracts/access/Ownable.sol\":1895:1925  _transferOwnership(address(0)) */\n      tag_85\n        /* \"https://github.com/OpenZeppelin/openzeppelin-contracts/blob/v4.8.0/contracts/access/Ownable.sol\":1922:1923  0 */\n      0x00\n        /* \"https://github.com/OpenZeppelin/openzeppelin-contracts/blob/v4.8.0/contracts/access/Ownable.sol\":1895:1913  _transferOwnership */\n      tag_86\n        /* \"https://github.com/OpenZeppelin/openzeppelin-contracts/blob/v4.8.0/contracts/access/Ownable.sol\":1895:1925  _transferOwnership(address(0)) */\n      jump\t// in\n    tag_85:\n        /* \"https://github.com/OpenZeppelin/openzeppelin-contracts/blob/v4.8.0/contracts/access/Ownable.sol\":1831:1932  function renounceOwnership() public virtual onlyOwner {... */\n      jump\t// out\n        /* \"https://github.com/OpenZeppelin/openzeppelin-contracts/blob/v4.8.0/contracts/access/Ownable.sol\":1201:1286  function owner() public view virtual returns (address) {... */\n    tag_43:\n        /* \"https://github.com/OpenZeppelin/openzeppelin-contracts/blob/v4.8.0/contracts/access/Ownable.sol\":1247:1254  address */\n      0x00\n        /* \"https://github.com/OpenZeppelin/openzeppelin-contracts/blob/v4.8.0/contracts/access/Ownable.sol\":1273:1279  _owner */\n      dup1\n      0x00\n      swap1\n      sload\n      swap1\n      0x0100\n      exp\n      swap1\n      div\n      0xffffffffffffffffffffffffffffffffffffffff\n      and\n        /* \"https://github.com/OpenZeppelin/openzeppelin-contracts/blob/v4.8.0/contracts/access/Ownable.sol\":1266:1279  return _owner */\n      swap1\n      pop\n        /* \"https://github.com/OpenZeppelin/openzeppelin-contracts/blob/v4.8.0/contracts/access/Ownable.sol\":1201:1286  function owner() public view virtual returns (address) {... */\n      swap1\n      jump\t// out\n        /* \"contracts/DEX.sol\":1313:2397  function addLiquidity(uint256 _token1Amount, uint256 _token2Amount) external nonReentrant {... */\n    tag_49:\n        /* \"https://github.com/OpenZeppelin/openzeppelin-contracts/blob/v4.8.0/contracts/security/ReentrancyGuard.sol\":2261:2282  _nonReentrantBefore() */\n      tag_89\n        /* \"https://github.com/OpenZeppelin/openzeppelin-contracts/blob/v4.8.0/contracts/security/ReentrancyGuard.sol\":2261:2280  _nonReentrantBefore */\n      tag_73\n        /* \"https://github.com/OpenZeppelin/openzeppelin-contracts/blob/v4.8.0/contracts/security/ReentrancyGuard.sol\":2261:2282  _nonReentrantBefore() */\n      jump\t// in\n    tag_89:\n        /* \"contracts/DEX.sol\":1438:1439  0 */\n      0x00\n        /* \"contracts/DEX.sol\":1422:1435  _token1Amount */\n      dup3\n        /* \"contracts/DEX.sol\":1422:1439  _token1Amount > 0 */\n      gt\n        /* \"contracts/DEX.sol\":1422:1460  _token1Amount > 0 && _token2Amount > 0 */\n      dup1\n      iszero\n      tag_91\n      jumpi\n      pop\n        /* \"contracts/DEX.sol\":1459:1460  0 */\n      0x00\n        /* \"contracts/DEX.sol\":1443:1456  _token2Amount */\n      dup2\n        /* \"contracts/DEX.sol\":1443:1460  _token2Amount > 0 */\n      gt\n        /* \"contracts/DEX.sol\":1422:1460  _token1Amount > 0 && _token2Amount > 0 */\n    tag_91:\n        /* \"contracts/DEX.sol\":1414:1495  require(_token1Amount > 0 && _token2Amount > 0, \"Amounts must be greater than 0\") */\n      tag_92\n      jumpi\n      mload(0x40)\n      0x08c379a000000000000000000000000000000000000000000000000000000000\n      dup2\n      mstore\n      0x04\n      add\n      tag_93\n      swap1\n      tag_94\n      jump\t// in\n    tag_93:\n      mload(0x40)\n      dup1\n      swap2\n      sub\n      swap1\n      revert\n    tag_92:\n        /* \"contracts/DEX.sol\":1508:1526  uint256 allowance1 */\n      0x00\n        /* \"contracts/DEX.sol\":1529:1535  token1 */\n      0x02\n      0x00\n      swap1\n      sload\n      swap1\n      0x0100\n      exp\n      swap1\n      div\n      0xffffffffffffffffffffffffffffffffffffffff\n      and\n        /* \"contracts/DEX.sol\":1529:1545  token1.allowance */\n      0xffffffffffffffffffffffffffffffffffffffff\n      and\n      0xdd62ed3e\n        /* \"contracts/DEX.sol\":1546:1556  msg.sender */\n      caller\n        /* \"contracts/DEX.sol\":1566:1570  this */\n      address\n        /* \"contracts/DEX.sol\":1529:1572  token1.allowance(msg.sender, address(this)) */\n      mload(0x40)\n      dup4\n      0xffffffff\n      and\n      0xe0\n      shl\n      dup2\n      mstore\n      0x04\n      add\n      tag_95\n      swap3\n      swap2\n      swap1\n      tag_96\n      jump\t// in\n    tag_95:\n      0x20\n      mload(0x40)\n      dup1\n      dup4\n      sub\n      dup2\n      dup7\n      gas\n      staticcall\n      iszero\n      dup1\n      iszero\n      tag_98\n      jumpi\n      returndatasize\n      0x00\n      dup1\n      returndatacopy\n      revert(0x00, returndatasize)\n    tag_98:\n      pop\n      pop\n      pop\n      pop\n      mload(0x40)\n      returndatasize\n      not(0x1f)\n      0x1f\n      dup3\n      add\n      and\n      dup3\n      add\n      dup1\n      0x40\n      mstore\n      pop\n      dup2\n      add\n      swap1\n      tag_99\n      swap2\n      swap1\n      tag_100\n      jump\t// in\n    tag_99:\n        /* \"contracts/DEX.sol\":1508:1572  uint256 allowance1 = token1.allowance(msg.sender, address(this)) */\n      swap1\n      pop\n        /* \"contracts/DEX.sol\":1583:1601  uint256 allowance2 */\n      0x00\n        /* \"contracts/DEX.sol\":1604:1610  token2 */\n      0x03\n      0x00\n      swap1\n      sload\n      swap1\n      0x0100\n      exp\n      swap1\n      div\n      0xffffffffffffffffffffffffffffffffffffffff\n      and\n        /* \"contracts/DEX.sol\":1604:1620  token2.allowance */\n      0xffffffffffffffffffffffffffffffffffffffff\n      and\n      0xdd62ed3e\n        /* \"contracts/DEX.sol\":1621:1631  msg.sender */\n      caller\n        /* \"contracts/DEX.sol\":1641:1645  this */\n      address\n        /* \"contracts/DEX.sol\":1604:1647  token2.allowance(msg.sender, address(this)) */\n      mload(0x40)\n      dup4\n      0xffffffff\n      and\n      0xe0\n      shl\n      dup2\n      mstore\n      0x04\n      add\n      tag_101\n      swap3\n      swap2\n      swap1\n      tag_96\n      jump\t// in\n    tag_101:\n      0x20\n      mload(0x40)\n      dup1\n      dup4\n      sub\n      dup2\n      dup7\n      gas\n      staticcall\n      iszero\n      dup1\n      iszero\n      tag_103\n      jumpi\n      returndatasize\n      0x00\n      dup1\n      returndatacopy\n      revert(0x00, returndatasize)\n    tag_103:\n      pop\n      pop\n      pop\n      pop\n      mload(0x40)\n      returndatasize\n      not(0x1f)\n      0x1f\n      dup3\n      add\n      and\n      dup3\n      add\n      dup1\n      0x40\n      mstore\n      pop\n      dup2\n      add\n      swap1\n      tag_104\n      swap2\n      swap1\n      tag_100\n      jump\t// in\n    tag_104:\n        /* \"contracts/DEX.sol\":1583:1647  uint256 allowance2 = token2.allowance(msg.sender, address(this)) */\n      swap1\n      pop\n        /* \"contracts/DEX.sol\":1680:1693  _token1Amount */\n      dup4\n        /* \"contracts/DEX.sol\":1666:1676  allowance1 */\n      dup3\n        /* \"contracts/DEX.sol\":1666:1693  allowance1 >= _token1Amount */\n      lt\n      iszero\n        /* \"contracts/DEX.sol\":1658:1727  require(allowance1 >= _token1Amount, \"Insufficient token1 allowance\") */\n      tag_105\n      jumpi\n      mload(0x40)\n      0x08c379a000000000000000000000000000000000000000000000000000000000\n      dup2\n      mstore\n      0x04\n      add\n      tag_106\n      swap1\n      tag_107\n      jump\t// in\n    tag_106:\n      mload(0x40)\n      dup1\n      swap2\n      sub\n      swap1\n      revert\n    tag_105:\n        /* \"contracts/DEX.sol\":1760:1773  _token2Amount */\n      dup3\n        /* \"contracts/DEX.sol\":1746:1756  allowance2 */\n      dup2\n        /* \"contracts/DEX.sol\":1746:1773  allowance2 >= _token2Amount */\n      lt\n      iszero\n        /* \"contracts/DEX.sol\":1738:1807  require(allowance2 >= _token2Amount, \"Insufficient token2 allowance\") */\n      tag_108\n      jumpi\n      mload(0x40)\n      0x08c379a000000000000000000000000000000000000000000000000000000000\n      dup2\n      mstore\n      0x04\n      add\n      tag_109\n      swap1\n      tag_110\n      jump\t// in\n    tag_109:\n      mload(0x40)\n      dup1\n      swap2\n      sub\n      swap1\n      revert\n    tag_108:\n        /* \"contracts/DEX.sol\":1820:1836  uint256 balance1 */\n      0x00\n        /* \"contracts/DEX.sol\":1839:1845  token1 */\n      0x02\n      0x00\n      swap1\n      sload\n      swap1\n      0x0100\n      exp\n      swap1\n      div\n      0xffffffffffffffffffffffffffffffffffffffff\n      and\n        /* \"contracts/DEX.sol\":1839:1855  token1.balanceOf */\n      0xffffffffffffffffffffffffffffffffffffffff\n      and\n      0x70a08231\n        /* \"contracts/DEX.sol\":1856:1866  msg.sender */\n      caller\n        /* \"contracts/DEX.sol\":1839:1867  token1.balanceOf(msg.sender) */\n      mload(0x40)\n      dup3\n      0xffffffff\n      and\n      0xe0\n      shl\n      dup2\n      mstore\n      0x04\n      add\n      tag_111\n      swap2\n      swap1\n      tag_45\n      jump\t// in\n    tag_111:\n      0x20\n      mload(0x40)\n      dup1\n      dup4\n      sub\n      dup2\n      dup7\n      gas\n      staticcall\n      iszero\n      dup1\n      iszero\n      tag_113\n      jumpi\n      returndatasize\n      0x00\n      dup1\n      returndatacopy\n      revert(0x00, returndatasize)\n    tag_113:\n      pop\n      pop\n      pop\n      pop\n      mload(0x40)\n      returndatasize\n      not(0x1f)\n      0x1f\n      dup3\n      add\n      and\n      dup3\n      add\n      dup1\n      0x40\n      mstore\n      pop\n      dup2\n      add\n      swap1\n      tag_114\n      swap2\n      swap1\n      tag_100\n      jump\t// in\n    tag_114:\n        /* \"contracts/DEX.sol\":1820:1867  uint256 balance1 = token1.balanceOf(msg.sender) */\n      swap1\n      pop\n        /* \"contracts/DEX.sol\":1878:1894  uint256 balance2 */\n      0x00\n        /* \"contracts/DEX.sol\":1897:1903  token2 */\n      0x03\n      0x00\n      swap1\n      sload\n      swap1\n      0x0100\n      exp\n      swap1\n      div\n      0xffffffffffffffffffffffffffffffffffffffff\n      and\n        /* \"contracts/DEX.sol\":1897:1913  token2.balanceOf */\n      0xffffffffffffffffffffffffffffffffffffffff\n      and\n      0x70a08231\n        /* \"contracts/DEX.sol\":1914:1924  msg.sender */\n      caller\n        /* \"contracts/DEX.sol\":1897:1925  token2.balanceOf(msg.sender) */\n      mload(0x40)\n      dup3\n      0xffffffff\n      and\n      0xe0\n      shl\n      dup2\n      mstore\n      0x04\n      add\n      tag_115\n      swap2\n      swap1\n      tag_45\n      jump\t// in\n    tag_115:\n      0x20\n      mload(0x40)\n      dup1\n      dup4\n      sub\n      dup2\n      dup7\n      gas\n      staticcall\n      iszero\n      dup1\n      iszero\n      tag_117\n      jumpi\n      returndatasize\n      0x00\n      dup1\n      returndatacopy\n      revert(0x00, returndatasize)\n    tag_117:\n      pop\n      pop\n      pop\n      pop\n      mload(0x40)\n      returndatasize\n      not(0x1f)\n      0x1f\n      dup3\n      add\n      and\n      dup3\n      add\n      dup1\n      0x40\n      mstore\n      pop\n      dup2\n      add\n      swap1\n      tag_118\n      swap2\n      swap1\n      tag_100\n      jump\t// in\n    tag_118:\n        /* \"contracts/DEX.sol\":1878:1925  uint256 balance2 = token2.balanceOf(msg.sender) */\n      swap1\n      pop\n        /* \"contracts/DEX.sol\":1956:1969  _token1Amount */\n      dup6\n        /* \"contracts/DEX.sol\":1944:1952  balance1 */\n      dup3\n        /* \"contracts/DEX.sol\":1944:1969  balance1 >= _token1Amount */\n      lt\n      iszero\n        /* \"contracts/DEX.sol\":1936:2001  require(balance1 >= _token1Amount, \"Insufficient token1 balance\") */\n      tag_119\n      jumpi\n      mload(0x40)\n      0x08c379a000000000000000000000000000000000000000000000000000000000\n      dup2\n      mstore\n      0x04\n      add\n      tag_120\n      swap1\n      tag_121\n      jump\t// in\n    tag_120:\n      mload(0x40)\n      dup1\n      swap2\n      sub\n      swap1\n      revert\n    tag_119:\n        /* \"contracts/DEX.sol\":2032:2045  _token2Amount */\n      dup5\n        /* \"contracts/DEX.sol\":2020:2028  balance2 */\n      dup2\n        /* \"contracts/DEX.sol\":2020:2045  balance2 >= _token2Amount */\n      lt\n      iszero\n        /* \"contracts/DEX.sol\":2012:2077  require(balance2 >= _token2Amount, \"Insufficient token2 balance\") */\n      tag_122\n      jumpi\n      mload(0x40)\n      0x08c379a000000000000000000000000000000000000000000000000000000000\n      dup2\n      mstore\n      0x04\n      add\n      tag_123\n      swap1\n      tag_124\n      jump\t// in\n    tag_123:\n      mload(0x40)\n      dup1\n      swap2\n      sub\n      swap1\n      revert\n    tag_122:\n        /* \"contracts/DEX.sol\":2090:2155  token1.safeTransferFrom(msg.sender, address(this), _token1Amount) */\n      tag_125\n        /* \"contracts/DEX.sol\":2114:2124  msg.sender */\n      caller\n        /* \"contracts/DEX.sol\":2134:2138  this */\n      address\n        /* \"contracts/DEX.sol\":2141:2154  _token1Amount */\n      dup9\n        /* \"contracts/DEX.sol\":2090:2096  token1 */\n      0x02\n      0x00\n      swap1\n      sload\n      swap1\n      0x0100\n      exp\n      swap1\n      div\n      0xffffffffffffffffffffffffffffffffffffffff\n      and\n        /* \"contracts/DEX.sol\":2090:2113  token1.safeTransferFrom */\n      0xffffffffffffffffffffffffffffffffffffffff\n      and\n      tag_126\n      swap1\n        /* \"contracts/DEX.sol\":2090:2155  token1.safeTransferFrom(msg.sender, address(this), _token1Amount) */\n      swap4\n      swap3\n      swap2\n      swap1\n      0xffffffff\n      and\n      jump\t// in\n    tag_125:\n        /* \"contracts/DEX.sol\":2166:2231  token2.safeTransferFrom(msg.sender, address(this), _token2Amount) */\n      tag_127\n        /* \"contracts/DEX.sol\":2190:2200  msg.sender */\n      caller\n        /* \"contracts/DEX.sol\":2210:2214  this */\n      address\n        /* \"contracts/DEX.sol\":2217:2230  _token2Amount */\n      dup8\n        /* \"contracts/DEX.sol\":2166:2172  token2 */\n      0x03\n      0x00\n      swap1\n      sload\n      swap1\n      0x0100\n      exp\n      swap1\n      div\n      0xffffffffffffffffffffffffffffffffffffffff\n      and\n        /* \"contracts/DEX.sol\":2166:2189  token2.safeTransferFrom */\n      0xffffffffffffffffffffffffffffffffffffffff\n      and\n      tag_126\n      swap1\n        /* \"contracts/DEX.sol\":2166:2231  token2.safeTransferFrom(msg.sender, address(this), _token2Amount) */\n      swap4\n      swap3\n      swap2\n      swap1\n      0xffffffff\n      and\n      jump\t// in\n    tag_127:\n        /* \"contracts/DEX.sol\":2261:2274  _token1Amount */\n      dup6\n        /* \"contracts/DEX.sol\":2244:2257  token1Balance */\n      0x04\n      0x00\n        /* \"contracts/DEX.sol\":2244:2274  token1Balance += _token1Amount */\n      dup3\n      dup3\n      sload\n      tag_128\n      swap2\n      swap1\n      tag_129\n      jump\t// in\n    tag_128:\n      swap3\n      pop\n      pop\n      dup2\n      swap1\n      sstore\n      pop\n        /* \"contracts/DEX.sol\":2302:2315  _token2Amount */\n      dup5\n        /* \"contracts/DEX.sol\":2285:2298  token2Balance */\n      0x05\n      0x00\n        /* \"contracts/DEX.sol\":2285:2315  token2Balance += _token2Amount */\n      dup3\n      dup3\n      sload\n      tag_130\n      swap2\n      swap1\n      tag_129\n      jump\t// in\n    tag_130:\n      swap3\n      pop\n      pop\n      dup2\n      swap1\n      sstore\n      pop\n        /* \"contracts/DEX.sol\":2348:2358  msg.sender */\n      caller\n        /* \"contracts/DEX.sol\":2333:2389  LiquidityAdded(msg.sender, _token1Amount, _token2Amount) */\n      0xffffffffffffffffffffffffffffffffffffffff\n      and\n      0xac1d76749e5447b7b16f5ab61447e1bd502f3bb4807af3b28e620d1700a6ee45\n        /* \"contracts/DEX.sol\":2360:2373  _token1Amount */\n      dup8\n        /* \"contracts/DEX.sol\":2375:2388  _token2Amount */\n      dup8\n        /* \"contracts/DEX.sol\":2333:2389  LiquidityAdded(msg.sender, _token1Amount, _token2Amount) */\n      mload(0x40)\n      tag_131\n      swap3\n      swap2\n      swap1\n      tag_21\n      jump\t// in\n    tag_131:\n      mload(0x40)\n      dup1\n      swap2\n      sub\n      swap1\n      log2\n        /* \"contracts/DEX.sol\":1403:2397  {... */\n      pop\n      pop\n      pop\n      pop\n        /* \"https://github.com/OpenZeppelin/openzeppelin-contracts/blob/v4.8.0/contracts/security/ReentrancyGuard.sol\":2303:2323  _nonReentrantAfter() */\n      tag_132\n        /* \"https://github.com/OpenZeppelin/openzeppelin-contracts/blob/v4.8.0/contracts/security/ReentrancyGuard.sol\":2303:2321  _nonReentrantAfter */\n      tag_80\n        /* \"https://github.com/OpenZeppelin/openzeppelin-contracts/blob/v4.8.0/contracts/security/ReentrancyGuard.sol\":2303:2323  _nonReentrantAfter() */\n      jump\t// in\n    tag_132:\n        /* \"contracts/DEX.sol\":1313:2397  function addLiquidity(uint256 _token1Amount, uint256 _token2Amount) external nonReentrant {... */\n      pop\n      pop\n      jump\t// out\n        /* \"contracts/DEX.sol\":2405:2985  function removeLiquidity(uint256 _token1Amount, uint256 _token2Amount) external onlyOwner nonReentrant {... */\n    tag_52:\n        /* \"https://github.com/OpenZeppelin/openzeppelin-contracts/blob/v4.8.0/contracts/access/Ownable.sol\":1094:1107  _checkOwner() */\n      tag_134\n        /* \"https://github.com/OpenZeppelin/openzeppelin-contracts/blob/v4.8.0/contracts/access/Ownable.sol\":1094:1105  _checkOwner */\n      tag_83\n        /* \"https://github.com/OpenZeppelin/openzeppelin-contracts/blob/v4.8.0/contracts/access/Ownable.sol\":1094:1107  _checkOwner() */\n      jump\t// in\n    tag_134:\n        /* \"https://github.com/OpenZeppelin/openzeppelin-contracts/blob/v4.8.0/contracts/security/ReentrancyGuard.sol\":2261:2282  _nonReentrantBefore() */\n      tag_136\n        /* \"https://github.com/OpenZeppelin/openzeppelin-contracts/blob/v4.8.0/contracts/security/ReentrancyGuard.sol\":2261:2280  _nonReentrantBefore */\n      tag_73\n        /* \"https://github.com/OpenZeppelin/openzeppelin-contracts/blob/v4.8.0/contracts/security/ReentrancyGuard.sol\":2261:2282  _nonReentrantBefore() */\n      jump\t// in\n    tag_136:\n        /* \"contracts/DEX.sol\":2543:2544  0 */\n      0x00\n        /* \"contracts/DEX.sol\":2527:2540  _token1Amount */\n      dup3\n        /* \"contracts/DEX.sol\":2527:2544  _token1Amount > 0 */\n      gt\n        /* \"contracts/DEX.sol\":2527:2565  _token1Amount > 0 && _token2Amount > 0 */\n      dup1\n      iszero\n      tag_138\n      jumpi\n      pop\n        /* \"contracts/DEX.sol\":2564:2565  0 */\n      0x00\n        /* \"contracts/DEX.sol\":2548:2561  _token2Amount */\n      dup2\n        /* \"contracts/DEX.sol\":2548:2565  _token2Amount > 0 */\n      gt\n        /* \"contracts/DEX.sol\":2527:2565  _token1Amount > 0 && _token2Amount > 0 */\n    tag_138:\n        /* \"contracts/DEX.sol\":2519:2600  require(_token1Amount > 0 && _token2Amount > 0, \"Amounts must be greater than 0\") */\n      tag_139\n      jumpi\n      mload(0x40)\n      0x08c379a000000000000000000000000000000000000000000000000000000000\n      dup2\n      mstore\n      0x04\n      add\n      tag_140\n      swap1\n      tag_94\n      jump\t// in\n    tag_140:\n      mload(0x40)\n      dup1\n      swap2\n      sub\n      swap1\n      revert\n    tag_139:\n        /* \"contracts/DEX.sol\":2636:2649  _token1Amount */\n      dup2\n        /* \"contracts/DEX.sol\":2619:2632  token1Balance */\n      sload(0x04)\n        /* \"contracts/DEX.sol\":2619:2649  token1Balance >= _token1Amount */\n      lt\n      iszero\n        /* \"contracts/DEX.sol\":2619:2683  token1Balance >= _token1Amount && token2Balance >= _token2Amount */\n      dup1\n      iszero\n      tag_141\n      jumpi\n      pop\n        /* \"contracts/DEX.sol\":2670:2683  _token2Amount */\n      dup1\n        /* \"contracts/DEX.sol\":2653:2666  token2Balance */\n      sload(0x05)\n        /* \"contracts/DEX.sol\":2653:2683  token2Balance >= _token2Amount */\n      lt\n      iszero\n        /* \"contracts/DEX.sol\":2619:2683  token1Balance >= _token1Amount && token2Balance >= _token2Amount */\n    tag_141:\n        /* \"contracts/DEX.sol\":2611:2710  require(token1Balance >= _token1Amount && token2Balance >= _token2Amount, \"Insufficient liquidity\") */\n      tag_142\n      jumpi\n      mload(0x40)\n      0x08c379a000000000000000000000000000000000000000000000000000000000\n      dup2\n      mstore\n      0x04\n      add\n      tag_143\n      swap1\n      tag_144\n      jump\t// in\n    tag_143:\n      mload(0x40)\n      dup1\n      swap2\n      sub\n      swap1\n      revert\n    tag_142:\n        /* \"contracts/DEX.sol\":2740:2753  _token1Amount */\n      dup2\n        /* \"contracts/DEX.sol\":2723:2736  token1Balance */\n      0x04\n      0x00\n        /* \"contracts/DEX.sol\":2723:2753  token1Balance -= _token1Amount */\n      dup3\n      dup3\n      sload\n      tag_145\n      swap2\n      swap1\n      tag_146\n      jump\t// in\n    tag_145:\n      swap3\n      pop\n      pop\n      dup2\n      swap1\n      sstore\n      pop\n        /* \"contracts/DEX.sol\":2781:2794  _token2Amount */\n      dup1\n        /* \"contracts/DEX.sol\":2764:2777  token2Balance */\n      0x05\n      0x00\n        /* \"contracts/DEX.sol\":2764:2794  token2Balance -= _token2Amount */\n      dup3\n      dup3\n      sload\n      tag_147\n      swap2\n      swap1\n      tag_146\n      jump\t// in\n    tag_147:\n      swap3\n      pop\n      pop\n      dup2\n      swap1\n      sstore\n      pop\n        /* \"contracts/DEX.sol\":2807:2850  token1.safeTransfer(owner(), _token1Amount) */\n      tag_148\n        /* \"contracts/DEX.sol\":2827:2834  owner() */\n      tag_149\n        /* \"contracts/DEX.sol\":2827:2832  owner */\n      tag_43\n        /* \"contracts/DEX.sol\":2827:2834  owner() */\n      jump\t// in\n    tag_149:\n        /* \"contracts/DEX.sol\":2836:2849  _token1Amount */\n      dup4\n        /* \"contracts/DEX.sol\":2807:2813  token1 */\n      0x02\n      0x00\n      swap1\n      sload\n      swap1\n      0x0100\n      exp\n      swap1\n      div\n      0xffffffffffffffffffffffffffffffffffffffff\n      and\n        /* \"contracts/DEX.sol\":2807:2826  token1.safeTransfer */\n      0xffffffffffffffffffffffffffffffffffffffff\n      and\n      tag_150\n      swap1\n        /* \"contracts/DEX.sol\":2807:2850  token1.safeTransfer(owner(), _token1Amount) */\n      swap3\n      swap2\n      swap1\n      0xffffffff\n      and\n      jump\t// in\n    tag_148:\n        /* \"contracts/DEX.sol\":2861:2904  token2.safeTransfer(owner(), _token2Amount) */\n      tag_151\n        /* \"contracts/DEX.sol\":2881:2888  owner() */\n      tag_152\n        /* \"contracts/DEX.sol\":2881:2886  owner */\n      tag_43\n        /* \"contracts/DEX.sol\":2881:2888  owner() */\n      jump\t// in\n    tag_152:\n        /* \"contracts/DEX.sol\":2890:2903  _token2Amount */\n      dup3\n        /* \"contracts/DEX.sol\":2861:2867  token2 */\n      0x03\n      0x00\n      swap1\n      sload\n      swap1\n      0x0100\n      exp\n      swap1\n      div\n      0xffffffffffffffffffffffffffffffffffffffff\n      and\n        /* \"contracts/DEX.sol\":2861:2880  token2.safeTransfer */\n      0xffffffffffffffffffffffffffffffffffffffff\n      and\n      tag_150\n      swap1\n        /* \"contracts/DEX.sol\":2861:2904  token2.safeTransfer(owner(), _token2Amount) */\n      swap3\n      swap2\n      swap1\n      0xffffffff\n      and\n      jump\t// in\n    tag_151:\n        /* \"contracts/DEX.sol\":2939:2946  owner() */\n      tag_153\n        /* \"contracts/DEX.sol\":2939:2944  owner */\n      tag_43\n        /* \"contracts/DEX.sol\":2939:2946  owner() */\n      jump\t// in\n    tag_153:\n        /* \"contracts/DEX.sol\":2922:2977  LiquidityRemoved(owner(), _token1Amount, _token2Amount) */\n      0xffffffffffffffffffffffffffffffffffffffff\n      and\n      0x96cd817c6329656790ef8fba7675405193677d39619571282f5e21f3a98cd059\n        /* \"contracts/DEX.sol\":2948:2961  _token1Amount */\n      dup4\n        /* \"contracts/DEX.sol\":2963:2976  _token2Amount */\n      dup4\n        /* \"contracts/DEX.sol\":2922:2977  LiquidityRemoved(owner(), _token1Amount, _token2Amount) */\n      mload(0x40)\n      tag_154\n      swap3\n      swap2\n      swap1\n      tag_21\n      jump\t// in\n    tag_154:\n      mload(0x40)\n      dup1\n      swap2\n      sub\n      swap1\n      log2\n        /* \"https://github.com/OpenZeppelin/openzeppelin-contracts/blob/v4.8.0/contracts/security/ReentrancyGuard.sol\":2303:2323  _nonReentrantAfter() */\n      tag_155\n        /* \"https://github.com/OpenZeppelin/openzeppelin-contracts/blob/v4.8.0/contracts/security/ReentrancyGuard.sol\":2303:2321  _nonReentrantAfter */\n      tag_80\n        /* \"https://github.com/OpenZeppelin/openzeppelin-contracts/blob/v4.8.0/contracts/security/ReentrancyGuard.sol\":2303:2323  _nonReentrantAfter() */\n      jump\t// in\n    tag_155:\n        /* \"contracts/DEX.sol\":2405:2985  function removeLiquidity(uint256 _token1Amount, uint256 _token2Amount) external onlyOwner nonReentrant {... */\n      pop\n      pop\n      jump\t// out\n        /* \"contracts/DEX.sol\":656:684  uint256 public token1Balance */\n    tag_54:\n      sload(0x04)\n      dup2\n      jump\t// out\n        /* \"contracts/DEX.sol\":2993:4011  function swap(address _tokenIn, uint256 _amountIn) public nonReentrant returns (uint256 amountOut) {... */\n    tag_58:\n        /* \"contracts/DEX.sol\":3073:3090  uint256 amountOut */\n      0x00\n        /* \"https://github.com/OpenZeppelin/openzeppelin-contracts/blob/v4.8.0/contracts/security/ReentrancyGuard.sol\":2261:2282  _nonReentrantBefore() */\n      tag_157\n        /* \"https://github.com/OpenZeppelin/openzeppelin-contracts/blob/v4.8.0/contracts/security/ReentrancyGuard.sol\":2261:2280  _nonReentrantBefore */\n      tag_73\n        /* \"https://github.com/OpenZeppelin/openzeppelin-contracts/blob/v4.8.0/contracts/security/ReentrancyGuard.sol\":2261:2282  _nonReentrantBefore() */\n      jump\t// in\n    tag_157:\n        /* \"contracts/DEX.sol\":3131:3137  token1 */\n      0x02\n      0x00\n      swap1\n      sload\n      swap1\n      0x0100\n      exp\n      swap1\n      div\n      0xffffffffffffffffffffffffffffffffffffffff\n      and\n        /* \"contracts/DEX.sol\":3111:3138  _tokenIn == address(token1) */\n      0xffffffffffffffffffffffffffffffffffffffff\n      and\n        /* \"contracts/DEX.sol\":3111:3119  _tokenIn */\n      dup4\n        /* \"contracts/DEX.sol\":3111:3138  _tokenIn == address(token1) */\n      0xffffffffffffffffffffffffffffffffffffffff\n      and\n      eq\n        /* \"contracts/DEX.sol\":3111:3169  _tokenIn == address(token1) || _tokenIn == address(token2) */\n      dup1\n      tag_159\n      jumpi\n      pop\n        /* \"contracts/DEX.sol\":3162:3168  token2 */\n      0x03\n      0x00\n      swap1\n      sload\n      swap1\n      0x0100\n      exp\n      swap1\n      div\n      0xffffffffffffffffffffffffffffffffffffffff\n      and\n        /* \"contracts/DEX.sol\":3142:3169  _tokenIn == address(token2) */\n      0xffffffffffffffffffffffffffffffffffffffff\n      and\n        /* \"contracts/DEX.sol\":3142:3150  _tokenIn */\n      dup4\n        /* \"contracts/DEX.sol\":3142:3169  _tokenIn == address(token2) */\n      0xffffffffffffffffffffffffffffffffffffffff\n      and\n      eq\n        /* \"contracts/DEX.sol\":3111:3169  _tokenIn == address(token1) || _tokenIn == address(token2) */\n    tag_159:\n        /* \"contracts/DEX.sol\":3103:3187  require(_tokenIn == address(token1) || _tokenIn == address(token2), \"Invalid token\") */\n      tag_160\n      jumpi\n      mload(0x40)\n      0x08c379a000000000000000000000000000000000000000000000000000000000\n      dup2\n      mstore\n      0x04\n      add\n      tag_161\n      swap1\n      tag_162\n      jump\t// in\n    tag_161:\n      mload(0x40)\n      dup1\n      swap2\n      sub\n      swap1\n      revert\n    tag_160:\n        /* \"contracts/DEX.sol\":3218:3219  0 */\n      0x00\n        /* \"contracts/DEX.sol\":3206:3215  _amountIn */\n      dup3\n        /* \"contracts/DEX.sol\":3206:3219  _amountIn > 0 */\n      gt\n        /* \"contracts/DEX.sol\":3198:3253  require(_amountIn > 0, \"Amount must be greater than 0\") */\n      tag_163\n      jumpi\n      mload(0x40)\n      0x08c379a000000000000000000000000000000000000000000000000000000000\n      dup2\n      mstore\n      0x04\n      add\n      tag_164\n      swap1\n      tag_165\n      jump\t// in\n    tag_164:\n      mload(0x40)\n      dup1\n      swap2\n      sub\n      swap1\n      revert\n    tag_163:\n        /* \"contracts/DEX.sol\":3266:3280  IERC20 tokenIn */\n      0x00\n        /* \"contracts/DEX.sol\":3290:3298  _tokenIn */\n      dup4\n        /* \"contracts/DEX.sol\":3266:3299  IERC20 tokenIn = IERC20(_tokenIn) */\n      swap1\n      pop\n        /* \"contracts/DEX.sol\":3310:3325  IERC20 tokenOut */\n      0x00\n        /* \"contracts/DEX.sol\":3348:3354  token1 */\n      0x02\n      0x00\n      swap1\n      sload\n      swap1\n      0x0100\n      exp\n      swap1\n      div\n      0xffffffffffffffffffffffffffffffffffffffff\n      and\n        /* \"contracts/DEX.sol\":3328:3355  _tokenIn == address(token1) */\n      0xffffffffffffffffffffffffffffffffffffffff\n      and\n        /* \"contracts/DEX.sol\":3328:3336  _tokenIn */\n      dup6\n        /* \"contracts/DEX.sol\":3328:3355  _tokenIn == address(token1) */\n      0xffffffffffffffffffffffffffffffffffffffff\n      and\n      eq\n        /* \"contracts/DEX.sol\":3328:3373  _tokenIn == address(token1) ? token2 : token1 */\n      tag_166\n      jumpi\n        /* \"contracts/DEX.sol\":3367:3373  token1 */\n      0x02\n      0x00\n      swap1\n      sload\n      swap1\n      0x0100\n      exp\n      swap1\n      div\n      0xffffffffffffffffffffffffffffffffffffffff\n      and\n        /* \"contracts/DEX.sol\":3328:3373  _tokenIn == address(token1) ? token2 : token1 */\n      jump(tag_167)\n    tag_166:\n        /* \"contracts/DEX.sol\":3358:3364  token2 */\n      0x03\n      0x00\n      swap1\n      sload\n      swap1\n      0x0100\n      exp\n      swap1\n      div\n      0xffffffffffffffffffffffffffffffffffffffff\n      and\n        /* \"contracts/DEX.sol\":3328:3373  _tokenIn == address(token1) ? token2 : token1 */\n    tag_167:\n        /* \"contracts/DEX.sol\":3310:3373  IERC20 tokenOut = _tokenIn == address(token1) ? token2 : token1 */\n      swap1\n      pop\n        /* \"contracts/DEX.sol\":3398:3438  calculateSwapOutput(_tokenIn, _amountIn) */\n      tag_168\n        /* \"contracts/DEX.sol\":3418:3426  _tokenIn */\n      dup6\n        /* \"contracts/DEX.sol\":3428:3437  _amountIn */\n      dup6\n        /* \"contracts/DEX.sol\":3398:3417  calculateSwapOutput */\n      tag_70\n        /* \"contracts/DEX.sol\":3398:3438  calculateSwapOutput(_tokenIn, _amountIn) */\n      jump\t// in\n    tag_168:\n        /* \"contracts/DEX.sol\":3386:3438  amountOut = calculateSwapOutput(_tokenIn, _amountIn) */\n      swap3\n      pop\n        /* \"contracts/DEX.sol\":3471:3472  0 */\n      0x00\n        /* \"contracts/DEX.sol\":3459:3468  amountOut */\n      dup4\n        /* \"contracts/DEX.sol\":3459:3472  amountOut > 0 */\n      gt\n        /* \"contracts/DEX.sol\":3459:3522  amountOut > 0 && amountOut <= tokenOut.balanceOf(address(this)) */\n      dup1\n      iszero\n      tag_169\n      jumpi\n      pop\n        /* \"contracts/DEX.sol\":3489:3497  tokenOut */\n      dup1\n        /* \"contracts/DEX.sol\":3489:3507  tokenOut.balanceOf */\n      0xffffffffffffffffffffffffffffffffffffffff\n      and\n      0x70a08231\n        /* \"contracts/DEX.sol\":3516:3520  this */\n      address\n        /* \"contracts/DEX.sol\":3489:3522  tokenOut.balanceOf(address(this)) */\n      mload(0x40)\n      dup3\n      0xffffffff\n      and\n      0xe0\n      shl\n      dup2\n      mstore\n      0x04\n      add\n      tag_170\n      swap2\n      swap1\n      tag_45\n      jump\t// in\n    tag_170:\n      0x20\n      mload(0x40)\n      dup1\n      dup4\n      sub\n      dup2\n      dup7\n      gas\n      staticcall\n      iszero\n      dup1\n      iszero\n      tag_172\n      jumpi\n      returndatasize\n      0x00\n      dup1\n      returndatacopy\n      revert(0x00, returndatasize)\n    tag_172:\n      pop\n      pop\n      pop\n      pop\n      mload(0x40)\n      returndatasize\n      not(0x1f)\n      0x1f\n      dup3\n      add\n      and\n      dup3\n      add\n      dup1\n      0x40\n      mstore\n      pop\n      dup2\n      add\n      swap1\n      tag_173\n      swap2\n      swap1\n      tag_100\n      jump\t// in\n    tag_173:\n        /* \"contracts/DEX.sol\":3476:3485  amountOut */\n      dup4\n        /* \"contracts/DEX.sol\":3476:3522  amountOut <= tokenOut.balanceOf(address(this)) */\n      gt\n      iszero\n        /* \"contracts/DEX.sol\":3459:3522  amountOut > 0 && amountOut <= tokenOut.balanceOf(address(this)) */\n    tag_169:\n        /* \"contracts/DEX.sol\":3451:3549  require(amountOut > 0 && amountOut <= tokenOut.balanceOf(address(this)), \"Insufficient liquidity\") */\n      tag_174\n      jumpi\n      mload(0x40)\n      0x08c379a000000000000000000000000000000000000000000000000000000000\n      dup2\n      mstore\n      0x04\n      add\n      tag_175\n      swap1\n      tag_144\n      jump\t// in\n    tag_175:\n      mload(0x40)\n      dup1\n      swap2\n      sub\n      swap1\n      revert\n    tag_174:\n        /* \"contracts/DEX.sol\":3562:3624  tokenIn.safeTransferFrom(msg.sender, address(this), _amountIn) */\n      tag_176\n        /* \"contracts/DEX.sol\":3587:3597  msg.sender */\n      caller\n        /* \"contracts/DEX.sol\":3607:3611  this */\n      address\n        /* \"contracts/DEX.sol\":3614:3623  _amountIn */\n      dup7\n        /* \"contracts/DEX.sol\":3562:3569  tokenIn */\n      dup6\n        /* \"contracts/DEX.sol\":3562:3586  tokenIn.safeTransferFrom */\n      0xffffffffffffffffffffffffffffffffffffffff\n      and\n      tag_126\n      swap1\n        /* \"contracts/DEX.sol\":3562:3624  tokenIn.safeTransferFrom(msg.sender, address(this), _amountIn) */\n      swap4\n      swap3\n      swap2\n      swap1\n      0xffffffff\n      and\n      jump\t// in\n    tag_176:\n        /* \"contracts/DEX.sol\":3635:3679  tokenOut.safeTransfer(msg.sender, amountOut) */\n      tag_177\n        /* \"contracts/DEX.sol\":3657:3667  msg.sender */\n      caller\n        /* \"contracts/DEX.sol\":3669:3678  amountOut */\n      dup5\n        /* \"contracts/DEX.sol\":3635:3643  tokenOut */\n      dup4\n        /* \"contracts/DEX.sol\":3635:3656  tokenOut.safeTransfer */\n      0xffffffffffffffffffffffffffffffffffffffff\n      and\n      tag_150\n      swap1\n        /* \"contracts/DEX.sol\":3635:3679  tokenOut.safeTransfer(msg.sender, amountOut) */\n      swap3\n      swap2\n      swap1\n      0xffffffff\n      and\n      jump\t// in\n    tag_177:\n        /* \"contracts/DEX.sol\":3716:3722  token1 */\n      0x02\n      0x00\n      swap1\n      sload\n      swap1\n      0x0100\n      exp\n      swap1\n      div\n      0xffffffffffffffffffffffffffffffffffffffff\n      and\n        /* \"contracts/DEX.sol\":3696:3723  _tokenIn == address(token1) */\n      0xffffffffffffffffffffffffffffffffffffffff\n      and\n        /* \"contracts/DEX.sol\":3696:3704  _tokenIn */\n      dup6\n        /* \"contracts/DEX.sol\":3696:3723  _tokenIn == address(token1) */\n      0xffffffffffffffffffffffffffffffffffffffff\n      and\n      sub\n        /* \"contracts/DEX.sol\":3692:3919  if (_tokenIn == address(token1)) {... */\n      tag_178\n      jumpi\n        /* \"contracts/DEX.sol\":3757:3766  _amountIn */\n      dup4\n        /* \"contracts/DEX.sol\":3740:3753  token1Balance */\n      0x04\n      0x00\n        /* \"contracts/DEX.sol\":3740:3766  token1Balance += _amountIn */\n      dup3\n      dup3\n      sload\n      tag_179\n      swap2\n      swap1\n      tag_129\n      jump\t// in\n    tag_179:\n      swap3\n      pop\n      pop\n      dup2\n      swap1\n      sstore\n      pop\n        /* \"contracts/DEX.sol\":3798:3807  amountOut */\n      dup3\n        /* \"contracts/DEX.sol\":3781:3794  token2Balance */\n      0x05\n      0x00\n        /* \"contracts/DEX.sol\":3781:3807  token2Balance -= amountOut */\n      dup3\n      dup3\n      sload\n      tag_180\n      swap2\n      swap1\n      tag_146\n      jump\t// in\n    tag_180:\n      swap3\n      pop\n      pop\n      dup2\n      swap1\n      sstore\n      pop\n        /* \"contracts/DEX.sol\":3692:3919  if (_tokenIn == address(token1)) {... */\n      jump(tag_181)\n    tag_178:\n        /* \"contracts/DEX.sol\":3857:3866  _amountIn */\n      dup4\n        /* \"contracts/DEX.sol\":3840:3853  token2Balance */\n      0x05\n      0x00\n        /* \"contracts/DEX.sol\":3840:3866  token2Balance += _amountIn */\n      dup3\n      dup3\n      sload\n      tag_182\n      swap2\n      swap1\n      tag_129\n      jump\t// in\n    tag_182:\n      swap3\n      pop\n      pop\n      dup2\n      swap1\n      sstore\n      pop\n        /* \"contracts/DEX.sol\":3898:3907  amountOut */\n      dup3\n        /* \"contracts/DEX.sol\":3881:3894  token1Balance */\n      0x04\n      0x00\n        /* \"contracts/DEX.sol\":3881:3907  token1Balance -= amountOut */\n      dup3\n      dup3\n      sload\n      tag_183\n      swap2\n      swap1\n      tag_146\n      jump\t// in\n    tag_183:\n      swap3\n      pop\n      pop\n      dup2\n      swap1\n      sstore\n      pop\n        /* \"contracts/DEX.sol\":3692:3919  if (_tokenIn == address(token1)) {... */\n    tag_181:\n        /* \"contracts/DEX.sol\":3941:3951  msg.sender */\n      caller\n        /* \"contracts/DEX.sol\":3936:4003  Swap(msg.sender, _tokenIn, _amountIn, address(tokenOut), amountOut) */\n      0xffffffffffffffffffffffffffffffffffffffff\n      and\n      0x5380cf97d8f645d3c4896da60c053458dca03a3a31cec642ac80e1ddf0d8d02a\n        /* \"contracts/DEX.sol\":3953:3961  _tokenIn */\n      dup7\n        /* \"contracts/DEX.sol\":3963:3972  _amountIn */\n      dup7\n        /* \"contracts/DEX.sol\":3982:3990  tokenOut */\n      dup5\n        /* \"contracts/DEX.sol\":3993:4002  amountOut */\n      dup8\n        /* \"contracts/DEX.sol\":3936:4003  Swap(msg.sender, _tokenIn, _amountIn, address(tokenOut), amountOut) */\n      mload(0x40)\n      tag_184\n      swap5\n      swap4\n      swap3\n      swap2\n      swap1\n      tag_185\n      jump\t// in\n    tag_184:\n      mload(0x40)\n      dup1\n      swap2\n      sub\n      swap1\n      log2\n        /* \"contracts/DEX.sol\":3092:4011  {... */\n      pop\n      pop\n        /* \"https://github.com/OpenZeppelin/openzeppelin-contracts/blob/v4.8.0/contracts/security/ReentrancyGuard.sol\":2303:2323  _nonReentrantAfter() */\n      tag_186\n        /* \"https://github.com/OpenZeppelin/openzeppelin-contracts/blob/v4.8.0/contracts/security/ReentrancyGuard.sol\":2303:2321  _nonReentrantAfter */\n      tag_80\n        /* \"https://github.com/OpenZeppelin/openzeppelin-contracts/blob/v4.8.0/contracts/security/ReentrancyGuard.sol\":2303:2323  _nonReentrantAfter() */\n      jump\t// in\n    tag_186:\n        /* \"contracts/DEX.sol\":2993:4011  function swap(address _tokenIn, uint256 _amountIn) public nonReentrant returns (uint256 amountOut) {... */\n      swap3\n      swap2\n      pop\n      pop\n      jump\t// out\n        /* \"contracts/DEX.sol\":600:620  IERC20 public token1 */\n    tag_61:\n      0x02\n      0x00\n      swap1\n      sload\n      swap1\n      0x0100\n      exp\n      swap1\n      div\n      0xffffffffffffffffffffffffffffffffffffffff\n      and\n      dup2\n      jump\t// out\n        /* \"https://github.com/OpenZeppelin/openzeppelin-contracts/blob/v4.8.0/contracts/access/Ownable.sol\":2081:2279  function transferOwnership(address newOwner) public virtual onlyOwner {... */\n    tag_66:\n        /* \"https://github.com/OpenZeppelin/openzeppelin-contracts/blob/v4.8.0/contracts/access/Ownable.sol\":1094:1107  _checkOwner() */\n      tag_188\n        /* \"https://github.com/OpenZeppelin/openzeppelin-contracts/blob/v4.8.0/contracts/access/Ownable.sol\":1094:1105  _checkOwner */\n      tag_83\n        /* \"https://github.com/OpenZeppelin/openzeppelin-contracts/blob/v4.8.0/contracts/access/Ownable.sol\":1094:1107  _checkOwner() */\n      jump\t// in\n    tag_188:\n        /* \"https://github.com/OpenZeppelin/openzeppelin-contracts/blob/v4.8.0/contracts/access/Ownable.sol\":2189:2190  0 */\n      0x00\n        /* \"https://github.com/OpenZeppelin/openzeppelin-contracts/blob/v4.8.0/contracts/access/Ownable.sol\":2169:2191  newOwner != address(0) */\n      0xffffffffffffffffffffffffffffffffffffffff\n      and\n        /* \"https://github.com/OpenZeppelin/openzeppelin-contracts/blob/v4.8.0/contracts/access/Ownable.sol\":2169:2177  newOwner */\n      dup2\n        /* \"https://github.com/OpenZeppelin/openzeppelin-contracts/blob/v4.8.0/contracts/access/Ownable.sol\":2169:2191  newOwner != address(0) */\n      0xffffffffffffffffffffffffffffffffffffffff\n      and\n      sub\n        /* \"https://github.com/OpenZeppelin/openzeppelin-contracts/blob/v4.8.0/contracts/access/Ownable.sol\":2161:2234  require(newOwner != address(0), \"Ownable: new owner is the zero address\") */\n      tag_190\n      jumpi\n      mload(0x40)\n      0x08c379a000000000000000000000000000000000000000000000000000000000\n      dup2\n      mstore\n      0x04\n      add\n      tag_191\n      swap1\n      tag_192\n      jump\t// in\n    tag_191:\n      mload(0x40)\n      dup1\n      swap2\n      sub\n      swap1\n      revert\n    tag_190:\n        /* \"https://github.com/OpenZeppelin/openzeppelin-contracts/blob/v4.8.0/contracts/access/Ownable.sol\":2244:2272  _transferOwnership(newOwner) */\n      tag_193\n        /* \"https://github.com/OpenZeppelin/openzeppelin-contracts/blob/v4.8.0/contracts/access/Ownable.sol\":2263:2271  newOwner */\n      dup2\n        /* \"https://github.com/OpenZeppelin/openzeppelin-contracts/blob/v4.8.0/contracts/access/Ownable.sol\":2244:2262  _transferOwnership */\n      tag_86\n        /* \"https://github.com/OpenZeppelin/openzeppelin-contracts/blob/v4.8.0/contracts/access/Ownable.sol\":2244:2272  _transferOwnership(newOwner) */\n      jump\t// in\n    tag_193:\n        /* \"https://github.com/OpenZeppelin/openzeppelin-contracts/blob/v4.8.0/contracts/access/Ownable.sol\":2081:2279  function transferOwnership(address newOwner) public virtual onlyOwner {... */\n      pop\n      jump\t// out\n        /* \"contracts/DEX.sol\":4323:4853  function calculateSwapOutput(address _tokenIn, uint256 _amountIn) internal view returns (uint256) {... */\n    tag_70:\n        /* \"contracts/DEX.sol\":4412:4419  uint256 */\n      0x00\n        /* \"contracts/DEX.sol\":4432:4449  uint256 reserveIn */\n      dup1\n        /* \"contracts/DEX.sol\":4472:4478  token1 */\n      0x02\n      0x00\n      swap1\n      sload\n      swap1\n      0x0100\n      exp\n      swap1\n      div\n      0xffffffffffffffffffffffffffffffffffffffff\n      and\n        /* \"contracts/DEX.sol\":4452:4479  _tokenIn == address(token1) */\n      0xffffffffffffffffffffffffffffffffffffffff\n      and\n        /* \"contracts/DEX.sol\":4452:4460  _tokenIn */\n      dup5\n        /* \"contracts/DEX.sol\":4452:4479  _tokenIn == address(token1) */\n      0xffffffffffffffffffffffffffffffffffffffff\n      and\n      eq\n        /* \"contracts/DEX.sol\":4452:4511  _tokenIn == address(token1) ? token1Balance : token2Balance */\n      tag_195\n      jumpi\n        /* \"contracts/DEX.sol\":4498:4511  token2Balance */\n      sload(0x05)\n        /* \"contracts/DEX.sol\":4452:4511  _tokenIn == address(token1) ? token1Balance : token2Balance */\n      jump(tag_196)\n    tag_195:\n        /* \"contracts/DEX.sol\":4482:4495  token1Balance */\n      sload(0x04)\n        /* \"contracts/DEX.sol\":4452:4511  _tokenIn == address(token1) ? token1Balance : token2Balance */\n    tag_196:\n        /* \"contracts/DEX.sol\":4432:4511  uint256 reserveIn = _tokenIn == address(token1) ? token1Balance : token2Balance */\n      swap1\n      pop\n        /* \"contracts/DEX.sol\":4522:4540  uint256 reserveOut */\n      0x00\n        /* \"contracts/DEX.sol\":4563:4569  token1 */\n      0x02\n      0x00\n      swap1\n      sload\n      swap1\n      0x0100\n      exp\n      swap1\n      div\n      0xffffffffffffffffffffffffffffffffffffffff\n      and\n        /* \"contracts/DEX.sol\":4543:4570  _tokenIn == address(token1) */\n      0xffffffffffffffffffffffffffffffffffffffff\n      and\n        /* \"contracts/DEX.sol\":4543:4551  _tokenIn */\n      dup6\n        /* \"contracts/DEX.sol\":4543:4570  _tokenIn == address(token1) */\n      0xffffffffffffffffffffffffffffffffffffffff\n      and\n      eq\n        /* \"contracts/DEX.sol\":4543:4602  _tokenIn == address(token1) ? token2Balance : token1Balance */\n      tag_197\n      jumpi\n        /* \"contracts/DEX.sol\":4589:4602  token1Balance */\n      sload(0x04)\n        /* \"contracts/DEX.sol\":4543:4602  _tokenIn == address(token1) ? token2Balance : token1Balance */\n      jump(tag_198)\n    tag_197:\n        /* \"contracts/DEX.sol\":4573:4586  token2Balance */\n      sload(0x05)\n        /* \"contracts/DEX.sol\":4543:4602  _tokenIn == address(token1) ? token2Balance : token1Balance */\n    tag_198:\n        /* \"contracts/DEX.sol\":4522:4602  uint256 reserveOut = _tokenIn == address(token1) ? token2Balance : token1Balance */\n      swap1\n      pop\n        /* \"contracts/DEX.sol\":4623:4646  uint256 amountInWithFee */\n      0x00\n        /* \"contracts/DEX.sol\":4661:4664  997 */\n      0x03e5\n        /* \"contracts/DEX.sol\":4649:4658  _amountIn */\n      dup6\n        /* \"contracts/DEX.sol\":4649:4664  _amountIn * 997 */\n      tag_199\n      swap2\n      swap1\n      tag_200\n      jump\t// in\n    tag_199:\n        /* \"contracts/DEX.sol\":4623:4664  uint256 amountInWithFee = _amountIn * 997 */\n      swap1\n      pop\n        /* \"contracts/DEX.sol\":4687:4704  uint256 numerator */\n      0x00\n        /* \"contracts/DEX.sol\":4725:4735  reserveOut */\n      dup3\n        /* \"contracts/DEX.sol\":4707:4722  amountInWithFee */\n      dup3\n        /* \"contracts/DEX.sol\":4707:4735  amountInWithFee * reserveOut */\n      tag_201\n      swap2\n      swap1\n      tag_200\n      jump\t// in\n    tag_201:\n        /* \"contracts/DEX.sol\":4687:4735  uint256 numerator = amountInWithFee * reserveOut */\n      swap1\n      pop\n        /* \"contracts/DEX.sol\":4746:4765  uint256 denominator */\n      0x00\n        /* \"contracts/DEX.sol\":4789:4804  amountInWithFee */\n      dup3\n        /* \"contracts/DEX.sol\":4781:4785  1000 */\n      0x03e8\n        /* \"contracts/DEX.sol\":4769:4778  reserveIn */\n      dup7\n        /* \"contracts/DEX.sol\":4769:4785  reserveIn * 1000 */\n      tag_202\n      swap2\n      swap1\n      tag_200\n      jump\t// in\n    tag_202:\n        /* \"contracts/DEX.sol\":4768:4804  (reserveIn * 1000) + amountInWithFee */\n      tag_203\n      swap2\n      swap1\n      tag_129\n      jump\t// in\n    tag_203:\n        /* \"contracts/DEX.sol\":4746:4804  uint256 denominator = (reserveIn * 1000) + amountInWithFee */\n      swap1\n      pop\n        /* \"contracts/DEX.sol\":4834:4845  denominator */\n      dup1\n        /* \"contracts/DEX.sol\":4822:4831  numerator */\n      dup3\n        /* \"contracts/DEX.sol\":4822:4845  numerator / denominator */\n      tag_204\n      swap2\n      swap1\n      tag_205\n      jump\t// in\n    tag_204:\n        /* \"contracts/DEX.sol\":4815:4845  return numerator / denominator */\n      swap6\n      pop\n      pop\n      pop\n      pop\n      pop\n      pop\n        /* \"contracts/DEX.sol\":4323:4853  function calculateSwapOutput(address _tokenIn, uint256 _amountIn) internal view returns (uint256) {... */\n      swap3\n      swap2\n      pop\n      pop\n      jump\t// out\n        /* \"https://github.com/OpenZeppelin/openzeppelin-contracts/blob/v4.8.0/contracts/security/ReentrancyGuard.sol\":2336:2623  function _nonReentrantBefore() private {... */\n    tag_73:\n        /* \"https://github.com/OpenZeppelin/openzeppelin-contracts/blob/v4.8.0/contracts/security/ReentrancyGuard.sol\":1759:1760  2 */\n      0x02\n        /* \"https://github.com/OpenZeppelin/openzeppelin-contracts/blob/v4.8.0/contracts/security/ReentrancyGuard.sol\":2468:2475  _status */\n      sload(0x01)\n        /* \"https://github.com/OpenZeppelin/openzeppelin-contracts/blob/v4.8.0/contracts/security/ReentrancyGuard.sol\":2468:2487  _status != _ENTERED */\n      sub\n        /* \"https://github.com/OpenZeppelin/openzeppelin-contracts/blob/v4.8.0/contracts/security/ReentrancyGuard.sol\":2460:2523  require(_status != _ENTERED, \"ReentrancyGuard: reentrant call\") */\n      tag_207\n      jumpi\n      mload(0x40)\n      0x08c379a000000000000000000000000000000000000000000000000000000000\n      dup2\n      mstore\n      0x04\n      add\n      tag_208\n      swap1\n      tag_209\n      jump\t// in\n    tag_208:\n      mload(0x40)\n      dup1\n      swap2\n      sub\n      swap1\n      revert\n    tag_207:\n        /* \"https://github.com/OpenZeppelin/openzeppelin-contracts/blob/v4.8.0/contracts/security/ReentrancyGuard.sol\":1759:1760  2 */\n      0x02\n        /* \"https://github.com/OpenZeppelin/openzeppelin-contracts/blob/v4.8.0/contracts/security/ReentrancyGuard.sol\":2598:2605  _status */\n      0x01\n        /* \"https://github.com/OpenZeppelin/openzeppelin-contracts/blob/v4.8.0/contracts/security/ReentrancyGuard.sol\":2598:2616  _status = _ENTERED */\n      dup2\n      swap1\n      sstore\n      pop\n        /* \"https://github.com/OpenZeppelin/openzeppelin-contracts/blob/v4.8.0/contracts/security/ReentrancyGuard.sol\":2336:2623  function _nonReentrantBefore() private {... */\n      jump\t// out\n        /* \"https://github.com/OpenZeppelin/openzeppelin-contracts/blob/v4.8.0/contracts/security/ReentrancyGuard.sol\":2629:2838  function _nonReentrantAfter() private {... */\n    tag_80:\n        /* \"https://github.com/OpenZeppelin/openzeppelin-contracts/blob/v4.8.0/contracts/security/ReentrancyGuard.sol\":1716:1717  1 */\n      0x01\n        /* \"https://github.com/OpenZeppelin/openzeppelin-contracts/blob/v4.8.0/contracts/security/ReentrancyGuard.sol\":2809:2816  _status */\n      dup1\n        /* \"https://github.com/OpenZeppelin/openzeppelin-contracts/blob/v4.8.0/contracts/security/ReentrancyGuard.sol\":2809:2831  _status = _NOT_ENTERED */\n      dup2\n      swap1\n      sstore\n      pop\n        /* \"https://github.com/OpenZeppelin/openzeppelin-contracts/blob/v4.8.0/contracts/security/ReentrancyGuard.sol\":2629:2838  function _nonReentrantAfter() private {... */\n      jump\t// out\n        /* \"https://github.com/OpenZeppelin/openzeppelin-contracts/blob/v4.8.0/contracts/access/Ownable.sol\":1359:1489  function _checkOwner() internal view virtual {... */\n    tag_83:\n        /* \"https://github.com/OpenZeppelin/openzeppelin-contracts/blob/v4.8.0/contracts/access/Ownable.sol\":1433:1445  _msgSender() */\n      tag_212\n        /* \"https://github.com/OpenZeppelin/openzeppelin-contracts/blob/v4.8.0/contracts/access/Ownable.sol\":1433:1443  _msgSender */\n      tag_213\n        /* \"https://github.com/OpenZeppelin/openzeppelin-contracts/blob/v4.8.0/contracts/access/Ownable.sol\":1433:1445  _msgSender() */\n      jump\t// in\n    tag_212:\n        /* \"https://github.com/OpenZeppelin/openzeppelin-contracts/blob/v4.8.0/contracts/access/Ownable.sol\":1422:1445  owner() == _msgSender() */\n      0xffffffffffffffffffffffffffffffffffffffff\n      and\n        /* \"https://github.com/OpenZeppelin/openzeppelin-contracts/blob/v4.8.0/contracts/access/Ownable.sol\":1422:1429  owner() */\n      tag_214\n        /* \"https://github.com/OpenZeppelin/openzeppelin-contracts/blob/v4.8.0/contracts/access/Ownable.sol\":1422:1427  owner */\n      tag_43\n        /* \"https://github.com/OpenZeppelin/openzeppelin-contracts/blob/v4.8.0/contracts/access/Ownable.sol\":1422:1429  owner() */\n      jump\t// in\n    tag_214:\n        /* \"https://github.com/OpenZeppelin/openzeppelin-contracts/blob/v4.8.0/contracts/access/Ownable.sol\":1422:1445  owner() == _msgSender() */\n      0xffffffffffffffffffffffffffffffffffffffff\n      and\n      eq\n        /* \"https://github.com/OpenZeppelin/openzeppelin-contracts/blob/v4.8.0/contracts/access/Ownable.sol\":1414:1482  require(owner() == _msgSender(), \"Ownable: caller is not the owner\") */\n      tag_215\n      jumpi\n      mload(0x40)\n      0x08c379a000000000000000000000000000000000000000000000000000000000\n      dup2\n      mstore\n      0x04\n      add\n      tag_216\n      swap1\n      tag_217\n      jump\t// in\n    tag_216:\n      mload(0x40)\n      dup1\n      swap2\n      sub\n      swap1\n      revert\n    tag_215:\n        /* \"https://github.com/OpenZeppelin/openzeppelin-contracts/blob/v4.8.0/contracts/access/Ownable.sol\":1359:1489  function _checkOwner() internal view virtual {... */\n      jump\t// out\n        /* \"https://github.com/OpenZeppelin/openzeppelin-contracts/blob/v4.8.0/contracts/access/Ownable.sol\":2433:2620  function _transferOwnership(address newOwner) internal virtual {... */\n    tag_86:\n        /* \"https://github.com/OpenZeppelin/openzeppelin-contracts/blob/v4.8.0/contracts/access/Ownable.sol\":2506:2522  address oldOwner */\n      0x00\n        /* \"https://github.com/OpenZeppelin/openzeppelin-contracts/blob/v4.8.0/contracts/access/Ownable.sol\":2525:2531  _owner */\n      dup1\n      0x00\n      swap1\n      sload\n      swap1\n      0x0100\n      exp\n      swap1\n      div\n      0xffffffffffffffffffffffffffffffffffffffff\n      and\n        /* \"https://github.com/OpenZeppelin/openzeppelin-contracts/blob/v4.8.0/contracts/access/Ownable.sol\":2506:2531  address oldOwner = _owner */\n      swap1\n      pop\n        /* \"https://github.com/OpenZeppelin/openzeppelin-contracts/blob/v4.8.0/contracts/access/Ownable.sol\":2550:2558  newOwner */\n      dup2\n        /* \"https://github.com/OpenZeppelin/openzeppelin-contracts/blob/v4.8.0/contracts/access/Ownable.sol\":2541:2547  _owner */\n      0x00\n      dup1\n        /* \"https://github.com/OpenZeppelin/openzeppelin-contracts/blob/v4.8.0/contracts/access/Ownable.sol\":2541:2558  _owner = newOwner */\n      0x0100\n      exp\n      dup2\n      sload\n      dup2\n      0xffffffffffffffffffffffffffffffffffffffff\n      mul\n      not\n      and\n      swap1\n      dup4\n      0xffffffffffffffffffffffffffffffffffffffff\n      and\n      mul\n      or\n      swap1\n      sstore\n      pop\n        /* \"https://github.com/OpenZeppelin/openzeppelin-contracts/blob/v4.8.0/contracts/access/Ownable.sol\":2604:2612  newOwner */\n      dup2\n        /* \"https://github.com/OpenZeppelin/openzeppelin-contracts/blob/v4.8.0/contracts/access/Ownable.sol\":2573:2613  OwnershipTransferred(oldOwner, newOwner) */\n      0xffffffffffffffffffffffffffffffffffffffff\n      and\n        /* \"https://github.com/OpenZeppelin/openzeppelin-contracts/blob/v4.8.0/contracts/access/Ownable.sol\":2594:2602  oldOwner */\n      dup2\n        /* \"https://github.com/OpenZeppelin/openzeppelin-contracts/blob/v4.8.0/contracts/access/Ownable.sol\":2573:2613  OwnershipTransferred(oldOwner, newOwner) */\n      0xffffffffffffffffffffffffffffffffffffffff\n      and\n      0x8be0079c531659141344cd1fd0a4f28419497f9722a3daafe3b4186f6b6457e0\n      mload(0x40)\n      mload(0x40)\n      dup1\n      swap2\n      sub\n      swap1\n      log3\n        /* \"https://github.com/OpenZeppelin/openzeppelin-contracts/blob/v4.8.0/contracts/access/Ownable.sol\":2496:2620  {... */\n      pop\n        /* \"https://github.com/OpenZeppelin/openzeppelin-contracts/blob/v4.8.0/contracts/access/Ownable.sol\":2433:2620  function _transferOwnership(address newOwner) internal virtual {... */\n      pop\n      jump\t// out\n        /* \"https://github.com/OpenZeppelin/openzeppelin-contracts/blob/v4.8.0/contracts/token/ERC20/utils/SafeERC20.sol\":974:1215  function safeTransferFrom(... */\n    tag_126:\n        /* \"https://github.com/OpenZeppelin/openzeppelin-contracts/blob/v4.8.0/contracts/token/ERC20/utils/SafeERC20.sol\":1112:1208  _callOptionalReturn(token, abi.encodeWithSelector(token.transferFrom.selector, from, to, value)) */\n      tag_220\n        /* \"https://github.com/OpenZeppelin/openzeppelin-contracts/blob/v4.8.0/contracts/token/ERC20/utils/SafeERC20.sol\":1132:1137  token */\n      dup5\n        /* \"https://github.com/OpenZeppelin/openzeppelin-contracts/blob/v4.8.0/contracts/token/ERC20/utils/SafeERC20.sol\":1162:1189  token.transferFrom.selector */\n      shl(0xe0, 0x23b872dd)\n        /* \"https://github.com/OpenZeppelin/openzeppelin-contracts/blob/v4.8.0/contracts/token/ERC20/utils/SafeERC20.sol\":1191:1195  from */\n      dup6\n        /* \"https://github.com/OpenZeppelin/openzeppelin-contracts/blob/v4.8.0/contracts/token/ERC20/utils/SafeERC20.sol\":1197:1199  to */\n      dup6\n        /* \"https://github.com/OpenZeppelin/openzeppelin-contracts/blob/v4.8.0/contracts/token/ERC20/utils/SafeERC20.sol\":1201:1206  value */\n      dup6\n        /* \"https://github.com/OpenZeppelin/openzeppelin-contracts/blob/v4.8.0/contracts/token/ERC20/utils/SafeERC20.sol\":1139:1207  abi.encodeWithSelector(token.transferFrom.selector, from, to, value) */\n      add(0x24, mload(0x40))\n      tag_221\n      swap4\n      swap3\n      swap2\n      swap1\n      tag_222\n      jump\t// in\n    tag_221:\n      mload(0x40)\n      0x20\n      dup2\n      dup4\n      sub\n      sub\n      dup2\n      mstore\n      swap1\n      0x40\n      mstore\n      swap1\n      not(0xffffffffffffffffffffffffffffffffffffffffffffffffffffffff)\n      and\n      0x20\n      dup3\n      add\n      dup1\n      mload\n      0xffffffffffffffffffffffffffffffffffffffffffffffffffffffff\n      dup4\n      dup2\n      dup4\n      and\n      or\n      dup4\n      mstore\n      pop\n      pop\n      pop\n      pop\n        /* \"https://github.com/OpenZeppelin/openzeppelin-contracts/blob/v4.8.0/contracts/token/ERC20/utils/SafeERC20.sol\":1112:1131  _callOptionalReturn */\n      tag_223\n        /* \"https://github.com/OpenZeppelin/openzeppelin-contracts/blob/v4.8.0/contracts/token/ERC20/utils/SafeERC20.sol\":1112:1208  _callOptionalReturn(token, abi.encodeWithSelector(token.transferFrom.selector, from, to, value)) */\n      jump\t// in\n    tag_220:\n        /* \"https://github.com/OpenZeppelin/openzeppelin-contracts/blob/v4.8.0/contracts/token/ERC20/utils/SafeERC20.sol\":974:1215  function safeTransferFrom(... */\n      pop\n      pop\n      pop\n      pop\n      jump\t// out\n        /* \"https://github.com/OpenZeppelin/openzeppelin-contracts/blob/v4.8.0/contracts/token/ERC20/utils/SafeERC20.sol\":763:968  function safeTransfer(... */\n    tag_150:\n        /* \"https://github.com/OpenZeppelin/openzeppelin-contracts/blob/v4.8.0/contracts/token/ERC20/utils/SafeERC20.sol\":875:961  _callOptionalReturn(token, abi.encodeWithSelector(token.transfer.selector, to, value)) */\n      tag_225\n        /* \"https://github.com/OpenZeppelin/openzeppelin-contracts/blob/v4.8.0/contracts/token/ERC20/utils/SafeERC20.sol\":895:900  token */\n      dup4\n        /* \"https://github.com/OpenZeppelin/openzeppelin-contracts/blob/v4.8.0/contracts/token/ERC20/utils/SafeERC20.sol\":925:948  token.transfer.selector */\n      shl(0xe0, 0xa9059cbb)\n        /* \"https://github.com/OpenZeppelin/openzeppelin-contracts/blob/v4.8.0/contracts/token/ERC20/utils/SafeERC20.sol\":950:952  to */\n      dup5\n        /* \"https://github.com/OpenZeppelin/openzeppelin-contracts/blob/v4.8.0/contracts/token/ERC20/utils/SafeERC20.sol\":954:959  value */\n      dup5\n        /* \"https://github.com/OpenZeppelin/openzeppelin-contracts/blob/v4.8.0/contracts/token/ERC20/utils/SafeERC20.sol\":902:960  abi.encodeWithSelector(token.transfer.selector, to, value) */\n      add(0x24, mload(0x40))\n      tag_226\n      swap3\n      swap2\n      swap1\n      tag_227\n      jump\t// in\n    tag_226:\n      mload(0x40)\n      0x20\n      dup2\n      dup4\n      sub\n      sub\n      dup2\n      mstore\n      swap1\n      0x40\n      mstore\n      swap1\n      not(0xffffffffffffffffffffffffffffffffffffffffffffffffffffffff)\n      and\n      0x20\n      dup3\n      add\n      dup1\n      mload\n      0xffffffffffffffffffffffffffffffffffffffffffffffffffffffff\n      dup4\n      dup2\n      dup4\n      and\n      or\n      dup4\n      mstore\n      pop\n      pop\n      pop\n      pop\n        /* \"https://github.com/OpenZeppelin/openzeppelin-contracts/blob/v4.8.0/contracts/token/ERC20/utils/SafeERC20.sol\":875:894  _callOptionalReturn */\n      tag_223\n        /* \"https://github.com/OpenZeppelin/openzeppelin-contracts/blob/v4.8.0/contracts/token/ERC20/utils/SafeERC20.sol\":875:961  _callOptionalReturn(token, abi.encodeWithSelector(token.transfer.selector, to, value)) */\n      jump\t// in\n    tag_225:\n        /* \"https://github.com/OpenZeppelin/openzeppelin-contracts/blob/v4.8.0/contracts/token/ERC20/utils/SafeERC20.sol\":763:968  function safeTransfer(... */\n      pop\n      pop\n      pop\n      jump\t// out\n        /* \"https://github.com/OpenZeppelin/openzeppelin-contracts/blob/v4.8.0/contracts/utils/Context.sol\":640:736  function _msgSender() internal view virtual returns (address) {... */\n    tag_213:\n        /* \"https://github.com/OpenZeppelin/openzeppelin-contracts/blob/v4.8.0/contracts/utils/Context.sol\":693:700  address */\n      0x00\n        /* \"https://github.com/OpenZeppelin/openzeppelin-contracts/blob/v4.8.0/contracts/utils/Context.sol\":719:729  msg.sender */\n      caller\n        /* \"https://github.com/OpenZeppelin/openzeppelin-contracts/blob/v4.8.0/contracts/utils/Context.sol\":712:729  return msg.sender */\n      swap1\n      pop\n        /* \"https://github.com/OpenZeppelin/openzeppelin-contracts/blob/v4.8.0/contracts/utils/Context.sol\":640:736  function _msgSender() internal view virtual returns (address) {... */\n      swap1\n      jump\t// out\n        /* \"https://github.com/OpenZeppelin/openzeppelin-contracts/blob/v4.8.0/contracts/token/ERC20/utils/SafeERC20.sol\":3747:4453  function _callOptionalReturn(IERC20 token, bytes memory data) private {... */\n    tag_223:\n        /* \"https://github.com/OpenZeppelin/openzeppelin-contracts/blob/v4.8.0/contracts/token/ERC20/utils/SafeERC20.sol\":4166:4189  bytes memory returndata */\n      0x00\n        /* \"https://github.com/OpenZeppelin/openzeppelin-contracts/blob/v4.8.0/contracts/token/ERC20/utils/SafeERC20.sol\":4192:4261  address(token).functionCall(data, \"SafeERC20: low-level call failed\") */\n      tag_230\n        /* \"https://github.com/OpenZeppelin/openzeppelin-contracts/blob/v4.8.0/contracts/token/ERC20/utils/SafeERC20.sol\":4220:4224  data */\n      dup3\n        /* \"https://github.com/OpenZeppelin/openzeppelin-contracts/blob/v4.8.0/contracts/token/ERC20/utils/SafeERC20.sol\":4192:4261  address(token).functionCall(data, \"SafeERC20: low-level call failed\") */\n      mload(0x40)\n      dup1\n      0x40\n      add\n      0x40\n      mstore\n      dup1\n      0x20\n      dup2\n      mstore\n      0x20\n      add\n      0x5361666545524332303a206c6f772d6c6576656c2063616c6c206661696c6564\n      dup2\n      mstore\n      pop\n        /* \"https://github.com/OpenZeppelin/openzeppelin-contracts/blob/v4.8.0/contracts/token/ERC20/utils/SafeERC20.sol\":4200:4205  token */\n      dup6\n        /* \"https://github.com/OpenZeppelin/openzeppelin-contracts/blob/v4.8.0/contracts/token/ERC20/utils/SafeERC20.sol\":4192:4219  address(token).functionCall */\n      0xffffffffffffffffffffffffffffffffffffffff\n      and\n      tag_231\n      swap1\n        /* \"https://github.com/OpenZeppelin/openzeppelin-contracts/blob/v4.8.0/contracts/token/ERC20/utils/SafeERC20.sol\":4192:4261  address(token).functionCall(data, \"SafeERC20: low-level call failed\") */\n      swap3\n      swap2\n      swap1\n      0xffffffff\n      and\n      jump\t// in\n    tag_230:\n        /* \"https://github.com/OpenZeppelin/openzeppelin-contracts/blob/v4.8.0/contracts/token/ERC20/utils/SafeERC20.sol\":4166:4261  bytes memory returndata = address(token).functionCall(data, \"SafeERC20: low-level call failed\") */\n      swap1\n      pop\n        /* \"https://github.com/OpenZeppelin/openzeppelin-contracts/blob/v4.8.0/contracts/token/ERC20/utils/SafeERC20.sol\":4295:4296  0 */\n      0x00\n        /* \"https://github.com/OpenZeppelin/openzeppelin-contracts/blob/v4.8.0/contracts/token/ERC20/utils/SafeERC20.sol\":4275:4285  returndata */\n      dup2\n        /* \"https://github.com/OpenZeppelin/openzeppelin-contracts/blob/v4.8.0/contracts/token/ERC20/utils/SafeERC20.sol\":4275:4292  returndata.length */\n      mload\n        /* \"https://github.com/OpenZeppelin/openzeppelin-contracts/blob/v4.8.0/contracts/token/ERC20/utils/SafeERC20.sol\":4275:4296  returndata.length > 0 */\n      gt\n        /* \"https://github.com/OpenZeppelin/openzeppelin-contracts/blob/v4.8.0/contracts/token/ERC20/utils/SafeERC20.sol\":4271:4447  if (returndata.length > 0) {... */\n      iszero\n      tag_232\n      jumpi\n        /* \"https://github.com/OpenZeppelin/openzeppelin-contracts/blob/v4.8.0/contracts/token/ERC20/utils/SafeERC20.sol\":4370:4380  returndata */\n      dup1\n        /* \"https://github.com/OpenZeppelin/openzeppelin-contracts/blob/v4.8.0/contracts/token/ERC20/utils/SafeERC20.sol\":4359:4389  abi.decode(returndata, (bool)) */\n      dup1\n      0x20\n      add\n      swap1\n      mload\n      dup2\n      add\n      swap1\n      tag_233\n      swap2\n      swap1\n      tag_234\n      jump\t// in\n    tag_233:\n        /* \"https://github.com/OpenZeppelin/openzeppelin-contracts/blob/v4.8.0/contracts/token/ERC20/utils/SafeERC20.sol\":4351:4436  require(abi.decode(returndata, (bool)), \"SafeERC20: ERC20 operation did not succeed\") */\n      tag_235\n      jumpi\n      mload(0x40)\n      0x08c379a000000000000000000000000000000000000000000000000000000000\n      dup2\n      mstore\n      0x04\n      add\n      tag_236\n      swap1\n      tag_237\n      jump\t// in\n    tag_236:\n      mload(0x40)\n      dup1\n      swap2\n      sub\n      swap1\n      revert\n    tag_235:\n        /* \"https://github.com/OpenZeppelin/openzeppelin-contracts/blob/v4.8.0/contracts/token/ERC20/utils/SafeERC20.sol\":4271:4447  if (returndata.length > 0) {... */\n    tag_232:\n        /* \"https://github.com/OpenZeppelin/openzeppelin-contracts/blob/v4.8.0/contracts/token/ERC20/utils/SafeERC20.sol\":3817:4453  {... */\n      pop\n        /* \"https://github.com/OpenZeppelin/openzeppelin-contracts/blob/v4.8.0/contracts/token/ERC20/utils/SafeERC20.sol\":3747:4453  function _callOptionalReturn(IERC20 token, bytes memory data) private {... */\n      pop\n      pop\n      jump\t// out\n        /* \"https://github.com/OpenZeppelin/openzeppelin-contracts/blob/v4.8.0/contracts/utils/Address.sol\":3873:4096  function functionCall(... */\n    tag_231:\n        /* \"https://github.com/OpenZeppelin/openzeppelin-contracts/blob/v4.8.0/contracts/utils/Address.sol\":4006:4018  bytes memory */\n      0x60\n        /* \"https://github.com/OpenZeppelin/openzeppelin-contracts/blob/v4.8.0/contracts/utils/Address.sol\":4037:4089  functionCallWithValue(target, data, 0, errorMessage) */\n      tag_239\n        /* \"https://github.com/OpenZeppelin/openzeppelin-contracts/blob/v4.8.0/contracts/utils/Address.sol\":4059:4065  target */\n      dup5\n        /* \"https://github.com/OpenZeppelin/openzeppelin-contracts/blob/v4.8.0/contracts/utils/Address.sol\":4067:4071  data */\n      dup5\n        /* \"https://github.com/OpenZeppelin/openzeppelin-contracts/blob/v4.8.0/contracts/utils/Address.sol\":4073:4074  0 */\n      0x00\n        /* \"https://github.com/OpenZeppelin/openzeppelin-contracts/blob/v4.8.0/contracts/utils/Address.sol\":4076:4088  errorMessage */\n      dup6\n        /* \"https://github.com/OpenZeppelin/openzeppelin-contracts/blob/v4.8.0/contracts/utils/Address.sol\":4037:4058  functionCallWithValue */\n      tag_240\n        /* \"https://github.com/OpenZeppelin/openzeppelin-contracts/blob/v4.8.0/contracts/utils/Address.sol\":4037:4089  functionCallWithValue(target, data, 0, errorMessage) */\n      jump\t// in\n    tag_239:\n        /* \"https://github.com/OpenZeppelin/openzeppelin-contracts/blob/v4.8.0/contracts/utils/Address.sol\":4030:4089  return functionCallWithValue(target, data, 0, errorMessage) */\n      swap1\n      pop\n        /* \"https://github.com/OpenZeppelin/openzeppelin-contracts/blob/v4.8.0/contracts/utils/Address.sol\":3873:4096  function functionCall(... */\n      swap4\n      swap3\n      pop\n      pop\n      pop\n      jump\t// out\n        /* \"https://github.com/OpenZeppelin/openzeppelin-contracts/blob/v4.8.0/contracts/utils/Address.sol\":4960:5406  function functionCallWithValue(... */\n    tag_240:\n        /* \"https://github.com/OpenZeppelin/openzeppelin-contracts/blob/v4.8.0/contracts/utils/Address.sol\":5125:5137  bytes memory */\n      0x60\n        /* \"https://github.com/OpenZeppelin/openzeppelin-contracts/blob/v4.8.0/contracts/utils/Address.sol\":5182:5187  value */\n      dup3\n        /* \"https://github.com/OpenZeppelin/openzeppelin-contracts/blob/v4.8.0/contracts/utils/Address.sol\":5157:5178  address(this).balance */\n      selfbalance\n        /* \"https://github.com/OpenZeppelin/openzeppelin-contracts/blob/v4.8.0/contracts/utils/Address.sol\":5157:5187  address(this).balance >= value */\n      lt\n      iszero\n        /* \"https://github.com/OpenZeppelin/openzeppelin-contracts/blob/v4.8.0/contracts/utils/Address.sol\":5149:5230  require(address(this).balance >= value, \"Address: insufficient balance for call\") */\n      tag_242\n      jumpi\n      mload(0x40)\n      0x08c379a000000000000000000000000000000000000000000000000000000000\n      dup2\n      mstore\n      0x04\n      add\n      tag_243\n      swap1\n      tag_244\n      jump\t// in\n    tag_243:\n      mload(0x40)\n      dup1\n      swap2\n      sub\n      swap1\n      revert\n    tag_242:\n        /* \"https://github.com/OpenZeppelin/openzeppelin-contracts/blob/v4.8.0/contracts/utils/Address.sol\":5241:5253  bool success */\n      0x00\n        /* \"https://github.com/OpenZeppelin/openzeppelin-contracts/blob/v4.8.0/contracts/utils/Address.sol\":5255:5278  bytes memory returndata */\n      dup1\n        /* \"https://github.com/OpenZeppelin/openzeppelin-contracts/blob/v4.8.0/contracts/utils/Address.sol\":5282:5288  target */\n      dup7\n        /* \"https://github.com/OpenZeppelin/openzeppelin-contracts/blob/v4.8.0/contracts/utils/Address.sol\":5282:5293  target.call */\n      0xffffffffffffffffffffffffffffffffffffffff\n      and\n        /* \"https://github.com/OpenZeppelin/openzeppelin-contracts/blob/v4.8.0/contracts/utils/Address.sol\":5301:5306  value */\n      dup6\n        /* \"https://github.com/OpenZeppelin/openzeppelin-contracts/blob/v4.8.0/contracts/utils/Address.sol\":5308:5312  data */\n      dup8\n        /* \"https://github.com/OpenZeppelin/openzeppelin-contracts/blob/v4.8.0/contracts/utils/Address.sol\":5282:5313  target.call{value: value}(data) */\n      mload(0x40)\n      tag_245\n      swap2\n      swap1\n      tag_246\n      jump\t// in\n    tag_245:\n      0x00\n      mload(0x40)\n      dup1\n      dup4\n      sub\n      dup2\n      dup6\n      dup8\n      gas\n      call\n      swap3\n      pop\n      pop\n      pop\n      returndatasize\n      dup1\n      0x00\n      dup2\n      eq\n      tag_249\n      jumpi\n      mload(0x40)\n      swap2\n      pop\n      and(add(returndatasize, 0x3f), not(0x1f))\n      dup3\n      add\n      0x40\n      mstore\n      returndatasize\n      dup3\n      mstore\n      returndatasize\n      0x00\n      0x20\n      dup5\n      add\n      returndatacopy\n      jump(tag_248)\n    tag_249:\n      0x60\n      swap2\n      pop\n    tag_248:\n      pop\n        /* \"https://github.com/OpenZeppelin/openzeppelin-contracts/blob/v4.8.0/contracts/utils/Address.sol\":5240:5313  (bool success, bytes memory returndata) = target.call{value: value}(data) */\n      swap2\n      pop\n      swap2\n      pop\n        /* \"https://github.com/OpenZeppelin/openzeppelin-contracts/blob/v4.8.0/contracts/utils/Address.sol\":5330:5399  verifyCallResultFromTarget(target, success, returndata, errorMessage) */\n      tag_250\n        /* \"https://github.com/OpenZeppelin/openzeppelin-contracts/blob/v4.8.0/contracts/utils/Address.sol\":5357:5363  target */\n      dup8\n        /* \"https://github.com/OpenZeppelin/openzeppelin-contracts/blob/v4.8.0/contracts/utils/Address.sol\":5365:5372  success */\n      dup4\n        /* \"https://github.com/OpenZeppelin/openzeppelin-contracts/blob/v4.8.0/contracts/utils/Address.sol\":5374:5384  returndata */\n      dup4\n        /* \"https://github.com/OpenZeppelin/openzeppelin-contracts/blob/v4.8.0/contracts/utils/Address.sol\":5386:5398  errorMessage */\n      dup8\n        /* \"https://github.com/OpenZeppelin/openzeppelin-contracts/blob/v4.8.0/contracts/utils/Address.sol\":5330:5356  verifyCallResultFromTarget */\n      tag_251\n        /* \"https://github.com/OpenZeppelin/openzeppelin-contracts/blob/v4.8.0/contracts/utils/Address.sol\":5330:5399  verifyCallResultFromTarget(target, success, returndata, errorMessage) */\n      jump\t// in\n    tag_250:\n        /* \"https://github.com/OpenZeppelin/openzeppelin-contracts/blob/v4.8.0/contracts/utils/Address.sol\":5323:5399  return verifyCallResultFromTarget(target, success, returndata, errorMessage) */\n      swap3\n      pop\n      pop\n      pop\n        /* \"https://github.com/OpenZeppelin/openzeppelin-contracts/blob/v4.8.0/contracts/utils/Address.sol\":4960:5406  function functionCallWithValue(... */\n      swap5\n      swap4\n      pop\n      pop\n      pop\n      pop\n      jump\t// out\n        /* \"https://github.com/OpenZeppelin/openzeppelin-contracts/blob/v4.8.0/contracts/utils/Address.sol\":7466:8094  function verifyCallResultFromTarget(... */\n    tag_251:\n        /* \"https://github.com/OpenZeppelin/openzeppelin-contracts/blob/v4.8.0/contracts/utils/Address.sol\":7646:7658  bytes memory */\n      0x60\n        /* \"https://github.com/OpenZeppelin/openzeppelin-contracts/blob/v4.8.0/contracts/utils/Address.sol\":7674:7681  success */\n      dup4\n        /* \"https://github.com/OpenZeppelin/openzeppelin-contracts/blob/v4.8.0/contracts/utils/Address.sol\":7670:8088  if (success) {... */\n      iszero\n      tag_253\n      jumpi\n        /* \"https://github.com/OpenZeppelin/openzeppelin-contracts/blob/v4.8.0/contracts/utils/Address.sol\":7722:7723  0 */\n      0x00\n        /* \"https://github.com/OpenZeppelin/openzeppelin-contracts/blob/v4.8.0/contracts/utils/Address.sol\":7701:7711  returndata */\n      dup4\n        /* \"https://github.com/OpenZeppelin/openzeppelin-contracts/blob/v4.8.0/contracts/utils/Address.sol\":7701:7718  returndata.length */\n      mload\n        /* \"https://github.com/OpenZeppelin/openzeppelin-contracts/blob/v4.8.0/contracts/utils/Address.sol\":7701:7723  returndata.length == 0 */\n      sub\n        /* \"https://github.com/OpenZeppelin/openzeppelin-contracts/blob/v4.8.0/contracts/utils/Address.sol\":7697:7983  if (returndata.length == 0) {... */\n      tag_254\n      jumpi\n        /* \"https://github.com/OpenZeppelin/openzeppelin-contracts/blob/v4.8.0/contracts/utils/Address.sol\":7916:7934  isContract(target) */\n      tag_255\n        /* \"https://github.com/OpenZeppelin/openzeppelin-contracts/blob/v4.8.0/contracts/utils/Address.sol\":7927:7933  target */\n      dup6\n        /* \"https://github.com/OpenZeppelin/openzeppelin-contracts/blob/v4.8.0/contracts/utils/Address.sol\":7916:7926  isContract */\n      tag_256\n        /* \"https://github.com/OpenZeppelin/openzeppelin-contracts/blob/v4.8.0/contracts/utils/Address.sol\":7916:7934  isContract(target) */\n      jump\t// in\n    tag_255:\n        /* \"https://github.com/OpenZeppelin/openzeppelin-contracts/blob/v4.8.0/contracts/utils/Address.sol\":7908:7968  require(isContract(target), \"Address: call to non-contract\") */\n      tag_257\n      jumpi\n      mload(0x40)\n      0x08c379a000000000000000000000000000000000000000000000000000000000\n      dup2\n      mstore\n      0x04\n      add\n      tag_258\n      swap1\n      tag_259\n      jump\t// in\n    tag_258:\n      mload(0x40)\n      dup1\n      swap2\n      sub\n      swap1\n      revert\n    tag_257:\n        /* \"https://github.com/OpenZeppelin/openzeppelin-contracts/blob/v4.8.0/contracts/utils/Address.sol\":7697:7983  if (returndata.length == 0) {... */\n    tag_254:\n        /* \"https://github.com/OpenZeppelin/openzeppelin-contracts/blob/v4.8.0/contracts/utils/Address.sol\":8003:8013  returndata */\n      dup3\n        /* \"https://github.com/OpenZeppelin/openzeppelin-contracts/blob/v4.8.0/contracts/utils/Address.sol\":7996:8013  return returndata */\n      swap1\n      pop\n      jump(tag_252)\n        /* \"https://github.com/OpenZeppelin/openzeppelin-contracts/blob/v4.8.0/contracts/utils/Address.sol\":7670:8088  if (success) {... */\n    tag_253:\n        /* \"https://github.com/OpenZeppelin/openzeppelin-contracts/blob/v4.8.0/contracts/utils/Address.sol\":8044:8077  _revert(returndata, errorMessage) */\n      tag_261\n        /* \"https://github.com/OpenZeppelin/openzeppelin-contracts/blob/v4.8.0/contracts/utils/Address.sol\":8052:8062  returndata */\n      dup4\n        /* \"https://github.com/OpenZeppelin/openzeppelin-contracts/blob/v4.8.0/contracts/utils/Address.sol\":8064:8076  errorMessage */\n      dup4\n        /* \"https://github.com/OpenZeppelin/openzeppelin-contracts/blob/v4.8.0/contracts/utils/Address.sol\":8044:8051  _revert */\n      tag_262\n        /* \"https://github.com/OpenZeppelin/openzeppelin-contracts/blob/v4.8.0/contracts/utils/Address.sol\":8044:8077  _revert(returndata, errorMessage) */\n      jump\t// in\n    tag_261:\n        /* \"https://github.com/OpenZeppelin/openzeppelin-contracts/blob/v4.8.0/contracts/utils/Address.sol\":7466:8094  function verifyCallResultFromTarget(... */\n    tag_252:\n      swap5\n      swap4\n      pop\n      pop\n      pop\n      pop\n      jump\t// out\n        /* \"https://github.com/OpenZeppelin/openzeppelin-contracts/blob/v4.8.0/contracts/utils/Address.sol\":1175:1495  function isContract(address account) internal view returns (bool) {... */\n    tag_256:\n        /* \"https://github.com/OpenZeppelin/openzeppelin-contracts/blob/v4.8.0/contracts/utils/Address.sol\":1235:1239  bool */\n      0x00\n        /* \"https://github.com/OpenZeppelin/openzeppelin-contracts/blob/v4.8.0/contracts/utils/Address.sol\":1487:1488  0 */\n      dup1\n        /* \"https://github.com/OpenZeppelin/openzeppelin-contracts/blob/v4.8.0/contracts/utils/Address.sol\":1465:1472  account */\n      dup3\n        /* \"https://github.com/OpenZeppelin/openzeppelin-contracts/blob/v4.8.0/contracts/utils/Address.sol\":1465:1484  account.code.length */\n      0xffffffffffffffffffffffffffffffffffffffff\n      and\n      extcodesize\n        /* \"https://github.com/OpenZeppelin/openzeppelin-contracts/blob/v4.8.0/contracts/utils/Address.sol\":1465:1488  account.code.length > 0 */\n      gt\n        /* \"https://github.com/OpenZeppelin/openzeppelin-contracts/blob/v4.8.0/contracts/utils/Address.sol\":1458:1488  return account.code.length > 0 */\n      swap1\n      pop\n        /* \"https://github.com/OpenZeppelin/openzeppelin-contracts/blob/v4.8.0/contracts/utils/Address.sol\":1175:1495  function isContract(address account) internal view returns (bool) {... */\n      swap2\n      swap1\n      pop\n      jump\t// out\n        /* \"https://github.com/OpenZeppelin/openzeppelin-contracts/blob/v4.8.0/contracts/utils/Address.sol\":8616:9156  function _revert(bytes memory returndata, string memory errorMessage) private pure {... */\n    tag_262:\n        /* \"https://github.com/OpenZeppelin/openzeppelin-contracts/blob/v4.8.0/contracts/utils/Address.sol\":8795:8796  0 */\n      0x00\n        /* \"https://github.com/OpenZeppelin/openzeppelin-contracts/blob/v4.8.0/contracts/utils/Address.sol\":8775:8785  returndata */\n      dup3\n        /* \"https://github.com/OpenZeppelin/openzeppelin-contracts/blob/v4.8.0/contracts/utils/Address.sol\":8775:8792  returndata.length */\n      mload\n        /* \"https://github.com/OpenZeppelin/openzeppelin-contracts/blob/v4.8.0/contracts/utils/Address.sol\":8775:8796  returndata.length > 0 */\n      gt\n        /* \"https://github.com/OpenZeppelin/openzeppelin-contracts/blob/v4.8.0/contracts/utils/Address.sol\":8771:9150  if (returndata.length > 0) {... */\n      iszero\n      tag_265\n      jumpi\n        /* \"https://github.com/OpenZeppelin/openzeppelin-contracts/blob/v4.8.0/contracts/utils/Address.sol\":9003:9013  returndata */\n      dup2\n        /* \"https://github.com/OpenZeppelin/openzeppelin-contracts/blob/v4.8.0/contracts/utils/Address.sol\":8997:9014  mload(returndata) */\n      mload\n        /* \"https://github.com/OpenZeppelin/openzeppelin-contracts/blob/v4.8.0/contracts/utils/Address.sol\":9059:9074  returndata_size */\n      dup1\n        /* \"https://github.com/OpenZeppelin/openzeppelin-contracts/blob/v4.8.0/contracts/utils/Address.sol\":9046:9056  returndata */\n      dup4\n        /* \"https://github.com/OpenZeppelin/openzeppelin-contracts/blob/v4.8.0/contracts/utils/Address.sol\":9042:9044  32 */\n      0x20\n        /* \"https://github.com/OpenZeppelin/openzeppelin-contracts/blob/v4.8.0/contracts/utils/Address.sol\":9038:9057  add(32, returndata) */\n      add\n        /* \"https://github.com/OpenZeppelin/openzeppelin-contracts/blob/v4.8.0/contracts/utils/Address.sol\":9031:9075  revert(add(32, returndata), returndata_size) */\n      revert\n        /* \"https://github.com/OpenZeppelin/openzeppelin-contracts/blob/v4.8.0/contracts/utils/Address.sol\":8771:9150  if (returndata.length > 0) {... */\n    tag_265:\n        /* \"https://github.com/OpenZeppelin/openzeppelin-contracts/blob/v4.8.0/contracts/utils/Address.sol\":9126:9138  errorMessage */\n      dup1\n        /* \"https://github.com/OpenZeppelin/openzeppelin-contracts/blob/v4.8.0/contracts/utils/Address.sol\":9119:9139  revert(errorMessage) */\n      mload(0x40)\n      0x08c379a000000000000000000000000000000000000000000000000000000000\n      dup2\n      mstore\n      0x04\n      add\n      tag_267\n      swap2\n      swap1\n      tag_268\n      jump\t// in\n    tag_267:\n      mload(0x40)\n      dup1\n      swap2\n      sub\n      swap1\n      revert\n        /* \"#utility.yul\":7:84   */\n    tag_269:\n        /* \"#utility.yul\":44:51   */\n      0x00\n        /* \"#utility.yul\":73:78   */\n      dup2\n        /* \"#utility.yul\":62:78   */\n      swap1\n      pop\n        /* \"#utility.yul\":7:84   */\n      swap2\n      swap1\n      pop\n      jump\t// out\n        /* \"#utility.yul\":90:208   */\n    tag_270:\n        /* \"#utility.yul\":177:201   */\n      tag_333\n        /* \"#utility.yul\":195:200   */\n      dup2\n        /* \"#utility.yul\":177:201   */\n      tag_269\n      jump\t// in\n    tag_333:\n        /* \"#utility.yul\":172:175   */\n      dup3\n        /* \"#utility.yul\":165:202   */\n      mstore\n        /* \"#utility.yul\":90:208   */\n      pop\n      pop\n      jump\t// out\n        /* \"#utility.yul\":214:546   */\n    tag_21:\n        /* \"#utility.yul\":335:339   */\n      0x00\n        /* \"#utility.yul\":373:375   */\n      0x40\n        /* \"#utility.yul\":362:371   */\n      dup3\n        /* \"#utility.yul\":358:376   */\n      add\n        /* \"#utility.yul\":350:376   */\n      swap1\n      pop\n        /* \"#utility.yul\":386:457   */\n      tag_335\n        /* \"#utility.yul\":454:455   */\n      0x00\n        /* \"#utility.yul\":443:452   */\n      dup4\n        /* \"#utility.yul\":439:456   */\n      add\n        /* \"#utility.yul\":430:436   */\n      dup6\n        /* \"#utility.yul\":386:457   */\n      tag_270\n      jump\t// in\n    tag_335:\n        /* \"#utility.yul\":467:539   */\n      tag_336\n        /* \"#utility.yul\":535:537   */\n      0x20\n        /* \"#utility.yul\":524:533   */\n      dup4\n        /* \"#utility.yul\":520:538   */\n      add\n        /* \"#utility.yul\":511:517   */\n      dup5\n        /* \"#utility.yul\":467:539   */\n      tag_270\n      jump\t// in\n    tag_336:\n        /* \"#utility.yul\":214:546   */\n      swap4\n      swap3\n      pop\n      pop\n      pop\n      jump\t// out\n        /* \"#utility.yul\":552:678   */\n    tag_271:\n        /* \"#utility.yul\":589:596   */\n      0x00\n        /* \"#utility.yul\":629:671   */\n      0xffffffffffffffffffffffffffffffffffffffff\n        /* \"#utility.yul\":622:627   */\n      dup3\n        /* \"#utility.yul\":618:672   */\n      and\n        /* \"#utility.yul\":607:672   */\n      swap1\n      pop\n        /* \"#utility.yul\":552:678   */\n      swap2\n      swap1\n      pop\n      jump\t// out\n        /* \"#utility.yul\":684:744   */\n    tag_272:\n        /* \"#utility.yul\":712:715   */\n      0x00\n        /* \"#utility.yul\":733:738   */\n      dup2\n        /* \"#utility.yul\":726:738   */\n      swap1\n      pop\n        /* \"#utility.yul\":684:744   */\n      swap2\n      swap1\n      pop\n      jump\t// out\n        /* \"#utility.yul\":750:892   */\n    tag_273:\n        /* \"#utility.yul\":800:809   */\n      0x00\n        /* \"#utility.yul\":833:886   */\n      tag_340\n        /* \"#utility.yul\":851:885   */\n      tag_341\n        /* \"#utility.yul\":860:884   */\n      tag_342\n        /* \"#utility.yul\":878:883   */\n      dup5\n        /* \"#utility.yul\":860:884   */\n      tag_271\n      jump\t// in\n    tag_342:\n        /* \"#utility.yul\":851:885   */\n      tag_272\n      jump\t// in\n    tag_341:\n        /* \"#utility.yul\":833:886   */\n      tag_271\n      jump\t// in\n    tag_340:\n        /* \"#utility.yul\":820:886   */\n      swap1\n      pop\n        /* \"#utility.yul\":750:892   */\n      swap2\n      swap1\n      pop\n      jump\t// out\n        /* \"#utility.yul\":898:1024   */\n    tag_274:\n        /* \"#utility.yul\":948:957   */\n      0x00\n        /* \"#utility.yul\":981:1018   */\n      tag_344\n        /* \"#utility.yul\":1012:1017   */\n      dup3\n        /* \"#utility.yul\":981:1018   */\n      tag_273\n      jump\t// in\n    tag_344:\n        /* \"#utility.yul\":968:1018   */\n      swap1\n      pop\n        /* \"#utility.yul\":898:1024   */\n      swap2\n      swap1\n      pop\n      jump\t// out\n        /* \"#utility.yul\":1030:1170   */\n    tag_275:\n        /* \"#utility.yul\":1094:1103   */\n      0x00\n        /* \"#utility.yul\":1127:1164   */\n      tag_346\n        /* \"#utility.yul\":1158:1163   */\n      dup3\n        /* \"#utility.yul\":1127:1164   */\n      tag_274\n      jump\t// in\n    tag_346:\n        /* \"#utility.yul\":1114:1164   */\n      swap1\n      pop\n        /* \"#utility.yul\":1030:1170   */\n      swap2\n      swap1\n      pop\n      jump\t// out\n        /* \"#utility.yul\":1176:1335   */\n    tag_276:\n        /* \"#utility.yul\":1277:1328   */\n      tag_348\n        /* \"#utility.yul\":1322:1327   */\n      dup2\n        /* \"#utility.yul\":1277:1328   */\n      tag_275\n      jump\t// in\n    tag_348:\n        /* \"#utility.yul\":1272:1275   */\n      dup3\n        /* \"#utility.yul\":1265:1329   */\n      mstore\n        /* \"#utility.yul\":1176:1335   */\n      pop\n      pop\n      jump\t// out\n        /* \"#utility.yul\":1341:1591   */\n    tag_25:\n        /* \"#utility.yul\":1448:1452   */\n      0x00\n        /* \"#utility.yul\":1486:1488   */\n      0x20\n        /* \"#utility.yul\":1475:1484   */\n      dup3\n        /* \"#utility.yul\":1471:1489   */\n      add\n        /* \"#utility.yul\":1463:1489   */\n      swap1\n      pop\n        /* \"#utility.yul\":1499:1584   */\n      tag_350\n        /* \"#utility.yul\":1581:1582   */\n      0x00\n        /* \"#utility.yul\":1570:1579   */\n      dup4\n        /* \"#utility.yul\":1566:1583   */\n      add\n        /* \"#utility.yul\":1557:1563   */\n      dup5\n        /* \"#utility.yul\":1499:1584   */\n      tag_276\n      jump\t// in\n    tag_350:\n        /* \"#utility.yul\":1341:1591   */\n      swap3\n      swap2\n      pop\n      pop\n      jump\t// out\n        /* \"#utility.yul\":1678:1795   */\n    tag_278:\n        /* \"#utility.yul\":1787:1788   */\n      0x00\n        /* \"#utility.yul\":1784:1785   */\n      dup1\n        /* \"#utility.yul\":1777:1789   */\n      revert\n        /* \"#utility.yul\":1924:2020   */\n    tag_280:\n        /* \"#utility.yul\":1961:1968   */\n      0x00\n        /* \"#utility.yul\":1990:2014   */\n      tag_355\n        /* \"#utility.yul\":2008:2013   */\n      dup3\n        /* \"#utility.yul\":1990:2014   */\n      tag_271\n      jump\t// in\n    tag_355:\n        /* \"#utility.yul\":1979:2014   */\n      swap1\n      pop\n        /* \"#utility.yul\":1924:2020   */\n      swap2\n      swap1\n      pop\n      jump\t// out\n        /* \"#utility.yul\":2026:2148   */\n    tag_281:\n        /* \"#utility.yul\":2099:2123   */\n      tag_357\n        /* \"#utility.yul\":2117:2122   */\n      dup2\n        /* \"#utility.yul\":2099:2123   */\n      tag_280\n      jump\t// in\n    tag_357:\n        /* \"#utility.yul\":2092:2097   */\n      dup2\n        /* \"#utility.yul\":2089:2124   */\n      eq\n        /* \"#utility.yul\":2079:2142   */\n      tag_358\n      jumpi\n        /* \"#utility.yul\":2138:2139   */\n      0x00\n        /* \"#utility.yul\":2135:2136   */\n      dup1\n        /* \"#utility.yul\":2128:2140   */\n      revert\n        /* \"#utility.yul\":2079:2142   */\n    tag_358:\n        /* \"#utility.yul\":2026:2148   */\n      pop\n      jump\t// out\n        /* \"#utility.yul\":2154:2293   */\n    tag_282:\n        /* \"#utility.yul\":2200:2205   */\n      0x00\n        /* \"#utility.yul\":2238:2244   */\n      dup2\n        /* \"#utility.yul\":2225:2245   */\n      calldataload\n        /* \"#utility.yul\":2216:2245   */\n      swap1\n      pop\n        /* \"#utility.yul\":2254:2287   */\n      tag_360\n        /* \"#utility.yul\":2281:2286   */\n      dup2\n        /* \"#utility.yul\":2254:2287   */\n      tag_281\n      jump\t// in\n    tag_360:\n        /* \"#utility.yul\":2154:2293   */\n      swap3\n      swap2\n      pop\n      pop\n      jump\t// out\n        /* \"#utility.yul\":2299:2421   */\n    tag_283:\n        /* \"#utility.yul\":2372:2396   */\n      tag_362\n        /* \"#utility.yul\":2390:2395   */\n      dup2\n        /* \"#utility.yul\":2372:2396   */\n      tag_269\n      jump\t// in\n    tag_362:\n        /* \"#utility.yul\":2365:2370   */\n      dup2\n        /* \"#utility.yul\":2362:2397   */\n      eq\n        /* \"#utility.yul\":2352:2415   */\n      tag_363\n      jumpi\n        /* \"#utility.yul\":2411:2412   */\n      0x00\n        /* \"#utility.yul\":2408:2409   */\n      dup1\n        /* \"#utility.yul\":2401:2413   */\n      revert\n        /* \"#utility.yul\":2352:2415   */\n    tag_363:\n        /* \"#utility.yul\":2299:2421   */\n      pop\n      jump\t// out\n        /* \"#utility.yul\":2427:2566   */\n    tag_284:\n        /* \"#utility.yul\":2473:2478   */\n      0x00\n        /* \"#utility.yul\":2511:2517   */\n      dup2\n        /* \"#utility.yul\":2498:2518   */\n      calldataload\n        /* \"#utility.yul\":2489:2518   */\n      swap1\n      pop\n        /* \"#utility.yul\":2527:2560   */\n      tag_365\n        /* \"#utility.yul\":2554:2559   */\n      dup2\n        /* \"#utility.yul\":2527:2560   */\n      tag_283\n      jump\t// in\n    tag_365:\n        /* \"#utility.yul\":2427:2566   */\n      swap3\n      swap2\n      pop\n      pop\n      jump\t// out\n        /* \"#utility.yul\":2572:3046   */\n    tag_28:\n        /* \"#utility.yul\":2640:2646   */\n      0x00\n        /* \"#utility.yul\":2648:2654   */\n      dup1\n        /* \"#utility.yul\":2697:2699   */\n      0x40\n        /* \"#utility.yul\":2685:2694   */\n      dup4\n        /* \"#utility.yul\":2676:2683   */\n      dup6\n        /* \"#utility.yul\":2672:2695   */\n      sub\n        /* \"#utility.yul\":2668:2700   */\n      slt\n        /* \"#utility.yul\":2665:2784   */\n      iszero\n      tag_367\n      jumpi\n        /* \"#utility.yul\":2703:2782   */\n      tag_368\n      tag_278\n      jump\t// in\n    tag_368:\n        /* \"#utility.yul\":2665:2784   */\n    tag_367:\n        /* \"#utility.yul\":2823:2824   */\n      0x00\n        /* \"#utility.yul\":2848:2901   */\n      tag_369\n        /* \"#utility.yul\":2893:2900   */\n      dup6\n        /* \"#utility.yul\":2884:2890   */\n      dup3\n        /* \"#utility.yul\":2873:2882   */\n      dup7\n        /* \"#utility.yul\":2869:2891   */\n      add\n        /* \"#utility.yul\":2848:2901   */\n      tag_282\n      jump\t// in\n    tag_369:\n        /* \"#utility.yul\":2838:2901   */\n      swap3\n      pop\n        /* \"#utility.yul\":2794:2911   */\n      pop\n        /* \"#utility.yul\":2950:2952   */\n      0x20\n        /* \"#utility.yul\":2976:3029   */\n      tag_370\n        /* \"#utility.yul\":3021:3028   */\n      dup6\n        /* \"#utility.yul\":3012:3018   */\n      dup3\n        /* \"#utility.yul\":3001:3010   */\n      dup7\n        /* \"#utility.yul\":2997:3019   */\n      add\n        /* \"#utility.yul\":2976:3029   */\n      tag_284\n      jump\t// in\n    tag_370:\n        /* \"#utility.yul\":2966:3029   */\n      swap2\n      pop\n        /* \"#utility.yul\":2921:3039   */\n      pop\n        /* \"#utility.yul\":2572:3046   */\n      swap3\n      pop\n      swap3\n      swap1\n      pop\n      jump\t// out\n        /* \"#utility.yul\":3052:3274   */\n    tag_31:\n        /* \"#utility.yul\":3145:3149   */\n      0x00\n        /* \"#utility.yul\":3183:3185   */\n      0x20\n        /* \"#utility.yul\":3172:3181   */\n      dup3\n        /* \"#utility.yul\":3168:3186   */\n      add\n        /* \"#utility.yul\":3160:3186   */\n      swap1\n      pop\n        /* \"#utility.yul\":3196:3267   */\n      tag_372\n        /* \"#utility.yul\":3264:3265   */\n      0x00\n        /* \"#utility.yul\":3253:3262   */\n      dup4\n        /* \"#utility.yul\":3249:3266   */\n      add\n        /* \"#utility.yul\":3240:3246   */\n      dup5\n        /* \"#utility.yul\":3196:3267   */\n      tag_270\n      jump\t// in\n    tag_372:\n        /* \"#utility.yul\":3052:3274   */\n      swap3\n      swap2\n      pop\n      pop\n      jump\t// out\n        /* \"#utility.yul\":3280:3899   */\n    tag_37:\n        /* \"#utility.yul\":3357:3363   */\n      0x00\n        /* \"#utility.yul\":3365:3371   */\n      dup1\n        /* \"#utility.yul\":3373:3379   */\n      0x00\n        /* \"#utility.yul\":3422:3424   */\n      0x60\n        /* \"#utility.yul\":3410:3419   */\n      dup5\n        /* \"#utility.yul\":3401:3408   */\n      dup7\n        /* \"#utility.yul\":3397:3420   */\n      sub\n        /* \"#utility.yul\":3393:3425   */\n      slt\n        /* \"#utility.yul\":3390:3509   */\n      iszero\n      tag_374\n      jumpi\n        /* \"#utility.yul\":3428:3507   */\n      tag_375\n      tag_278\n      jump\t// in\n    tag_375:\n        /* \"#utility.yul\":3390:3509   */\n    tag_374:\n        /* \"#utility.yul\":3548:3549   */\n      0x00\n        /* \"#utility.yul\":3573:3626   */\n      tag_376\n        /* \"#utility.yul\":3618:3625   */\n      dup7\n        /* \"#utility.yul\":3609:3615   */\n      dup3\n        /* \"#utility.yul\":3598:3607   */\n      dup8\n        /* \"#utility.yul\":3594:3616   */\n      add\n        /* \"#utility.yul\":3573:3626   */\n      tag_282\n      jump\t// in\n    tag_376:\n        /* \"#utility.yul\":3563:3626   */\n      swap4\n      pop\n        /* \"#utility.yul\":3519:3636   */\n      pop\n        /* \"#utility.yul\":3675:3677   */\n      0x20\n        /* \"#utility.yul\":3701:3754   */\n      tag_377\n        /* \"#utility.yul\":3746:3753   */\n      dup7\n        /* \"#utility.yul\":3737:3743   */\n      dup3\n        /* \"#utility.yul\":3726:3735   */\n      dup8\n        /* \"#utility.yul\":3722:3744   */\n      add\n        /* \"#utility.yul\":3701:3754   */\n      tag_284\n      jump\t// in\n    tag_377:\n        /* \"#utility.yul\":3691:3754   */\n      swap3\n      pop\n        /* \"#utility.yul\":3646:3764   */\n      pop\n        /* \"#utility.yul\":3803:3805   */\n      0x40\n        /* \"#utility.yul\":3829:3882   */\n      tag_378\n        /* \"#utility.yul\":3874:3881   */\n      dup7\n        /* \"#utility.yul\":3865:3871   */\n      dup3\n        /* \"#utility.yul\":3854:3863   */\n      dup8\n        /* \"#utility.yul\":3850:3872   */\n      add\n        /* \"#utility.yul\":3829:3882   */\n      tag_284\n      jump\t// in\n    tag_378:\n        /* \"#utility.yul\":3819:3882   */\n      swap2\n      pop\n        /* \"#utility.yul\":3774:3892   */\n      pop\n        /* \"#utility.yul\":3280:3899   */\n      swap3\n      pop\n      swap3\n      pop\n      swap3\n      jump\t// out\n        /* \"#utility.yul\":3905:4023   */\n    tag_285:\n        /* \"#utility.yul\":3992:4016   */\n      tag_380\n        /* \"#utility.yul\":4010:4015   */\n      dup2\n        /* \"#utility.yul\":3992:4016   */\n      tag_280\n      jump\t// in\n    tag_380:\n        /* \"#utility.yul\":3987:3990   */\n      dup3\n        /* \"#utility.yul\":3980:4017   */\n      mstore\n        /* \"#utility.yul\":3905:4023   */\n      pop\n      pop\n      jump\t// out\n        /* \"#utility.yul\":4029:4251   */\n    tag_45:\n        /* \"#utility.yul\":4122:4126   */\n      0x00\n        /* \"#utility.yul\":4160:4162   */\n      0x20\n        /* \"#utility.yul\":4149:4158   */\n      dup3\n        /* \"#utility.yul\":4145:4163   */\n      add\n        /* \"#utility.yul\":4137:4163   */\n      swap1\n      pop\n        /* \"#utility.yul\":4173:4244   */\n      tag_382\n        /* \"#utility.yul\":4241:4242   */\n      0x00\n        /* \"#utility.yul\":4230:4239   */\n      dup4\n        /* \"#utility.yul\":4226:4243   */\n      add\n        /* \"#utility.yul\":4217:4223   */\n      dup5\n        /* \"#utility.yul\":4173:4244   */\n      tag_285\n      jump\t// in\n    tag_382:\n        /* \"#utility.yul\":4029:4251   */\n      swap3\n      swap2\n      pop\n      pop\n      jump\t// out\n        /* \"#utility.yul\":4257:4731   */\n    tag_48:\n        /* \"#utility.yul\":4325:4331   */\n      0x00\n        /* \"#utility.yul\":4333:4339   */\n      dup1\n        /* \"#utility.yul\":4382:4384   */\n      0x40\n        /* \"#utility.yul\":4370:4379   */\n      dup4\n        /* \"#utility.yul\":4361:4368   */\n      dup6\n        /* \"#utility.yul\":4357:4380   */\n      sub\n        /* \"#utility.yul\":4353:4385   */\n      slt\n        /* \"#utility.yul\":4350:4469   */\n      iszero\n      tag_384\n      jumpi\n        /* \"#utility.yul\":4388:4467   */\n      tag_385\n      tag_278\n      jump\t// in\n    tag_385:\n        /* \"#utility.yul\":4350:4469   */\n    tag_384:\n        /* \"#utility.yul\":4508:4509   */\n      0x00\n        /* \"#utility.yul\":4533:4586   */\n      tag_386\n        /* \"#utility.yul\":4578:4585   */\n      dup6\n        /* \"#utility.yul\":4569:4575   */\n      dup3\n        /* \"#utility.yul\":4558:4567   */\n      dup7\n        /* \"#utility.yul\":4554:4576   */\n      add\n        /* \"#utility.yul\":4533:4586   */\n      tag_284\n      jump\t// in\n    tag_386:\n        /* \"#utility.yul\":4523:4586   */\n      swap3\n      pop\n        /* \"#utility.yul\":4479:4596   */\n      pop\n        /* \"#utility.yul\":4635:4637   */\n      0x20\n        /* \"#utility.yul\":4661:4714   */\n      tag_387\n        /* \"#utility.yul\":4706:4713   */\n      dup6\n        /* \"#utility.yul\":4697:4703   */\n      dup3\n        /* \"#utility.yul\":4686:4695   */\n      dup7\n        /* \"#utility.yul\":4682:4704   */\n      add\n        /* \"#utility.yul\":4661:4714   */\n      tag_284\n      jump\t// in\n    tag_387:\n        /* \"#utility.yul\":4651:4714   */\n      swap2\n      pop\n        /* \"#utility.yul\":4606:4724   */\n      pop\n        /* \"#utility.yul\":4257:4731   */\n      swap3\n      pop\n      swap3\n      swap1\n      pop\n      jump\t// out\n        /* \"#utility.yul\":4737:5066   */\n    tag_65:\n        /* \"#utility.yul\":4796:4802   */\n      0x00\n        /* \"#utility.yul\":4845:4847   */\n      0x20\n        /* \"#utility.yul\":4833:4842   */\n      dup3\n        /* \"#utility.yul\":4824:4831   */\n      dup5\n        /* \"#utility.yul\":4820:4843   */\n      sub\n        /* \"#utility.yul\":4816:4848   */\n      slt\n        /* \"#utility.yul\":4813:4932   */\n      iszero\n      tag_389\n      jumpi\n        /* \"#utility.yul\":4851:4930   */\n      tag_390\n      tag_278\n      jump\t// in\n    tag_390:\n        /* \"#utility.yul\":4813:4932   */\n    tag_389:\n        /* \"#utility.yul\":4971:4972   */\n      0x00\n        /* \"#utility.yul\":4996:5049   */\n      tag_391\n        /* \"#utility.yul\":5041:5048   */\n      dup5\n        /* \"#utility.yul\":5032:5038   */\n      dup3\n        /* \"#utility.yul\":5021:5030   */\n      dup6\n        /* \"#utility.yul\":5017:5039   */\n      add\n        /* \"#utility.yul\":4996:5049   */\n      tag_282\n      jump\t// in\n    tag_391:\n        /* \"#utility.yul\":4986:5049   */\n      swap2\n      pop\n        /* \"#utility.yul\":4942:5059   */\n      pop\n        /* \"#utility.yul\":4737:5066   */\n      swap3\n      swap2\n      pop\n      pop\n      jump\t// out\n        /* \"#utility.yul\":5072:5241   */\n    tag_286:\n        /* \"#utility.yul\":5156:5167   */\n      0x00\n        /* \"#utility.yul\":5190:5196   */\n      dup3\n        /* \"#utility.yul\":5185:5188   */\n      dup3\n        /* \"#utility.yul\":5178:5197   */\n      mstore\n        /* \"#utility.yul\":5230:5234   */\n      0x20\n        /* \"#utility.yul\":5225:5228   */\n      dup3\n        /* \"#utility.yul\":5221:5235   */\n      add\n        /* \"#utility.yul\":5206:5235   */\n      swap1\n      pop\n        /* \"#utility.yul\":5072:5241   */\n      swap3\n      swap2\n      pop\n      pop\n      jump\t// out\n        /* \"#utility.yul\":5247:5424   */\n    tag_287:\n        /* \"#utility.yul\":5387:5416   */\n      0x536c69707061676520746f6c6572616e63652065786365656465640000000000\n        /* \"#utility.yul\":5383:5384   */\n      0x00\n        /* \"#utility.yul\":5375:5381   */\n      dup3\n        /* \"#utility.yul\":5371:5385   */\n      add\n        /* \"#utility.yul\":5364:5417   */\n      mstore\n        /* \"#utility.yul\":5247:5424   */\n      pop\n      jump\t// out\n        /* \"#utility.yul\":5430:5796   */\n    tag_288:\n        /* \"#utility.yul\":5572:5575   */\n      0x00\n        /* \"#utility.yul\":5593:5660   */\n      tag_395\n        /* \"#utility.yul\":5657:5659   */\n      0x1b\n        /* \"#utility.yul\":5652:5655   */\n      dup4\n        /* \"#utility.yul\":5593:5660   */\n      tag_286\n      jump\t// in\n    tag_395:\n        /* \"#utility.yul\":5586:5660   */\n      swap2\n      pop\n        /* \"#utility.yul\":5669:5762   */\n      tag_396\n        /* \"#utility.yul\":5758:5761   */\n      dup3\n        /* \"#utility.yul\":5669:5762   */\n      tag_287\n      jump\t// in\n    tag_396:\n        /* \"#utility.yul\":5787:5789   */\n      0x20\n        /* \"#utility.yul\":5782:5785   */\n      dup3\n        /* \"#utility.yul\":5778:5790   */\n      add\n        /* \"#utility.yul\":5771:5790   */\n      swap1\n      pop\n        /* \"#utility.yul\":5430:5796   */\n      swap2\n      swap1\n      pop\n      jump\t// out\n        /* \"#utility.yul\":5802:6221   */\n    tag_78:\n        /* \"#utility.yul\":5968:5972   */\n      0x00\n        /* \"#utility.yul\":6006:6008   */\n      0x20\n        /* \"#utility.yul\":5995:6004   */\n      dup3\n        /* \"#utility.yul\":5991:6009   */\n      add\n        /* \"#utility.yul\":5983:6009   */\n      swap1\n      pop\n        /* \"#utility.yul\":6055:6064   */\n      dup2\n        /* \"#utility.yul\":6049:6053   */\n      dup2\n        /* \"#utility.yul\":6045:6065   */\n      sub\n        /* \"#utility.yul\":6041:6042   */\n      0x00\n        /* \"#utility.yul\":6030:6039   */\n      dup4\n        /* \"#utility.yul\":6026:6043   */\n      add\n        /* \"#utility.yul\":6019:6066   */\n      mstore\n        /* \"#utility.yul\":6083:6214   */\n      tag_398\n        /* \"#utility.yul\":6209:6213   */\n      dup2\n        /* \"#utility.yul\":6083:6214   */\n      tag_288\n      jump\t// in\n    tag_398:\n        /* \"#utility.yul\":6075:6214   */\n      swap1\n      pop\n        /* \"#utility.yul\":5802:6221   */\n      swap2\n      swap1\n      pop\n      jump\t// out\n        /* \"#utility.yul\":6227:6407   */\n    tag_289:\n        /* \"#utility.yul\":6367:6399   */\n      0x416d6f756e7473206d7573742062652067726561746572207468616e20300000\n        /* \"#utility.yul\":6363:6364   */\n      0x00\n        /* \"#utility.yul\":6355:6361   */\n      dup3\n        /* \"#utility.yul\":6351:6365   */\n      add\n        /* \"#utility.yul\":6344:6400   */\n      mstore\n        /* \"#utility.yul\":6227:6407   */\n      pop\n      jump\t// out\n        /* \"#utility.yul\":6413:6779   */\n    tag_290:\n        /* \"#utility.yul\":6555:6558   */\n      0x00\n        /* \"#utility.yul\":6576:6643   */\n      tag_401\n        /* \"#utility.yul\":6640:6642   */\n      0x1e\n        /* \"#utility.yul\":6635:6638   */\n      dup4\n        /* \"#utility.yul\":6576:6643   */\n      tag_286\n      jump\t// in\n    tag_401:\n        /* \"#utility.yul\":6569:6643   */\n      swap2\n      pop\n        /* \"#utility.yul\":6652:6745   */\n      tag_402\n        /* \"#utility.yul\":6741:6744   */\n      dup3\n        /* \"#utility.yul\":6652:6745   */\n      tag_289\n      jump\t// in\n    tag_402:\n        /* \"#utility.yul\":6770:6772   */\n      0x20\n        /* \"#utility.yul\":6765:6768   */\n      dup3\n        /* \"#utility.yul\":6761:6773   */\n      add\n        /* \"#utility.yul\":6754:6773   */\n      swap1\n      pop\n        /* \"#utility.yul\":6413:6779   */\n      swap2\n      swap1\n      pop\n      jump\t// out\n        /* \"#utility.yul\":6785:7204   */\n    tag_94:\n        /* \"#utility.yul\":6951:6955   */\n      0x00\n        /* \"#utility.yul\":6989:6991   */\n      0x20\n        /* \"#utility.yul\":6978:6987   */\n      dup3\n        /* \"#utility.yul\":6974:6992   */\n      add\n        /* \"#utility.yul\":6966:6992   */\n      swap1\n      pop\n        /* \"#utility.yul\":7038:7047   */\n      dup2\n        /* \"#utility.yul\":7032:7036   */\n      dup2\n        /* \"#utility.yul\":7028:7048   */\n      sub\n        /* \"#utility.yul\":7024:7025   */\n      0x00\n        /* \"#utility.yul\":7013:7022   */\n      dup4\n        /* \"#utility.yul\":7009:7026   */\n      add\n        /* \"#utility.yul\":7002:7049   */\n      mstore\n        /* \"#utility.yul\":7066:7197   */\n      tag_404\n        /* \"#utility.yul\":7192:7196   */\n      dup2\n        /* \"#utility.yul\":7066:7197   */\n      tag_290\n      jump\t// in\n    tag_404:\n        /* \"#utility.yul\":7058:7197   */\n      swap1\n      pop\n        /* \"#utility.yul\":6785:7204   */\n      swap2\n      swap1\n      pop\n      jump\t// out\n        /* \"#utility.yul\":7210:7542   */\n    tag_96:\n        /* \"#utility.yul\":7331:7335   */\n      0x00\n        /* \"#utility.yul\":7369:7371   */\n      0x40\n        /* \"#utility.yul\":7358:7367   */\n      dup3\n        /* \"#utility.yul\":7354:7372   */\n      add\n        /* \"#utility.yul\":7346:7372   */\n      swap1\n      pop\n        /* \"#utility.yul\":7382:7453   */\n      tag_406\n        /* \"#utility.yul\":7450:7451   */\n      0x00\n        /* \"#utility.yul\":7439:7448   */\n      dup4\n        /* \"#utility.yul\":7435:7452   */\n      add\n        /* \"#utility.yul\":7426:7432   */\n      dup6\n        /* \"#utility.yul\":7382:7453   */\n      tag_285\n      jump\t// in\n    tag_406:\n        /* \"#utility.yul\":7463:7535   */\n      tag_407\n        /* \"#utility.yul\":7531:7533   */\n      0x20\n        /* \"#utility.yul\":7520:7529   */\n      dup4\n        /* \"#utility.yul\":7516:7534   */\n      add\n        /* \"#utility.yul\":7507:7513   */\n      dup5\n        /* \"#utility.yul\":7463:7535   */\n      tag_285\n      jump\t// in\n    tag_407:\n        /* \"#utility.yul\":7210:7542   */\n      swap4\n      swap3\n      pop\n      pop\n      pop\n      jump\t// out\n        /* \"#utility.yul\":7548:7691   */\n    tag_291:\n        /* \"#utility.yul\":7605:7610   */\n      0x00\n        /* \"#utility.yul\":7636:7642   */\n      dup2\n        /* \"#utility.yul\":7630:7643   */\n      mload\n        /* \"#utility.yul\":7621:7643   */\n      swap1\n      pop\n        /* \"#utility.yul\":7652:7685   */\n      tag_409\n        /* \"#utility.yul\":7679:7684   */\n      dup2\n        /* \"#utility.yul\":7652:7685   */\n      tag_283\n      jump\t// in\n    tag_409:\n        /* \"#utility.yul\":7548:7691   */\n      swap3\n      swap2\n      pop\n      pop\n      jump\t// out\n        /* \"#utility.yul\":7697:8048   */\n    tag_100:\n        /* \"#utility.yul\":7767:7773   */\n      0x00\n        /* \"#utility.yul\":7816:7818   */\n      0x20\n        /* \"#utility.yul\":7804:7813   */\n      dup3\n        /* \"#utility.yul\":7795:7802   */\n      dup5\n        /* \"#utility.yul\":7791:7814   */\n      sub\n        /* \"#utility.yul\":7787:7819   */\n      slt\n        /* \"#utility.yul\":7784:7903   */\n      iszero\n      tag_411\n      jumpi\n        /* \"#utility.yul\":7822:7901   */\n      tag_412\n      tag_278\n      jump\t// in\n    tag_412:\n        /* \"#utility.yul\":7784:7903   */\n    tag_411:\n        /* \"#utility.yul\":7942:7943   */\n      0x00\n        /* \"#utility.yul\":7967:8031   */\n      tag_413\n        /* \"#utility.yul\":8023:8030   */\n      dup5\n        /* \"#utility.yul\":8014:8020   */\n      dup3\n        /* \"#utility.yul\":8003:8012   */\n      dup6\n        /* \"#utility.yul\":7999:8021   */\n      add\n        /* \"#utility.yul\":7967:8031   */\n      tag_291\n      jump\t// in\n    tag_413:\n        /* \"#utility.yul\":7957:8031   */\n      swap2\n      pop\n        /* \"#utility.yul\":7913:8041   */\n      pop\n        /* \"#utility.yul\":7697:8048   */\n      swap3\n      swap2\n      pop\n      pop\n      jump\t// out\n        /* \"#utility.yul\":8054:8233   */\n    tag_292:\n        /* \"#utility.yul\":8194:8225   */\n      0x496e73756666696369656e7420746f6b656e3120616c6c6f77616e6365000000\n        /* \"#utility.yul\":8190:8191   */\n      0x00\n        /* \"#utility.yul\":8182:8188   */\n      dup3\n        /* \"#utility.yul\":8178:8192   */\n      add\n        /* \"#utility.yul\":8171:8226   */\n      mstore\n        /* \"#utility.yul\":8054:8233   */\n      pop\n      jump\t// out\n        /* \"#utility.yul\":8239:8605   */\n    tag_293:\n        /* \"#utility.yul\":8381:8384   */\n      0x00\n        /* \"#utility.yul\":8402:8469   */\n      tag_416\n        /* \"#utility.yul\":8466:8468   */\n      0x1d\n        /* \"#utility.yul\":8461:8464   */\n      dup4\n        /* \"#utility.yul\":8402:8469   */\n      tag_286\n      jump\t// in\n    tag_416:\n        /* \"#utility.yul\":8395:8469   */\n      swap2\n      pop\n        /* \"#utility.yul\":8478:8571   */\n      tag_417\n        /* \"#utility.yul\":8567:8570   */\n      dup3\n        /* \"#utility.yul\":8478:8571   */\n      tag_292\n      jump\t// in\n    tag_417:\n        /* \"#utility.yul\":8596:8598   */\n      0x20\n        /* \"#utility.yul\":8591:8594   */\n      dup3\n        /* \"#utility.yul\":8587:8599   */\n      add\n        /* \"#utility.yul\":8580:8599   */\n      swap1\n      pop\n        /* \"#utility.yul\":8239:8605   */\n      swap2\n      swap1\n      pop\n      jump\t// out\n        /* \"#utility.yul\":8611:9030   */\n    tag_107:\n        /* \"#utility.yul\":8777:8781   */\n      0x00\n        /* \"#utility.yul\":8815:8817   */\n      0x20\n        /* \"#utility.yul\":8804:8813   */\n      dup3\n        /* \"#utility.yul\":8800:8818   */\n      add\n        /* \"#utility.yul\":8792:8818   */\n      swap1\n      pop\n        /* \"#utility.yul\":8864:8873   */\n      dup2\n        /* \"#utility.yul\":8858:8862   */\n      dup2\n        /* \"#utility.yul\":8854:8874   */\n      sub\n        /* \"#utility.yul\":8850:8851   */\n      0x00\n        /* \"#utility.yul\":8839:8848   */\n      dup4\n        /* \"#utility.yul\":8835:8852   */\n      add\n        /* \"#utility.yul\":8828:8875   */\n      mstore\n        /* \"#utility.yul\":8892:9023   */\n      tag_419\n        /* \"#utility.yul\":9018:9022   */\n      dup2\n        /* \"#utility.yul\":8892:9023   */\n      tag_293\n      jump\t// in\n    tag_419:\n        /* \"#utility.yul\":8884:9023   */\n      swap1\n      pop\n        /* \"#utility.yul\":8611:9030   */\n      swap2\n      swap1\n      pop\n      jump\t// out\n        /* \"#utility.yul\":9036:9215   */\n    tag_294:\n        /* \"#utility.yul\":9176:9207   */\n      0x496e73756666696369656e7420746f6b656e3220616c6c6f77616e6365000000\n        /* \"#utility.yul\":9172:9173   */\n      0x00\n        /* \"#utility.yul\":9164:9170   */\n      dup3\n        /* \"#utility.yul\":9160:9174   */\n      add\n        /* \"#utility.yul\":9153:9208   */\n      mstore\n        /* \"#utility.yul\":9036:9215   */\n      pop\n      jump\t// out\n        /* \"#utility.yul\":9221:9587   */\n    tag_295:\n        /* \"#utility.yul\":9363:9366   */\n      0x00\n        /* \"#utility.yul\":9384:9451   */\n      tag_422\n        /* \"#utility.yul\":9448:9450   */\n      0x1d\n        /* \"#utility.yul\":9443:9446   */\n      dup4\n        /* \"#utility.yul\":9384:9451   */\n      tag_286\n      jump\t// in\n    tag_422:\n        /* \"#utility.yul\":9377:9451   */\n      swap2\n      pop\n        /* \"#utility.yul\":9460:9553   */\n      tag_423\n        /* \"#utility.yul\":9549:9552   */\n      dup3\n        /* \"#utility.yul\":9460:9553   */\n      tag_294\n      jump\t// in\n    tag_423:\n        /* \"#utility.yul\":9578:9580   */\n      0x20\n        /* \"#utility.yul\":9573:9576   */\n      dup3\n        /* \"#utility.yul\":9569:9581   */\n      add\n        /* \"#utility.yul\":9562:9581   */\n      swap1\n      pop\n        /* \"#utility.yul\":9221:9587   */\n      swap2\n      swap1\n      pop\n      jump\t// out\n        /* \"#utility.yul\":9593:10012   */\n    tag_110:\n        /* \"#utility.yul\":9759:9763   */\n      0x00\n        /* \"#utility.yul\":9797:9799   */\n      0x20\n        /* \"#utility.yul\":9786:9795   */\n      dup3\n        /* \"#utility.yul\":9782:9800   */\n      add\n        /* \"#utility.yul\":9774:9800   */\n      swap1\n      pop\n        /* \"#utility.yul\":9846:9855   */\n      dup2\n        /* \"#utility.yul\":9840:9844   */\n      dup2\n        /* \"#utility.yul\":9836:9856   */\n      sub\n        /* \"#utility.yul\":9832:9833   */\n      0x00\n        /* \"#utility.yul\":9821:9830   */\n      dup4\n        /* \"#utility.yul\":9817:9834   */\n      add\n        /* \"#utility.yul\":9810:9857   */\n      mstore\n        /* \"#utility.yul\":9874:10005   */\n      tag_425\n        /* \"#utility.yul\":10000:10004   */\n      dup2\n        /* \"#utility.yul\":9874:10005   */\n      tag_295\n      jump\t// in\n    tag_425:\n        /* \"#utility.yul\":9866:10005   */\n      swap1\n      pop\n        /* \"#utility.yul\":9593:10012   */\n      swap2\n      swap1\n      pop\n      jump\t// out\n        /* \"#utility.yul\":10018:10195   */\n    tag_296:\n        /* \"#utility.yul\":10158:10187   */\n      0x496e73756666696369656e7420746f6b656e312062616c616e63650000000000\n        /* \"#utility.yul\":10154:10155   */\n      0x00\n        /* \"#utility.yul\":10146:10152   */\n      dup3\n        /* \"#utility.yul\":10142:10156   */\n      add\n        /* \"#utility.yul\":10135:10188   */\n      mstore\n        /* \"#utility.yul\":10018:10195   */\n      pop\n      jump\t// out\n        /* \"#utility.yul\":10201:10567   */\n    tag_297:\n        /* \"#utility.yul\":10343:10346   */\n      0x00\n        /* \"#utility.yul\":10364:10431   */\n      tag_428\n        /* \"#utility.yul\":10428:10430   */\n      0x1b\n        /* \"#utility.yul\":10423:10426   */\n      dup4\n        /* \"#utility.yul\":10364:10431   */\n      tag_286\n      jump\t// in\n    tag_428:\n        /* \"#utility.yul\":10357:10431   */\n      swap2\n      pop\n        /* \"#utility.yul\":10440:10533   */\n      tag_429\n        /* \"#utility.yul\":10529:10532   */\n      dup3\n        /* \"#utility.yul\":10440:10533   */\n      tag_296\n      jump\t// in\n    tag_429:\n        /* \"#utility.yul\":10558:10560   */\n      0x20\n        /* \"#utility.yul\":10553:10556   */\n      dup3\n        /* \"#utility.yul\":10549:10561   */\n      add\n        /* \"#utility.yul\":10542:10561   */\n      swap1\n      pop\n        /* \"#utility.yul\":10201:10567   */\n      swap2\n      swap1\n      pop\n      jump\t// out\n        /* \"#utility.yul\":10573:10992   */\n    tag_121:\n        /* \"#utility.yul\":10739:10743   */\n      0x00\n        /* \"#utility.yul\":10777:10779   */\n      0x20\n        /* \"#utility.yul\":10766:10775   */\n      dup3\n        /* \"#utility.yul\":10762:10780   */\n      add\n        /* \"#utility.yul\":10754:10780   */\n      swap1\n      pop\n        /* \"#utility.yul\":10826:10835   */\n      dup2\n        /* \"#utility.yul\":10820:10824   */\n      dup2\n        /* \"#utility.yul\":10816:10836   */\n      sub\n        /* \"#utility.yul\":10812:10813   */\n      0x00\n        /* \"#utility.yul\":10801:10810   */\n      dup4\n        /* \"#utility.yul\":10797:10814   */\n      add\n        /* \"#utility.yul\":10790:10837   */\n      mstore\n        /* \"#utility.yul\":10854:10985   */\n      tag_431\n        /* \"#utility.yul\":10980:10984   */\n      dup2\n        /* \"#utility.yul\":10854:10985   */\n      tag_297\n      jump\t// in\n    tag_431:\n        /* \"#utility.yul\":10846:10985   */\n      swap1\n      pop\n        /* \"#utility.yul\":10573:10992   */\n      swap2\n      swap1\n      pop\n      jump\t// out\n        /* \"#utility.yul\":10998:11175   */\n    tag_298:\n        /* \"#utility.yul\":11138:11167   */\n      0x496e73756666696369656e7420746f6b656e322062616c616e63650000000000\n        /* \"#utility.yul\":11134:11135   */\n      0x00\n        /* \"#utility.yul\":11126:11132   */\n      dup3\n        /* \"#utility.yul\":11122:11136   */\n      add\n        /* \"#utility.yul\":11115:11168   */\n      mstore\n        /* \"#utility.yul\":10998:11175   */\n      pop\n      jump\t// out\n        /* \"#utility.yul\":11181:11547   */\n    tag_299:\n        /* \"#utility.yul\":11323:11326   */\n      0x00\n        /* \"#utility.yul\":11344:11411   */\n      tag_434\n        /* \"#utility.yul\":11408:11410   */\n      0x1b\n        /* \"#utility.yul\":11403:11406   */\n      dup4\n        /* \"#utility.yul\":11344:11411   */\n      tag_286\n      jump\t// in\n    tag_434:\n        /* \"#utility.yul\":11337:11411   */\n      swap2\n      pop\n        /* \"#utility.yul\":11420:11513   */\n      tag_435\n        /* \"#utility.yul\":11509:11512   */\n      dup3\n        /* \"#utility.yul\":11420:11513   */\n      tag_298\n      jump\t// in\n    tag_435:\n        /* \"#utility.yul\":11538:11540   */\n      0x20\n        /* \"#utility.yul\":11533:11536   */\n      dup3\n        /* \"#utility.yul\":11529:11541   */\n      add\n        /* \"#utility.yul\":11522:11541   */\n      swap1\n      pop\n        /* \"#utility.yul\":11181:11547   */\n      swap2\n      swap1\n      pop\n      jump\t// out\n        /* \"#utility.yul\":11553:11972   */\n    tag_124:\n        /* \"#utility.yul\":11719:11723   */\n      0x00\n        /* \"#utility.yul\":11757:11759   */\n      0x20\n        /* \"#utility.yul\":11746:11755   */\n      dup3\n        /* \"#utility.yul\":11742:11760   */\n      add\n        /* \"#utility.yul\":11734:11760   */\n      swap1\n      pop\n        /* \"#utility.yul\":11806:11815   */\n      dup2\n        /* \"#utility.yul\":11800:11804   */\n      dup2\n        /* \"#utility.yul\":11796:11816   */\n      sub\n        /* \"#utility.yul\":11792:11793   */\n      0x00\n        /* \"#utility.yul\":11781:11790   */\n      dup4\n        /* \"#utility.yul\":11777:11794   */\n      add\n        /* \"#utility.yul\":11770:11817   */\n      mstore\n        /* \"#utility.yul\":11834:11965   */\n      tag_437\n        /* \"#utility.yul\":11960:11964   */\n      dup2\n        /* \"#utility.yul\":11834:11965   */\n      tag_299\n      jump\t// in\n    tag_437:\n        /* \"#utility.yul\":11826:11965   */\n      swap1\n      pop\n        /* \"#utility.yul\":11553:11972   */\n      swap2\n      swap1\n      pop\n      jump\t// out\n        /* \"#utility.yul\":11978:12158   */\n    tag_300:\n        /* \"#utility.yul\":12026:12103   */\n      0x4e487b7100000000000000000000000000000000000000000000000000000000\n        /* \"#utility.yul\":12023:12024   */\n      0x00\n        /* \"#utility.yul\":12016:12104   */\n      mstore\n        /* \"#utility.yul\":12123:12127   */\n      0x11\n        /* \"#utility.yul\":12120:12121   */\n      0x04\n        /* \"#utility.yul\":12113:12128   */\n      mstore\n        /* \"#utility.yul\":12147:12151   */\n      0x24\n        /* \"#utility.yul\":12144:12145   */\n      0x00\n        /* \"#utility.yul\":12137:12152   */\n      revert\n        /* \"#utility.yul\":12164:12355   */\n    tag_129:\n        /* \"#utility.yul\":12204:12207   */\n      0x00\n        /* \"#utility.yul\":12223:12243   */\n      tag_440\n        /* \"#utility.yul\":12241:12242   */\n      dup3\n        /* \"#utility.yul\":12223:12243   */\n      tag_269\n      jump\t// in\n    tag_440:\n        /* \"#utility.yul\":12218:12243   */\n      swap2\n      pop\n        /* \"#utility.yul\":12257:12277   */\n      tag_441\n        /* \"#utility.yul\":12275:12276   */\n      dup4\n        /* \"#utility.yul\":12257:12277   */\n      tag_269\n      jump\t// in\n    tag_441:\n        /* \"#utility.yul\":12252:12277   */\n      swap3\n      pop\n        /* \"#utility.yul\":12300:12301   */\n      dup3\n        /* \"#utility.yul\":12297:12298   */\n      dup3\n        /* \"#utility.yul\":12293:12302   */\n      add\n        /* \"#utility.yul\":12286:12302   */\n      swap1\n      pop\n        /* \"#utility.yul\":12321:12324   */\n      dup1\n        /* \"#utility.yul\":12318:12319   */\n      dup3\n        /* \"#utility.yul\":12315:12325   */\n      gt\n        /* \"#utility.yul\":12312:12348   */\n      iszero\n      tag_442\n      jumpi\n        /* \"#utility.yul\":12328:12346   */\n      tag_443\n      tag_300\n      jump\t// in\n    tag_443:\n        /* \"#utility.yul\":12312:12348   */\n    tag_442:\n        /* \"#utility.yul\":12164:12355   */\n      swap3\n      swap2\n      pop\n      pop\n      jump\t// out\n        /* \"#utility.yul\":12361:12533   */\n    tag_301:\n        /* \"#utility.yul\":12501:12525   */\n      0x496e73756666696369656e74206c697175696469747900000000000000000000\n        /* \"#utility.yul\":12497:12498   */\n      0x00\n        /* \"#utility.yul\":12489:12495   */\n      dup3\n        /* \"#utility.yul\":12485:12499   */\n      add\n        /* \"#utility.yul\":12478:12526   */\n      mstore\n        /* \"#utility.yul\":12361:12533   */\n      pop\n      jump\t// out\n        /* \"#utility.yul\":12539:12905   */\n    tag_302:\n        /* \"#utility.yul\":12681:12684   */\n      0x00\n        /* \"#utility.yul\":12702:12769   */\n      tag_446\n        /* \"#utility.yul\":12766:12768   */\n      0x16\n        /* \"#utility.yul\":12761:12764   */\n      dup4\n        /* \"#utility.yul\":12702:12769   */\n      tag_286\n      jump\t// in\n    tag_446:\n        /* \"#utility.yul\":12695:12769   */\n      swap2\n      pop\n        /* \"#utility.yul\":12778:12871   */\n      tag_447\n        /* \"#utility.yul\":12867:12870   */\n      dup3\n        /* \"#utility.yul\":12778:12871   */\n      tag_301\n      jump\t// in\n    tag_447:\n        /* \"#utility.yul\":12896:12898   */\n      0x20\n        /* \"#utility.yul\":12891:12894   */\n      dup3\n        /* \"#utility.yul\":12887:12899   */\n      add\n        /* \"#utility.yul\":12880:12899   */\n      swap1\n      pop\n        /* \"#utility.yul\":12539:12905   */\n      swap2\n      swap1\n      pop\n      jump\t// out\n        /* \"#utility.yul\":12911:13330   */\n    tag_144:\n        /* \"#utility.yul\":13077:13081   */\n      0x00\n        /* \"#utility.yul\":13115:13117   */\n      0x20\n        /* \"#utility.yul\":13104:13113   */\n      dup3\n        /* \"#utility.yul\":13100:13118   */\n      add\n        /* \"#utility.yul\":13092:13118   */\n      swap1\n      pop\n        /* \"#utility.yul\":13164:13173   */\n      dup2\n        /* \"#utility.yul\":13158:13162   */\n      dup2\n        /* \"#utility.yul\":13154:13174   */\n      sub\n        /* \"#utility.yul\":13150:13151   */\n      0x00\n        /* \"#utility.yul\":13139:13148   */\n      dup4\n        /* \"#utility.yul\":13135:13152   */\n      add\n        /* \"#utility.yul\":13128:13175   */\n      mstore\n        /* \"#utility.yul\":13192:13323   */\n      tag_449\n        /* \"#utility.yul\":13318:13322   */\n      dup2\n        /* \"#utility.yul\":13192:13323   */\n      tag_302\n      jump\t// in\n    tag_449:\n        /* \"#utility.yul\":13184:13323   */\n      swap1\n      pop\n        /* \"#utility.yul\":12911:13330   */\n      swap2\n      swap1\n      pop\n      jump\t// out\n        /* \"#utility.yul\":13336:13530   */\n    tag_146:\n        /* \"#utility.yul\":13376:13380   */\n      0x00\n        /* \"#utility.yul\":13396:13416   */\n      tag_451\n        /* \"#utility.yul\":13414:13415   */\n      dup3\n        /* \"#utility.yul\":13396:13416   */\n      tag_269\n      jump\t// in\n    tag_451:\n        /* \"#utility.yul\":13391:13416   */\n      swap2\n      pop\n        /* \"#utility.yul\":13430:13450   */\n      tag_452\n        /* \"#utility.yul\":13448:13449   */\n      dup4\n        /* \"#utility.yul\":13430:13450   */\n      tag_269\n      jump\t// in\n    tag_452:\n        /* \"#utility.yul\":13425:13450   */\n      swap3\n      pop\n        /* \"#utility.yul\":13474:13475   */\n      dup3\n        /* \"#utility.yul\":13471:13472   */\n      dup3\n        /* \"#utility.yul\":13467:13476   */\n      sub\n        /* \"#utility.yul\":13459:13476   */\n      swap1\n      pop\n        /* \"#utility.yul\":13498:13499   */\n      dup2\n        /* \"#utility.yul\":13492:13496   */\n      dup2\n        /* \"#utility.yul\":13489:13500   */\n      gt\n        /* \"#utility.yul\":13486:13523   */\n      iszero\n      tag_453\n      jumpi\n        /* \"#utility.yul\":13503:13521   */\n      tag_454\n      tag_300\n      jump\t// in\n    tag_454:\n        /* \"#utility.yul\":13486:13523   */\n    tag_453:\n        /* \"#utility.yul\":13336:13530   */\n      swap3\n      swap2\n      pop\n      pop\n      jump\t// out\n        /* \"#utility.yul\":13536:13699   */\n    tag_303:\n        /* \"#utility.yul\":13676:13691   */\n      0x496e76616c696420746f6b656e00000000000000000000000000000000000000\n        /* \"#utility.yul\":13672:13673   */\n      0x00\n        /* \"#utility.yul\":13664:13670   */\n      dup3\n        /* \"#utility.yul\":13660:13674   */\n      add\n        /* \"#utility.yul\":13653:13692   */\n      mstore\n        /* \"#utility.yul\":13536:13699   */\n      pop\n      jump\t// out\n        /* \"#utility.yul\":13705:14071   */\n    tag_304:\n        /* \"#utility.yul\":13847:13850   */\n      0x00\n        /* \"#utility.yul\":13868:13935   */\n      tag_457\n        /* \"#utility.yul\":13932:13934   */\n      0x0d\n        /* \"#utility.yul\":13927:13930   */\n      dup4\n        /* \"#utility.yul\":13868:13935   */\n      tag_286\n      jump\t// in\n    tag_457:\n        /* \"#utility.yul\":13861:13935   */\n      swap2\n      pop\n        /* \"#utility.yul\":13944:14037   */\n      tag_458\n        /* \"#utility.yul\":14033:14036   */\n      dup3\n        /* \"#utility.yul\":13944:14037   */\n      tag_303\n      jump\t// in\n    tag_458:\n        /* \"#utility.yul\":14062:14064   */\n      0x20\n        /* \"#utility.yul\":14057:14060   */\n      dup3\n        /* \"#utility.yul\":14053:14065   */\n      add\n        /* \"#utility.yul\":14046:14065   */\n      swap1\n      pop\n        /* \"#utility.yul\":13705:14071   */\n      swap2\n      swap1\n      pop\n      jump\t// out\n        /* \"#utility.yul\":14077:14496   */\n    tag_162:\n        /* \"#utility.yul\":14243:14247   */\n      0x00\n        /* \"#utility.yul\":14281:14283   */\n      0x20\n        /* \"#utility.yul\":14270:14279   */\n      dup3\n        /* \"#utility.yul\":14266:14284   */\n      add\n        /* \"#utility.yul\":14258:14284   */\n      swap1\n      pop\n        /* \"#utility.yul\":14330:14339   */\n      dup2\n        /* \"#utility.yul\":14324:14328   */\n      dup2\n        /* \"#utility.yul\":14320:14340   */\n      sub\n        /* \"#utility.yul\":14316:14317   */\n      0x00\n        /* \"#utility.yul\":14305:14314   */\n      dup4\n        /* \"#utility.yul\":14301:14318   */\n      add\n        /* \"#utility.yul\":14294:14341   */\n      mstore\n        /* \"#utility.yul\":14358:14489   */\n      tag_460\n        /* \"#utility.yul\":14484:14488   */\n      dup2\n        /* \"#utility.yul\":14358:14489   */\n      tag_304\n      jump\t// in\n    tag_460:\n        /* \"#utility.yul\":14350:14489   */\n      swap1\n      pop\n        /* \"#utility.yul\":14077:14496   */\n      swap2\n      swap1\n      pop\n      jump\t// out\n        /* \"#utility.yul\":14502:14681   */\n    tag_305:\n        /* \"#utility.yul\":14642:14673   */\n      0x416d6f756e74206d7573742062652067726561746572207468616e2030000000\n        /* \"#utility.yul\":14638:14639   */\n      0x00\n        /* \"#utility.yul\":14630:14636   */\n      dup3\n        /* \"#utility.yul\":14626:14640   */\n      add\n        /* \"#utility.yul\":14619:14674   */\n      mstore\n        /* \"#utility.yul\":14502:14681   */\n      pop\n      jump\t// out\n        /* \"#utility.yul\":14687:15053   */\n    tag_306:\n        /* \"#utility.yul\":14829:14832   */\n      0x00\n        /* \"#utility.yul\":14850:14917   */\n      tag_463\n        /* \"#utility.yul\":14914:14916   */\n      0x1d\n        /* \"#utility.yul\":14909:14912   */\n      dup4\n        /* \"#utility.yul\":14850:14917   */\n      tag_286\n      jump\t// in\n    tag_463:\n        /* \"#utility.yul\":14843:14917   */\n      swap2\n      pop\n        /* \"#utility.yul\":14926:15019   */\n      tag_464\n        /* \"#utility.yul\":15015:15018   */\n      dup3\n        /* \"#utility.yul\":14926:15019   */\n      tag_305\n      jump\t// in\n    tag_464:\n        /* \"#utility.yul\":15044:15046   */\n      0x20\n        /* \"#utility.yul\":15039:15042   */\n      dup3\n        /* \"#utility.yul\":15035:15047   */\n      add\n        /* \"#utility.yul\":15028:15047   */\n      swap1\n      pop\n        /* \"#utility.yul\":14687:15053   */\n      swap2\n      swap1\n      pop\n      jump\t// out\n        /* \"#utility.yul\":15059:15478   */\n    tag_165:\n        /* \"#utility.yul\":15225:15229   */\n      0x00\n        /* \"#utility.yul\":15263:15265   */\n      0x20\n        /* \"#utility.yul\":15252:15261   */\n      dup3\n        /* \"#utility.yul\":15248:15266   */\n      add\n        /* \"#utility.yul\":15240:15266   */\n      swap1\n      pop\n        /* \"#utility.yul\":15312:15321   */\n      dup2\n        /* \"#utility.yul\":15306:15310   */\n      dup2\n        /* \"#utility.yul\":15302:15322   */\n      sub\n        /* \"#utility.yul\":15298:15299   */\n      0x00\n        /* \"#utility.yul\":15287:15296   */\n      dup4\n        /* \"#utility.yul\":15283:15300   */\n      add\n        /* \"#utility.yul\":15276:15323   */\n      mstore\n        /* \"#utility.yul\":15340:15471   */\n      tag_466\n        /* \"#utility.yul\":15466:15470   */\n      dup2\n        /* \"#utility.yul\":15340:15471   */\n      tag_306\n      jump\t// in\n    tag_466:\n        /* \"#utility.yul\":15332:15471   */\n      swap1\n      pop\n        /* \"#utility.yul\":15059:15478   */\n      swap2\n      swap1\n      pop\n      jump\t// out\n        /* \"#utility.yul\":15484:16037   */\n    tag_185:\n        /* \"#utility.yul\":15661:15665   */\n      0x00\n        /* \"#utility.yul\":15699:15702   */\n      0x80\n        /* \"#utility.yul\":15688:15697   */\n      dup3\n        /* \"#utility.yul\":15684:15703   */\n      add\n        /* \"#utility.yul\":15676:15703   */\n      swap1\n      pop\n        /* \"#utility.yul\":15713:15784   */\n      tag_468\n        /* \"#utility.yul\":15781:15782   */\n      0x00\n        /* \"#utility.yul\":15770:15779   */\n      dup4\n        /* \"#utility.yul\":15766:15783   */\n      add\n        /* \"#utility.yul\":15757:15763   */\n      dup8\n        /* \"#utility.yul\":15713:15784   */\n      tag_285\n      jump\t// in\n    tag_468:\n        /* \"#utility.yul\":15794:15866   */\n      tag_469\n        /* \"#utility.yul\":15862:15864   */\n      0x20\n        /* \"#utility.yul\":15851:15860   */\n      dup4\n        /* \"#utility.yul\":15847:15865   */\n      add\n        /* \"#utility.yul\":15838:15844   */\n      dup7\n        /* \"#utility.yul\":15794:15866   */\n      tag_270\n      jump\t// in\n    tag_469:\n        /* \"#utility.yul\":15876:15948   */\n      tag_470\n        /* \"#utility.yul\":15944:15946   */\n      0x40\n        /* \"#utility.yul\":15933:15942   */\n      dup4\n        /* \"#utility.yul\":15929:15947   */\n      add\n        /* \"#utility.yul\":15920:15926   */\n      dup6\n        /* \"#utility.yul\":15876:15948   */\n      tag_285\n      jump\t// in\n    tag_470:\n        /* \"#utility.yul\":15958:16030   */\n      tag_471\n        /* \"#utility.yul\":16026:16028   */\n      0x60\n        /* \"#utility.yul\":16015:16024   */\n      dup4\n        /* \"#utility.yul\":16011:16029   */\n      add\n        /* \"#utility.yul\":16002:16008   */\n      dup5\n        /* \"#utility.yul\":15958:16030   */\n      tag_270\n      jump\t// in\n    tag_471:\n        /* \"#utility.yul\":15484:16037   */\n      swap6\n      swap5\n      pop\n      pop\n      pop\n      pop\n      pop\n      jump\t// out\n        /* \"#utility.yul\":16043:16268   */\n    tag_307:\n        /* \"#utility.yul\":16183:16217   */\n      0x4f776e61626c653a206e6577206f776e657220697320746865207a65726f2061\n        /* \"#utility.yul\":16179:16180   */\n      0x00\n        /* \"#utility.yul\":16171:16177   */\n      dup3\n        /* \"#utility.yul\":16167:16181   */\n      add\n        /* \"#utility.yul\":16160:16218   */\n      mstore\n        /* \"#utility.yul\":16252:16260   */\n      0x6464726573730000000000000000000000000000000000000000000000000000\n        /* \"#utility.yul\":16247:16249   */\n      0x20\n        /* \"#utility.yul\":16239:16245   */\n      dup3\n        /* \"#utility.yul\":16235:16250   */\n      add\n        /* \"#utility.yul\":16228:16261   */\n      mstore\n        /* \"#utility.yul\":16043:16268   */\n      pop\n      jump\t// out\n        /* \"#utility.yul\":16274:16640   */\n    tag_308:\n        /* \"#utility.yul\":16416:16419   */\n      0x00\n        /* \"#utility.yul\":16437:16504   */\n      tag_474\n        /* \"#utility.yul\":16501:16503   */\n      0x26\n        /* \"#utility.yul\":16496:16499   */\n      dup4\n        /* \"#utility.yul\":16437:16504   */\n      tag_286\n      jump\t// in\n    tag_474:\n        /* \"#utility.yul\":16430:16504   */\n      swap2\n      pop\n        /* \"#utility.yul\":16513:16606   */\n      tag_475\n        /* \"#utility.yul\":16602:16605   */\n      dup3\n        /* \"#utility.yul\":16513:16606   */\n      tag_307\n      jump\t// in\n    tag_475:\n        /* \"#utility.yul\":16631:16633   */\n      0x40\n        /* \"#utility.yul\":16626:16629   */\n      dup3\n        /* \"#utility.yul\":16622:16634   */\n      add\n        /* \"#utility.yul\":16615:16634   */\n      swap1\n      pop\n        /* \"#utility.yul\":16274:16640   */\n      swap2\n      swap1\n      pop\n      jump\t// out\n        /* \"#utility.yul\":16646:17065   */\n    tag_192:\n        /* \"#utility.yul\":16812:16816   */\n      0x00\n        /* \"#utility.yul\":16850:16852   */\n      0x20\n        /* \"#utility.yul\":16839:16848   */\n      dup3\n        /* \"#utility.yul\":16835:16853   */\n      add\n        /* \"#utility.yul\":16827:16853   */\n      swap1\n      pop\n        /* \"#utility.yul\":16899:16908   */\n      dup2\n        /* \"#utility.yul\":16893:16897   */\n      dup2\n        /* \"#utility.yul\":16889:16909   */\n      sub\n        /* \"#utility.yul\":16885:16886   */\n      0x00\n        /* \"#utility.yul\":16874:16883   */\n      dup4\n        /* \"#utility.yul\":16870:16887   */\n      add\n        /* \"#utility.yul\":16863:16910   */\n      mstore\n        /* \"#utility.yul\":16927:17058   */\n      tag_477\n        /* \"#utility.yul\":17053:17057   */\n      dup2\n        /* \"#utility.yul\":16927:17058   */\n      tag_308\n      jump\t// in\n    tag_477:\n        /* \"#utility.yul\":16919:17058   */\n      swap1\n      pop\n        /* \"#utility.yul\":16646:17065   */\n      swap2\n      swap1\n      pop\n      jump\t// out\n        /* \"#utility.yul\":17071:17481   */\n    tag_200:\n        /* \"#utility.yul\":17111:17118   */\n      0x00\n        /* \"#utility.yul\":17134:17154   */\n      tag_479\n        /* \"#utility.yul\":17152:17153   */\n      dup3\n        /* \"#utility.yul\":17134:17154   */\n      tag_269\n      jump\t// in\n    tag_479:\n        /* \"#utility.yul\":17129:17154   */\n      swap2\n      pop\n        /* \"#utility.yul\":17168:17188   */\n      tag_480\n        /* \"#utility.yul\":17186:17187   */\n      dup4\n        /* \"#utility.yul\":17168:17188   */\n      tag_269\n      jump\t// in\n    tag_480:\n        /* \"#utility.yul\":17163:17188   */\n      swap3\n      pop\n        /* \"#utility.yul\":17223:17224   */\n      dup3\n        /* \"#utility.yul\":17220:17221   */\n      dup3\n        /* \"#utility.yul\":17216:17225   */\n      mul\n        /* \"#utility.yul\":17245:17275   */\n      tag_481\n        /* \"#utility.yul\":17263:17274   */\n      dup2\n        /* \"#utility.yul\":17245:17275   */\n      tag_269\n      jump\t// in\n    tag_481:\n        /* \"#utility.yul\":17234:17275   */\n      swap2\n      pop\n        /* \"#utility.yul\":17424:17425   */\n      dup3\n        /* \"#utility.yul\":17415:17422   */\n      dup3\n        /* \"#utility.yul\":17411:17426   */\n      div\n        /* \"#utility.yul\":17408:17409   */\n      dup5\n        /* \"#utility.yul\":17405:17427   */\n      eq\n        /* \"#utility.yul\":17385:17386   */\n      dup4\n        /* \"#utility.yul\":17378:17387   */\n      iszero\n        /* \"#utility.yul\":17358:17441   */\n      or\n        /* \"#utility.yul\":17335:17474   */\n      tag_482\n      jumpi\n        /* \"#utility.yul\":17454:17472   */\n      tag_483\n      tag_300\n      jump\t// in\n    tag_483:\n        /* \"#utility.yul\":17335:17474   */\n    tag_482:\n        /* \"#utility.yul\":17119:17481   */\n      pop\n        /* \"#utility.yul\":17071:17481   */\n      swap3\n      swap2\n      pop\n      pop\n      jump\t// out\n        /* \"#utility.yul\":17487:17667   */\n    tag_309:\n        /* \"#utility.yul\":17535:17612   */\n      0x4e487b7100000000000000000000000000000000000000000000000000000000\n        /* \"#utility.yul\":17532:17533   */\n      0x00\n        /* \"#utility.yul\":17525:17613   */\n      mstore\n        /* \"#utility.yul\":17632:17636   */\n      0x12\n        /* \"#utility.yul\":17629:17630   */\n      0x04\n        /* \"#utility.yul\":17622:17637   */\n      mstore\n        /* \"#utility.yul\":17656:17660   */\n      0x24\n        /* \"#utility.yul\":17653:17654   */\n      0x00\n        /* \"#utility.yul\":17646:17661   */\n      revert\n        /* \"#utility.yul\":17673:17858   */\n    tag_205:\n        /* \"#utility.yul\":17713:17714   */\n      0x00\n        /* \"#utility.yul\":17730:17750   */\n      tag_486\n        /* \"#utility.yul\":17748:17749   */\n      dup3\n        /* \"#utility.yul\":17730:17750   */\n      tag_269\n      jump\t// in\n    tag_486:\n        /* \"#utility.yul\":17725:17750   */\n      swap2\n      pop\n        /* \"#utility.yul\":17764:17784   */\n      tag_487\n        /* \"#utility.yul\":17782:17783   */\n      dup4\n        /* \"#utility.yul\":17764:17784   */\n      tag_269\n      jump\t// in\n    tag_487:\n        /* \"#utility.yul\":17759:17784   */\n      swap3\n      pop\n        /* \"#utility.yul\":17803:17804   */\n      dup3\n        /* \"#utility.yul\":17793:17828   */\n      tag_488\n      jumpi\n        /* \"#utility.yul\":17808:17826   */\n      tag_489\n      tag_309\n      jump\t// in\n    tag_489:\n        /* \"#utility.yul\":17793:17828   */\n    tag_488:\n        /* \"#utility.yul\":17850:17851   */\n      dup3\n        /* \"#utility.yul\":17847:17848   */\n      dup3\n        /* \"#utility.yul\":17843:17852   */\n      div\n        /* \"#utility.yul\":17838:17852   */\n      swap1\n      pop\n        /* \"#utility.yul\":17673:17858   */\n      swap3\n      swap2\n      pop\n      pop\n      jump\t// out\n        /* \"#utility.yul\":17864:18045   */\n    tag_310:\n        /* \"#utility.yul\":18004:18037   */\n      0x5265656e7472616e637947756172643a207265656e7472616e742063616c6c00\n        /* \"#utility.yul\":18000:18001   */\n      0x00\n        /* \"#utility.yul\":17992:17998   */\n      dup3\n        /* \"#utility.yul\":17988:18002   */\n      add\n        /* \"#utility.yul\":17981:18038   */\n      mstore\n        /* \"#utility.yul\":17864:18045   */\n      pop\n      jump\t// out\n        /* \"#utility.yul\":18051:18417   */\n    tag_311:\n        /* \"#utility.yul\":18193:18196   */\n      0x00\n        /* \"#utility.yul\":18214:18281   */\n      tag_492\n        /* \"#utility.yul\":18278:18280   */\n      0x1f\n        /* \"#utility.yul\":18273:18276   */\n      dup4\n        /* \"#utility.yul\":18214:18281   */\n      tag_286\n      jump\t// in\n    tag_492:\n        /* \"#utility.yul\":18207:18281   */\n      swap2\n      pop\n        /* \"#utility.yul\":18290:18383   */\n      tag_493\n        /* \"#utility.yul\":18379:18382   */\n      dup3\n        /* \"#utility.yul\":18290:18383   */\n      tag_310\n      jump\t// in\n    tag_493:\n        /* \"#utility.yul\":18408:18410   */\n      0x20\n        /* \"#utility.yul\":18403:18406   */\n      dup3\n        /* \"#utility.yul\":18399:18411   */\n      add\n        /* \"#utility.yul\":18392:18411   */\n      swap1\n      pop\n        /* \"#utility.yul\":18051:18417   */\n      swap2\n      swap1\n      pop\n      jump\t// out\n        /* \"#utility.yul\":18423:18842   */\n    tag_209:\n        /* \"#utility.yul\":18589:18593   */\n      0x00\n        /* \"#utility.yul\":18627:18629   */\n      0x20\n        /* \"#utility.yul\":18616:18625   */\n      dup3\n        /* \"#utility.yul\":18612:18630   */\n      add\n        /* \"#utility.yul\":18604:18630   */\n      swap1\n      pop\n        /* \"#utility.yul\":18676:18685   */\n      dup2\n        /* \"#utility.yul\":18670:18674   */\n      dup2\n        /* \"#utility.yul\":18666:18686   */\n      sub\n        /* \"#utility.yul\":18662:18663   */\n      0x00\n        /* \"#utility.yul\":18651:18660   */\n      dup4\n        /* \"#utility.yul\":18647:18664   */\n      add\n        /* \"#utility.yul\":18640:18687   */\n      mstore\n        /* \"#utility.yul\":18704:18835   */\n      tag_495\n        /* \"#utility.yul\":18830:18834   */\n      dup2\n        /* \"#utility.yul\":18704:18835   */\n      tag_311\n      jump\t// in\n    tag_495:\n        /* \"#utility.yul\":18696:18835   */\n      swap1\n      pop\n        /* \"#utility.yul\":18423:18842   */\n      swap2\n      swap1\n      pop\n      jump\t// out\n        /* \"#utility.yul\":18848:19030   */\n    tag_312:\n        /* \"#utility.yul\":18988:19022   */\n      0x4f776e61626c653a2063616c6c6572206973206e6f7420746865206f776e6572\n        /* \"#utility.yul\":18984:18985   */\n      0x00\n        /* \"#utility.yul\":18976:18982   */\n      dup3\n        /* \"#utility.yul\":18972:18986   */\n      add\n        /* \"#utility.yul\":18965:19023   */\n      mstore\n        /* \"#utility.yul\":18848:19030   */\n      pop\n      jump\t// out\n        /* \"#utility.yul\":19036:19402   */\n    tag_313:\n        /* \"#utility.yul\":19178:19181   */\n      0x00\n        /* \"#utility.yul\":19199:19266   */\n      tag_498\n        /* \"#utility.yul\":19263:19265   */\n      0x20\n        /* \"#utility.yul\":19258:19261   */\n      dup4\n        /* \"#utility.yul\":19199:19266   */\n      tag_286\n      jump\t// in\n    tag_498:\n        /* \"#utility.yul\":19192:19266   */\n      swap2\n      pop\n        /* \"#utility.yul\":19275:19368   */\n      tag_499\n        /* \"#utility.yul\":19364:19367   */\n      dup3\n        /* \"#utility.yul\":19275:19368   */\n      tag_312\n      jump\t// in\n    tag_499:\n        /* \"#utility.yul\":19393:19395   */\n      0x20\n        /* \"#utility.yul\":19388:19391   */\n      dup3\n        /* \"#utility.yul\":19384:19396   */\n      add\n        /* \"#utility.yul\":19377:19396   */\n      swap1\n      pop\n        /* \"#utility.yul\":19036:19402   */\n      swap2\n      swap1\n      pop\n      jump\t// out\n        /* \"#utility.yul\":19408:19827   */\n    tag_217:\n        /* \"#utility.yul\":19574:19578   */\n      0x00\n        /* \"#utility.yul\":19612:19614   */\n      0x20\n        /* \"#utility.yul\":19601:19610   */\n      dup3\n        /* \"#utility.yul\":19597:19615   */\n      add\n        /* \"#utility.yul\":19589:19615   */\n      swap1\n      pop\n        /* \"#utility.yul\":19661:19670   */\n      dup2\n        /* \"#utility.yul\":19655:19659   */\n      dup2\n        /* \"#utility.yul\":19651:19671   */\n      sub\n        /* \"#utility.yul\":19647:19648   */\n      0x00\n        /* \"#utility.yul\":19636:19645   */\n      dup4\n        /* \"#utility.yul\":19632:19649   */\n      add\n        /* \"#utility.yul\":19625:19672   */\n      mstore\n        /* \"#utility.yul\":19689:19820   */\n      tag_501\n        /* \"#utility.yul\":19815:19819   */\n      dup2\n        /* \"#utility.yul\":19689:19820   */\n      tag_313\n      jump\t// in\n    tag_501:\n        /* \"#utility.yul\":19681:19820   */\n      swap1\n      pop\n        /* \"#utility.yul\":19408:19827   */\n      swap2\n      swap1\n      pop\n      jump\t// out\n        /* \"#utility.yul\":19833:20275   */\n    tag_222:\n        /* \"#utility.yul\":19982:19986   */\n      0x00\n        /* \"#utility.yul\":20020:20022   */\n      0x60\n        /* \"#utility.yul\":20009:20018   */\n      dup3\n        /* \"#utility.yul\":20005:20023   */\n      add\n        /* \"#utility.yul\":19997:20023   */\n      swap1\n      pop\n        /* \"#utility.yul\":20033:20104   */\n      tag_503\n        /* \"#utility.yul\":20101:20102   */\n      0x00\n        /* \"#utility.yul\":20090:20099   */\n      dup4\n        /* \"#utility.yul\":20086:20103   */\n      add\n        /* \"#utility.yul\":20077:20083   */\n      dup7\n        /* \"#utility.yul\":20033:20104   */\n      tag_285\n      jump\t// in\n    tag_503:\n        /* \"#utility.yul\":20114:20186   */\n      tag_504\n        /* \"#utility.yul\":20182:20184   */\n      0x20\n        /* \"#utility.yul\":20171:20180   */\n      dup4\n        /* \"#utility.yul\":20167:20185   */\n      add\n        /* \"#utility.yul\":20158:20164   */\n      dup6\n        /* \"#utility.yul\":20114:20186   */\n      tag_285\n      jump\t// in\n    tag_504:\n        /* \"#utility.yul\":20196:20268   */\n      tag_505\n        /* \"#utility.yul\":20264:20266   */\n      0x40\n        /* \"#utility.yul\":20253:20262   */\n      dup4\n        /* \"#utility.yul\":20249:20267   */\n      add\n        /* \"#utility.yul\":20240:20246   */\n      dup5\n        /* \"#utility.yul\":20196:20268   */\n      tag_270\n      jump\t// in\n    tag_505:\n        /* \"#utility.yul\":19833:20275   */\n      swap5\n      swap4\n      pop\n      pop\n      pop\n      pop\n      jump\t// out\n        /* \"#utility.yul\":20281:20613   */\n    tag_227:\n        /* \"#utility.yul\":20402:20406   */\n      0x00\n        /* \"#utility.yul\":20440:20442   */\n      0x40\n        /* \"#utility.yul\":20429:20438   */\n      dup3\n        /* \"#utility.yul\":20425:20443   */\n      add\n        /* \"#utility.yul\":20417:20443   */\n      swap1\n      pop\n        /* \"#utility.yul\":20453:20524   */\n      tag_507\n        /* \"#utility.yul\":20521:20522   */\n      0x00\n        /* \"#utility.yul\":20510:20519   */\n      dup4\n        /* \"#utility.yul\":20506:20523   */\n      add\n        /* \"#utility.yul\":20497:20503   */\n      dup6\n        /* \"#utility.yul\":20453:20524   */\n      tag_285\n      jump\t// in\n    tag_507:\n        /* \"#utility.yul\":20534:20606   */\n      tag_508\n        /* \"#utility.yul\":20602:20604   */\n      0x20\n        /* \"#utility.yul\":20591:20600   */\n      dup4\n        /* \"#utility.yul\":20587:20605   */\n      add\n        /* \"#utility.yul\":20578:20584   */\n      dup5\n        /* \"#utility.yul\":20534:20606   */\n      tag_270\n      jump\t// in\n    tag_508:\n        /* \"#utility.yul\":20281:20613   */\n      swap4\n      swap3\n      pop\n      pop\n      pop\n      jump\t// out\n        /* \"#utility.yul\":20619:20709   */\n    tag_314:\n        /* \"#utility.yul\":20653:20660   */\n      0x00\n        /* \"#utility.yul\":20696:20701   */\n      dup2\n        /* \"#utility.yul\":20689:20702   */\n      iszero\n        /* \"#utility.yul\":20682:20703   */\n      iszero\n        /* \"#utility.yul\":20671:20703   */\n      swap1\n      pop\n        /* \"#utility.yul\":20619:20709   */\n      swap2\n      swap1\n      pop\n      jump\t// out\n        /* \"#utility.yul\":20715:20831   */\n    tag_315:\n        /* \"#utility.yul\":20785:20806   */\n      tag_511\n        /* \"#utility.yul\":20800:20805   */\n      dup2\n        /* \"#utility.yul\":20785:20806   */\n      tag_314\n      jump\t// in\n    tag_511:\n        /* \"#utility.yul\":20778:20783   */\n      dup2\n        /* \"#utility.yul\":20775:20807   */\n      eq\n        /* \"#utility.yul\":20765:20825   */\n      tag_512\n      jumpi\n        /* \"#utility.yul\":20821:20822   */\n      0x00\n        /* \"#utility.yul\":20818:20819   */\n      dup1\n        /* \"#utility.yul\":20811:20823   */\n      revert\n        /* \"#utility.yul\":20765:20825   */\n    tag_512:\n        /* \"#utility.yul\":20715:20831   */\n      pop\n      jump\t// out\n        /* \"#utility.yul\":20837:20974   */\n    tag_316:\n        /* \"#utility.yul\":20891:20896   */\n      0x00\n        /* \"#utility.yul\":20922:20928   */\n      dup2\n        /* \"#utility.yul\":20916:20929   */\n      mload\n        /* \"#utility.yul\":20907:20929   */\n      swap1\n      pop\n        /* \"#utility.yul\":20938:20968   */\n      tag_514\n        /* \"#utility.yul\":20962:20967   */\n      dup2\n        /* \"#utility.yul\":20938:20968   */\n      tag_315\n      jump\t// in\n    tag_514:\n        /* \"#utility.yul\":20837:20974   */\n      swap3\n      swap2\n      pop\n      pop\n      jump\t// out\n        /* \"#utility.yul\":20980:21325   */\n    tag_234:\n        /* \"#utility.yul\":21047:21053   */\n      0x00\n        /* \"#utility.yul\":21096:21098   */\n      0x20\n        /* \"#utility.yul\":21084:21093   */\n      dup3\n        /* \"#utility.yul\":21075:21082   */\n      dup5\n        /* \"#utility.yul\":21071:21094   */\n      sub\n        /* \"#utility.yul\":21067:21099   */\n      slt\n        /* \"#utility.yul\":21064:21183   */\n      iszero\n      tag_516\n      jumpi\n        /* \"#utility.yul\":21102:21181   */\n      tag_517\n      tag_278\n      jump\t// in\n    tag_517:\n        /* \"#utility.yul\":21064:21183   */\n    tag_516:\n        /* \"#utility.yul\":21222:21223   */\n      0x00\n        /* \"#utility.yul\":21247:21308   */\n      tag_518\n        /* \"#utility.yul\":21300:21307   */\n      dup5\n        /* \"#utility.yul\":21291:21297   */\n      dup3\n        /* \"#utility.yul\":21280:21289   */\n      dup6\n        /* \"#utility.yul\":21276:21298   */\n      add\n        /* \"#utility.yul\":21247:21308   */\n      tag_316\n      jump\t// in\n    tag_518:\n        /* \"#utility.yul\":21237:21308   */\n      swap2\n      pop\n        /* \"#utility.yul\":21193:21318   */\n      pop\n        /* \"#utility.yul\":20980:21325   */\n      swap3\n      swap2\n      pop\n      pop\n      jump\t// out\n        /* \"#utility.yul\":21331:21560   */\n    tag_317:\n        /* \"#utility.yul\":21471:21505   */\n      0x5361666545524332303a204552433230206f7065726174696f6e20646964206e\n        /* \"#utility.yul\":21467:21468   */\n      0x00\n        /* \"#utility.yul\":21459:21465   */\n      dup3\n        /* \"#utility.yul\":21455:21469   */\n      add\n        /* \"#utility.yul\":21448:21506   */\n      mstore\n        /* \"#utility.yul\":21540:21552   */\n      0x6f74207375636365656400000000000000000000000000000000000000000000\n        /* \"#utility.yul\":21535:21537   */\n      0x20\n        /* \"#utility.yul\":21527:21533   */\n      dup3\n        /* \"#utility.yul\":21523:21538   */\n      add\n        /* \"#utility.yul\":21516:21553   */\n      mstore\n        /* \"#utility.yul\":21331:21560   */\n      pop\n      jump\t// out\n        /* \"#utility.yul\":21566:21932   */\n    tag_318:\n        /* \"#utility.yul\":21708:21711   */\n      0x00\n        /* \"#utility.yul\":21729:21796   */\n      tag_521\n        /* \"#utility.yul\":21793:21795   */\n      0x2a\n        /* \"#utility.yul\":21788:21791   */\n      dup4\n        /* \"#utility.yul\":21729:21796   */\n      tag_286\n      jump\t// in\n    tag_521:\n        /* \"#utility.yul\":21722:21796   */\n      swap2\n      pop\n        /* \"#utility.yul\":21805:21898   */\n      tag_522\n        /* \"#utility.yul\":21894:21897   */\n      dup3\n        /* \"#utility.yul\":21805:21898   */\n      tag_317\n      jump\t// in\n    tag_522:\n        /* \"#utility.yul\":21923:21925   */\n      0x40\n        /* \"#utility.yul\":21918:21921   */\n      dup3\n        /* \"#utility.yul\":21914:21926   */\n      add\n        /* \"#utility.yul\":21907:21926   */\n      swap1\n      pop\n        /* \"#utility.yul\":21566:21932   */\n      swap2\n      swap1\n      pop\n      jump\t// out\n        /* \"#utility.yul\":21938:22357   */\n    tag_237:\n        /* \"#utility.yul\":22104:22108   */\n      0x00\n        /* \"#utility.yul\":22142:22144   */\n      0x20\n        /* \"#utility.yul\":22131:22140   */\n      dup3\n        /* \"#utility.yul\":22127:22145   */\n      add\n        /* \"#utility.yul\":22119:22145   */\n      swap1\n      pop\n        /* \"#utility.yul\":22191:22200   */\n      dup2\n        /* \"#utility.yul\":22185:22189   */\n      dup2\n        /* \"#utility.yul\":22181:22201   */\n      sub\n        /* \"#utility.yul\":22177:22178   */\n      0x00\n        /* \"#utility.yul\":22166:22175   */\n      dup4\n        /* \"#utility.yul\":22162:22179   */\n      add\n        /* \"#utility.yul\":22155:22202   */\n      mstore\n        /* \"#utility.yul\":22219:22350   */\n      tag_524\n        /* \"#utility.yul\":22345:22349   */\n      dup2\n        /* \"#utility.yul\":22219:22350   */\n      tag_318\n      jump\t// in\n    tag_524:\n        /* \"#utility.yul\":22211:22350   */\n      swap1\n      pop\n        /* \"#utility.yul\":21938:22357   */\n      swap2\n      swap1\n      pop\n      jump\t// out\n        /* \"#utility.yul\":22363:22588   */\n    tag_319:\n        /* \"#utility.yul\":22503:22537   */\n      0x416464726573733a20696e73756666696369656e742062616c616e636520666f\n        /* \"#utility.yul\":22499:22500   */\n      0x00\n        /* \"#utility.yul\":22491:22497   */\n      dup3\n        /* \"#utility.yul\":22487:22501   */\n      add\n        /* \"#utility.yul\":22480:22538   */\n      mstore\n        /* \"#utility.yul\":22572:22580   */\n      0x722063616c6c0000000000000000000000000000000000000000000000000000\n        /* \"#utility.yul\":22567:22569   */\n      0x20\n        /* \"#utility.yul\":22559:22565   */\n      dup3\n        /* \"#utility.yul\":22555:22570   */\n      add\n        /* \"#utility.yul\":22548:22581   */\n      mstore\n        /* \"#utility.yul\":22363:22588   */\n      pop\n      jump\t// out\n        /* \"#utility.yul\":22594:22960   */\n    tag_320:\n        /* \"#utility.yul\":22736:22739   */\n      0x00\n        /* \"#utility.yul\":22757:22824   */\n      tag_527\n        /* \"#utility.yul\":22821:22823   */\n      0x26\n        /* \"#utility.yul\":22816:22819   */\n      dup4\n        /* \"#utility.yul\":22757:22824   */\n      tag_286\n      jump\t// in\n    tag_527:\n        /* \"#utility.yul\":22750:22824   */\n      swap2\n      pop\n        /* \"#utility.yul\":22833:22926   */\n      tag_528\n        /* \"#utility.yul\":22922:22925   */\n      dup3\n        /* \"#utility.yul\":22833:22926   */\n      tag_319\n      jump\t// in\n    tag_528:\n        /* \"#utility.yul\":22951:22953   */\n      0x40\n        /* \"#utility.yul\":22946:22949   */\n      dup3\n        /* \"#utility.yul\":22942:22954   */\n      add\n        /* \"#utility.yul\":22935:22954   */\n      swap1\n      pop\n        /* \"#utility.yul\":22594:22960   */\n      swap2\n      swap1\n      pop\n      jump\t// out\n        /* \"#utility.yul\":22966:23385   */\n    tag_244:\n        /* \"#utility.yul\":23132:23136   */\n      0x00\n        /* \"#utility.yul\":23170:23172   */\n      0x20\n        /* \"#utility.yul\":23159:23168   */\n      dup3\n        /* \"#utility.yul\":23155:23173   */\n      add\n        /* \"#utility.yul\":23147:23173   */\n      swap1\n      pop\n        /* \"#utility.yul\":23219:23228   */\n      dup2\n        /* \"#utility.yul\":23213:23217   */\n      dup2\n        /* \"#utility.yul\":23209:23229   */\n      sub\n        /* \"#utility.yul\":23205:23206   */\n      0x00\n        /* \"#utility.yul\":23194:23203   */\n      dup4\n        /* \"#utility.yul\":23190:23207   */\n      add\n        /* \"#utility.yul\":23183:23230   */\n      mstore\n        /* \"#utility.yul\":23247:23378   */\n      tag_530\n        /* \"#utility.yul\":23373:23377   */\n      dup2\n        /* \"#utility.yul\":23247:23378   */\n      tag_320\n      jump\t// in\n    tag_530:\n        /* \"#utility.yul\":23239:23378   */\n      swap1\n      pop\n        /* \"#utility.yul\":22966:23385   */\n      swap2\n      swap1\n      pop\n      jump\t// out\n        /* \"#utility.yul\":23391:23489   */\n    tag_321:\n        /* \"#utility.yul\":23442:23448   */\n      0x00\n        /* \"#utility.yul\":23476:23481   */\n      dup2\n        /* \"#utility.yul\":23470:23482   */\n      mload\n        /* \"#utility.yul\":23460:23482   */\n      swap1\n      pop\n        /* \"#utility.yul\":23391:23489   */\n      swap2\n      swap1\n      pop\n      jump\t// out\n        /* \"#utility.yul\":23495:23642   */\n    tag_322:\n        /* \"#utility.yul\":23596:23607   */\n      0x00\n        /* \"#utility.yul\":23633:23636   */\n      dup2\n        /* \"#utility.yul\":23618:23636   */\n      swap1\n      pop\n        /* \"#utility.yul\":23495:23642   */\n      swap3\n      swap2\n      pop\n      pop\n      jump\t// out\n        /* \"#utility.yul\":23648:23787   */\n    tag_323:\n        /* \"#utility.yul\":23737:23743   */\n      dup3\n        /* \"#utility.yul\":23732:23735   */\n      dup2\n        /* \"#utility.yul\":23727:23730   */\n      dup4\n        /* \"#utility.yul\":23721:23744   */\n      mcopy\n        /* \"#utility.yul\":23778:23779   */\n      0x00\n        /* \"#utility.yul\":23769:23775   */\n      dup4\n        /* \"#utility.yul\":23764:23767   */\n      dup4\n        /* \"#utility.yul\":23760:23776   */\n      add\n        /* \"#utility.yul\":23753:23780   */\n      mstore\n        /* \"#utility.yul\":23648:23787   */\n      pop\n      pop\n      pop\n      jump\t// out\n        /* \"#utility.yul\":23793:24179   */\n    tag_324:\n        /* \"#utility.yul\":23897:23900   */\n      0x00\n        /* \"#utility.yul\":23925:23963   */\n      tag_535\n        /* \"#utility.yul\":23957:23962   */\n      dup3\n        /* \"#utility.yul\":23925:23963   */\n      tag_321\n      jump\t// in\n    tag_535:\n        /* \"#utility.yul\":23979:24067   */\n      tag_536\n        /* \"#utility.yul\":24060:24066   */\n      dup2\n        /* \"#utility.yul\":24055:24058   */\n      dup6\n        /* \"#utility.yul\":23979:24067   */\n      tag_322\n      jump\t// in\n    tag_536:\n        /* \"#utility.yul\":23972:24067   */\n      swap4\n      pop\n        /* \"#utility.yul\":24076:24141   */\n      tag_537\n        /* \"#utility.yul\":24134:24140   */\n      dup2\n        /* \"#utility.yul\":24129:24132   */\n      dup6\n        /* \"#utility.yul\":24122:24126   */\n      0x20\n        /* \"#utility.yul\":24115:24120   */\n      dup7\n        /* \"#utility.yul\":24111:24127   */\n      add\n        /* \"#utility.yul\":24076:24141   */\n      tag_323\n      jump\t// in\n    tag_537:\n        /* \"#utility.yul\":24166:24172   */\n      dup1\n        /* \"#utility.yul\":24161:24164   */\n      dup5\n        /* \"#utility.yul\":24157:24173   */\n      add\n        /* \"#utility.yul\":24150:24173   */\n      swap2\n      pop\n        /* \"#utility.yul\":23901:24179   */\n      pop\n        /* \"#utility.yul\":23793:24179   */\n      swap3\n      swap2\n      pop\n      pop\n      jump\t// out\n        /* \"#utility.yul\":24185:24456   */\n    tag_246:\n        /* \"#utility.yul\":24315:24318   */\n      0x00\n        /* \"#utility.yul\":24337:24430   */\n      tag_539\n        /* \"#utility.yul\":24426:24429   */\n      dup3\n        /* \"#utility.yul\":24417:24423   */\n      dup5\n        /* \"#utility.yul\":24337:24430   */\n      tag_324\n      jump\t// in\n    tag_539:\n        /* \"#utility.yul\":24330:24430   */\n      swap2\n      pop\n        /* \"#utility.yul\":24447:24450   */\n      dup2\n        /* \"#utility.yul\":24440:24450   */\n      swap1\n      pop\n        /* \"#utility.yul\":24185:24456   */\n      swap3\n      swap2\n      pop\n      pop\n      jump\t// out\n        /* \"#utility.yul\":24462:24641   */\n    tag_325:\n        /* \"#utility.yul\":24602:24633   */\n      0x416464726573733a2063616c6c20746f206e6f6e2d636f6e7472616374000000\n        /* \"#utility.yul\":24598:24599   */\n      0x00\n        /* \"#utility.yul\":24590:24596   */\n      dup3\n        /* \"#utility.yul\":24586:24600   */\n      add\n        /* \"#utility.yul\":24579:24634   */\n      mstore\n        /* \"#utility.yul\":24462:24641   */\n      pop\n      jump\t// out\n        /* \"#utility.yul\":24647:25013   */\n    tag_326:\n        /* \"#utility.yul\":24789:24792   */\n      0x00\n        /* \"#utility.yul\":24810:24877   */\n      tag_542\n        /* \"#utility.yul\":24874:24876   */\n      0x1d\n        /* \"#utility.yul\":24869:24872   */\n      dup4\n        /* \"#utility.yul\":24810:24877   */\n      tag_286\n      jump\t// in\n    tag_542:\n        /* \"#utility.yul\":24803:24877   */\n      swap2\n      pop\n        /* \"#utility.yul\":24886:24979   */\n      tag_543\n        /* \"#utility.yul\":24975:24978   */\n      dup3\n        /* \"#utility.yul\":24886:24979   */\n      tag_325\n      jump\t// in\n    tag_543:\n        /* \"#utility.yul\":25004:25006   */\n      0x20\n        /* \"#utility.yul\":24999:25002   */\n      dup3\n        /* \"#utility.yul\":24995:25007   */\n      add\n        /* \"#utility.yul\":24988:25007   */\n      swap1\n      pop\n        /* \"#utility.yul\":24647:25013   */\n      swap2\n      swap1\n      pop\n      jump\t// out\n        /* \"#utility.yul\":25019:25438   */\n    tag_259:\n        /* \"#utility.yul\":25185:25189   */\n      0x00\n        /* \"#utility.yul\":25223:25225   */\n      0x20\n        /* \"#utility.yul\":25212:25221   */\n      dup3\n        /* \"#utility.yul\":25208:25226   */\n      add\n        /* \"#utility.yul\":25200:25226   */\n      swap1\n      pop\n        /* \"#utility.yul\":25272:25281   */\n      dup2\n        /* \"#utility.yul\":25266:25270   */\n      dup2\n        /* \"#utility.yul\":25262:25282   */\n      sub\n        /* \"#utility.yul\":25258:25259   */\n      0x00\n        /* \"#utility.yul\":25247:25256   */\n      dup4\n        /* \"#utility.yul\":25243:25260   */\n      add\n        /* \"#utility.yul\":25236:25283   */\n      mstore\n        /* \"#utility.yul\":25300:25431   */\n      tag_545\n        /* \"#utility.yul\":25426:25430   */\n      dup2\n        /* \"#utility.yul\":25300:25431   */\n      tag_326\n      jump\t// in\n    tag_545:\n        /* \"#utility.yul\":25292:25431   */\n      swap1\n      pop\n        /* \"#utility.yul\":25019:25438   */\n      swap2\n      swap1\n      pop\n      jump\t// out\n        /* \"#utility.yul\":25444:25543   */\n    tag_327:\n        /* \"#utility.yul\":25496:25502   */\n      0x00\n        /* \"#utility.yul\":25530:25535   */\n      dup2\n        /* \"#utility.yul\":25524:25536   */\n      mload\n        /* \"#utility.yul\":25514:25536   */\n      swap1\n      pop\n        /* \"#utility.yul\":25444:25543   */\n      swap2\n      swap1\n      pop\n      jump\t// out\n        /* \"#utility.yul\":25549:25651   */\n    tag_328:\n        /* \"#utility.yul\":25590:25596   */\n      0x00\n        /* \"#utility.yul\":25641:25643   */\n      0x1f\n        /* \"#utility.yul\":25637:25644   */\n      not\n        /* \"#utility.yul\":25632:25634   */\n      0x1f\n        /* \"#utility.yul\":25625:25630   */\n      dup4\n        /* \"#utility.yul\":25621:25635   */\n      add\n        /* \"#utility.yul\":25617:25645   */\n      and\n        /* \"#utility.yul\":25607:25645   */\n      swap1\n      pop\n        /* \"#utility.yul\":25549:25651   */\n      swap2\n      swap1\n      pop\n      jump\t// out\n        /* \"#utility.yul\":25657:26034   */\n    tag_329:\n        /* \"#utility.yul\":25745:25748   */\n      0x00\n        /* \"#utility.yul\":25773:25812   */\n      tag_549\n        /* \"#utility.yul\":25806:25811   */\n      dup3\n        /* \"#utility.yul\":25773:25812   */\n      tag_327\n      jump\t// in\n    tag_549:\n        /* \"#utility.yul\":25828:25899   */\n      tag_550\n        /* \"#utility.yul\":25892:25898   */\n      dup2\n        /* \"#utility.yul\":25887:25890   */\n      dup6\n        /* \"#utility.yul\":25828:25899   */\n      tag_286\n      jump\t// in\n    tag_550:\n        /* \"#utility.yul\":25821:25899   */\n      swap4\n      pop\n        /* \"#utility.yul\":25908:25973   */\n      tag_551\n        /* \"#utility.yul\":25966:25972   */\n      dup2\n        /* \"#utility.yul\":25961:25964   */\n      dup6\n        /* \"#utility.yul\":25954:25958   */\n      0x20\n        /* \"#utility.yul\":25947:25952   */\n      dup7\n        /* \"#utility.yul\":25943:25959   */\n      add\n        /* \"#utility.yul\":25908:25973   */\n      tag_323\n      jump\t// in\n    tag_551:\n        /* \"#utility.yul\":25998:26027   */\n      tag_552\n        /* \"#utility.yul\":26020:26026   */\n      dup2\n        /* \"#utility.yul\":25998:26027   */\n      tag_328\n      jump\t// in\n    tag_552:\n        /* \"#utility.yul\":25993:25996   */\n      dup5\n        /* \"#utility.yul\":25989:26028   */\n      add\n        /* \"#utility.yul\":25982:26028   */\n      swap2\n      pop\n        /* \"#utility.yul\":25749:26034   */\n      pop\n        /* \"#utility.yul\":25657:26034   */\n      swap3\n      swap2\n      pop\n      pop\n      jump\t// out\n        /* \"#utility.yul\":26040:26353   */\n    tag_268:\n        /* \"#utility.yul\":26153:26157   */\n      0x00\n        /* \"#utility.yul\":26191:26193   */\n      0x20\n        /* \"#utility.yul\":26180:26189   */\n      dup3\n        /* \"#utility.yul\":26176:26194   */\n      add\n        /* \"#utility.yul\":26168:26194   */\n      swap1\n      pop\n        /* \"#utility.yul\":26240:26249   */\n      dup2\n        /* \"#utility.yul\":26234:26238   */\n      dup2\n        /* \"#utility.yul\":26230:26250   */\n      sub\n        /* \"#utility.yul\":26226:26227   */\n      0x00\n        /* \"#utility.yul\":26215:26224   */\n      dup4\n        /* \"#utility.yul\":26211:26228   */\n      add\n        /* \"#utility.yul\":26204:26251   */\n      mstore\n        /* \"#utility.yul\":26268:26346   */\n      tag_554\n        /* \"#utility.yul\":26341:26345   */\n      dup2\n        /* \"#utility.yul\":26332:26338   */\n      dup5\n        /* \"#utility.yul\":26268:26346   */\n      tag_329\n      jump\t// in\n    tag_554:\n        /* \"#utility.yul\":26260:26346   */\n      swap1\n      pop\n        /* \"#utility.yul\":26040:26353   */\n      swap3\n      swap2\n      pop\n      pop\n      jump\t// out\n\n    auxdata: 0xa2646970667358221220fb3c24b6afe65d3df84ef4e9bd6b5a659bd2811d27c75690f46467ce8c0fd19864736f6c634300081a0033\n}\n",
				"bytecode": {
					"linkReferences": {},
					"object": "608060405234801561000f575f80fd5b50604051612597380380612597833981810160405281019061003191906102b7565b61004d61004261019160201b60201c565b61019860201b60201c565b600180819055505f73ffffffffffffffffffffffffffffffffffffffff168273ffffffffffffffffffffffffffffffffffffffff16141580156100bc57505f73ffffffffffffffffffffffffffffffffffffffff168173ffffffffffffffffffffffffffffffffffffffff1614155b6100fb576040517f08c379a00000000000000000000000000000000000000000000000000000000081526004016100f29061034f565b60405180910390fd5b8160025f6101000a81548173ffffffffffffffffffffffffffffffffffffffff021916908373ffffffffffffffffffffffffffffffffffffffff1602179055508060035f6101000a81548173ffffffffffffffffffffffffffffffffffffffff021916908373ffffffffffffffffffffffffffffffffffffffff16021790555061018a3361019860201b60201c565b505061036d565b5f33905090565b5f805f9054906101000a900473ffffffffffffffffffffffffffffffffffffffff169050815f806101000a81548173ffffffffffffffffffffffffffffffffffffffff021916908373ffffffffffffffffffffffffffffffffffffffff1602179055508173ffffffffffffffffffffffffffffffffffffffff168173ffffffffffffffffffffffffffffffffffffffff167f8be0079c531659141344cd1fd0a4f28419497f9722a3daafe3b4186f6b6457e060405160405180910390a35050565b5f80fd5b5f73ffffffffffffffffffffffffffffffffffffffff82169050919050565b5f6102868261025d565b9050919050565b6102968161027c565b81146102a0575f80fd5b50565b5f815190506102b18161028d565b92915050565b5f80604083850312156102cd576102cc610259565b5b5f6102da858286016102a3565b92505060206102eb858286016102a3565b9150509250929050565b5f82825260208201905092915050565b7f496e76616c696420746f6b656e206164647265737365730000000000000000005f82015250565b5f6103396017836102f5565b915061034482610305565b602082019050919050565b5f6020820190508181035f8301526103668161032d565b9050919050565b61221d8061037a5f395ff3fe608060405234801561000f575f80fd5b50600436106100cd575f3560e01c80638da5cb5b1161008a578063b9ffa6a811610064578063b9ffa6a8146101ec578063d004f0f71461020a578063d21220a71461023a578063f2fde38b14610258576100cd565b80638da5cb5b146101965780639cd441da146101b45780639d7de6b3146101d0576100cd565b80630902f1ac146100d157806325be124e146100f0578063449e815d1461010e57806368a455f11461013e578063709c50f61461015c578063715018a61461018c575b5f80fd5b6100d9610274565b6040516100e7929190611582565b60405180910390f35b6100f8610284565b6040516101059190611623565b60405180910390f35b610128600480360381019061012391906116a5565b6102a9565b60405161013591906116e3565b60405180910390f35b6101466102bc565b60405161015391906116e3565b60405180910390f35b610176600480360381019061017191906116fc565b6102c2565b60405161018391906116e3565b60405180910390f35b610194610329565b005b61019e61033c565b6040516101ab919061175b565b60405180910390f35b6101ce60048036038101906101c99190611774565b610363565b005b6101ea60048036038101906101e59190611774565b610864565b005b6101f4610a4d565b60405161020191906116e3565b60405180910390f35b610224600480360381019061021f91906116a5565b610a53565b60405161023191906116e3565b60405180910390f35b610242610e70565b60405161024f9190611623565b60405180910390f35b610272600480360381019061026d91906117b2565b610e95565b005b5f80600454600554915091509091565b60035f9054906101000a900473ffffffffffffffffffffffffffffffffffffffff1681565b5f6102b48383610f17565b905092915050565b60055481565b5f6102cb611033565b6102d58484610a53565b90508181101561031a576040517f08c379a000000000000000000000000000000000000000000000000000000000815260040161031190611837565b60405180910390fd5b610322611082565b9392505050565b61033161108b565b61033a5f611109565b565b5f805f9054906101000a900473ffffffffffffffffffffffffffffffffffffffff16905090565b61036b611033565b5f8211801561037957505f81115b6103b8576040517f08c379a00000000000000000000000000000000000000000000000000000000081526004016103af9061189f565b60405180910390fd5b5f60025f9054906101000a900473ffffffffffffffffffffffffffffffffffffffff1673ffffffffffffffffffffffffffffffffffffffff1663dd62ed3e33306040518363ffffffff1660e01b81526004016104159291906118bd565b602060405180830381865afa158015610430573d5f803e3d5ffd5b505050506040513d601f19601f8201168201806040525081019061045491906118f8565b90505f60035f9054906101000a900473ffffffffffffffffffffffffffffffffffffffff1673ffffffffffffffffffffffffffffffffffffffff1663dd62ed3e33306040518363ffffffff1660e01b81526004016104b39291906118bd565b602060405180830381865afa1580156104ce573d5f803e3d5ffd5b505050506040513d601f19601f820116820180604052508101906104f291906118f8565b905083821015610537576040517f08c379a000000000000000000000000000000000000000000000000000000000815260040161052e9061196d565b60405180910390fd5b8281101561057a576040517f08c379a0000000000000000000000000000000000000000000000000000000008152600401610571906119d5565b60405180910390fd5b5f60025f9054906101000a900473ffffffffffffffffffffffffffffffffffffffff1673ffffffffffffffffffffffffffffffffffffffff166370a08231336040518263ffffffff1660e01b81526004016105d5919061175b565b602060405180830381865afa1580156105f0573d5f803e3d5ffd5b505050506040513d601f19601f8201168201806040525081019061061491906118f8565b90505f60035f9054906101000a900473ffffffffffffffffffffffffffffffffffffffff1673ffffffffffffffffffffffffffffffffffffffff166370a08231336040518263ffffffff1660e01b8152600401610671919061175b565b602060405180830381865afa15801561068c573d5f803e3d5ffd5b505050506040513d601f19601f820116820180604052508101906106b091906118f8565b9050858210156106f5576040517f08c379a00000000000000000000000000000000000000000000000000000000081526004016106ec90611a3d565b60405180910390fd5b84811015610738576040517f08c379a000000000000000000000000000000000000000000000000000000000815260040161072f90611aa5565b60405180910390fd5b61078633308860025f9054906101000a900473ffffffffffffffffffffffffffffffffffffffff1673ffffffffffffffffffffffffffffffffffffffff166111ca909392919063ffffffff16565b6107d433308760035f9054906101000a900473ffffffffffffffffffffffffffffffffffffffff1673ffffffffffffffffffffffffffffffffffffffff166111ca909392919063ffffffff16565b8560045f8282546107e59190611af0565b925050819055508460055f8282546107fd9190611af0565b925050819055503373ffffffffffffffffffffffffffffffffffffffff167fac1d76749e5447b7b16f5ab61447e1bd502f3bb4807af3b28e620d1700a6ee45878760405161084c929190611582565b60405180910390a250505050610860611082565b5050565b61086c61108b565b610874611033565b5f8211801561088257505f81115b6108c1576040517f08c379a00000000000000000000000000000000000000000000000000000000081526004016108b89061189f565b60405180910390fd5b81600454101580156108d557508060055410155b610914576040517f08c379a000000000000000000000000000000000000000000000000000000000815260040161090b90611b6d565b60405180910390fd5b8160045f8282546109259190611b8b565b925050819055508060055f82825461093d9190611b8b565b9250508190555061099761094f61033c565b8360025f9054906101000a900473ffffffffffffffffffffffffffffffffffffffff1673ffffffffffffffffffffffffffffffffffffffff166112539092919063ffffffff16565b6109ea6109a261033c565b8260035f9054906101000a900473ffffffffffffffffffffffffffffffffffffffff1673ffffffffffffffffffffffffffffffffffffffff166112539092919063ffffffff16565b6109f261033c565b73ffffffffffffffffffffffffffffffffffffffff167f96cd817c6329656790ef8fba7675405193677d39619571282f5e21f3a98cd0598383604051610a39929190611582565b60405180910390a2610a49611082565b5050565b60045481565b5f610a5c611033565b60025f9054906101000a900473ffffffffffffffffffffffffffffffffffffffff1673ffffffffffffffffffffffffffffffffffffffff168373ffffffffffffffffffffffffffffffffffffffff161480610b03575060035f9054906101000a900473ffffffffffffffffffffffffffffffffffffffff1673ffffffffffffffffffffffffffffffffffffffff168373ffffffffffffffffffffffffffffffffffffffff16145b610b42576040517f08c379a0000000000000000000000000000000000000000000000000000000008152600401610b3990611c08565b60405180910390fd5b5f8211610b84576040517f08c379a0000000000000000000000000000000000000000000000000000000008152600401610b7b90611c70565b60405180910390fd5b5f8390505f60025f9054906101000a900473ffffffffffffffffffffffffffffffffffffffff1673ffffffffffffffffffffffffffffffffffffffff168573ffffffffffffffffffffffffffffffffffffffff1614610c045760025f9054906101000a900473ffffffffffffffffffffffffffffffffffffffff16610c27565b60035f9054906101000a900473ffffffffffffffffffffffffffffffffffffffff165b9050610c338585610f17565b92505f83118015610cbb57508073ffffffffffffffffffffffffffffffffffffffff166370a08231306040518263ffffffff1660e01b8152600401610c78919061175b565b602060405180830381865afa158015610c93573d5f803e3d5ffd5b505050506040513d601f19601f82011682018060405250810190610cb791906118f8565b8311155b610cfa576040517f08c379a0000000000000000000000000000000000000000000000000000000008152600401610cf190611b6d565b60405180910390fd5b610d273330868573ffffffffffffffffffffffffffffffffffffffff166111ca909392919063ffffffff16565b610d5233848373ffffffffffffffffffffffffffffffffffffffff166112539092919063ffffffff16565b60025f9054906101000a900473ffffffffffffffffffffffffffffffffffffffff1673ffffffffffffffffffffffffffffffffffffffff168573ffffffffffffffffffffffffffffffffffffffff1603610ddb578360045f828254610db79190611af0565b925050819055508260055f828254610dcf9190611b8b565b92505081905550610e0c565b8360055f828254610dec9190611af0565b925050819055508260045f828254610e049190611b8b565b925050819055505b3373ffffffffffffffffffffffffffffffffffffffff167f5380cf97d8f645d3c4896da60c053458dca03a3a31cec642ac80e1ddf0d8d02a86868487604051610e589493929190611c8e565b60405180910390a25050610e6a611082565b92915050565b60025f9054906101000a900473ffffffffffffffffffffffffffffffffffffffff1681565b610e9d61108b565b5f73ffffffffffffffffffffffffffffffffffffffff168173ffffffffffffffffffffffffffffffffffffffff1603610f0b576040517f08c379a0000000000000000000000000000000000000000000000000000000008152600401610f0290611d41565b60405180910390fd5b610f1481611109565b50565b5f8060025f9054906101000a900473ffffffffffffffffffffffffffffffffffffffff1673ffffffffffffffffffffffffffffffffffffffff168473ffffffffffffffffffffffffffffffffffffffff1614610f7557600554610f79565b6004545b90505f60025f9054906101000a900473ffffffffffffffffffffffffffffffffffffffff1673ffffffffffffffffffffffffffffffffffffffff168573ffffffffffffffffffffffffffffffffffffffff1614610fd857600454610fdc565b6005545b90505f6103e585610fed9190611d5f565b90505f8282610ffc9190611d5f565b90505f826103e88661100e9190611d5f565b6110189190611af0565b905080826110269190611dcd565b9550505050505092915050565b600260015403611078576040517f08c379a000000000000000000000000000000000000000000000000000000000815260040161106f90611e47565b60405180910390fd5b6002600181905550565b60018081905550565b6110936112d9565b73ffffffffffffffffffffffffffffffffffffffff166110b161033c565b73ffffffffffffffffffffffffffffffffffffffff1614611107576040517f08c379a00000000000000000000000000000000000000000000000000000000081526004016110fe90611eaf565b60405180910390fd5b565b5f805f9054906101000a900473ffffffffffffffffffffffffffffffffffffffff169050815f806101000a81548173ffffffffffffffffffffffffffffffffffffffff021916908373ffffffffffffffffffffffffffffffffffffffff1602179055508173ffffffffffffffffffffffffffffffffffffffff168173ffffffffffffffffffffffffffffffffffffffff167f8be0079c531659141344cd1fd0a4f28419497f9722a3daafe3b4186f6b6457e060405160405180910390a35050565b61124d846323b872dd60e01b8585856040516024016111eb93929190611ecd565b604051602081830303815290604052907bffffffffffffffffffffffffffffffffffffffffffffffffffffffff19166020820180517bffffffffffffffffffffffffffffffffffffffffffffffffffffffff83818316178352505050506112e0565b50505050565b6112d48363a9059cbb60e01b8484604051602401611272929190611f02565b604051602081830303815290604052907bffffffffffffffffffffffffffffffffffffffffffffffffffffffff19166020820180517bffffffffffffffffffffffffffffffffffffffffffffffffffffffff83818316178352505050506112e0565b505050565b5f33905090565b5f611341826040518060400160405280602081526020017f5361666545524332303a206c6f772d6c6576656c2063616c6c206661696c65648152508573ffffffffffffffffffffffffffffffffffffffff166113a59092919063ffffffff16565b90505f815111156113a057808060200190518101906113609190611f5e565b61139f576040517f08c379a000000000000000000000000000000000000000000000000000000000815260040161139690611ff9565b60405180910390fd5b5b505050565b60606113b384845f856113bc565b90509392505050565b606082471015611401576040517f08c379a00000000000000000000000000000000000000000000000000000000081526004016113f890612087565b60405180910390fd5b5f808673ffffffffffffffffffffffffffffffffffffffff16858760405161142991906120f7565b5f6040518083038185875af1925050503d805f8114611463576040519150601f19603f3d011682016040523d82523d5f602084013e611468565b606091505b509150915061147987838387611485565b92505050949350505050565b606083156114e6575f8351036114de5761149e856114f9565b6114dd576040517f08c379a00000000000000000000000000000000000000000000000000000000081526004016114d490612157565b60405180910390fd5b5b8290506114f1565b6114f0838361151b565b5b949350505050565b5f808273ffffffffffffffffffffffffffffffffffffffff163b119050919050565b5f8251111561152d5781518083602001fd5b806040517f08c379a000000000000000000000000000000000000000000000000000000000815260040161156191906121c7565b60405180910390fd5b5f819050919050565b61157c8161156a565b82525050565b5f6040820190506115955f830185611573565b6115a26020830184611573565b9392505050565b5f73ffffffffffffffffffffffffffffffffffffffff82169050919050565b5f819050919050565b5f6115eb6115e66115e1846115a9565b6115c8565b6115a9565b9050919050565b5f6115fc826115d1565b9050919050565b5f61160d826115f2565b9050919050565b61161d81611603565b82525050565b5f6020820190506116365f830184611614565b92915050565b5f80fd5b5f61164a826115a9565b9050919050565b61165a81611640565b8114611664575f80fd5b50565b5f8135905061167581611651565b92915050565b6116848161156a565b811461168e575f80fd5b50565b5f8135905061169f8161167b565b92915050565b5f80604083850312156116bb576116ba61163c565b5b5f6116c885828601611667565b92505060206116d985828601611691565b9150509250929050565b5f6020820190506116f65f830184611573565b92915050565b5f805f606084860312156117135761171261163c565b5b5f61172086828701611667565b935050602061173186828701611691565b925050604061174286828701611691565b9150509250925092565b61175581611640565b82525050565b5f60208201905061176e5f83018461174c565b92915050565b5f806040838503121561178a5761178961163c565b5b5f61179785828601611691565b92505060206117a885828601611691565b9150509250929050565b5f602082840312156117c7576117c661163c565b5b5f6117d484828501611667565b91505092915050565b5f82825260208201905092915050565b7f536c69707061676520746f6c6572616e636520657863656564656400000000005f82015250565b5f611821601b836117dd565b915061182c826117ed565b602082019050919050565b5f6020820190508181035f83015261184e81611815565b9050919050565b7f416d6f756e7473206d7573742062652067726561746572207468616e203000005f82015250565b5f611889601e836117dd565b915061189482611855565b602082019050919050565b5f6020820190508181035f8301526118b68161187d565b9050919050565b5f6040820190506118d05f83018561174c565b6118dd602083018461174c565b9392505050565b5f815190506118f28161167b565b92915050565b5f6020828403121561190d5761190c61163c565b5b5f61191a848285016118e4565b91505092915050565b7f496e73756666696369656e7420746f6b656e3120616c6c6f77616e63650000005f82015250565b5f611957601d836117dd565b915061196282611923565b602082019050919050565b5f6020820190508181035f8301526119848161194b565b9050919050565b7f496e73756666696369656e7420746f6b656e3220616c6c6f77616e63650000005f82015250565b5f6119bf601d836117dd565b91506119ca8261198b565b602082019050919050565b5f6020820190508181035f8301526119ec816119b3565b9050919050565b7f496e73756666696369656e7420746f6b656e312062616c616e636500000000005f82015250565b5f611a27601b836117dd565b9150611a32826119f3565b602082019050919050565b5f6020820190508181035f830152611a5481611a1b565b9050919050565b7f496e73756666696369656e7420746f6b656e322062616c616e636500000000005f82015250565b5f611a8f601b836117dd565b9150611a9a82611a5b565b602082019050919050565b5f6020820190508181035f830152611abc81611a83565b9050919050565b7f4e487b71000000000000000000000000000000000000000000000000000000005f52601160045260245ffd5b5f611afa8261156a565b9150611b058361156a565b9250828201905080821115611b1d57611b1c611ac3565b5b92915050565b7f496e73756666696369656e74206c6971756964697479000000000000000000005f82015250565b5f611b576016836117dd565b9150611b6282611b23565b602082019050919050565b5f6020820190508181035f830152611b8481611b4b565b9050919050565b5f611b958261156a565b9150611ba08361156a565b9250828203905081811115611bb857611bb7611ac3565b5b92915050565b7f496e76616c696420746f6b656e000000000000000000000000000000000000005f82015250565b5f611bf2600d836117dd565b9150611bfd82611bbe565b602082019050919050565b5f6020820190508181035f830152611c1f81611be6565b9050919050565b7f416d6f756e74206d7573742062652067726561746572207468616e20300000005f82015250565b5f611c5a601d836117dd565b9150611c6582611c26565b602082019050919050565b5f6020820190508181035f830152611c8781611c4e565b9050919050565b5f608082019050611ca15f83018761174c565b611cae6020830186611573565b611cbb604083018561174c565b611cc86060830184611573565b95945050505050565b7f4f776e61626c653a206e6577206f776e657220697320746865207a65726f20615f8201527f6464726573730000000000000000000000000000000000000000000000000000602082015250565b5f611d2b6026836117dd565b9150611d3682611cd1565b604082019050919050565b5f6020820190508181035f830152611d5881611d1f565b9050919050565b5f611d698261156a565b9150611d748361156a565b9250828202611d828161156a565b91508282048414831517611d9957611d98611ac3565b5b5092915050565b7f4e487b71000000000000000000000000000000000000000000000000000000005f52601260045260245ffd5b5f611dd78261156a565b9150611de28361156a565b925082611df257611df1611da0565b5b828204905092915050565b7f5265656e7472616e637947756172643a207265656e7472616e742063616c6c005f82015250565b5f611e31601f836117dd565b9150611e3c82611dfd565b602082019050919050565b5f6020820190508181035f830152611e5e81611e25565b9050919050565b7f4f776e61626c653a2063616c6c6572206973206e6f7420746865206f776e65725f82015250565b5f611e996020836117dd565b9150611ea482611e65565b602082019050919050565b5f6020820190508181035f830152611ec681611e8d565b9050919050565b5f606082019050611ee05f83018661174c565b611eed602083018561174c565b611efa6040830184611573565b949350505050565b5f604082019050611f155f83018561174c565b611f226020830184611573565b9392505050565b5f8115159050919050565b611f3d81611f29565b8114611f47575f80fd5b50565b5f81519050611f5881611f34565b92915050565b5f60208284031215611f7357611f7261163c565b5b5f611f8084828501611f4a565b91505092915050565b7f5361666545524332303a204552433230206f7065726174696f6e20646964206e5f8201527f6f74207375636365656400000000000000000000000000000000000000000000602082015250565b5f611fe3602a836117dd565b9150611fee82611f89565b604082019050919050565b5f6020820190508181035f83015261201081611fd7565b9050919050565b7f416464726573733a20696e73756666696369656e742062616c616e636520666f5f8201527f722063616c6c0000000000000000000000000000000000000000000000000000602082015250565b5f6120716026836117dd565b915061207c82612017565b604082019050919050565b5f6020820190508181035f83015261209e81612065565b9050919050565b5f81519050919050565b5f81905092915050565b8281835e5f83830152505050565b5f6120d1826120a5565b6120db81856120af565b93506120eb8185602086016120b9565b80840191505092915050565b5f61210282846120c7565b915081905092915050565b7f416464726573733a2063616c6c20746f206e6f6e2d636f6e74726163740000005f82015250565b5f612141601d836117dd565b915061214c8261210d565b602082019050919050565b5f6020820190508181035f83015261216e81612135565b9050919050565b5f81519050919050565b5f601f19601f8301169050919050565b5f61219982612175565b6121a381856117dd565b93506121b38185602086016120b9565b6121bc8161217f565b840191505092915050565b5f6020820190508181035f8301526121df818461218f565b90509291505056fea2646970667358221220fb3c24b6afe65d3df84ef4e9bd6b5a659bd2811d27c75690f46467ce8c0fd19864736f6c634300081a0033",
					"opcodes": "PUSH1 0x80 PUSH1 0x40 MSTORE CALLVALUE DUP1 ISZERO PUSH2 0xF JUMPI PUSH0 DUP1 REVERT JUMPDEST POP PUSH1 0x40 MLOAD PUSH2 0x2597 CODESIZE SUB DUP1 PUSH2 0x2597 DUP4 CODECOPY DUP2 DUP2 ADD PUSH1 0x40 MSTORE DUP2 ADD SWAP1 PUSH2 0x31 SWAP2 SWAP1 PUSH2 0x2B7 JUMP JUMPDEST PUSH2 0x4D PUSH2 0x42 PUSH2 0x191 PUSH1 0x20 SHL PUSH1 0x20 SHR JUMP JUMPDEST PUSH2 0x198 PUSH1 0x20 SHL PUSH1 0x20 SHR JUMP JUMPDEST PUSH1 0x1 DUP1 DUP2 SWAP1 SSTORE POP PUSH0 PUSH20 0xFFFFFFFFFFFFFFFFFFFFFFFFFFFFFFFFFFFFFFFF AND DUP3 PUSH20 0xFFFFFFFFFFFFFFFFFFFFFFFFFFFFFFFFFFFFFFFF AND EQ ISZERO DUP1 ISZERO PUSH2 0xBC JUMPI POP PUSH0 PUSH20 0xFFFFFFFFFFFFFFFFFFFFFFFFFFFFFFFFFFFFFFFF AND DUP2 PUSH20 0xFFFFFFFFFFFFFFFFFFFFFFFFFFFFFFFFFFFFFFFF AND EQ ISZERO JUMPDEST PUSH2 0xFB JUMPI PUSH1 0x40 MLOAD PUSH32 0x8C379A000000000000000000000000000000000000000000000000000000000 DUP2 MSTORE PUSH1 0x4 ADD PUSH2 0xF2 SWAP1 PUSH2 0x34F JUMP JUMPDEST PUSH1 0x40 MLOAD DUP1 SWAP2 SUB SWAP1 REVERT JUMPDEST DUP2 PUSH1 0x2 PUSH0 PUSH2 0x100 EXP DUP2 SLOAD DUP2 PUSH20 0xFFFFFFFFFFFFFFFFFFFFFFFFFFFFFFFFFFFFFFFF MUL NOT AND SWAP1 DUP4 PUSH20 0xFFFFFFFFFFFFFFFFFFFFFFFFFFFFFFFFFFFFFFFF AND MUL OR SWAP1 SSTORE POP DUP1 PUSH1 0x3 PUSH0 PUSH2 0x100 EXP DUP2 SLOAD DUP2 PUSH20 0xFFFFFFFFFFFFFFFFFFFFFFFFFFFFFFFFFFFFFFFF MUL NOT AND SWAP1 DUP4 PUSH20 0xFFFFFFFFFFFFFFFFFFFFFFFFFFFFFFFFFFFFFFFF AND MUL OR SWAP1 SSTORE POP PUSH2 0x18A CALLER PUSH2 0x198 PUSH1 0x20 SHL PUSH1 0x20 SHR JUMP JUMPDEST POP POP PUSH2 0x36D JUMP JUMPDEST PUSH0 CALLER SWAP1 POP SWAP1 JUMP JUMPDEST PUSH0 DUP1 PUSH0 SWAP1 SLOAD SWAP1 PUSH2 0x100 EXP SWAP1 DIV PUSH20 0xFFFFFFFFFFFFFFFFFFFFFFFFFFFFFFFFFFFFFFFF AND SWAP1 POP DUP2 PUSH0 DUP1 PUSH2 0x100 EXP DUP2 SLOAD DUP2 PUSH20 0xFFFFFFFFFFFFFFFFFFFFFFFFFFFFFFFFFFFFFFFF MUL NOT AND SWAP1 DUP4 PUSH20 0xFFFFFFFFFFFFFFFFFFFFFFFFFFFFFFFFFFFFFFFF AND MUL OR SWAP1 SSTORE POP DUP2 PUSH20 0xFFFFFFFFFFFFFFFFFFFFFFFFFFFFFFFFFFFFFFFF AND DUP2 PUSH20 0xFFFFFFFFFFFFFFFFFFFFFFFFFFFFFFFFFFFFFFFF AND PUSH32 0x8BE0079C531659141344CD1FD0A4F28419497F9722A3DAAFE3B4186F6B6457E0 PUSH1 0x40 MLOAD PUSH1 0x40 MLOAD DUP1 SWAP2 SUB SWAP1 LOG3 POP POP JUMP JUMPDEST PUSH0 DUP1 REVERT JUMPDEST PUSH0 PUSH20 0xFFFFFFFFFFFFFFFFFFFFFFFFFFFFFFFFFFFFFFFF DUP3 AND SWAP1 POP SWAP2 SWAP1 POP JUMP JUMPDEST PUSH0 PUSH2 0x286 DUP3 PUSH2 0x25D JUMP JUMPDEST SWAP1 POP SWAP2 SWAP1 POP JUMP JUMPDEST PUSH2 0x296 DUP2 PUSH2 0x27C JUMP JUMPDEST DUP2 EQ PUSH2 0x2A0 JUMPI PUSH0 DUP1 REVERT JUMPDEST POP JUMP JUMPDEST PUSH0 DUP2 MLOAD SWAP1 POP PUSH2 0x2B1 DUP2 PUSH2 0x28D JUMP JUMPDEST SWAP3 SWAP2 POP POP JUMP JUMPDEST PUSH0 DUP1 PUSH1 0x40 DUP4 DUP6 SUB SLT ISZERO PUSH2 0x2CD JUMPI PUSH2 0x2CC PUSH2 0x259 JUMP JUMPDEST JUMPDEST PUSH0 PUSH2 0x2DA DUP6 DUP3 DUP7 ADD PUSH2 0x2A3 JUMP JUMPDEST SWAP3 POP POP PUSH1 0x20 PUSH2 0x2EB DUP6 DUP3 DUP7 ADD PUSH2 0x2A3 JUMP JUMPDEST SWAP2 POP POP SWAP3 POP SWAP3 SWAP1 POP JUMP JUMPDEST PUSH0 DUP3 DUP3 MSTORE PUSH1 0x20 DUP3 ADD SWAP1 POP SWAP3 SWAP2 POP POP JUMP JUMPDEST PUSH32 0x496E76616C696420746F6B656E20616464726573736573000000000000000000 PUSH0 DUP3 ADD MSTORE POP JUMP JUMPDEST PUSH0 PUSH2 0x339 PUSH1 0x17 DUP4 PUSH2 0x2F5 JUMP JUMPDEST SWAP2 POP PUSH2 0x344 DUP3 PUSH2 0x305 JUMP JUMPDEST PUSH1 0x20 DUP3 ADD SWAP1 POP SWAP2 SWAP1 POP JUMP JUMPDEST PUSH0 PUSH1 0x20 DUP3 ADD SWAP1 POP DUP2 DUP2 SUB PUSH0 DUP4 ADD MSTORE PUSH2 0x366 DUP2 PUSH2 0x32D JUMP JUMPDEST SWAP1 POP SWAP2 SWAP1 POP JUMP JUMPDEST PUSH2 0x221D DUP1 PUSH2 0x37A PUSH0 CODECOPY PUSH0 RETURN INVALID PUSH1 0x80 PUSH1 0x40 MSTORE CALLVALUE DUP1 ISZERO PUSH2 0xF JUMPI PUSH0 DUP1 REVERT JUMPDEST POP PUSH1 0x4 CALLDATASIZE LT PUSH2 0xCD JUMPI PUSH0 CALLDATALOAD PUSH1 0xE0 SHR DUP1 PUSH4 0x8DA5CB5B GT PUSH2 0x8A JUMPI DUP1 PUSH4 0xB9FFA6A8 GT PUSH2 0x64 JUMPI DUP1 PUSH4 0xB9FFA6A8 EQ PUSH2 0x1EC JUMPI DUP1 PUSH4 0xD004F0F7 EQ PUSH2 0x20A JUMPI DUP1 PUSH4 0xD21220A7 EQ PUSH2 0x23A JUMPI DUP1 PUSH4 0xF2FDE38B EQ PUSH2 0x258 JUMPI PUSH2 0xCD JUMP JUMPDEST DUP1 PUSH4 0x8DA5CB5B EQ PUSH2 0x196 JUMPI DUP1 PUSH4 0x9CD441DA EQ PUSH2 0x1B4 JUMPI DUP1 PUSH4 0x9D7DE6B3 EQ PUSH2 0x1D0 JUMPI PUSH2 0xCD JUMP JUMPDEST DUP1 PUSH4 0x902F1AC EQ PUSH2 0xD1 JUMPI DUP1 PUSH4 0x25BE124E EQ PUSH2 0xF0 JUMPI DUP1 PUSH4 0x449E815D EQ PUSH2 0x10E JUMPI DUP1 PUSH4 0x68A455F1 EQ PUSH2 0x13E JUMPI DUP1 PUSH4 0x709C50F6 EQ PUSH2 0x15C JUMPI DUP1 PUSH4 0x715018A6 EQ PUSH2 0x18C JUMPI JUMPDEST PUSH0 DUP1 REVERT JUMPDEST PUSH2 0xD9 PUSH2 0x274 JUMP JUMPDEST PUSH1 0x40 MLOAD PUSH2 0xE7 SWAP3 SWAP2 SWAP1 PUSH2 0x1582 JUMP JUMPDEST PUSH1 0x40 MLOAD DUP1 SWAP2 SUB SWAP1 RETURN JUMPDEST PUSH2 0xF8 PUSH2 0x284 JUMP JUMPDEST PUSH1 0x40 MLOAD PUSH2 0x105 SWAP2 SWAP1 PUSH2 0x1623 JUMP JUMPDEST PUSH1 0x40 MLOAD DUP1 SWAP2 SUB SWAP1 RETURN JUMPDEST PUSH2 0x128 PUSH1 0x4 DUP1 CALLDATASIZE SUB DUP2 ADD SWAP1 PUSH2 0x123 SWAP2 SWAP1 PUSH2 0x16A5 JUMP JUMPDEST PUSH2 0x2A9 JUMP JUMPDEST PUSH1 0x40 MLOAD PUSH2 0x135 SWAP2 SWAP1 PUSH2 0x16E3 JUMP JUMPDEST PUSH1 0x40 MLOAD DUP1 SWAP2 SUB SWAP1 RETURN JUMPDEST PUSH2 0x146 PUSH2 0x2BC JUMP JUMPDEST PUSH1 0x40 MLOAD PUSH2 0x153 SWAP2 SWAP1 PUSH2 0x16E3 JUMP JUMPDEST PUSH1 0x40 MLOAD DUP1 SWAP2 SUB SWAP1 RETURN JUMPDEST PUSH2 0x176 PUSH1 0x4 DUP1 CALLDATASIZE SUB DUP2 ADD SWAP1 PUSH2 0x171 SWAP2 SWAP1 PUSH2 0x16FC JUMP JUMPDEST PUSH2 0x2C2 JUMP JUMPDEST PUSH1 0x40 MLOAD PUSH2 0x183 SWAP2 SWAP1 PUSH2 0x16E3 JUMP JUMPDEST PUSH1 0x40 MLOAD DUP1 SWAP2 SUB SWAP1 RETURN JUMPDEST PUSH2 0x194 PUSH2 0x329 JUMP JUMPDEST STOP JUMPDEST PUSH2 0x19E PUSH2 0x33C JUMP JUMPDEST PUSH1 0x40 MLOAD PUSH2 0x1AB SWAP2 SWAP1 PUSH2 0x175B JUMP JUMPDEST PUSH1 0x40 MLOAD DUP1 SWAP2 SUB SWAP1 RETURN JUMPDEST PUSH2 0x1CE PUSH1 0x4 DUP1 CALLDATASIZE SUB DUP2 ADD SWAP1 PUSH2 0x1C9 SWAP2 SWAP1 PUSH2 0x1774 JUMP JUMPDEST PUSH2 0x363 JUMP JUMPDEST STOP JUMPDEST PUSH2 0x1EA PUSH1 0x4 DUP1 CALLDATASIZE SUB DUP2 ADD SWAP1 PUSH2 0x1E5 SWAP2 SWAP1 PUSH2 0x1774 JUMP JUMPDEST PUSH2 0x864 JUMP JUMPDEST STOP JUMPDEST PUSH2 0x1F4 PUSH2 0xA4D JUMP JUMPDEST PUSH1 0x40 MLOAD PUSH2 0x201 SWAP2 SWAP1 PUSH2 0x16E3 JUMP JUMPDEST PUSH1 0x40 MLOAD DUP1 SWAP2 SUB SWAP1 RETURN JUMPDEST PUSH2 0x224 PUSH1 0x4 DUP1 CALLDATASIZE SUB DUP2 ADD SWAP1 PUSH2 0x21F SWAP2 SWAP1 PUSH2 0x16A5 JUMP JUMPDEST PUSH2 0xA53 JUMP JUMPDEST PUSH1 0x40 MLOAD PUSH2 0x231 SWAP2 SWAP1 PUSH2 0x16E3 JUMP JUMPDEST PUSH1 0x40 MLOAD DUP1 SWAP2 SUB SWAP1 RETURN JUMPDEST PUSH2 0x242 PUSH2 0xE70 JUMP JUMPDEST PUSH1 0x40 MLOAD PUSH2 0x24F SWAP2 SWAP1 PUSH2 0x1623 JUMP JUMPDEST PUSH1 0x40 MLOAD DUP1 SWAP2 SUB SWAP1 RETURN JUMPDEST PUSH2 0x272 PUSH1 0x4 DUP1 CALLDATASIZE SUB DUP2 ADD SWAP1 PUSH2 0x26D SWAP2 SWAP1 PUSH2 0x17B2 JUMP JUMPDEST PUSH2 0xE95 JUMP JUMPDEST STOP JUMPDEST PUSH0 DUP1 PUSH1 0x4 SLOAD PUSH1 0x5 SLOAD SWAP2 POP SWAP2 POP SWAP1 SWAP2 JUMP JUMPDEST PUSH1 0x3 PUSH0 SWAP1 SLOAD SWAP1 PUSH2 0x100 EXP SWAP1 DIV PUSH20 0xFFFFFFFFFFFFFFFFFFFFFFFFFFFFFFFFFFFFFFFF AND DUP2 JUMP JUMPDEST PUSH0 PUSH2 0x2B4 DUP4 DUP4 PUSH2 0xF17 JUMP JUMPDEST SWAP1 POP SWAP3 SWAP2 POP POP JUMP JUMPDEST PUSH1 0x5 SLOAD DUP2 JUMP JUMPDEST PUSH0 PUSH2 0x2CB PUSH2 0x1033 JUMP JUMPDEST PUSH2 0x2D5 DUP5 DUP5 PUSH2 0xA53 JUMP JUMPDEST SWAP1 POP DUP2 DUP2 LT ISZERO PUSH2 0x31A JUMPI PUSH1 0x40 MLOAD PUSH32 0x8C379A000000000000000000000000000000000000000000000000000000000 DUP2 MSTORE PUSH1 0x4 ADD PUSH2 0x311 SWAP1 PUSH2 0x1837 JUMP JUMPDEST PUSH1 0x40 MLOAD DUP1 SWAP2 SUB SWAP1 REVERT JUMPDEST PUSH2 0x322 PUSH2 0x1082 JUMP JUMPDEST SWAP4 SWAP3 POP POP POP JUMP JUMPDEST PUSH2 0x331 PUSH2 0x108B JUMP JUMPDEST PUSH2 0x33A PUSH0 PUSH2 0x1109 JUMP JUMPDEST JUMP JUMPDEST PUSH0 DUP1 PUSH0 SWAP1 SLOAD SWAP1 PUSH2 0x100 EXP SWAP1 DIV PUSH20 0xFFFFFFFFFFFFFFFFFFFFFFFFFFFFFFFFFFFFFFFF AND SWAP1 POP SWAP1 JUMP JUMPDEST PUSH2 0x36B PUSH2 0x1033 JUMP JUMPDEST PUSH0 DUP3 GT DUP1 ISZERO PUSH2 0x379 JUMPI POP PUSH0 DUP2 GT JUMPDEST PUSH2 0x3B8 JUMPI PUSH1 0x40 MLOAD PUSH32 0x8C379A000000000000000000000000000000000000000000000000000000000 DUP2 MSTORE PUSH1 0x4 ADD PUSH2 0x3AF SWAP1 PUSH2 0x189F JUMP JUMPDEST PUSH1 0x40 MLOAD DUP1 SWAP2 SUB SWAP1 REVERT JUMPDEST PUSH0 PUSH1 0x2 PUSH0 SWAP1 SLOAD SWAP1 PUSH2 0x100 EXP SWAP1 DIV PUSH20 0xFFFFFFFFFFFFFFFFFFFFFFFFFFFFFFFFFFFFFFFF AND PUSH20 0xFFFFFFFFFFFFFFFFFFFFFFFFFFFFFFFFFFFFFFFF AND PUSH4 0xDD62ED3E CALLER ADDRESS PUSH1 0x40 MLOAD DUP4 PUSH4 0xFFFFFFFF AND PUSH1 0xE0 SHL DUP2 MSTORE PUSH1 0x4 ADD PUSH2 0x415 SWAP3 SWAP2 SWAP1 PUSH2 0x18BD JUMP JUMPDEST PUSH1 0x20 PUSH1 0x40 MLOAD DUP1 DUP4 SUB DUP2 DUP7 GAS STATICCALL ISZERO DUP1 ISZERO PUSH2 0x430 JUMPI RETURNDATASIZE PUSH0 DUP1 RETURNDATACOPY RETURNDATASIZE PUSH0 REVERT JUMPDEST POP POP POP POP PUSH1 0x40 MLOAD RETURNDATASIZE PUSH1 0x1F NOT PUSH1 0x1F DUP3 ADD AND DUP3 ADD DUP1 PUSH1 0x40 MSTORE POP DUP2 ADD SWAP1 PUSH2 0x454 SWAP2 SWAP1 PUSH2 0x18F8 JUMP JUMPDEST SWAP1 POP PUSH0 PUSH1 0x3 PUSH0 SWAP1 SLOAD SWAP1 PUSH2 0x100 EXP SWAP1 DIV PUSH20 0xFFFFFFFFFFFFFFFFFFFFFFFFFFFFFFFFFFFFFFFF AND PUSH20 0xFFFFFFFFFFFFFFFFFFFFFFFFFFFFFFFFFFFFFFFF AND PUSH4 0xDD62ED3E CALLER ADDRESS PUSH1 0x40 MLOAD DUP4 PUSH4 0xFFFFFFFF AND PUSH1 0xE0 SHL DUP2 MSTORE PUSH1 0x4 ADD PUSH2 0x4B3 SWAP3 SWAP2 SWAP1 PUSH2 0x18BD JUMP JUMPDEST PUSH1 0x20 PUSH1 0x40 MLOAD DUP1 DUP4 SUB DUP2 DUP7 GAS STATICCALL ISZERO DUP1 ISZERO PUSH2 0x4CE JUMPI RETURNDATASIZE PUSH0 DUP1 RETURNDATACOPY RETURNDATASIZE PUSH0 REVERT JUMPDEST POP POP POP POP PUSH1 0x40 MLOAD RETURNDATASIZE PUSH1 0x1F NOT PUSH1 0x1F DUP3 ADD AND DUP3 ADD DUP1 PUSH1 0x40 MSTORE POP DUP2 ADD SWAP1 PUSH2 0x4F2 SWAP2 SWAP1 PUSH2 0x18F8 JUMP JUMPDEST SWAP1 POP DUP4 DUP3 LT ISZERO PUSH2 0x537 JUMPI PUSH1 0x40 MLOAD PUSH32 0x8C379A000000000000000000000000000000000000000000000000000000000 DUP2 MSTORE PUSH1 0x4 ADD PUSH2 0x52E SWAP1 PUSH2 0x196D JUMP JUMPDEST PUSH1 0x40 MLOAD DUP1 SWAP2 SUB SWAP1 REVERT JUMPDEST DUP3 DUP2 LT ISZERO PUSH2 0x57A JUMPI PUSH1 0x40 MLOAD PUSH32 0x8C379A000000000000000000000000000000000000000000000000000000000 DUP2 MSTORE PUSH1 0x4 ADD PUSH2 0x571 SWAP1 PUSH2 0x19D5 JUMP JUMPDEST PUSH1 0x40 MLOAD DUP1 SWAP2 SUB SWAP1 REVERT JUMPDEST PUSH0 PUSH1 0x2 PUSH0 SWAP1 SLOAD SWAP1 PUSH2 0x100 EXP SWAP1 DIV PUSH20 0xFFFFFFFFFFFFFFFFFFFFFFFFFFFFFFFFFFFFFFFF AND PUSH20 0xFFFFFFFFFFFFFFFFFFFFFFFFFFFFFFFFFFFFFFFF AND PUSH4 0x70A08231 CALLER PUSH1 0x40 MLOAD DUP3 PUSH4 0xFFFFFFFF AND PUSH1 0xE0 SHL DUP2 MSTORE PUSH1 0x4 ADD PUSH2 0x5D5 SWAP2 SWAP1 PUSH2 0x175B JUMP JUMPDEST PUSH1 0x20 PUSH1 0x40 MLOAD DUP1 DUP4 SUB DUP2 DUP7 GAS STATICCALL ISZERO DUP1 ISZERO PUSH2 0x5F0 JUMPI RETURNDATASIZE PUSH0 DUP1 RETURNDATACOPY RETURNDATASIZE PUSH0 REVERT JUMPDEST POP POP POP POP PUSH1 0x40 MLOAD RETURNDATASIZE PUSH1 0x1F NOT PUSH1 0x1F DUP3 ADD AND DUP3 ADD DUP1 PUSH1 0x40 MSTORE POP DUP2 ADD SWAP1 PUSH2 0x614 SWAP2 SWAP1 PUSH2 0x18F8 JUMP JUMPDEST SWAP1 POP PUSH0 PUSH1 0x3 PUSH0 SWAP1 SLOAD SWAP1 PUSH2 0x100 EXP SWAP1 DIV PUSH20 0xFFFFFFFFFFFFFFFFFFFFFFFFFFFFFFFFFFFFFFFF AND PUSH20 0xFFFFFFFFFFFFFFFFFFFFFFFFFFFFFFFFFFFFFFFF AND PUSH4 0x70A08231 CALLER PUSH1 0x40 MLOAD DUP3 PUSH4 0xFFFFFFFF AND PUSH1 0xE0 SHL DUP2 MSTORE PUSH1 0x4 ADD PUSH2 0x671 SWAP2 SWAP1 PUSH2 0x175B JUMP JUMPDEST PUSH1 0x20 PUSH1 0x40 MLOAD DUP1 DUP4 SUB DUP2 DUP7 GAS STATICCALL ISZERO DUP1 ISZERO PUSH2 0x68C JUMPI RETURNDATASIZE PUSH0 DUP1 RETURNDATACOPY RETURNDATASIZE PUSH0 REVERT JUMPDEST POP POP POP POP PUSH1 0x40 MLOAD RETURNDATASIZE PUSH1 0x1F NOT PUSH1 0x1F DUP3 ADD AND DUP3 ADD DUP1 PUSH1 0x40 MSTORE POP DUP2 ADD SWAP1 PUSH2 0x6B0 SWAP2 SWAP1 PUSH2 0x18F8 JUMP JUMPDEST SWAP1 POP DUP6 DUP3 LT ISZERO PUSH2 0x6F5 JUMPI PUSH1 0x40 MLOAD PUSH32 0x8C379A000000000000000000000000000000000000000000000000000000000 DUP2 MSTORE PUSH1 0x4 ADD PUSH2 0x6EC SWAP1 PUSH2 0x1A3D JUMP JUMPDEST PUSH1 0x40 MLOAD DUP1 SWAP2 SUB SWAP1 REVERT JUMPDEST DUP5 DUP2 LT ISZERO PUSH2 0x738 JUMPI PUSH1 0x40 MLOAD PUSH32 0x8C379A000000000000000000000000000000000000000000000000000000000 DUP2 MSTORE PUSH1 0x4 ADD PUSH2 0x72F SWAP1 PUSH2 0x1AA5 JUMP JUMPDEST PUSH1 0x40 MLOAD DUP1 SWAP2 SUB SWAP1 REVERT JUMPDEST PUSH2 0x786 CALLER ADDRESS DUP9 PUSH1 0x2 PUSH0 SWAP1 SLOAD SWAP1 PUSH2 0x100 EXP SWAP1 DIV PUSH20 0xFFFFFFFFFFFFFFFFFFFFFFFFFFFFFFFFFFFFFFFF AND PUSH20 0xFFFFFFFFFFFFFFFFFFFFFFFFFFFFFFFFFFFFFFFF AND PUSH2 0x11CA SWAP1 SWAP4 SWAP3 SWAP2 SWAP1 PUSH4 0xFFFFFFFF AND JUMP JUMPDEST PUSH2 0x7D4 CALLER ADDRESS DUP8 PUSH1 0x3 PUSH0 SWAP1 SLOAD SWAP1 PUSH2 0x100 EXP SWAP1 DIV PUSH20 0xFFFFFFFFFFFFFFFFFFFFFFFFFFFFFFFFFFFFFFFF AND PUSH20 0xFFFFFFFFFFFFFFFFFFFFFFFFFFFFFFFFFFFFFFFF AND PUSH2 0x11CA SWAP1 SWAP4 SWAP3 SWAP2 SWAP1 PUSH4 0xFFFFFFFF AND JUMP JUMPDEST DUP6 PUSH1 0x4 PUSH0 DUP3 DUP3 SLOAD PUSH2 0x7E5 SWAP2 SWAP1 PUSH2 0x1AF0 JUMP JUMPDEST SWAP3 POP POP DUP2 SWAP1 SSTORE POP DUP5 PUSH1 0x5 PUSH0 DUP3 DUP3 SLOAD PUSH2 0x7FD SWAP2 SWAP1 PUSH2 0x1AF0 JUMP JUMPDEST SWAP3 POP POP DUP2 SWAP1 SSTORE POP CALLER PUSH20 0xFFFFFFFFFFFFFFFFFFFFFFFFFFFFFFFFFFFFFFFF AND PUSH32 0xAC1D76749E5447B7B16F5AB61447E1BD502F3BB4807AF3B28E620D1700A6EE45 DUP8 DUP8 PUSH1 0x40 MLOAD PUSH2 0x84C SWAP3 SWAP2 SWAP1 PUSH2 0x1582 JUMP JUMPDEST PUSH1 0x40 MLOAD DUP1 SWAP2 SUB SWAP1 LOG2 POP POP POP POP PUSH2 0x860 PUSH2 0x1082 JUMP JUMPDEST POP POP JUMP JUMPDEST PUSH2 0x86C PUSH2 0x108B JUMP JUMPDEST PUSH2 0x874 PUSH2 0x1033 JUMP JUMPDEST PUSH0 DUP3 GT DUP1 ISZERO PUSH2 0x882 JUMPI POP PUSH0 DUP2 GT JUMPDEST PUSH2 0x8C1 JUMPI PUSH1 0x40 MLOAD PUSH32 0x8C379A000000000000000000000000000000000000000000000000000000000 DUP2 MSTORE PUSH1 0x4 ADD PUSH2 0x8B8 SWAP1 PUSH2 0x189F JUMP JUMPDEST PUSH1 0x40 MLOAD DUP1 SWAP2 SUB SWAP1 REVERT JUMPDEST DUP2 PUSH1 0x4 SLOAD LT ISZERO DUP1 ISZERO PUSH2 0x8D5 JUMPI POP DUP1 PUSH1 0x5 SLOAD LT ISZERO JUMPDEST PUSH2 0x914 JUMPI PUSH1 0x40 MLOAD PUSH32 0x8C379A000000000000000000000000000000000000000000000000000000000 DUP2 MSTORE PUSH1 0x4 ADD PUSH2 0x90B SWAP1 PUSH2 0x1B6D JUMP JUMPDEST PUSH1 0x40 MLOAD DUP1 SWAP2 SUB SWAP1 REVERT JUMPDEST DUP2 PUSH1 0x4 PUSH0 DUP3 DUP3 SLOAD PUSH2 0x925 SWAP2 SWAP1 PUSH2 0x1B8B JUMP JUMPDEST SWAP3 POP POP DUP2 SWAP1 SSTORE POP DUP1 PUSH1 0x5 PUSH0 DUP3 DUP3 SLOAD PUSH2 0x93D SWAP2 SWAP1 PUSH2 0x1B8B JUMP JUMPDEST SWAP3 POP POP DUP2 SWAP1 SSTORE POP PUSH2 0x997 PUSH2 0x94F PUSH2 0x33C JUMP JUMPDEST DUP4 PUSH1 0x2 PUSH0 SWAP1 SLOAD SWAP1 PUSH2 0x100 EXP SWAP1 DIV PUSH20 0xFFFFFFFFFFFFFFFFFFFFFFFFFFFFFFFFFFFFFFFF AND PUSH20 0xFFFFFFFFFFFFFFFFFFFFFFFFFFFFFFFFFFFFFFFF AND PUSH2 0x1253 SWAP1 SWAP3 SWAP2 SWAP1 PUSH4 0xFFFFFFFF AND JUMP JUMPDEST PUSH2 0x9EA PUSH2 0x9A2 PUSH2 0x33C JUMP JUMPDEST DUP3 PUSH1 0x3 PUSH0 SWAP1 SLOAD SWAP1 PUSH2 0x100 EXP SWAP1 DIV PUSH20 0xFFFFFFFFFFFFFFFFFFFFFFFFFFFFFFFFFFFFFFFF AND PUSH20 0xFFFFFFFFFFFFFFFFFFFFFFFFFFFFFFFFFFFFFFFF AND PUSH2 0x1253 SWAP1 SWAP3 SWAP2 SWAP1 PUSH4 0xFFFFFFFF AND JUMP JUMPDEST PUSH2 0x9F2 PUSH2 0x33C JUMP JUMPDEST PUSH20 0xFFFFFFFFFFFFFFFFFFFFFFFFFFFFFFFFFFFFFFFF AND PUSH32 0x96CD817C6329656790EF8FBA7675405193677D39619571282F5E21F3A98CD059 DUP4 DUP4 PUSH1 0x40 MLOAD PUSH2 0xA39 SWAP3 SWAP2 SWAP1 PUSH2 0x1582 JUMP JUMPDEST PUSH1 0x40 MLOAD DUP1 SWAP2 SUB SWAP1 LOG2 PUSH2 0xA49 PUSH2 0x1082 JUMP JUMPDEST POP POP JUMP JUMPDEST PUSH1 0x4 SLOAD DUP2 JUMP JUMPDEST PUSH0 PUSH2 0xA5C PUSH2 0x1033 JUMP JUMPDEST PUSH1 0x2 PUSH0 SWAP1 SLOAD SWAP1 PUSH2 0x100 EXP SWAP1 DIV PUSH20 0xFFFFFFFFFFFFFFFFFFFFFFFFFFFFFFFFFFFFFFFF AND PUSH20 0xFFFFFFFFFFFFFFFFFFFFFFFFFFFFFFFFFFFFFFFF AND DUP4 PUSH20 0xFFFFFFFFFFFFFFFFFFFFFFFFFFFFFFFFFFFFFFFF AND EQ DUP1 PUSH2 0xB03 JUMPI POP PUSH1 0x3 PUSH0 SWAP1 SLOAD SWAP1 PUSH2 0x100 EXP SWAP1 DIV PUSH20 0xFFFFFFFFFFFFFFFFFFFFFFFFFFFFFFFFFFFFFFFF AND PUSH20 0xFFFFFFFFFFFFFFFFFFFFFFFFFFFFFFFFFFFFFFFF AND DUP4 PUSH20 0xFFFFFFFFFFFFFFFFFFFFFFFFFFFFFFFFFFFFFFFF AND EQ JUMPDEST PUSH2 0xB42 JUMPI PUSH1 0x40 MLOAD PUSH32 0x8C379A000000000000000000000000000000000000000000000000000000000 DUP2 MSTORE PUSH1 0x4 ADD PUSH2 0xB39 SWAP1 PUSH2 0x1C08 JUMP JUMPDEST PUSH1 0x40 MLOAD DUP1 SWAP2 SUB SWAP1 REVERT JUMPDEST PUSH0 DUP3 GT PUSH2 0xB84 JUMPI PUSH1 0x40 MLOAD PUSH32 0x8C379A000000000000000000000000000000000000000000000000000000000 DUP2 MSTORE PUSH1 0x4 ADD PUSH2 0xB7B SWAP1 PUSH2 0x1C70 JUMP JUMPDEST PUSH1 0x40 MLOAD DUP1 SWAP2 SUB SWAP1 REVERT JUMPDEST PUSH0 DUP4 SWAP1 POP PUSH0 PUSH1 0x2 PUSH0 SWAP1 SLOAD SWAP1 PUSH2 0x100 EXP SWAP1 DIV PUSH20 0xFFFFFFFFFFFFFFFFFFFFFFFFFFFFFFFFFFFFFFFF AND PUSH20 0xFFFFFFFFFFFFFFFFFFFFFFFFFFFFFFFFFFFFFFFF AND DUP6 PUSH20 0xFFFFFFFFFFFFFFFFFFFFFFFFFFFFFFFFFFFFFFFF AND EQ PUSH2 0xC04 JUMPI PUSH1 0x2 PUSH0 SWAP1 SLOAD SWAP1 PUSH2 0x100 EXP SWAP1 DIV PUSH20 0xFFFFFFFFFFFFFFFFFFFFFFFFFFFFFFFFFFFFFFFF AND PUSH2 0xC27 JUMP JUMPDEST PUSH1 0x3 PUSH0 SWAP1 SLOAD SWAP1 PUSH2 0x100 EXP SWAP1 DIV PUSH20 0xFFFFFFFFFFFFFFFFFFFFFFFFFFFFFFFFFFFFFFFF AND JUMPDEST SWAP1 POP PUSH2 0xC33 DUP6 DUP6 PUSH2 0xF17 JUMP JUMPDEST SWAP3 POP PUSH0 DUP4 GT DUP1 ISZERO PUSH2 0xCBB JUMPI POP DUP1 PUSH20 0xFFFFFFFFFFFFFFFFFFFFFFFFFFFFFFFFFFFFFFFF AND PUSH4 0x70A08231 ADDRESS PUSH1 0x40 MLOAD DUP3 PUSH4 0xFFFFFFFF AND PUSH1 0xE0 SHL DUP2 MSTORE PUSH1 0x4 ADD PUSH2 0xC78 SWAP2 SWAP1 PUSH2 0x175B JUMP JUMPDEST PUSH1 0x20 PUSH1 0x40 MLOAD DUP1 DUP4 SUB DUP2 DUP7 GAS STATICCALL ISZERO DUP1 ISZERO PUSH2 0xC93 JUMPI RETURNDATASIZE PUSH0 DUP1 RETURNDATACOPY RETURNDATASIZE PUSH0 REVERT JUMPDEST POP POP POP POP PUSH1 0x40 MLOAD RETURNDATASIZE PUSH1 0x1F NOT PUSH1 0x1F DUP3 ADD AND DUP3 ADD DUP1 PUSH1 0x40 MSTORE POP DUP2 ADD SWAP1 PUSH2 0xCB7 SWAP2 SWAP1 PUSH2 0x18F8 JUMP JUMPDEST DUP4 GT ISZERO JUMPDEST PUSH2 0xCFA JUMPI PUSH1 0x40 MLOAD PUSH32 0x8C379A000000000000000000000000000000000000000000000000000000000 DUP2 MSTORE PUSH1 0x4 ADD PUSH2 0xCF1 SWAP1 PUSH2 0x1B6D JUMP JUMPDEST PUSH1 0x40 MLOAD DUP1 SWAP2 SUB SWAP1 REVERT JUMPDEST PUSH2 0xD27 CALLER ADDRESS DUP7 DUP6 PUSH20 0xFFFFFFFFFFFFFFFFFFFFFFFFFFFFFFFFFFFFFFFF AND PUSH2 0x11CA SWAP1 SWAP4 SWAP3 SWAP2 SWAP1 PUSH4 0xFFFFFFFF AND JUMP JUMPDEST PUSH2 0xD52 CALLER DUP5 DUP4 PUSH20 0xFFFFFFFFFFFFFFFFFFFFFFFFFFFFFFFFFFFFFFFF AND PUSH2 0x1253 SWAP1 SWAP3 SWAP2 SWAP1 PUSH4 0xFFFFFFFF AND JUMP JUMPDEST PUSH1 0x2 PUSH0 SWAP1 SLOAD SWAP1 PUSH2 0x100 EXP SWAP1 DIV PUSH20 0xFFFFFFFFFFFFFFFFFFFFFFFFFFFFFFFFFFFFFFFF AND PUSH20 0xFFFFFFFFFFFFFFFFFFFFFFFFFFFFFFFFFFFFFFFF AND DUP6 PUSH20 0xFFFFFFFFFFFFFFFFFFFFFFFFFFFFFFFFFFFFFFFF AND SUB PUSH2 0xDDB JUMPI DUP4 PUSH1 0x4 PUSH0 DUP3 DUP3 SLOAD PUSH2 0xDB7 SWAP2 SWAP1 PUSH2 0x1AF0 JUMP JUMPDEST SWAP3 POP POP DUP2 SWAP1 SSTORE POP DUP3 PUSH1 0x5 PUSH0 DUP3 DUP3 SLOAD PUSH2 0xDCF SWAP2 SWAP1 PUSH2 0x1B8B JUMP JUMPDEST SWAP3 POP POP DUP2 SWAP1 SSTORE POP PUSH2 0xE0C JUMP JUMPDEST DUP4 PUSH1 0x5 PUSH0 DUP3 DUP3 SLOAD PUSH2 0xDEC SWAP2 SWAP1 PUSH2 0x1AF0 JUMP JUMPDEST SWAP3 POP POP DUP2 SWAP1 SSTORE POP DUP3 PUSH1 0x4 PUSH0 DUP3 DUP3 SLOAD PUSH2 0xE04 SWAP2 SWAP1 PUSH2 0x1B8B JUMP JUMPDEST SWAP3 POP POP DUP2 SWAP1 SSTORE POP JUMPDEST CALLER PUSH20 0xFFFFFFFFFFFFFFFFFFFFFFFFFFFFFFFFFFFFFFFF AND PUSH32 0x5380CF97D8F645D3C4896DA60C053458DCA03A3A31CEC642AC80E1DDF0D8D02A DUP7 DUP7 DUP5 DUP8 PUSH1 0x40 MLOAD PUSH2 0xE58 SWAP5 SWAP4 SWAP3 SWAP2 SWAP1 PUSH2 0x1C8E JUMP JUMPDEST PUSH1 0x40 MLOAD DUP1 SWAP2 SUB SWAP1 LOG2 POP POP PUSH2 0xE6A PUSH2 0x1082 JUMP JUMPDEST SWAP3 SWAP2 POP POP JUMP JUMPDEST PUSH1 0x2 PUSH0 SWAP1 SLOAD SWAP1 PUSH2 0x100 EXP SWAP1 DIV PUSH20 0xFFFFFFFFFFFFFFFFFFFFFFFFFFFFFFFFFFFFFFFF AND DUP2 JUMP JUMPDEST PUSH2 0xE9D PUSH2 0x108B JUMP JUMPDEST PUSH0 PUSH20 0xFFFFFFFFFFFFFFFFFFFFFFFFFFFFFFFFFFFFFFFF AND DUP2 PUSH20 0xFFFFFFFFFFFFFFFFFFFFFFFFFFFFFFFFFFFFFFFF AND SUB PUSH2 0xF0B JUMPI PUSH1 0x40 MLOAD PUSH32 0x8C379A000000000000000000000000000000000000000000000000000000000 DUP2 MSTORE PUSH1 0x4 ADD PUSH2 0xF02 SWAP1 PUSH2 0x1D41 JUMP JUMPDEST PUSH1 0x40 MLOAD DUP1 SWAP2 SUB SWAP1 REVERT JUMPDEST PUSH2 0xF14 DUP2 PUSH2 0x1109 JUMP JUMPDEST POP JUMP JUMPDEST PUSH0 DUP1 PUSH1 0x2 PUSH0 SWAP1 SLOAD SWAP1 PUSH2 0x100 EXP SWAP1 DIV PUSH20 0xFFFFFFFFFFFFFFFFFFFFFFFFFFFFFFFFFFFFFFFF AND PUSH20 0xFFFFFFFFFFFFFFFFFFFFFFFFFFFFFFFFFFFFFFFF AND DUP5 PUSH20 0xFFFFFFFFFFFFFFFFFFFFFFFFFFFFFFFFFFFFFFFF AND EQ PUSH2 0xF75 JUMPI PUSH1 0x5 SLOAD PUSH2 0xF79 JUMP JUMPDEST PUSH1 0x4 SLOAD JUMPDEST SWAP1 POP PUSH0 PUSH1 0x2 PUSH0 SWAP1 SLOAD SWAP1 PUSH2 0x100 EXP SWAP1 DIV PUSH20 0xFFFFFFFFFFFFFFFFFFFFFFFFFFFFFFFFFFFFFFFF AND PUSH20 0xFFFFFFFFFFFFFFFFFFFFFFFFFFFFFFFFFFFFFFFF AND DUP6 PUSH20 0xFFFFFFFFFFFFFFFFFFFFFFFFFFFFFFFFFFFFFFFF AND EQ PUSH2 0xFD8 JUMPI PUSH1 0x4 SLOAD PUSH2 0xFDC JUMP JUMPDEST PUSH1 0x5 SLOAD JUMPDEST SWAP1 POP PUSH0 PUSH2 0x3E5 DUP6 PUSH2 0xFED SWAP2 SWAP1 PUSH2 0x1D5F JUMP JUMPDEST SWAP1 POP PUSH0 DUP3 DUP3 PUSH2 0xFFC SWAP2 SWAP1 PUSH2 0x1D5F JUMP JUMPDEST SWAP1 POP PUSH0 DUP3 PUSH2 0x3E8 DUP7 PUSH2 0x100E SWAP2 SWAP1 PUSH2 0x1D5F JUMP JUMPDEST PUSH2 0x1018 SWAP2 SWAP1 PUSH2 0x1AF0 JUMP JUMPDEST SWAP1 POP DUP1 DUP3 PUSH2 0x1026 SWAP2 SWAP1 PUSH2 0x1DCD JUMP JUMPDEST SWAP6 POP POP POP POP POP POP SWAP3 SWAP2 POP POP JUMP JUMPDEST PUSH1 0x2 PUSH1 0x1 SLOAD SUB PUSH2 0x1078 JUMPI PUSH1 0x40 MLOAD PUSH32 0x8C379A000000000000000000000000000000000000000000000000000000000 DUP2 MSTORE PUSH1 0x4 ADD PUSH2 0x106F SWAP1 PUSH2 0x1E47 JUMP JUMPDEST PUSH1 0x40 MLOAD DUP1 SWAP2 SUB SWAP1 REVERT JUMPDEST PUSH1 0x2 PUSH1 0x1 DUP2 SWAP1 SSTORE POP JUMP JUMPDEST PUSH1 0x1 DUP1 DUP2 SWAP1 SSTORE POP JUMP JUMPDEST PUSH2 0x1093 PUSH2 0x12D9 JUMP JUMPDEST PUSH20 0xFFFFFFFFFFFFFFFFFFFFFFFFFFFFFFFFFFFFFFFF AND PUSH2 0x10B1 PUSH2 0x33C JUMP JUMPDEST PUSH20 0xFFFFFFFFFFFFFFFFFFFFFFFFFFFFFFFFFFFFFFFF AND EQ PUSH2 0x1107 JUMPI PUSH1 0x40 MLOAD PUSH32 0x8C379A000000000000000000000000000000000000000000000000000000000 DUP2 MSTORE PUSH1 0x4 ADD PUSH2 0x10FE SWAP1 PUSH2 0x1EAF JUMP JUMPDEST PUSH1 0x40 MLOAD DUP1 SWAP2 SUB SWAP1 REVERT JUMPDEST JUMP JUMPDEST PUSH0 DUP1 PUSH0 SWAP1 SLOAD SWAP1 PUSH2 0x100 EXP SWAP1 DIV PUSH20 0xFFFFFFFFFFFFFFFFFFFFFFFFFFFFFFFFFFFFFFFF AND SWAP1 POP DUP2 PUSH0 DUP1 PUSH2 0x100 EXP DUP2 SLOAD DUP2 PUSH20 0xFFFFFFFFFFFFFFFFFFFFFFFFFFFFFFFFFFFFFFFF MUL NOT AND SWAP1 DUP4 PUSH20 0xFFFFFFFFFFFFFFFFFFFFFFFFFFFFFFFFFFFFFFFF AND MUL OR SWAP1 SSTORE POP DUP2 PUSH20 0xFFFFFFFFFFFFFFFFFFFFFFFFFFFFFFFFFFFFFFFF AND DUP2 PUSH20 0xFFFFFFFFFFFFFFFFFFFFFFFFFFFFFFFFFFFFFFFF AND PUSH32 0x8BE0079C531659141344CD1FD0A4F28419497F9722A3DAAFE3B4186F6B6457E0 PUSH1 0x40 MLOAD PUSH1 0x40 MLOAD DUP1 SWAP2 SUB SWAP1 LOG3 POP POP JUMP JUMPDEST PUSH2 0x124D DUP5 PUSH4 0x23B872DD PUSH1 0xE0 SHL DUP6 DUP6 DUP6 PUSH1 0x40 MLOAD PUSH1 0x24 ADD PUSH2 0x11EB SWAP4 SWAP3 SWAP2 SWAP1 PUSH2 0x1ECD JUMP JUMPDEST PUSH1 0x40 MLOAD PUSH1 0x20 DUP2 DUP4 SUB SUB DUP2 MSTORE SWAP1 PUSH1 0x40 MSTORE SWAP1 PUSH28 0xFFFFFFFFFFFFFFFFFFFFFFFFFFFFFFFFFFFFFFFFFFFFFFFFFFFFFFFF NOT AND PUSH1 0x20 DUP3 ADD DUP1 MLOAD PUSH28 0xFFFFFFFFFFFFFFFFFFFFFFFFFFFFFFFFFFFFFFFFFFFFFFFFFFFFFFFF DUP4 DUP2 DUP4 AND OR DUP4 MSTORE POP POP POP POP PUSH2 0x12E0 JUMP JUMPDEST POP POP POP POP JUMP JUMPDEST PUSH2 0x12D4 DUP4 PUSH4 0xA9059CBB PUSH1 0xE0 SHL DUP5 DUP5 PUSH1 0x40 MLOAD PUSH1 0x24 ADD PUSH2 0x1272 SWAP3 SWAP2 SWAP1 PUSH2 0x1F02 JUMP JUMPDEST PUSH1 0x40 MLOAD PUSH1 0x20 DUP2 DUP4 SUB SUB DUP2 MSTORE SWAP1 PUSH1 0x40 MSTORE SWAP1 PUSH28 0xFFFFFFFFFFFFFFFFFFFFFFFFFFFFFFFFFFFFFFFFFFFFFFFFFFFFFFFF NOT AND PUSH1 0x20 DUP3 ADD DUP1 MLOAD PUSH28 0xFFFFFFFFFFFFFFFFFFFFFFFFFFFFFFFFFFFFFFFFFFFFFFFFFFFFFFFF DUP4 DUP2 DUP4 AND OR DUP4 MSTORE POP POP POP POP PUSH2 0x12E0 JUMP JUMPDEST POP POP POP JUMP JUMPDEST PUSH0 CALLER SWAP1 POP SWAP1 JUMP JUMPDEST PUSH0 PUSH2 0x1341 DUP3 PUSH1 0x40 MLOAD DUP1 PUSH1 0x40 ADD PUSH1 0x40 MSTORE DUP1 PUSH1 0x20 DUP2 MSTORE PUSH1 0x20 ADD PUSH32 0x5361666545524332303A206C6F772D6C6576656C2063616C6C206661696C6564 DUP2 MSTORE POP DUP6 PUSH20 0xFFFFFFFFFFFFFFFFFFFFFFFFFFFFFFFFFFFFFFFF AND PUSH2 0x13A5 SWAP1 SWAP3 SWAP2 SWAP1 PUSH4 0xFFFFFFFF AND JUMP JUMPDEST SWAP1 POP PUSH0 DUP2 MLOAD GT ISZERO PUSH2 0x13A0 JUMPI DUP1 DUP1 PUSH1 0x20 ADD SWAP1 MLOAD DUP2 ADD SWAP1 PUSH2 0x1360 SWAP2 SWAP1 PUSH2 0x1F5E JUMP JUMPDEST PUSH2 0x139F JUMPI PUSH1 0x40 MLOAD PUSH32 0x8C379A000000000000000000000000000000000000000000000000000000000 DUP2 MSTORE PUSH1 0x4 ADD PUSH2 0x1396 SWAP1 PUSH2 0x1FF9 JUMP JUMPDEST PUSH1 0x40 MLOAD DUP1 SWAP2 SUB SWAP1 REVERT JUMPDEST JUMPDEST POP POP POP JUMP JUMPDEST PUSH1 0x60 PUSH2 0x13B3 DUP5 DUP5 PUSH0 DUP6 PUSH2 0x13BC JUMP JUMPDEST SWAP1 POP SWAP4 SWAP3 POP POP POP JUMP JUMPDEST PUSH1 0x60 DUP3 SELFBALANCE LT ISZERO PUSH2 0x1401 JUMPI PUSH1 0x40 MLOAD PUSH32 0x8C379A000000000000000000000000000000000000000000000000000000000 DUP2 MSTORE PUSH1 0x4 ADD PUSH2 0x13F8 SWAP1 PUSH2 0x2087 JUMP JUMPDEST PUSH1 0x40 MLOAD DUP1 SWAP2 SUB SWAP1 REVERT JUMPDEST PUSH0 DUP1 DUP7 PUSH20 0xFFFFFFFFFFFFFFFFFFFFFFFFFFFFFFFFFFFFFFFF AND DUP6 DUP8 PUSH1 0x40 MLOAD PUSH2 0x1429 SWAP2 SWAP1 PUSH2 0x20F7 JUMP JUMPDEST PUSH0 PUSH1 0x40 MLOAD DUP1 DUP4 SUB DUP2 DUP6 DUP8 GAS CALL SWAP3 POP POP POP RETURNDATASIZE DUP1 PUSH0 DUP2 EQ PUSH2 0x1463 JUMPI PUSH1 0x40 MLOAD SWAP2 POP PUSH1 0x1F NOT PUSH1 0x3F RETURNDATASIZE ADD AND DUP3 ADD PUSH1 0x40 MSTORE RETURNDATASIZE DUP3 MSTORE RETURNDATASIZE PUSH0 PUSH1 0x20 DUP5 ADD RETURNDATACOPY PUSH2 0x1468 JUMP JUMPDEST PUSH1 0x60 SWAP2 POP JUMPDEST POP SWAP2 POP SWAP2 POP PUSH2 0x1479 DUP8 DUP4 DUP4 DUP8 PUSH2 0x1485 JUMP JUMPDEST SWAP3 POP POP POP SWAP5 SWAP4 POP POP POP POP JUMP JUMPDEST PUSH1 0x60 DUP4 ISZERO PUSH2 0x14E6 JUMPI PUSH0 DUP4 MLOAD SUB PUSH2 0x14DE JUMPI PUSH2 0x149E DUP6 PUSH2 0x14F9 JUMP JUMPDEST PUSH2 0x14DD JUMPI PUSH1 0x40 MLOAD PUSH32 0x8C379A000000000000000000000000000000000000000000000000000000000 DUP2 MSTORE PUSH1 0x4 ADD PUSH2 0x14D4 SWAP1 PUSH2 0x2157 JUMP JUMPDEST PUSH1 0x40 MLOAD DUP1 SWAP2 SUB SWAP1 REVERT JUMPDEST JUMPDEST DUP3 SWAP1 POP PUSH2 0x14F1 JUMP JUMPDEST PUSH2 0x14F0 DUP4 DUP4 PUSH2 0x151B JUMP JUMPDEST JUMPDEST SWAP5 SWAP4 POP POP POP POP JUMP JUMPDEST PUSH0 DUP1 DUP3 PUSH20 0xFFFFFFFFFFFFFFFFFFFFFFFFFFFFFFFFFFFFFFFF AND EXTCODESIZE GT SWAP1 POP SWAP2 SWAP1 POP JUMP JUMPDEST PUSH0 DUP3 MLOAD GT ISZERO PUSH2 0x152D JUMPI DUP2 MLOAD DUP1 DUP4 PUSH1 0x20 ADD REVERT JUMPDEST DUP1 PUSH1 0x40 MLOAD PUSH32 0x8C379A000000000000000000000000000000000000000000000000000000000 DUP2 MSTORE PUSH1 0x4 ADD PUSH2 0x1561 SWAP2 SWAP1 PUSH2 0x21C7 JUMP JUMPDEST PUSH1 0x40 MLOAD DUP1 SWAP2 SUB SWAP1 REVERT JUMPDEST PUSH0 DUP2 SWAP1 POP SWAP2 SWAP1 POP JUMP JUMPDEST PUSH2 0x157C DUP2 PUSH2 0x156A JUMP JUMPDEST DUP3 MSTORE POP POP JUMP JUMPDEST PUSH0 PUSH1 0x40 DUP3 ADD SWAP1 POP PUSH2 0x1595 PUSH0 DUP4 ADD DUP6 PUSH2 0x1573 JUMP JUMPDEST PUSH2 0x15A2 PUSH1 0x20 DUP4 ADD DUP5 PUSH2 0x1573 JUMP JUMPDEST SWAP4 SWAP3 POP POP POP JUMP JUMPDEST PUSH0 PUSH20 0xFFFFFFFFFFFFFFFFFFFFFFFFFFFFFFFFFFFFFFFF DUP3 AND SWAP1 POP SWAP2 SWAP1 POP JUMP JUMPDEST PUSH0 DUP2 SWAP1 POP SWAP2 SWAP1 POP JUMP JUMPDEST PUSH0 PUSH2 0x15EB PUSH2 0x15E6 PUSH2 0x15E1 DUP5 PUSH2 0x15A9 JUMP JUMPDEST PUSH2 0x15C8 JUMP JUMPDEST PUSH2 0x15A9 JUMP JUMPDEST SWAP1 POP SWAP2 SWAP1 POP JUMP JUMPDEST PUSH0 PUSH2 0x15FC DUP3 PUSH2 0x15D1 JUMP JUMPDEST SWAP1 POP SWAP2 SWAP1 POP JUMP JUMPDEST PUSH0 PUSH2 0x160D DUP3 PUSH2 0x15F2 JUMP JUMPDEST SWAP1 POP SWAP2 SWAP1 POP JUMP JUMPDEST PUSH2 0x161D DUP2 PUSH2 0x1603 JUMP JUMPDEST DUP3 MSTORE POP POP JUMP JUMPDEST PUSH0 PUSH1 0x20 DUP3 ADD SWAP1 POP PUSH2 0x1636 PUSH0 DUP4 ADD DUP5 PUSH2 0x1614 JUMP JUMPDEST SWAP3 SWAP2 POP POP JUMP JUMPDEST PUSH0 DUP1 REVERT JUMPDEST PUSH0 PUSH2 0x164A DUP3 PUSH2 0x15A9 JUMP JUMPDEST SWAP1 POP SWAP2 SWAP1 POP JUMP JUMPDEST PUSH2 0x165A DUP2 PUSH2 0x1640 JUMP JUMPDEST DUP2 EQ PUSH2 0x1664 JUMPI PUSH0 DUP1 REVERT JUMPDEST POP JUMP JUMPDEST PUSH0 DUP2 CALLDATALOAD SWAP1 POP PUSH2 0x1675 DUP2 PUSH2 0x1651 JUMP JUMPDEST SWAP3 SWAP2 POP POP JUMP JUMPDEST PUSH2 0x1684 DUP2 PUSH2 0x156A JUMP JUMPDEST DUP2 EQ PUSH2 0x168E JUMPI PUSH0 DUP1 REVERT JUMPDEST POP JUMP JUMPDEST PUSH0 DUP2 CALLDATALOAD SWAP1 POP PUSH2 0x169F DUP2 PUSH2 0x167B JUMP JUMPDEST SWAP3 SWAP2 POP POP JUMP JUMPDEST PUSH0 DUP1 PUSH1 0x40 DUP4 DUP6 SUB SLT ISZERO PUSH2 0x16BB JUMPI PUSH2 0x16BA PUSH2 0x163C JUMP JUMPDEST JUMPDEST PUSH0 PUSH2 0x16C8 DUP6 DUP3 DUP7 ADD PUSH2 0x1667 JUMP JUMPDEST SWAP3 POP POP PUSH1 0x20 PUSH2 0x16D9 DUP6 DUP3 DUP7 ADD PUSH2 0x1691 JUMP JUMPDEST SWAP2 POP POP SWAP3 POP SWAP3 SWAP1 POP JUMP JUMPDEST PUSH0 PUSH1 0x20 DUP3 ADD SWAP1 POP PUSH2 0x16F6 PUSH0 DUP4 ADD DUP5 PUSH2 0x1573 JUMP JUMPDEST SWAP3 SWAP2 POP POP JUMP JUMPDEST PUSH0 DUP1 PUSH0 PUSH1 0x60 DUP5 DUP7 SUB SLT ISZERO PUSH2 0x1713 JUMPI PUSH2 0x1712 PUSH2 0x163C JUMP JUMPDEST JUMPDEST PUSH0 PUSH2 0x1720 DUP7 DUP3 DUP8 ADD PUSH2 0x1667 JUMP JUMPDEST SWAP4 POP POP PUSH1 0x20 PUSH2 0x1731 DUP7 DUP3 DUP8 ADD PUSH2 0x1691 JUMP JUMPDEST SWAP3 POP POP PUSH1 0x40 PUSH2 0x1742 DUP7 DUP3 DUP8 ADD PUSH2 0x1691 JUMP JUMPDEST SWAP2 POP POP SWAP3 POP SWAP3 POP SWAP3 JUMP JUMPDEST PUSH2 0x1755 DUP2 PUSH2 0x1640 JUMP JUMPDEST DUP3 MSTORE POP POP JUMP JUMPDEST PUSH0 PUSH1 0x20 DUP3 ADD SWAP1 POP PUSH2 0x176E PUSH0 DUP4 ADD DUP5 PUSH2 0x174C JUMP JUMPDEST SWAP3 SWAP2 POP POP JUMP JUMPDEST PUSH0 DUP1 PUSH1 0x40 DUP4 DUP6 SUB SLT ISZERO PUSH2 0x178A JUMPI PUSH2 0x1789 PUSH2 0x163C JUMP JUMPDEST JUMPDEST PUSH0 PUSH2 0x1797 DUP6 DUP3 DUP7 ADD PUSH2 0x1691 JUMP JUMPDEST SWAP3 POP POP PUSH1 0x20 PUSH2 0x17A8 DUP6 DUP3 DUP7 ADD PUSH2 0x1691 JUMP JUMPDEST SWAP2 POP POP SWAP3 POP SWAP3 SWAP1 POP JUMP JUMPDEST PUSH0 PUSH1 0x20 DUP3 DUP5 SUB SLT ISZERO PUSH2 0x17C7 JUMPI PUSH2 0x17C6 PUSH2 0x163C JUMP JUMPDEST JUMPDEST PUSH0 PUSH2 0x17D4 DUP5 DUP3 DUP6 ADD PUSH2 0x1667 JUMP JUMPDEST SWAP2 POP POP SWAP3 SWAP2 POP POP JUMP JUMPDEST PUSH0 DUP3 DUP3 MSTORE PUSH1 0x20 DUP3 ADD SWAP1 POP SWAP3 SWAP2 POP POP JUMP JUMPDEST PUSH32 0x536C69707061676520746F6C6572616E63652065786365656465640000000000 PUSH0 DUP3 ADD MSTORE POP JUMP JUMPDEST PUSH0 PUSH2 0x1821 PUSH1 0x1B DUP4 PUSH2 0x17DD JUMP JUMPDEST SWAP2 POP PUSH2 0x182C DUP3 PUSH2 0x17ED JUMP JUMPDEST PUSH1 0x20 DUP3 ADD SWAP1 POP SWAP2 SWAP1 POP JUMP JUMPDEST PUSH0 PUSH1 0x20 DUP3 ADD SWAP1 POP DUP2 DUP2 SUB PUSH0 DUP4 ADD MSTORE PUSH2 0x184E DUP2 PUSH2 0x1815 JUMP JUMPDEST SWAP1 POP SWAP2 SWAP1 POP JUMP JUMPDEST PUSH32 0x416D6F756E7473206D7573742062652067726561746572207468616E20300000 PUSH0 DUP3 ADD MSTORE POP JUMP JUMPDEST PUSH0 PUSH2 0x1889 PUSH1 0x1E DUP4 PUSH2 0x17DD JUMP JUMPDEST SWAP2 POP PUSH2 0x1894 DUP3 PUSH2 0x1855 JUMP JUMPDEST PUSH1 0x20 DUP3 ADD SWAP1 POP SWAP2 SWAP1 POP JUMP JUMPDEST PUSH0 PUSH1 0x20 DUP3 ADD SWAP1 POP DUP2 DUP2 SUB PUSH0 DUP4 ADD MSTORE PUSH2 0x18B6 DUP2 PUSH2 0x187D JUMP JUMPDEST SWAP1 POP SWAP2 SWAP1 POP JUMP JUMPDEST PUSH0 PUSH1 0x40 DUP3 ADD SWAP1 POP PUSH2 0x18D0 PUSH0 DUP4 ADD DUP6 PUSH2 0x174C JUMP JUMPDEST PUSH2 0x18DD PUSH1 0x20 DUP4 ADD DUP5 PUSH2 0x174C JUMP JUMPDEST SWAP4 SWAP3 POP POP POP JUMP JUMPDEST PUSH0 DUP2 MLOAD SWAP1 POP PUSH2 0x18F2 DUP2 PUSH2 0x167B JUMP JUMPDEST SWAP3 SWAP2 POP POP JUMP JUMPDEST PUSH0 PUSH1 0x20 DUP3 DUP5 SUB SLT ISZERO PUSH2 0x190D JUMPI PUSH2 0x190C PUSH2 0x163C JUMP JUMPDEST JUMPDEST PUSH0 PUSH2 0x191A DUP5 DUP3 DUP6 ADD PUSH2 0x18E4 JUMP JUMPDEST SWAP2 POP POP SWAP3 SWAP2 POP POP JUMP JUMPDEST PUSH32 0x496E73756666696369656E7420746F6B656E3120616C6C6F77616E6365000000 PUSH0 DUP3 ADD MSTORE POP JUMP JUMPDEST PUSH0 PUSH2 0x1957 PUSH1 0x1D DUP4 PUSH2 0x17DD JUMP JUMPDEST SWAP2 POP PUSH2 0x1962 DUP3 PUSH2 0x1923 JUMP JUMPDEST PUSH1 0x20 DUP3 ADD SWAP1 POP SWAP2 SWAP1 POP JUMP JUMPDEST PUSH0 PUSH1 0x20 DUP3 ADD SWAP1 POP DUP2 DUP2 SUB PUSH0 DUP4 ADD MSTORE PUSH2 0x1984 DUP2 PUSH2 0x194B JUMP JUMPDEST SWAP1 POP SWAP2 SWAP1 POP JUMP JUMPDEST PUSH32 0x496E73756666696369656E7420746F6B656E3220616C6C6F77616E6365000000 PUSH0 DUP3 ADD MSTORE POP JUMP JUMPDEST PUSH0 PUSH2 0x19BF PUSH1 0x1D DUP4 PUSH2 0x17DD JUMP JUMPDEST SWAP2 POP PUSH2 0x19CA DUP3 PUSH2 0x198B JUMP JUMPDEST PUSH1 0x20 DUP3 ADD SWAP1 POP SWAP2 SWAP1 POP JUMP JUMPDEST PUSH0 PUSH1 0x20 DUP3 ADD SWAP1 POP DUP2 DUP2 SUB PUSH0 DUP4 ADD MSTORE PUSH2 0x19EC DUP2 PUSH2 0x19B3 JUMP JUMPDEST SWAP1 POP SWAP2 SWAP1 POP JUMP JUMPDEST PUSH32 0x496E73756666696369656E7420746F6B656E312062616C616E63650000000000 PUSH0 DUP3 ADD MSTORE POP JUMP JUMPDEST PUSH0 PUSH2 0x1A27 PUSH1 0x1B DUP4 PUSH2 0x17DD JUMP JUMPDEST SWAP2 POP PUSH2 0x1A32 DUP3 PUSH2 0x19F3 JUMP JUMPDEST PUSH1 0x20 DUP3 ADD SWAP1 POP SWAP2 SWAP1 POP JUMP JUMPDEST PUSH0 PUSH1 0x20 DUP3 ADD SWAP1 POP DUP2 DUP2 SUB PUSH0 DUP4 ADD MSTORE PUSH2 0x1A54 DUP2 PUSH2 0x1A1B JUMP JUMPDEST SWAP1 POP SWAP2 SWAP1 POP JUMP JUMPDEST PUSH32 0x496E73756666696369656E7420746F6B656E322062616C616E63650000000000 PUSH0 DUP3 ADD MSTORE POP JUMP JUMPDEST PUSH0 PUSH2 0x1A8F PUSH1 0x1B DUP4 PUSH2 0x17DD JUMP JUMPDEST SWAP2 POP PUSH2 0x1A9A DUP3 PUSH2 0x1A5B JUMP JUMPDEST PUSH1 0x20 DUP3 ADD SWAP1 POP SWAP2 SWAP1 POP JUMP JUMPDEST PUSH0 PUSH1 0x20 DUP3 ADD SWAP1 POP DUP2 DUP2 SUB PUSH0 DUP4 ADD MSTORE PUSH2 0x1ABC DUP2 PUSH2 0x1A83 JUMP JUMPDEST SWAP1 POP SWAP2 SWAP1 POP JUMP JUMPDEST PUSH32 0x4E487B7100000000000000000000000000000000000000000000000000000000 PUSH0 MSTORE PUSH1 0x11 PUSH1 0x4 MSTORE PUSH1 0x24 PUSH0 REVERT JUMPDEST PUSH0 PUSH2 0x1AFA DUP3 PUSH2 0x156A JUMP JUMPDEST SWAP2 POP PUSH2 0x1B05 DUP4 PUSH2 0x156A JUMP JUMPDEST SWAP3 POP DUP3 DUP3 ADD SWAP1 POP DUP1 DUP3 GT ISZERO PUSH2 0x1B1D JUMPI PUSH2 0x1B1C PUSH2 0x1AC3 JUMP JUMPDEST JUMPDEST SWAP3 SWAP2 POP POP JUMP JUMPDEST PUSH32 0x496E73756666696369656E74206C697175696469747900000000000000000000 PUSH0 DUP3 ADD MSTORE POP JUMP JUMPDEST PUSH0 PUSH2 0x1B57 PUSH1 0x16 DUP4 PUSH2 0x17DD JUMP JUMPDEST SWAP2 POP PUSH2 0x1B62 DUP3 PUSH2 0x1B23 JUMP JUMPDEST PUSH1 0x20 DUP3 ADD SWAP1 POP SWAP2 SWAP1 POP JUMP JUMPDEST PUSH0 PUSH1 0x20 DUP3 ADD SWAP1 POP DUP2 DUP2 SUB PUSH0 DUP4 ADD MSTORE PUSH2 0x1B84 DUP2 PUSH2 0x1B4B JUMP JUMPDEST SWAP1 POP SWAP2 SWAP1 POP JUMP JUMPDEST PUSH0 PUSH2 0x1B95 DUP3 PUSH2 0x156A JUMP JUMPDEST SWAP2 POP PUSH2 0x1BA0 DUP4 PUSH2 0x156A JUMP JUMPDEST SWAP3 POP DUP3 DUP3 SUB SWAP1 POP DUP2 DUP2 GT ISZERO PUSH2 0x1BB8 JUMPI PUSH2 0x1BB7 PUSH2 0x1AC3 JUMP JUMPDEST JUMPDEST SWAP3 SWAP2 POP POP JUMP JUMPDEST PUSH32 0x496E76616C696420746F6B656E00000000000000000000000000000000000000 PUSH0 DUP3 ADD MSTORE POP JUMP JUMPDEST PUSH0 PUSH2 0x1BF2 PUSH1 0xD DUP4 PUSH2 0x17DD JUMP JUMPDEST SWAP2 POP PUSH2 0x1BFD DUP3 PUSH2 0x1BBE JUMP JUMPDEST PUSH1 0x20 DUP3 ADD SWAP1 POP SWAP2 SWAP1 POP JUMP JUMPDEST PUSH0 PUSH1 0x20 DUP3 ADD SWAP1 POP DUP2 DUP2 SUB PUSH0 DUP4 ADD MSTORE PUSH2 0x1C1F DUP2 PUSH2 0x1BE6 JUMP JUMPDEST SWAP1 POP SWAP2 SWAP1 POP JUMP JUMPDEST PUSH32 0x416D6F756E74206D7573742062652067726561746572207468616E2030000000 PUSH0 DUP3 ADD MSTORE POP JUMP JUMPDEST PUSH0 PUSH2 0x1C5A PUSH1 0x1D DUP4 PUSH2 0x17DD JUMP JUMPDEST SWAP2 POP PUSH2 0x1C65 DUP3 PUSH2 0x1C26 JUMP JUMPDEST PUSH1 0x20 DUP3 ADD SWAP1 POP SWAP2 SWAP1 POP JUMP JUMPDEST PUSH0 PUSH1 0x20 DUP3 ADD SWAP1 POP DUP2 DUP2 SUB PUSH0 DUP4 ADD MSTORE PUSH2 0x1C87 DUP2 PUSH2 0x1C4E JUMP JUMPDEST SWAP1 POP SWAP2 SWAP1 POP JUMP JUMPDEST PUSH0 PUSH1 0x80 DUP3 ADD SWAP1 POP PUSH2 0x1CA1 PUSH0 DUP4 ADD DUP8 PUSH2 0x174C JUMP JUMPDEST PUSH2 0x1CAE PUSH1 0x20 DUP4 ADD DUP7 PUSH2 0x1573 JUMP JUMPDEST PUSH2 0x1CBB PUSH1 0x40 DUP4 ADD DUP6 PUSH2 0x174C JUMP JUMPDEST PUSH2 0x1CC8 PUSH1 0x60 DUP4 ADD DUP5 PUSH2 0x1573 JUMP JUMPDEST SWAP6 SWAP5 POP POP POP POP POP JUMP JUMPDEST PUSH32 0x4F776E61626C653A206E6577206F776E657220697320746865207A65726F2061 PUSH0 DUP3 ADD MSTORE PUSH32 0x6464726573730000000000000000000000000000000000000000000000000000 PUSH1 0x20 DUP3 ADD MSTORE POP JUMP JUMPDEST PUSH0 PUSH2 0x1D2B PUSH1 0x26 DUP4 PUSH2 0x17DD JUMP JUMPDEST SWAP2 POP PUSH2 0x1D36 DUP3 PUSH2 0x1CD1 JUMP JUMPDEST PUSH1 0x40 DUP3 ADD SWAP1 POP SWAP2 SWAP1 POP JUMP JUMPDEST PUSH0 PUSH1 0x20 DUP3 ADD SWAP1 POP DUP2 DUP2 SUB PUSH0 DUP4 ADD MSTORE PUSH2 0x1D58 DUP2 PUSH2 0x1D1F JUMP JUMPDEST SWAP1 POP SWAP2 SWAP1 POP JUMP JUMPDEST PUSH0 PUSH2 0x1D69 DUP3 PUSH2 0x156A JUMP JUMPDEST SWAP2 POP PUSH2 0x1D74 DUP4 PUSH2 0x156A JUMP JUMPDEST SWAP3 POP DUP3 DUP3 MUL PUSH2 0x1D82 DUP2 PUSH2 0x156A JUMP JUMPDEST SWAP2 POP DUP3 DUP3 DIV DUP5 EQ DUP4 ISZERO OR PUSH2 0x1D99 JUMPI PUSH2 0x1D98 PUSH2 0x1AC3 JUMP JUMPDEST JUMPDEST POP SWAP3 SWAP2 POP POP JUMP JUMPDEST PUSH32 0x4E487B7100000000000000000000000000000000000000000000000000000000 PUSH0 MSTORE PUSH1 0x12 PUSH1 0x4 MSTORE PUSH1 0x24 PUSH0 REVERT JUMPDEST PUSH0 PUSH2 0x1DD7 DUP3 PUSH2 0x156A JUMP JUMPDEST SWAP2 POP PUSH2 0x1DE2 DUP4 PUSH2 0x156A JUMP JUMPDEST SWAP3 POP DUP3 PUSH2 0x1DF2 JUMPI PUSH2 0x1DF1 PUSH2 0x1DA0 JUMP JUMPDEST JUMPDEST DUP3 DUP3 DIV SWAP1 POP SWAP3 SWAP2 POP POP JUMP JUMPDEST PUSH32 0x5265656E7472616E637947756172643A207265656E7472616E742063616C6C00 PUSH0 DUP3 ADD MSTORE POP JUMP JUMPDEST PUSH0 PUSH2 0x1E31 PUSH1 0x1F DUP4 PUSH2 0x17DD JUMP JUMPDEST SWAP2 POP PUSH2 0x1E3C DUP3 PUSH2 0x1DFD JUMP JUMPDEST PUSH1 0x20 DUP3 ADD SWAP1 POP SWAP2 SWAP1 POP JUMP JUMPDEST PUSH0 PUSH1 0x20 DUP3 ADD SWAP1 POP DUP2 DUP2 SUB PUSH0 DUP4 ADD MSTORE PUSH2 0x1E5E DUP2 PUSH2 0x1E25 JUMP JUMPDEST SWAP1 POP SWAP2 SWAP1 POP JUMP JUMPDEST PUSH32 0x4F776E61626C653A2063616C6C6572206973206E6F7420746865206F776E6572 PUSH0 DUP3 ADD MSTORE POP JUMP JUMPDEST PUSH0 PUSH2 0x1E99 PUSH1 0x20 DUP4 PUSH2 0x17DD JUMP JUMPDEST SWAP2 POP PUSH2 0x1EA4 DUP3 PUSH2 0x1E65 JUMP JUMPDEST PUSH1 0x20 DUP3 ADD SWAP1 POP SWAP2 SWAP1 POP JUMP JUMPDEST PUSH0 PUSH1 0x20 DUP3 ADD SWAP1 POP DUP2 DUP2 SUB PUSH0 DUP4 ADD MSTORE PUSH2 0x1EC6 DUP2 PUSH2 0x1E8D JUMP JUMPDEST SWAP1 POP SWAP2 SWAP1 POP JUMP JUMPDEST PUSH0 PUSH1 0x60 DUP3 ADD SWAP1 POP PUSH2 0x1EE0 PUSH0 DUP4 ADD DUP7 PUSH2 0x174C JUMP JUMPDEST PUSH2 0x1EED PUSH1 0x20 DUP4 ADD DUP6 PUSH2 0x174C JUMP JUMPDEST PUSH2 0x1EFA PUSH1 0x40 DUP4 ADD DUP5 PUSH2 0x1573 JUMP JUMPDEST SWAP5 SWAP4 POP POP POP POP JUMP JUMPDEST PUSH0 PUSH1 0x40 DUP3 ADD SWAP1 POP PUSH2 0x1F15 PUSH0 DUP4 ADD DUP6 PUSH2 0x174C JUMP JUMPDEST PUSH2 0x1F22 PUSH1 0x20 DUP4 ADD DUP5 PUSH2 0x1573 JUMP JUMPDEST SWAP4 SWAP3 POP POP POP JUMP JUMPDEST PUSH0 DUP2 ISZERO ISZERO SWAP1 POP SWAP2 SWAP1 POP JUMP JUMPDEST PUSH2 0x1F3D DUP2 PUSH2 0x1F29 JUMP JUMPDEST DUP2 EQ PUSH2 0x1F47 JUMPI PUSH0 DUP1 REVERT JUMPDEST POP JUMP JUMPDEST PUSH0 DUP2 MLOAD SWAP1 POP PUSH2 0x1F58 DUP2 PUSH2 0x1F34 JUMP JUMPDEST SWAP3 SWAP2 POP POP JUMP JUMPDEST PUSH0 PUSH1 0x20 DUP3 DUP5 SUB SLT ISZERO PUSH2 0x1F73 JUMPI PUSH2 0x1F72 PUSH2 0x163C JUMP JUMPDEST JUMPDEST PUSH0 PUSH2 0x1F80 DUP5 DUP3 DUP6 ADD PUSH2 0x1F4A JUMP JUMPDEST SWAP2 POP POP SWAP3 SWAP2 POP POP JUMP JUMPDEST PUSH32 0x5361666545524332303A204552433230206F7065726174696F6E20646964206E PUSH0 DUP3 ADD MSTORE PUSH32 0x6F74207375636365656400000000000000000000000000000000000000000000 PUSH1 0x20 DUP3 ADD MSTORE POP JUMP JUMPDEST PUSH0 PUSH2 0x1FE3 PUSH1 0x2A DUP4 PUSH2 0x17DD JUMP JUMPDEST SWAP2 POP PUSH2 0x1FEE DUP3 PUSH2 0x1F89 JUMP JUMPDEST PUSH1 0x40 DUP3 ADD SWAP1 POP SWAP2 SWAP1 POP JUMP JUMPDEST PUSH0 PUSH1 0x20 DUP3 ADD SWAP1 POP DUP2 DUP2 SUB PUSH0 DUP4 ADD MSTORE PUSH2 0x2010 DUP2 PUSH2 0x1FD7 JUMP JUMPDEST SWAP1 POP SWAP2 SWAP1 POP JUMP JUMPDEST PUSH32 0x416464726573733A20696E73756666696369656E742062616C616E636520666F PUSH0 DUP3 ADD MSTORE PUSH32 0x722063616C6C0000000000000000000000000000000000000000000000000000 PUSH1 0x20 DUP3 ADD MSTORE POP JUMP JUMPDEST PUSH0 PUSH2 0x2071 PUSH1 0x26 DUP4 PUSH2 0x17DD JUMP JUMPDEST SWAP2 POP PUSH2 0x207C DUP3 PUSH2 0x2017 JUMP JUMPDEST PUSH1 0x40 DUP3 ADD SWAP1 POP SWAP2 SWAP1 POP JUMP JUMPDEST PUSH0 PUSH1 0x20 DUP3 ADD SWAP1 POP DUP2 DUP2 SUB PUSH0 DUP4 ADD MSTORE PUSH2 0x209E DUP2 PUSH2 0x2065 JUMP JUMPDEST SWAP1 POP SWAP2 SWAP1 POP JUMP JUMPDEST PUSH0 DUP2 MLOAD SWAP1 POP SWAP2 SWAP1 POP JUMP JUMPDEST PUSH0 DUP2 SWAP1 POP SWAP3 SWAP2 POP POP JUMP JUMPDEST DUP3 DUP2 DUP4 MCOPY PUSH0 DUP4 DUP4 ADD MSTORE POP POP POP JUMP JUMPDEST PUSH0 PUSH2 0x20D1 DUP3 PUSH2 0x20A5 JUMP JUMPDEST PUSH2 0x20DB DUP2 DUP6 PUSH2 0x20AF JUMP JUMPDEST SWAP4 POP PUSH2 0x20EB DUP2 DUP6 PUSH1 0x20 DUP7 ADD PUSH2 0x20B9 JUMP JUMPDEST DUP1 DUP5 ADD SWAP2 POP POP SWAP3 SWAP2 POP POP JUMP JUMPDEST PUSH0 PUSH2 0x2102 DUP3 DUP5 PUSH2 0x20C7 JUMP JUMPDEST SWAP2 POP DUP2 SWAP1 POP SWAP3 SWAP2 POP POP JUMP JUMPDEST PUSH32 0x416464726573733A2063616C6C20746F206E6F6E2D636F6E7472616374000000 PUSH0 DUP3 ADD MSTORE POP JUMP JUMPDEST PUSH0 PUSH2 0x2141 PUSH1 0x1D DUP4 PUSH2 0x17DD JUMP JUMPDEST SWAP2 POP PUSH2 0x214C DUP3 PUSH2 0x210D JUMP JUMPDEST PUSH1 0x20 DUP3 ADD SWAP1 POP SWAP2 SWAP1 POP JUMP JUMPDEST PUSH0 PUSH1 0x20 DUP3 ADD SWAP1 POP DUP2 DUP2 SUB PUSH0 DUP4 ADD MSTORE PUSH2 0x216E DUP2 PUSH2 0x2135 JUMP JUMPDEST SWAP1 POP SWAP2 SWAP1 POP JUMP JUMPDEST PUSH0 DUP2 MLOAD SWAP1 POP SWAP2 SWAP1 POP JUMP JUMPDEST PUSH0 PUSH1 0x1F NOT PUSH1 0x1F DUP4 ADD AND SWAP1 POP SWAP2 SWAP1 POP JUMP JUMPDEST PUSH0 PUSH2 0x2199 DUP3 PUSH2 0x2175 JUMP JUMPDEST PUSH2 0x21A3 DUP2 DUP6 PUSH2 0x17DD JUMP JUMPDEST SWAP4 POP PUSH2 0x21B3 DUP2 DUP6 PUSH1 0x20 DUP7 ADD PUSH2 0x20B9 JUMP JUMPDEST PUSH2 0x21BC DUP2 PUSH2 0x217F JUMP JUMPDEST DUP5 ADD SWAP2 POP POP SWAP3 SWAP2 POP POP JUMP JUMPDEST PUSH0 PUSH1 0x20 DUP3 ADD SWAP1 POP DUP2 DUP2 SUB PUSH0 DUP4 ADD MSTORE PUSH2 0x21DF DUP2 DUP5 PUSH2 0x218F JUMP JUMPDEST SWAP1 POP SWAP3 SWAP2 POP POP JUMP INVALID LOG2 PUSH5 0x6970667358 0x22 SLT KECCAK256 0xFB EXTCODECOPY 0x24 0xB6 0xAF 0xE6 TSTORE RETURNDATASIZE 0xF8 0x4E DELEGATECALL 0xE9 0xBD PUSH12 0x5A659BD2811D27C75690F464 PUSH8 0xCE8C0FD19864736F PUSH13 0x634300081A0033000000000000 "
				},
				"gasEstimates": {
					"creation": {
						"codeDepositCost": "1746600",
						"executionCost": "infinite",
						"totalCost": "infinite"
					},
					"external": {
						"addLiquidity(uint256,uint256)": "infinite",
						"getPrice(address,uint256)": "infinite",
						"getReserves()": "infinite",
						"owner()": "2538",
						"removeLiquidity(uint256,uint256)": "infinite",
						"renounceOwnership()": "30501",
						"swap(address,uint256)": "infinite",
						"swapWithSlippage(address,uint256,uint256)": "infinite",
						"token1()": "infinite",
						"token1Balance()": "2447",
						"token2()": "infinite",
						"token2Balance()": "2492",
						"transferOwnership(address)": "30819"
					},
					"internal": {
						"calculateSwapOutput(address,uint256)": "infinite"
					}
				},
				"methodIdentifiers": {
					"addLiquidity(uint256,uint256)": "9cd441da",
					"getPrice(address,uint256)": "449e815d",
					"getReserves()": "0902f1ac",
					"owner()": "8da5cb5b",
					"removeLiquidity(uint256,uint256)": "9d7de6b3",
					"renounceOwnership()": "715018a6",
					"swap(address,uint256)": "d004f0f7",
					"swapWithSlippage(address,uint256,uint256)": "709c50f6",
					"token1()": "d21220a7",
					"token1Balance()": "b9ffa6a8",
					"token2()": "25be124e",
					"token2Balance()": "68a455f1",
					"transferOwnership(address)": "f2fde38b"
				}
			},
			"storageLayout": {
				"storage": [
					{
						"astId": 550,
						"contract": "contracts/DEX.sol:DEX",
						"label": "_owner",
						"offset": 0,
						"slot": "0",
						"type": "t_address"
					},
					{
						"astId": 666,
						"contract": "contracts/DEX.sol:DEX",
						"label": "_status",
						"offset": 0,
						"slot": "1",
						"type": "t_uint256"
					},
					{
						"astId": 16,
						"contract": "contracts/DEX.sol:DEX",
						"label": "token1",
						"offset": 0,
						"slot": "2",
						"type": "t_contract(IERC20)787"
					},
					{
						"astId": 19,
						"contract": "contracts/DEX.sol:DEX",
						"label": "token2",
						"offset": 0,
						"slot": "3",
						"type": "t_contract(IERC20)787"
					},
					{
						"astId": 21,
						"contract": "contracts/DEX.sol:DEX",
						"label": "token1Balance",
						"offset": 0,
						"slot": "4",
						"type": "t_uint256"
					},
					{
						"astId": 23,
						"contract": "contracts/DEX.sol:DEX",
						"label": "token2Balance",
						"offset": 0,
						"slot": "5",
						"type": "t_uint256"
					}
				],
				"types": {
					"t_address": {
						"encoding": "inplace",
						"label": "address",
						"numberOfBytes": "20"
					},
					"t_contract(IERC20)787": {
						"encoding": "inplace",
						"label": "contract IERC20",
						"numberOfBytes": "20"
					},
					"t_uint256": {
						"encoding": "inplace",
						"label": "uint256",
						"numberOfBytes": "32"
					}
				}
			},
			"userdoc": {
				"kind": "user",
				"methods": {},
				"version": 1
			}
		}
	}
}