{
	"contracts/Token.sol": {
		"Token": {
			"abi": [
				{
					"inputs": [
						{
							"internalType": "string",
							"name": "name",
							"type": "string"
						},
						{
							"internalType": "string",
							"name": "symbol",
							"type": "string"
						},
						{
							"internalType": "uint256",
							"name": "initialSupply",
							"type": "uint256"
						}
					],
					"stateMutability": "nonpayable",
					"type": "constructor"
				},
				{
					"inputs": [
						{
							"internalType": "address",
							"name": "spender",
							"type": "address"
						},
						{
							"internalType": "uint256",
							"name": "allowance",
							"type": "uint256"
						},
						{
							"internalType": "uint256",
							"name": "needed",
							"type": "uint256"
						}
					],
					"name": "ERC20InsufficientAllowance",
					"type": "error"
				},
				{
					"inputs": [
						{
							"internalType": "address",
							"name": "sender",
							"type": "address"
						},
						{
							"internalType": "uint256",
							"name": "balance",
							"type": "uint256"
						},
						{
							"internalType": "uint256",
							"name": "needed",
							"type": "uint256"
						}
					],
					"name": "ERC20InsufficientBalance",
					"type": "error"
				},
				{
					"inputs": [
						{
							"internalType": "address",
							"name": "approver",
							"type": "address"
						}
					],
					"name": "ERC20InvalidApprover",
					"type": "error"
				},
				{
					"inputs": [
						{
							"internalType": "address",
							"name": "receiver",
							"type": "address"
						}
					],
					"name": "ERC20InvalidReceiver",
					"type": "error"
				},
				{
					"inputs": [
						{
							"internalType": "address",
							"name": "sender",
							"type": "address"
						}
					],
					"name": "ERC20InvalidSender",
					"type": "error"
				},
				{
					"inputs": [
						{
							"internalType": "address",
							"name": "spender",
							"type": "address"
						}
					],
					"name": "ERC20InvalidSpender",
					"type": "error"
				},
				{
					"anonymous": false,
					"inputs": [
						{
							"indexed": true,
							"internalType": "address",
							"name": "owner",
							"type": "address"
						},
						{
							"indexed": true,
							"internalType": "address",
							"name": "spender",
							"type": "address"
						},
						{
							"indexed": false,
							"internalType": "uint256",
							"name": "value",
							"type": "uint256"
						}
					],
					"name": "Approval",
					"type": "event"
				},
				{
					"anonymous": false,
					"inputs": [
						{
							"indexed": true,
							"internalType": "address",
							"name": "from",
							"type": "address"
						},
						{
							"indexed": true,
							"internalType": "address",
							"name": "to",
							"type": "address"
						},
						{
							"indexed": false,
							"internalType": "uint256",
							"name": "value",
							"type": "uint256"
						}
					],
					"name": "Transfer",
					"type": "event"
				},
				{
					"inputs": [
						{
							"internalType": "address",
							"name": "owner",
							"type": "address"
						},
						{
							"internalType": "address",
							"name": "spender",
							"type": "address"
						}
					],
					"name": "allowance",
					"outputs": [
						{
							"internalType": "uint256",
							"name": "",
							"type": "uint256"
						}
					],
					"stateMutability": "view",
					"type": "function"
				},
				{
					"inputs": [
						{
							"internalType": "address",
							"name": "spender",
							"type": "address"
						},
						{
							"internalType": "uint256",
							"name": "value",
							"type": "uint256"
						}
					],
					"name": "approve",
					"outputs": [
						{
							"internalType": "bool",
							"name": "",
							"type": "bool"
						}
					],
					"stateMutability": "nonpayable",
					"type": "function"
				},
				{
					"inputs": [
						{
							"internalType": "address",
							"name": "account",
							"type": "address"
						}
					],
					"name": "balanceOf",
					"outputs": [
						{
							"internalType": "uint256",
							"name": "",
							"type": "uint256"
						}
					],
					"stateMutability": "view",
					"type": "function"
				},
				{
					"inputs": [],
					"name": "decimals",
					"outputs": [
						{
							"internalType": "uint8",
							"name": "",
							"type": "uint8"
						}
					],
					"stateMutability": "view",
					"type": "function"
				},
				{
					"inputs": [],
					"name": "name",
					"outputs": [
						{
							"internalType": "string",
							"name": "",
							"type": "string"
						}
					],
					"stateMutability": "view",
					"type": "function"
				},
				{
					"inputs": [],
					"name": "symbol",
					"outputs": [
						{
							"internalType": "string",
							"name": "",
							"type": "string"
						}
					],
					"stateMutability": "view",
					"type": "function"
				},
				{
					"inputs": [],
					"name": "totalSupply",
					"outputs": [
						{
							"internalType": "uint256",
							"name": "",
							"type": "uint256"
						}
					],
					"stateMutability": "view",
					"type": "function"
				},
				{
					"inputs": [
						{
							"internalType": "address",
							"name": "to",
							"type": "address"
						},
						{
							"internalType": "uint256",
							"name": "value",
							"type": "uint256"
						}
					],
					"name": "transfer",
					"outputs": [
						{
							"internalType": "bool",
							"name": "",
							"type": "bool"
						}
					],
					"stateMutability": "nonpayable",
					"type": "function"
				},
				{
					"inputs": [
						{
							"internalType": "address",
							"name": "from",
							"type": "address"
						},
						{
							"internalType": "address",
							"name": "to",
							"type": "address"
						},
						{
							"internalType": "uint256",
							"name": "value",
							"type": "uint256"
						}
					],
					"name": "transferFrom",
					"outputs": [
						{
							"internalType": "bool",
							"name": "",
							"type": "bool"
						}
					],
					"stateMutability": "nonpayable",
					"type": "function"
				}
			],
			"devdoc": {
				"errors": {
					"ERC20InsufficientAllowance(address,uint256,uint256)": [
						{
							"details": "Indicates a failure with the `spender`’s `allowance`. Used in transfers.",
							"params": {
								"allowance": "Amount of tokens a `spender` is allowed to operate with.",
								"needed": "Minimum amount required to perform a transfer.",
								"spender": "Address that may be allowed to operate on tokens without being their owner."
							}
						}
					],
					"ERC20InsufficientBalance(address,uint256,uint256)": [
						{
							"details": "Indicates an error related to the current `balance` of a `sender`. Used in transfers.",
							"params": {
								"balance": "Current balance for the interacting account.",
								"needed": "Minimum amount required to perform a transfer.",
								"sender": "Address whose tokens are being transferred."
							}
						}
					],
					"ERC20InvalidApprover(address)": [
						{
							"details": "Indicates a failure with the `approver` of a token to be approved. Used in approvals.",
							"params": {
								"approver": "Address initiating an approval operation."
							}
						}
					],
					"ERC20InvalidReceiver(address)": [
						{
							"details": "Indicates a failure with the token `receiver`. Used in transfers.",
							"params": {
								"receiver": "Address to which tokens are being transferred."
							}
						}
					],
					"ERC20InvalidSender(address)": [
						{
							"details": "Indicates a failure with the token `sender`. Used in transfers.",
							"params": {
								"sender": "Address whose tokens are being transferred."
							}
						}
					],
					"ERC20InvalidSpender(address)": [
						{
							"details": "Indicates a failure with the `spender` to be approved. Used in approvals.",
							"params": {
								"spender": "Address that may be allowed to operate on tokens without being their owner."
							}
						}
					]
				},
				"events": {
					"Approval(address,address,uint256)": {
						"details": "Emitted when the allowance of a `spender` for an `owner` is set by a call to {approve}. `value` is the new allowance."
					},
					"Transfer(address,address,uint256)": {
						"details": "Emitted when `value` tokens are moved from one account (`from`) to another (`to`). Note that `value` may be zero."
					}
				},
				"kind": "dev",
				"methods": {
					"allowance(address,address)": {
						"details": "See {IERC20-allowance}."
					},
					"approve(address,uint256)": {
						"details": "See {IERC20-approve}. NOTE: If `value` is the maximum `uint256`, the allowance is not updated on `transferFrom`. This is semantically equivalent to an infinite approval. Requirements: - `spender` cannot be the zero address."
					},
					"balanceOf(address)": {
						"details": "See {IERC20-balanceOf}."
					},
					"decimals()": {
						"details": "Returns the number of decimals used to get its user representation. For example, if `decimals` equals `2`, a balance of `505` tokens should be displayed to a user as `5.05` (`505 / 10 ** 2`). Tokens usually opt for a value of 18, imitating the relationship between Ether and Wei. This is the default value returned by this function, unless it's overridden. NOTE: This information is only used for _display_ purposes: it in no way affects any of the arithmetic of the contract, including {IERC20-balanceOf} and {IERC20-transfer}."
					},
					"name()": {
						"details": "Returns the name of the token."
					},
					"symbol()": {
						"details": "Returns the symbol of the token, usually a shorter version of the name."
					},
					"totalSupply()": {
						"details": "See {IERC20-totalSupply}."
					},
					"transfer(address,uint256)": {
						"details": "See {IERC20-transfer}. Requirements: - `to` cannot be the zero address. - the caller must have a balance of at least `value`."
					},
					"transferFrom(address,address,uint256)": {
						"details": "See {IERC20-transferFrom}. Emits an {Approval} event indicating the updated allowance. This is not required by the EIP. See the note at the beginning of {ERC20}. NOTE: Does not update the allowance if the current allowance is the maximum `uint256`. Requirements: - `from` and `to` cannot be the zero address. - `from` must have a balance of at least `value`. - the caller must have allowance for ``from``'s tokens of at least `value`."
					}
				},
				"version": 1
			},
			"evm": {
				"assembly": "    /* \"contracts/Token.sol\":154:449  contract Token is ERC20 {... */\n  mstore(0x40, 0x80)\n    /* \"contracts/Token.sol\":184:447  constructor(string memory name, string memory symbol, uint256 initialSupply) ERC20(name, symbol) {... */\n  callvalue\n  dup1\n  iszero\n  tag_1\n  jumpi\n  0x00\n  dup1\n  revert\ntag_1:\n  pop\n  mload(0x40)\n  sub(codesize, bytecodeSize)\n  dup1\n  bytecodeSize\n  dup4\n  codecopy\n  dup2\n  dup2\n  add\n  0x40\n  mstore\n  dup2\n  add\n  swap1\n  tag_2\n  swap2\n  swap1\n  tag_3\n  jump\t// in\ntag_2:\n    /* \"contracts/Token.sol\":267:271  name */\n  dup3\n    /* \"contracts/Token.sol\":273:279  symbol */\n  dup3\n    /* \"@openzeppelin/contracts/token/ERC20/ERC20.sol\":1970:1975  name_ */\n  dup2\n    /* \"@openzeppelin/contracts/token/ERC20/ERC20.sol\":1962:1967  _name */\n  0x03\n    /* \"@openzeppelin/contracts/token/ERC20/ERC20.sol\":1962:1975  _name = name_ */\n  swap1\n  dup2\n  tag_7\n  swap2\n  swap1\n  tag_8\n  jump\t// in\ntag_7:\n  pop\n    /* \"@openzeppelin/contracts/token/ERC20/ERC20.sol\":1995:2002  symbol_ */\n  dup1\n    /* \"@openzeppelin/contracts/token/ERC20/ERC20.sol\":1985:1992  _symbol */\n  0x04\n    /* \"@openzeppelin/contracts/token/ERC20/ERC20.sol\":1985:2002  _symbol = symbol_ */\n  swap1\n  dup2\n  tag_9\n  swap2\n  swap1\n  tag_8\n  jump\t// in\ntag_9:\n  pop\n    /* \"@openzeppelin/contracts/token/ERC20/ERC20.sol\":1896:2009  constructor(string memory name_, string memory symbol_) {... */\n  pop\n  pop\n    /* \"contracts/Token.sol\":378:440  _mint(msg.sender, initialSupply * (10 ** uint256(decimals()))) */\n  tag_11\n    /* \"contracts/Token.sol\":384:394  msg.sender */\n  caller\n    /* \"contracts/Token.sol\":427:437  decimals() */\n  tag_12\n    /* \"contracts/Token.sol\":427:435  decimals */\n  shl(0x20, tag_13)\n    /* \"contracts/Token.sol\":427:437  decimals() */\n  0x20\n  shr\n  jump\t// in\ntag_12:\n    /* \"contracts/Token.sol\":419:438  uint256(decimals()) */\n  0xff\n  and\n    /* \"contracts/Token.sol\":413:415  10 */\n  0x0a\n    /* \"contracts/Token.sol\":413:438  10 ** uint256(decimals()) */\n  tag_14\n  swap2\n  swap1\n  tag_15\n  jump\t// in\ntag_14:\n    /* \"contracts/Token.sol\":396:409  initialSupply */\n  dup4\n    /* \"contracts/Token.sol\":396:439  initialSupply * (10 ** uint256(decimals())) */\n  tag_16\n  swap2\n  swap1\n  tag_17\n  jump\t// in\ntag_16:\n    /* \"contracts/Token.sol\":378:383  _mint */\n  shl(0x20, tag_18)\n    /* \"contracts/Token.sol\":378:440  _mint(msg.sender, initialSupply * (10 ** uint256(decimals()))) */\n  0x20\n  shr\n  jump\t// in\ntag_11:\n    /* \"contracts/Token.sol\":184:447  constructor(string memory name, string memory symbol, uint256 initialSupply) ERC20(name, symbol) {... */\n  pop\n  pop\n  pop\n    /* \"contracts/Token.sol\":154:449  contract Token is ERC20 {... */\n  jump(tag_19)\n    /* \"@openzeppelin/contracts/token/ERC20/ERC20.sol\":3002:3084  function decimals() public view virtual returns (uint8) {... */\ntag_13:\n    /* \"@openzeppelin/contracts/token/ERC20/ERC20.sol\":3051:3056  uint8 */\n  0x00\n    /* \"@openzeppelin/contracts/token/ERC20/ERC20.sol\":3075:3077  18 */\n  0x12\n    /* \"@openzeppelin/contracts/token/ERC20/ERC20.sol\":3068:3077  return 18 */\n  swap1\n  pop\n    /* \"@openzeppelin/contracts/token/ERC20/ERC20.sol\":3002:3084  function decimals() public view virtual returns (uint8) {... */\n  swap1\n  jump\t// out\n    /* \"@openzeppelin/contracts/token/ERC20/ERC20.sol\":7721:7929  function _mint(address account, uint256 value) internal {... */\ntag_18:\n    /* \"@openzeppelin/contracts/token/ERC20/ERC20.sol\":7810:7811  0 */\n  0x00\n    /* \"@openzeppelin/contracts/token/ERC20/ERC20.sol\":7791:7812  account == address(0) */\n  0xffffffffffffffffffffffffffffffffffffffff\n  and\n    /* \"@openzeppelin/contracts/token/ERC20/ERC20.sol\":7791:7798  account */\n  dup3\n    /* \"@openzeppelin/contracts/token/ERC20/ERC20.sol\":7791:7812  account == address(0) */\n  0xffffffffffffffffffffffffffffffffffffffff\n  and\n  sub\n    /* \"@openzeppelin/contracts/token/ERC20/ERC20.sol\":7787:7878  if (account == address(0)) {... */\n  tag_22\n  jumpi\n    /* \"@openzeppelin/contracts/token/ERC20/ERC20.sol\":7864:7865  0 */\n  0x00\n    /* \"@openzeppelin/contracts/token/ERC20/ERC20.sol\":7835:7867  ERC20InvalidReceiver(address(0)) */\n  mload(0x40)\n  0xec442f0500000000000000000000000000000000000000000000000000000000\n  dup2\n  mstore\n  0x04\n  add\n  tag_23\n  swap2\n  swap1\n  tag_24\n  jump\t// in\ntag_23:\n  mload(0x40)\n  dup1\n  swap2\n  sub\n  swap1\n  revert\n    /* \"@openzeppelin/contracts/token/ERC20/ERC20.sol\":7787:7878  if (account == address(0)) {... */\ntag_22:\n    /* \"@openzeppelin/contracts/token/ERC20/ERC20.sol\":7887:7922  _update(address(0), account, value) */\n  tag_25\n    /* \"@openzeppelin/contracts/token/ERC20/ERC20.sol\":7903:7904  0 */\n  0x00\n    /* \"@openzeppelin/contracts/token/ERC20/ERC20.sol\":7907:7914  account */\n  dup4\n    /* \"@openzeppelin/contracts/token/ERC20/ERC20.sol\":7916:7921  value */\n  dup4\n    /* \"@openzeppelin/contracts/token/ERC20/ERC20.sol\":7887:7894  _update */\n  shl(0x20, tag_26)\n    /* \"@openzeppelin/contracts/token/ERC20/ERC20.sol\":7887:7922  _update(address(0), account, value) */\n  0x20\n  shr\n  jump\t// in\ntag_25:\n    /* \"@openzeppelin/contracts/token/ERC20/ERC20.sol\":7721:7929  function _mint(address account, uint256 value) internal {... */\n  pop\n  pop\n  jump\t// out\n    /* \"@openzeppelin/contracts/token/ERC20/ERC20.sol\":6271:7378  function _update(address from, address to, uint256 value) internal virtual {... */\ntag_26:\n    /* \"@openzeppelin/contracts/token/ERC20/ERC20.sol\":6376:6377  0 */\n  0x00\n    /* \"@openzeppelin/contracts/token/ERC20/ERC20.sol\":6360:6378  from == address(0) */\n  0xffffffffffffffffffffffffffffffffffffffff\n  and\n    /* \"@openzeppelin/contracts/token/ERC20/ERC20.sol\":6360:6364  from */\n  dup4\n    /* \"@openzeppelin/contracts/token/ERC20/ERC20.sol\":6360:6378  from == address(0) */\n  0xffffffffffffffffffffffffffffffffffffffff\n  and\n  sub\n    /* \"@openzeppelin/contracts/token/ERC20/ERC20.sol\":6356:6896  if (from == address(0)) {... */\n  tag_28\n  jumpi\n    /* \"@openzeppelin/contracts/token/ERC20/ERC20.sol\":6512:6517  value */\n  dup1\n    /* \"@openzeppelin/contracts/token/ERC20/ERC20.sol\":6496:6508  _totalSupply */\n  0x02\n  0x00\n    /* \"@openzeppelin/contracts/token/ERC20/ERC20.sol\":6496:6517  _totalSupply += value */\n  dup3\n  dup3\n  sload\n  tag_29\n  swap2\n  swap1\n  tag_30\n  jump\t// in\ntag_29:\n  swap3\n  pop\n  pop\n  dup2\n  swap1\n  sstore\n  pop\n    /* \"@openzeppelin/contracts/token/ERC20/ERC20.sol\":6356:6896  if (from == address(0)) {... */\n  jump(tag_31)\ntag_28:\n    /* \"@openzeppelin/contracts/token/ERC20/ERC20.sol\":6548:6567  uint256 fromBalance */\n  0x00\n    /* \"@openzeppelin/contracts/token/ERC20/ERC20.sol\":6570:6579  _balances */\n  dup1\n    /* \"@openzeppelin/contracts/token/ERC20/ERC20.sol\":6570:6585  _balances[from] */\n  0x00\n    /* \"@openzeppelin/contracts/token/ERC20/ERC20.sol\":6580:6584  from */\n  dup6\n    /* \"@openzeppelin/contracts/token/ERC20/ERC20.sol\":6570:6585  _balances[from] */\n  0xffffffffffffffffffffffffffffffffffffffff\n  and\n  0xffffffffffffffffffffffffffffffffffffffff\n  and\n  dup2\n  mstore\n  0x20\n  add\n  swap1\n  dup2\n  mstore\n  0x20\n  add\n  0x00\n  keccak256\n  sload\n    /* \"@openzeppelin/contracts/token/ERC20/ERC20.sol\":6548:6585  uint256 fromBalance = _balances[from] */\n  swap1\n  pop\n    /* \"@openzeppelin/contracts/token/ERC20/ERC20.sol\":6617:6622  value */\n  dup2\n    /* \"@openzeppelin/contracts/token/ERC20/ERC20.sol\":6603:6614  fromBalance */\n  dup2\n    /* \"@openzeppelin/contracts/token/ERC20/ERC20.sol\":6603:6622  fromBalance < value */\n  lt\n    /* \"@openzeppelin/contracts/token/ERC20/ERC20.sol\":6599:6714  if (fromBalance < value) {... */\n  iszero\n  tag_32\n  jumpi\n    /* \"@openzeppelin/contracts/token/ERC20/ERC20.sol\":6674:6678  from */\n  dup4\n    /* \"@openzeppelin/contracts/token/ERC20/ERC20.sol\":6680:6691  fromBalance */\n  dup2\n    /* \"@openzeppelin/contracts/token/ERC20/ERC20.sol\":6693:6698  value */\n  dup4\n    /* \"@openzeppelin/contracts/token/ERC20/ERC20.sol\":6649:6699  ERC20InsufficientBalance(from, fromBalance, value) */\n  mload(0x40)\n  0xe450d38c00000000000000000000000000000000000000000000000000000000\n  dup2\n  mstore\n  0x04\n  add\n  tag_33\n  swap4\n  swap3\n  swap2\n  swap1\n  tag_34\n  jump\t// in\ntag_33:\n  mload(0x40)\n  dup1\n  swap2\n  sub\n  swap1\n  revert\n    /* \"@openzeppelin/contracts/token/ERC20/ERC20.sol\":6599:6714  if (fromBalance < value) {... */\ntag_32:\n    /* \"@openzeppelin/contracts/token/ERC20/ERC20.sol\":6866:6871  value */\n  dup2\n    /* \"@openzeppelin/contracts/token/ERC20/ERC20.sol\":6852:6863  fromBalance */\n  dup2\n    /* \"@openzeppelin/contracts/token/ERC20/ERC20.sol\":6852:6871  fromBalance - value */\n  sub\n    /* \"@openzeppelin/contracts/token/ERC20/ERC20.sol\":6834:6843  _balances */\n  0x00\n    /* \"@openzeppelin/contracts/token/ERC20/ERC20.sol\":6834:6849  _balances[from] */\n  dup1\n    /* \"@openzeppelin/contracts/token/ERC20/ERC20.sol\":6844:6848  from */\n  dup7\n    /* \"@openzeppelin/contracts/token/ERC20/ERC20.sol\":6834:6849  _balances[from] */\n  0xffffffffffffffffffffffffffffffffffffffff\n  and\n  0xffffffffffffffffffffffffffffffffffffffff\n  and\n  dup2\n  mstore\n  0x20\n  add\n  swap1\n  dup2\n  mstore\n  0x20\n  add\n  0x00\n  keccak256\n    /* \"@openzeppelin/contracts/token/ERC20/ERC20.sol\":6834:6871  _balances[from] = fromBalance - value */\n  dup2\n  swap1\n  sstore\n  pop\n    /* \"@openzeppelin/contracts/token/ERC20/ERC20.sol\":6534:6896  {... */\n  pop\n    /* \"@openzeppelin/contracts/token/ERC20/ERC20.sol\":6356:6896  if (from == address(0)) {... */\ntag_31:\n    /* \"@openzeppelin/contracts/token/ERC20/ERC20.sol\":6924:6925  0 */\n  0x00\n    /* \"@openzeppelin/contracts/token/ERC20/ERC20.sol\":6910:6926  to == address(0) */\n  0xffffffffffffffffffffffffffffffffffffffff\n  and\n    /* \"@openzeppelin/contracts/token/ERC20/ERC20.sol\":6910:6912  to */\n  dup3\n    /* \"@openzeppelin/contracts/token/ERC20/ERC20.sol\":6910:6926  to == address(0) */\n  0xffffffffffffffffffffffffffffffffffffffff\n  and\n  sub\n    /* \"@openzeppelin/contracts/token/ERC20/ERC20.sol\":6906:7331  if (to == address(0)) {... */\n  tag_35\n  jumpi\n    /* \"@openzeppelin/contracts/token/ERC20/ERC20.sol\":7089:7094  value */\n  dup1\n    /* \"@openzeppelin/contracts/token/ERC20/ERC20.sol\":7073:7085  _totalSupply */\n  0x02\n  0x00\n    /* \"@openzeppelin/contracts/token/ERC20/ERC20.sol\":7073:7094  _totalSupply -= value */\n  dup3\n  dup3\n  sload\n  sub\n  swap3\n  pop\n  pop\n  dup2\n  swap1\n  sstore\n  pop\n    /* \"@openzeppelin/contracts/token/ERC20/ERC20.sol\":6906:7331  if (to == address(0)) {... */\n  jump(tag_36)\ntag_35:\n    /* \"@openzeppelin/contracts/token/ERC20/ERC20.sol\":7301:7306  value */\n  dup1\n    /* \"@openzeppelin/contracts/token/ERC20/ERC20.sol\":7284:7293  _balances */\n  0x00\n    /* \"@openzeppelin/contracts/token/ERC20/ERC20.sol\":7284:7297  _balances[to] */\n  dup1\n    /* \"@openzeppelin/contracts/token/ERC20/ERC20.sol\":7294:7296  to */\n  dup5\n    /* \"@openzeppelin/contracts/token/ERC20/ERC20.sol\":7284:7297  _balances[to] */\n  0xffffffffffffffffffffffffffffffffffffffff\n  and\n  0xffffffffffffffffffffffffffffffffffffffff\n  and\n  dup2\n  mstore\n  0x20\n  add\n  swap1\n  dup2\n  mstore\n  0x20\n  add\n  0x00\n  keccak256\n  0x00\n    /* \"@openzeppelin/contracts/token/ERC20/ERC20.sol\":7284:7306  _balances[to] += value */\n  dup3\n  dup3\n  sload\n  add\n  swap3\n  pop\n  pop\n  dup2\n  swap1\n  sstore\n  pop\n    /* \"@openzeppelin/contracts/token/ERC20/ERC20.sol\":6906:7331  if (to == address(0)) {... */\ntag_36:\n    /* \"@openzeppelin/contracts/token/ERC20/ERC20.sol\":7361:7363  to */\n  dup2\n    /* \"@openzeppelin/contracts/token/ERC20/ERC20.sol\":7346:7371  Transfer(from, to, value) */\n  0xffffffffffffffffffffffffffffffffffffffff\n  and\n    /* \"@openzeppelin/contracts/token/ERC20/ERC20.sol\":7355:7359  from */\n  dup4\n    /* \"@openzeppelin/contracts/token/ERC20/ERC20.sol\":7346:7371  Transfer(from, to, value) */\n  0xffffffffffffffffffffffffffffffffffffffff\n  and\n  0xddf252ad1be2c89b69c2b068fc378daa952ba7f163c4a11628f55a4df523b3ef\n    /* \"@openzeppelin/contracts/token/ERC20/ERC20.sol\":7365:7370  value */\n  dup4\n    /* \"@openzeppelin/contracts/token/ERC20/ERC20.sol\":7346:7371  Transfer(from, to, value) */\n  mload(0x40)\n  tag_37\n  swap2\n  swap1\n  tag_38\n  jump\t// in\ntag_37:\n  mload(0x40)\n  dup1\n  swap2\n  sub\n  swap1\n  log3\n    /* \"@openzeppelin/contracts/token/ERC20/ERC20.sol\":6271:7378  function _update(address from, address to, uint256 value) internal virtual {... */\n  pop\n  pop\n  pop\n  jump\t// out\n    /* \"#utility.yul\":7:82   */\ntag_39:\n    /* \"#utility.yul\":40:46   */\n  0x00\n    /* \"#utility.yul\":73:75   */\n  0x40\n    /* \"#utility.yul\":67:76   */\n  mload\n    /* \"#utility.yul\":57:76   */\n  swap1\n  pop\n    /* \"#utility.yul\":7:82   */\n  swap1\n  jump\t// out\n    /* \"#utility.yul\":88:205   */\ntag_40:\n    /* \"#utility.yul\":197:198   */\n  0x00\n    /* \"#utility.yul\":194:195   */\n  dup1\n    /* \"#utility.yul\":187:199   */\n  revert\n    /* \"#utility.yul\":211:328   */\ntag_41:\n    /* \"#utility.yul\":320:321   */\n  0x00\n    /* \"#utility.yul\":317:318   */\n  dup1\n    /* \"#utility.yul\":310:322   */\n  revert\n    /* \"#utility.yul\":334:451   */\ntag_42:\n    /* \"#utility.yul\":443:444   */\n  0x00\n    /* \"#utility.yul\":440:441   */\n  dup1\n    /* \"#utility.yul\":433:445   */\n  revert\n    /* \"#utility.yul\":457:574   */\ntag_43:\n    /* \"#utility.yul\":566:567   */\n  0x00\n    /* \"#utility.yul\":563:564   */\n  dup1\n    /* \"#utility.yul\":556:568   */\n  revert\n    /* \"#utility.yul\":580:682   */\ntag_44:\n    /* \"#utility.yul\":621:627   */\n  0x00\n    /* \"#utility.yul\":672:674   */\n  0x1f\n    /* \"#utility.yul\":668:675   */\n  not\n    /* \"#utility.yul\":663:665   */\n  0x1f\n    /* \"#utility.yul\":656:661   */\n  dup4\n    /* \"#utility.yul\":652:666   */\n  add\n    /* \"#utility.yul\":648:676   */\n  and\n    /* \"#utility.yul\":638:676   */\n  swap1\n  pop\n    /* \"#utility.yul\":580:682   */\n  swap2\n  swap1\n  pop\n  jump\t// out\n    /* \"#utility.yul\":688:868   */\ntag_45:\n    /* \"#utility.yul\":736:813   */\n  0x4e487b7100000000000000000000000000000000000000000000000000000000\n    /* \"#utility.yul\":733:734   */\n  0x00\n    /* \"#utility.yul\":726:814   */\n  mstore\n    /* \"#utility.yul\":833:837   */\n  0x41\n    /* \"#utility.yul\":830:831   */\n  0x04\n    /* \"#utility.yul\":823:838   */\n  mstore\n    /* \"#utility.yul\":857:861   */\n  0x24\n    /* \"#utility.yul\":854:855   */\n  0x00\n    /* \"#utility.yul\":847:862   */\n  revert\n    /* \"#utility.yul\":874:1155   */\ntag_46:\n    /* \"#utility.yul\":957:984   */\n  tag_90\n    /* \"#utility.yul\":979:983   */\n  dup3\n    /* \"#utility.yul\":957:984   */\n  tag_44\n  jump\t// in\ntag_90:\n    /* \"#utility.yul\":949:955   */\n  dup2\n    /* \"#utility.yul\":945:985   */\n  add\n    /* \"#utility.yul\":1087:1093   */\n  dup2\n    /* \"#utility.yul\":1075:1085   */\n  dup2\n    /* \"#utility.yul\":1072:1094   */\n  lt\n    /* \"#utility.yul\":1051:1069   */\n  0xffffffffffffffff\n    /* \"#utility.yul\":1039:1049   */\n  dup3\n    /* \"#utility.yul\":1036:1070   */\n  gt\n    /* \"#utility.yul\":1033:1095   */\n  or\n    /* \"#utility.yul\":1030:1118   */\n  iszero\n  tag_91\n  jumpi\n    /* \"#utility.yul\":1098:1116   */\n  tag_92\n  tag_45\n  jump\t// in\ntag_92:\n    /* \"#utility.yul\":1030:1118   */\ntag_91:\n    /* \"#utility.yul\":1138:1148   */\n  dup1\n    /* \"#utility.yul\":1134:1136   */\n  0x40\n    /* \"#utility.yul\":1127:1149   */\n  mstore\n    /* \"#utility.yul\":917:1155   */\n  pop\n    /* \"#utility.yul\":874:1155   */\n  pop\n  pop\n  jump\t// out\n    /* \"#utility.yul\":1161:1290   */\ntag_47:\n    /* \"#utility.yul\":1195:1201   */\n  0x00\n    /* \"#utility.yul\":1222:1242   */\n  tag_94\n  tag_39\n  jump\t// in\ntag_94:\n    /* \"#utility.yul\":1212:1242   */\n  swap1\n  pop\n    /* \"#utility.yul\":1251:1284   */\n  tag_95\n    /* \"#utility.yul\":1279:1283   */\n  dup3\n    /* \"#utility.yul\":1271:1277   */\n  dup3\n    /* \"#utility.yul\":1251:1284   */\n  tag_46\n  jump\t// in\ntag_95:\n    /* \"#utility.yul\":1161:1290   */\n  swap2\n  swap1\n  pop\n  jump\t// out\n    /* \"#utility.yul\":1296:1604   */\ntag_48:\n    /* \"#utility.yul\":1358:1362   */\n  0x00\n    /* \"#utility.yul\":1448:1466   */\n  0xffffffffffffffff\n    /* \"#utility.yul\":1440:1446   */\n  dup3\n    /* \"#utility.yul\":1437:1467   */\n  gt\n    /* \"#utility.yul\":1434:1490   */\n  iszero\n  tag_97\n  jumpi\n    /* \"#utility.yul\":1470:1488   */\n  tag_98\n  tag_45\n  jump\t// in\ntag_98:\n    /* \"#utility.yul\":1434:1490   */\ntag_97:\n    /* \"#utility.yul\":1508:1537   */\n  tag_99\n    /* \"#utility.yul\":1530:1536   */\n  dup3\n    /* \"#utility.yul\":1508:1537   */\n  tag_44\n  jump\t// in\ntag_99:\n    /* \"#utility.yul\":1500:1537   */\n  swap1\n  pop\n    /* \"#utility.yul\":1592:1596   */\n  0x20\n    /* \"#utility.yul\":1586:1590   */\n  dup2\n    /* \"#utility.yul\":1582:1597   */\n  add\n    /* \"#utility.yul\":1574:1597   */\n  swap1\n  pop\n    /* \"#utility.yul\":1296:1604   */\n  swap2\n  swap1\n  pop\n  jump\t// out\n    /* \"#utility.yul\":1610:1749   */\ntag_49:\n    /* \"#utility.yul\":1699:1705   */\n  dup3\n    /* \"#utility.yul\":1694:1697   */\n  dup2\n    /* \"#utility.yul\":1689:1692   */\n  dup4\n    /* \"#utility.yul\":1683:1706   */\n  mcopy\n    /* \"#utility.yul\":1740:1741   */\n  0x00\n    /* \"#utility.yul\":1731:1737   */\n  dup4\n    /* \"#utility.yul\":1726:1729   */\n  dup4\n    /* \"#utility.yul\":1722:1738   */\n  add\n    /* \"#utility.yul\":1715:1742   */\n  mstore\n    /* \"#utility.yul\":1610:1749   */\n  pop\n  pop\n  pop\n  jump\t// out\n    /* \"#utility.yul\":1755:2189   */\ntag_50:\n    /* \"#utility.yul\":1844:1849   */\n  0x00\n    /* \"#utility.yul\":1869:1935   */\n  tag_102\n    /* \"#utility.yul\":1885:1934   */\n  tag_103\n    /* \"#utility.yul\":1927:1933   */\n  dup5\n    /* \"#utility.yul\":1885:1934   */\n  tag_48\n  jump\t// in\ntag_103:\n    /* \"#utility.yul\":1869:1935   */\n  tag_47\n  jump\t// in\ntag_102:\n    /* \"#utility.yul\":1860:1935   */\n  swap1\n  pop\n    /* \"#utility.yul\":1958:1964   */\n  dup3\n    /* \"#utility.yul\":1951:1956   */\n  dup2\n    /* \"#utility.yul\":1944:1965   */\n  mstore\n    /* \"#utility.yul\":1996:2000   */\n  0x20\n    /* \"#utility.yul\":1989:1994   */\n  dup2\n    /* \"#utility.yul\":1985:2001   */\n  add\n    /* \"#utility.yul\":2034:2037   */\n  dup5\n    /* \"#utility.yul\":2025:2031   */\n  dup5\n    /* \"#utility.yul\":2020:2023   */\n  dup5\n    /* \"#utility.yul\":2016:2032   */\n  add\n    /* \"#utility.yul\":2013:2038   */\n  gt\n    /* \"#utility.yul\":2010:2122   */\n  iszero\n  tag_104\n  jumpi\n    /* \"#utility.yul\":2041:2120   */\n  tag_105\n  tag_43\n  jump\t// in\ntag_105:\n    /* \"#utility.yul\":2010:2122   */\ntag_104:\n    /* \"#utility.yul\":2131:2183   */\n  tag_106\n    /* \"#utility.yul\":2176:2182   */\n  dup5\n    /* \"#utility.yul\":2171:2174   */\n  dup3\n    /* \"#utility.yul\":2166:2169   */\n  dup6\n    /* \"#utility.yul\":2131:2183   */\n  tag_49\n  jump\t// in\ntag_106:\n    /* \"#utility.yul\":1850:2189   */\n  pop\n    /* \"#utility.yul\":1755:2189   */\n  swap4\n  swap3\n  pop\n  pop\n  pop\n  jump\t// out\n    /* \"#utility.yul\":2209:2564   */\ntag_51:\n    /* \"#utility.yul\":2276:2281   */\n  0x00\n    /* \"#utility.yul\":2325:2328   */\n  dup3\n    /* \"#utility.yul\":2318:2322   */\n  0x1f\n    /* \"#utility.yul\":2310:2316   */\n  dup4\n    /* \"#utility.yul\":2306:2323   */\n  add\n    /* \"#utility.yul\":2302:2329   */\n  slt\n    /* \"#utility.yul\":2292:2414   */\n  tag_108\n  jumpi\n    /* \"#utility.yul\":2333:2412   */\n  tag_109\n  tag_42\n  jump\t// in\ntag_109:\n    /* \"#utility.yul\":2292:2414   */\ntag_108:\n    /* \"#utility.yul\":2443:2449   */\n  dup2\n    /* \"#utility.yul\":2437:2450   */\n  mload\n    /* \"#utility.yul\":2468:2558   */\n  tag_110\n    /* \"#utility.yul\":2554:2557   */\n  dup5\n    /* \"#utility.yul\":2546:2552   */\n  dup3\n    /* \"#utility.yul\":2539:2543   */\n  0x20\n    /* \"#utility.yul\":2531:2537   */\n  dup7\n    /* \"#utility.yul\":2527:2544   */\n  add\n    /* \"#utility.yul\":2468:2558   */\n  tag_50\n  jump\t// in\ntag_110:\n    /* \"#utility.yul\":2459:2558   */\n  swap2\n  pop\n    /* \"#utility.yul\":2282:2564   */\n  pop\n    /* \"#utility.yul\":2209:2564   */\n  swap3\n  swap2\n  pop\n  pop\n  jump\t// out\n    /* \"#utility.yul\":2570:2647   */\ntag_52:\n    /* \"#utility.yul\":2607:2614   */\n  0x00\n    /* \"#utility.yul\":2636:2641   */\n  dup2\n    /* \"#utility.yul\":2625:2641   */\n  swap1\n  pop\n    /* \"#utility.yul\":2570:2647   */\n  swap2\n  swap1\n  pop\n  jump\t// out\n    /* \"#utility.yul\":2653:2775   */\ntag_53:\n    /* \"#utility.yul\":2726:2750   */\n  tag_113\n    /* \"#utility.yul\":2744:2749   */\n  dup2\n    /* \"#utility.yul\":2726:2750   */\n  tag_52\n  jump\t// in\ntag_113:\n    /* \"#utility.yul\":2719:2724   */\n  dup2\n    /* \"#utility.yul\":2716:2751   */\n  eq\n    /* \"#utility.yul\":2706:2769   */\n  tag_114\n  jumpi\n    /* \"#utility.yul\":2765:2766   */\n  0x00\n    /* \"#utility.yul\":2762:2763   */\n  dup1\n    /* \"#utility.yul\":2755:2767   */\n  revert\n    /* \"#utility.yul\":2706:2769   */\ntag_114:\n    /* \"#utility.yul\":2653:2775   */\n  pop\n  jump\t// out\n    /* \"#utility.yul\":2781:2924   */\ntag_54:\n    /* \"#utility.yul\":2838:2843   */\n  0x00\n    /* \"#utility.yul\":2869:2875   */\n  dup2\n    /* \"#utility.yul\":2863:2876   */\n  mload\n    /* \"#utility.yul\":2854:2876   */\n  swap1\n  pop\n    /* \"#utility.yul\":2885:2918   */\n  tag_116\n    /* \"#utility.yul\":2912:2917   */\n  dup2\n    /* \"#utility.yul\":2885:2918   */\n  tag_53\n  jump\t// in\ntag_116:\n    /* \"#utility.yul\":2781:2924   */\n  swap3\n  swap2\n  pop\n  pop\n  jump\t// out\n    /* \"#utility.yul\":2930:3939   */\ntag_3:\n    /* \"#utility.yul\":3038:3044   */\n  0x00\n    /* \"#utility.yul\":3046:3052   */\n  dup1\n    /* \"#utility.yul\":3054:3060   */\n  0x00\n    /* \"#utility.yul\":3103:3105   */\n  0x60\n    /* \"#utility.yul\":3091:3100   */\n  dup5\n    /* \"#utility.yul\":3082:3089   */\n  dup7\n    /* \"#utility.yul\":3078:3101   */\n  sub\n    /* \"#utility.yul\":3074:3106   */\n  slt\n    /* \"#utility.yul\":3071:3190   */\n  iszero\n  tag_118\n  jumpi\n    /* \"#utility.yul\":3109:3188   */\n  tag_119\n  tag_40\n  jump\t// in\ntag_119:\n    /* \"#utility.yul\":3071:3190   */\ntag_118:\n    /* \"#utility.yul\":3250:3251   */\n  0x00\n    /* \"#utility.yul\":3239:3248   */\n  dup5\n    /* \"#utility.yul\":3235:3252   */\n  add\n    /* \"#utility.yul\":3229:3253   */\n  mload\n    /* \"#utility.yul\":3280:3298   */\n  0xffffffffffffffff\n    /* \"#utility.yul\":3272:3278   */\n  dup2\n    /* \"#utility.yul\":3269:3299   */\n  gt\n    /* \"#utility.yul\":3266:3383   */\n  iszero\n  tag_120\n  jumpi\n    /* \"#utility.yul\":3302:3381   */\n  tag_121\n  tag_41\n  jump\t// in\ntag_121:\n    /* \"#utility.yul\":3266:3383   */\ntag_120:\n    /* \"#utility.yul\":3407:3481   */\n  tag_122\n    /* \"#utility.yul\":3473:3480   */\n  dup7\n    /* \"#utility.yul\":3464:3470   */\n  dup3\n    /* \"#utility.yul\":3453:3462   */\n  dup8\n    /* \"#utility.yul\":3449:3471   */\n  add\n    /* \"#utility.yul\":3407:3481   */\n  tag_51\n  jump\t// in\ntag_122:\n    /* \"#utility.yul\":3397:3481   */\n  swap4\n  pop\n    /* \"#utility.yul\":3200:3491   */\n  pop\n    /* \"#utility.yul\":3551:3553   */\n  0x20\n    /* \"#utility.yul\":3540:3549   */\n  dup5\n    /* \"#utility.yul\":3536:3554   */\n  add\n    /* \"#utility.yul\":3530:3555   */\n  mload\n    /* \"#utility.yul\":3582:3600   */\n  0xffffffffffffffff\n    /* \"#utility.yul\":3574:3580   */\n  dup2\n    /* \"#utility.yul\":3571:3601   */\n  gt\n    /* \"#utility.yul\":3568:3685   */\n  iszero\n  tag_123\n  jumpi\n    /* \"#utility.yul\":3604:3683   */\n  tag_124\n  tag_41\n  jump\t// in\ntag_124:\n    /* \"#utility.yul\":3568:3685   */\ntag_123:\n    /* \"#utility.yul\":3709:3783   */\n  tag_125\n    /* \"#utility.yul\":3775:3782   */\n  dup7\n    /* \"#utility.yul\":3766:3772   */\n  dup3\n    /* \"#utility.yul\":3755:3764   */\n  dup8\n    /* \"#utility.yul\":3751:3773   */\n  add\n    /* \"#utility.yul\":3709:3783   */\n  tag_51\n  jump\t// in\ntag_125:\n    /* \"#utility.yul\":3699:3783   */\n  swap3\n  pop\n    /* \"#utility.yul\":3501:3793   */\n  pop\n    /* \"#utility.yul\":3832:3834   */\n  0x40\n    /* \"#utility.yul\":3858:3922   */\n  tag_126\n    /* \"#utility.yul\":3914:3921   */\n  dup7\n    /* \"#utility.yul\":3905:3911   */\n  dup3\n    /* \"#utility.yul\":3894:3903   */\n  dup8\n    /* \"#utility.yul\":3890:3912   */\n  add\n    /* \"#utility.yul\":3858:3922   */\n  tag_54\n  jump\t// in\ntag_126:\n    /* \"#utility.yul\":3848:3922   */\n  swap2\n  pop\n    /* \"#utility.yul\":3803:3932   */\n  pop\n    /* \"#utility.yul\":2930:3939   */\n  swap3\n  pop\n  swap3\n  pop\n  swap3\n  jump\t// out\n    /* \"#utility.yul\":3945:4044   */\ntag_55:\n    /* \"#utility.yul\":3997:4003   */\n  0x00\n    /* \"#utility.yul\":4031:4036   */\n  dup2\n    /* \"#utility.yul\":4025:4037   */\n  mload\n    /* \"#utility.yul\":4015:4037   */\n  swap1\n  pop\n    /* \"#utility.yul\":3945:4044   */\n  swap2\n  swap1\n  pop\n  jump\t// out\n    /* \"#utility.yul\":4050:4230   */\ntag_56:\n    /* \"#utility.yul\":4098:4175   */\n  0x4e487b7100000000000000000000000000000000000000000000000000000000\n    /* \"#utility.yul\":4095:4096   */\n  0x00\n    /* \"#utility.yul\":4088:4176   */\n  mstore\n    /* \"#utility.yul\":4195:4199   */\n  0x22\n    /* \"#utility.yul\":4192:4193   */\n  0x04\n    /* \"#utility.yul\":4185:4200   */\n  mstore\n    /* \"#utility.yul\":4219:4223   */\n  0x24\n    /* \"#utility.yul\":4216:4217   */\n  0x00\n    /* \"#utility.yul\":4209:4224   */\n  revert\n    /* \"#utility.yul\":4236:4556   */\ntag_57:\n    /* \"#utility.yul\":4280:4286   */\n  0x00\n    /* \"#utility.yul\":4317:4318   */\n  0x02\n    /* \"#utility.yul\":4311:4315   */\n  dup3\n    /* \"#utility.yul\":4307:4319   */\n  div\n    /* \"#utility.yul\":4297:4319   */\n  swap1\n  pop\n    /* \"#utility.yul\":4364:4365   */\n  0x01\n    /* \"#utility.yul\":4358:4362   */\n  dup3\n    /* \"#utility.yul\":4354:4366   */\n  and\n    /* \"#utility.yul\":4385:4403   */\n  dup1\n    /* \"#utility.yul\":4375:4456   */\n  tag_130\n  jumpi\n    /* \"#utility.yul\":4441:4445   */\n  0x7f\n    /* \"#utility.yul\":4433:4439   */\n  dup3\n    /* \"#utility.yul\":4429:4446   */\n  and\n    /* \"#utility.yul\":4419:4446   */\n  swap2\n  pop\n    /* \"#utility.yul\":4375:4456   */\ntag_130:\n    /* \"#utility.yul\":4503:4505   */\n  0x20\n    /* \"#utility.yul\":4495:4501   */\n  dup3\n    /* \"#utility.yul\":4492:4506   */\n  lt\n    /* \"#utility.yul\":4472:4490   */\n  dup2\n    /* \"#utility.yul\":4469:4507   */\n  sub\n    /* \"#utility.yul\":4466:4550   */\n  tag_131\n  jumpi\n    /* \"#utility.yul\":4522:4540   */\n  tag_132\n  tag_56\n  jump\t// in\ntag_132:\n    /* \"#utility.yul\":4466:4550   */\ntag_131:\n    /* \"#utility.yul\":4287:4556   */\n  pop\n    /* \"#utility.yul\":4236:4556   */\n  swap2\n  swap1\n  pop\n  jump\t// out\n    /* \"#utility.yul\":4562:4703   */\ntag_58:\n    /* \"#utility.yul\":4611:4615   */\n  0x00\n    /* \"#utility.yul\":4634:4637   */\n  dup2\n    /* \"#utility.yul\":4626:4637   */\n  swap1\n  pop\n    /* \"#utility.yul\":4657:4660   */\n  dup2\n    /* \"#utility.yul\":4654:4655   */\n  0x00\n    /* \"#utility.yul\":4647:4661   */\n  mstore\n    /* \"#utility.yul\":4691:4695   */\n  0x20\n    /* \"#utility.yul\":4688:4689   */\n  0x00\n    /* \"#utility.yul\":4678:4696   */\n  keccak256\n    /* \"#utility.yul\":4670:4696   */\n  swap1\n  pop\n    /* \"#utility.yul\":4562:4703   */\n  swap2\n  swap1\n  pop\n  jump\t// out\n    /* \"#utility.yul\":4709:4802   */\ntag_59:\n    /* \"#utility.yul\":4746:4752   */\n  0x00\n    /* \"#utility.yul\":4793:4795   */\n  0x20\n    /* \"#utility.yul\":4788:4790   */\n  0x1f\n    /* \"#utility.yul\":4781:4786   */\n  dup4\n    /* \"#utility.yul\":4777:4791   */\n  add\n    /* \"#utility.yul\":4773:4796   */\n  div\n    /* \"#utility.yul\":4763:4796   */\n  swap1\n  pop\n    /* \"#utility.yul\":4709:4802   */\n  swap2\n  swap1\n  pop\n  jump\t// out\n    /* \"#utility.yul\":4808:4915   */\ntag_60:\n    /* \"#utility.yul\":4852:4860   */\n  0x00\n    /* \"#utility.yul\":4902:4907   */\n  dup3\n    /* \"#utility.yul\":4896:4900   */\n  dup3\n    /* \"#utility.yul\":4892:4908   */\n  shl\n    /* \"#utility.yul\":4871:4908   */\n  swap1\n  pop\n    /* \"#utility.yul\":4808:4915   */\n  swap3\n  swap2\n  pop\n  pop\n  jump\t// out\n    /* \"#utility.yul\":4921:5314   */\ntag_61:\n    /* \"#utility.yul\":4990:4996   */\n  0x00\n    /* \"#utility.yul\":5040:5041   */\n  0x08\n    /* \"#utility.yul\":5028:5038   */\n  dup4\n    /* \"#utility.yul\":5024:5042   */\n  mul\n    /* \"#utility.yul\":5063:5160   */\n  tag_137\n    /* \"#utility.yul\":5093:5159   */\n  0xffffffffffffffffffffffffffffffffffffffffffffffffffffffffffffffff\n    /* \"#utility.yul\":5082:5091   */\n  dup3\n    /* \"#utility.yul\":5063:5160   */\n  tag_60\n  jump\t// in\ntag_137:\n    /* \"#utility.yul\":5181:5220   */\n  tag_138\n    /* \"#utility.yul\":5211:5219   */\n  dup7\n    /* \"#utility.yul\":5200:5209   */\n  dup4\n    /* \"#utility.yul\":5181:5220   */\n  tag_60\n  jump\t// in\ntag_138:\n    /* \"#utility.yul\":5169:5220   */\n  swap6\n  pop\n    /* \"#utility.yul\":5253:5257   */\n  dup1\n    /* \"#utility.yul\":5249:5258   */\n  not\n    /* \"#utility.yul\":5242:5247   */\n  dup5\n    /* \"#utility.yul\":5238:5259   */\n  and\n    /* \"#utility.yul\":5229:5259   */\n  swap4\n  pop\n    /* \"#utility.yul\":5302:5306   */\n  dup1\n    /* \"#utility.yul\":5292:5300   */\n  dup7\n    /* \"#utility.yul\":5288:5307   */\n  and\n    /* \"#utility.yul\":5281:5286   */\n  dup5\n    /* \"#utility.yul\":5278:5308   */\n  or\n    /* \"#utility.yul\":5268:5308   */\n  swap3\n  pop\n    /* \"#utility.yul\":4997:5314   */\n  pop\n  pop\n    /* \"#utility.yul\":4921:5314   */\n  swap4\n  swap3\n  pop\n  pop\n  pop\n  jump\t// out\n    /* \"#utility.yul\":5320:5380   */\ntag_62:\n    /* \"#utility.yul\":5348:5351   */\n  0x00\n    /* \"#utility.yul\":5369:5374   */\n  dup2\n    /* \"#utility.yul\":5362:5374   */\n  swap1\n  pop\n    /* \"#utility.yul\":5320:5380   */\n  swap2\n  swap1\n  pop\n  jump\t// out\n    /* \"#utility.yul\":5386:5528   */\ntag_63:\n    /* \"#utility.yul\":5436:5445   */\n  0x00\n    /* \"#utility.yul\":5469:5522   */\n  tag_141\n    /* \"#utility.yul\":5487:5521   */\n  tag_142\n    /* \"#utility.yul\":5496:5520   */\n  tag_143\n    /* \"#utility.yul\":5514:5519   */\n  dup5\n    /* \"#utility.yul\":5496:5520   */\n  tag_52\n  jump\t// in\ntag_143:\n    /* \"#utility.yul\":5487:5521   */\n  tag_62\n  jump\t// in\ntag_142:\n    /* \"#utility.yul\":5469:5522   */\n  tag_52\n  jump\t// in\ntag_141:\n    /* \"#utility.yul\":5456:5522   */\n  swap1\n  pop\n    /* \"#utility.yul\":5386:5528   */\n  swap2\n  swap1\n  pop\n  jump\t// out\n    /* \"#utility.yul\":5534:5609   */\ntag_64:\n    /* \"#utility.yul\":5577:5580   */\n  0x00\n    /* \"#utility.yul\":5598:5603   */\n  dup2\n    /* \"#utility.yul\":5591:5603   */\n  swap1\n  pop\n    /* \"#utility.yul\":5534:5609   */\n  swap2\n  swap1\n  pop\n  jump\t// out\n    /* \"#utility.yul\":5615:5884   */\ntag_65:\n    /* \"#utility.yul\":5725:5764   */\n  tag_146\n    /* \"#utility.yul\":5756:5763   */\n  dup4\n    /* \"#utility.yul\":5725:5764   */\n  tag_63\n  jump\t// in\ntag_146:\n    /* \"#utility.yul\":5786:5877   */\n  tag_147\n    /* \"#utility.yul\":5835:5876   */\n  tag_148\n    /* \"#utility.yul\":5859:5875   */\n  dup3\n    /* \"#utility.yul\":5835:5876   */\n  tag_64\n  jump\t// in\ntag_148:\n    /* \"#utility.yul\":5827:5833   */\n  dup5\n    /* \"#utility.yul\":5820:5824   */\n  dup5\n    /* \"#utility.yul\":5814:5825   */\n  sload\n    /* \"#utility.yul\":5786:5877   */\n  tag_61\n  jump\t// in\ntag_147:\n    /* \"#utility.yul\":5780:5784   */\n  dup3\n    /* \"#utility.yul\":5773:5878   */\n  sstore\n    /* \"#utility.yul\":5691:5884   */\n  pop\n    /* \"#utility.yul\":5615:5884   */\n  pop\n  pop\n  pop\n  jump\t// out\n    /* \"#utility.yul\":5890:5963   */\ntag_66:\n    /* \"#utility.yul\":5935:5938   */\n  0x00\n    /* \"#utility.yul\":5890:5963   */\n  swap1\n  jump\t// out\n    /* \"#utility.yul\":5969:6158   */\ntag_67:\n    /* \"#utility.yul\":6046:6078   */\n  tag_151\n  tag_66\n  jump\t// in\ntag_151:\n    /* \"#utility.yul\":6087:6152   */\n  tag_152\n    /* \"#utility.yul\":6145:6151   */\n  dup2\n    /* \"#utility.yul\":6137:6143   */\n  dup5\n    /* \"#utility.yul\":6131:6135   */\n  dup5\n    /* \"#utility.yul\":6087:6152   */\n  tag_65\n  jump\t// in\ntag_152:\n    /* \"#utility.yul\":6022:6158   */\n  pop\n    /* \"#utility.yul\":5969:6158   */\n  pop\n  pop\n  jump\t// out\n    /* \"#utility.yul\":6164:6350   */\ntag_68:\n    /* \"#utility.yul\":6224:6344   */\ntag_154:\n    /* \"#utility.yul\":6241:6244   */\n  dup2\n    /* \"#utility.yul\":6234:6239   */\n  dup2\n    /* \"#utility.yul\":6231:6245   */\n  lt\n    /* \"#utility.yul\":6224:6344   */\n  iszero\n  tag_156\n  jumpi\n    /* \"#utility.yul\":6295:6334   */\n  tag_157\n    /* \"#utility.yul\":6332:6333   */\n  0x00\n    /* \"#utility.yul\":6325:6330   */\n  dup3\n    /* \"#utility.yul\":6295:6334   */\n  tag_67\n  jump\t// in\ntag_157:\n    /* \"#utility.yul\":6268:6269   */\n  0x01\n    /* \"#utility.yul\":6261:6266   */\n  dup2\n    /* \"#utility.yul\":6257:6270   */\n  add\n    /* \"#utility.yul\":6248:6270   */\n  swap1\n  pop\n    /* \"#utility.yul\":6224:6344   */\n  jump(tag_154)\ntag_156:\n    /* \"#utility.yul\":6164:6350   */\n  pop\n  pop\n  jump\t// out\n    /* \"#utility.yul\":6356:6899   */\ntag_69:\n    /* \"#utility.yul\":6457:6459   */\n  0x1f\n    /* \"#utility.yul\":6452:6455   */\n  dup3\n    /* \"#utility.yul\":6449:6460   */\n  gt\n    /* \"#utility.yul\":6446:6892   */\n  iszero\n  tag_159\n  jumpi\n    /* \"#utility.yul\":6491:6529   */\n  tag_160\n    /* \"#utility.yul\":6523:6528   */\n  dup2\n    /* \"#utility.yul\":6491:6529   */\n  tag_58\n  jump\t// in\ntag_160:\n    /* \"#utility.yul\":6575:6604   */\n  tag_161\n    /* \"#utility.yul\":6593:6603   */\n  dup5\n    /* \"#utility.yul\":6575:6604   */\n  tag_59\n  jump\t// in\ntag_161:\n    /* \"#utility.yul\":6565:6573   */\n  dup2\n    /* \"#utility.yul\":6561:6605   */\n  add\n    /* \"#utility.yul\":6758:6760   */\n  0x20\n    /* \"#utility.yul\":6746:6756   */\n  dup6\n    /* \"#utility.yul\":6743:6761   */\n  lt\n    /* \"#utility.yul\":6740:6789   */\n  iszero\n  tag_162\n  jumpi\n    /* \"#utility.yul\":6779:6787   */\n  dup2\n    /* \"#utility.yul\":6764:6787   */\n  swap1\n  pop\n    /* \"#utility.yul\":6740:6789   */\ntag_162:\n    /* \"#utility.yul\":6802:6882   */\n  tag_163\n    /* \"#utility.yul\":6858:6880   */\n  tag_164\n    /* \"#utility.yul\":6876:6879   */\n  dup6\n    /* \"#utility.yul\":6858:6880   */\n  tag_59\n  jump\t// in\ntag_164:\n    /* \"#utility.yul\":6848:6856   */\n  dup4\n    /* \"#utility.yul\":6844:6881   */\n  add\n    /* \"#utility.yul\":6831:6842   */\n  dup3\n    /* \"#utility.yul\":6802:6882   */\n  tag_68\n  jump\t// in\ntag_163:\n    /* \"#utility.yul\":6461:6892   */\n  pop\n  pop\n    /* \"#utility.yul\":6446:6892   */\ntag_159:\n    /* \"#utility.yul\":6356:6899   */\n  pop\n  pop\n  pop\n  jump\t// out\n    /* \"#utility.yul\":6905:7022   */\ntag_70:\n    /* \"#utility.yul\":6959:6967   */\n  0x00\n    /* \"#utility.yul\":7009:7014   */\n  dup3\n    /* \"#utility.yul\":7003:7007   */\n  dup3\n    /* \"#utility.yul\":6999:7015   */\n  shr\n    /* \"#utility.yul\":6978:7015   */\n  swap1\n  pop\n    /* \"#utility.yul\":6905:7022   */\n  swap3\n  swap2\n  pop\n  pop\n  jump\t// out\n    /* \"#utility.yul\":7028:7197   */\ntag_71:\n    /* \"#utility.yul\":7072:7078   */\n  0x00\n    /* \"#utility.yul\":7105:7156   */\n  tag_167\n    /* \"#utility.yul\":7153:7154   */\n  0x00\n    /* \"#utility.yul\":7149:7155   */\n  not\n    /* \"#utility.yul\":7141:7146   */\n  dup5\n    /* \"#utility.yul\":7138:7139   */\n  0x08\n    /* \"#utility.yul\":7134:7147   */\n  mul\n    /* \"#utility.yul\":7105:7156   */\n  tag_70\n  jump\t// in\ntag_167:\n    /* \"#utility.yul\":7101:7157   */\n  not\n    /* \"#utility.yul\":7186:7190   */\n  dup1\n    /* \"#utility.yul\":7180:7184   */\n  dup4\n    /* \"#utility.yul\":7176:7191   */\n  and\n    /* \"#utility.yul\":7166:7191   */\n  swap2\n  pop\n    /* \"#utility.yul\":7079:7197   */\n  pop\n    /* \"#utility.yul\":7028:7197   */\n  swap3\n  swap2\n  pop\n  pop\n  jump\t// out\n    /* \"#utility.yul\":7202:7497   */\ntag_72:\n    /* \"#utility.yul\":7278:7282   */\n  0x00\n    /* \"#utility.yul\":7424:7453   */\n  tag_169\n    /* \"#utility.yul\":7449:7452   */\n  dup4\n    /* \"#utility.yul\":7443:7447   */\n  dup4\n    /* \"#utility.yul\":7424:7453   */\n  tag_71\n  jump\t// in\ntag_169:\n    /* \"#utility.yul\":7416:7453   */\n  swap2\n  pop\n    /* \"#utility.yul\":7486:7489   */\n  dup3\n    /* \"#utility.yul\":7483:7484   */\n  0x02\n    /* \"#utility.yul\":7479:7490   */\n  mul\n    /* \"#utility.yul\":7473:7477   */\n  dup3\n    /* \"#utility.yul\":7470:7491   */\n  or\n    /* \"#utility.yul\":7462:7491   */\n  swap1\n  pop\n    /* \"#utility.yul\":7202:7497   */\n  swap3\n  swap2\n  pop\n  pop\n  jump\t// out\n    /* \"#utility.yul\":7502:8897   */\ntag_8:\n    /* \"#utility.yul\":7619:7656   */\n  tag_171\n    /* \"#utility.yul\":7652:7655   */\n  dup3\n    /* \"#utility.yul\":7619:7656   */\n  tag_55\n  jump\t// in\ntag_171:\n    /* \"#utility.yul\":7721:7739   */\n  0xffffffffffffffff\n    /* \"#utility.yul\":7713:7719   */\n  dup2\n    /* \"#utility.yul\":7710:7740   */\n  gt\n    /* \"#utility.yul\":7707:7763   */\n  iszero\n  tag_172\n  jumpi\n    /* \"#utility.yul\":7743:7761   */\n  tag_173\n  tag_45\n  jump\t// in\ntag_173:\n    /* \"#utility.yul\":7707:7763   */\ntag_172:\n    /* \"#utility.yul\":7787:7825   */\n  tag_174\n    /* \"#utility.yul\":7819:7823   */\n  dup3\n    /* \"#utility.yul\":7813:7824   */\n  sload\n    /* \"#utility.yul\":7787:7825   */\n  tag_57\n  jump\t// in\ntag_174:\n    /* \"#utility.yul\":7872:7939   */\n  tag_175\n    /* \"#utility.yul\":7932:7938   */\n  dup3\n    /* \"#utility.yul\":7924:7930   */\n  dup3\n    /* \"#utility.yul\":7918:7922   */\n  dup6\n    /* \"#utility.yul\":7872:7939   */\n  tag_69\n  jump\t// in\ntag_175:\n    /* \"#utility.yul\":7966:7967   */\n  0x00\n    /* \"#utility.yul\":7990:7994   */\n  0x20\n    /* \"#utility.yul\":7977:7994   */\n  swap1\n  pop\n    /* \"#utility.yul\":8022:8024   */\n  0x1f\n    /* \"#utility.yul\":8014:8020   */\n  dup4\n    /* \"#utility.yul\":8011:8025   */\n  gt\n    /* \"#utility.yul\":8039:8040   */\n  0x01\n    /* \"#utility.yul\":8034:8652   */\n  dup2\n  eq\n  tag_177\n  jumpi\n    /* \"#utility.yul\":8696:8697   */\n  0x00\n    /* \"#utility.yul\":8713:8719   */\n  dup5\n    /* \"#utility.yul\":8710:8787   */\n  iszero\n  tag_178\n  jumpi\n    /* \"#utility.yul\":8762:8771   */\n  dup3\n    /* \"#utility.yul\":8757:8760   */\n  dup8\n    /* \"#utility.yul\":8753:8772   */\n  add\n    /* \"#utility.yul\":8747:8773   */\n  mload\n    /* \"#utility.yul\":8738:8773   */\n  swap1\n  pop\n    /* \"#utility.yul\":8710:8787   */\ntag_178:\n    /* \"#utility.yul\":8813:8880   */\n  tag_179\n    /* \"#utility.yul\":8873:8879   */\n  dup6\n    /* \"#utility.yul\":8866:8871   */\n  dup3\n    /* \"#utility.yul\":8813:8880   */\n  tag_72\n  jump\t// in\ntag_179:\n    /* \"#utility.yul\":8807:8811   */\n  dup7\n    /* \"#utility.yul\":8800:8881   */\n  sstore\n    /* \"#utility.yul\":8669:8891   */\n  pop\n    /* \"#utility.yul\":8004:8891   */\n  jump(tag_176)\n    /* \"#utility.yul\":8034:8652   */\ntag_177:\n    /* \"#utility.yul\":8086:8090   */\n  0x1f\n    /* \"#utility.yul\":8082:8091   */\n  not\n    /* \"#utility.yul\":8074:8080   */\n  dup5\n    /* \"#utility.yul\":8070:8092   */\n  and\n    /* \"#utility.yul\":8120:8157   */\n  tag_180\n    /* \"#utility.yul\":8152:8156   */\n  dup7\n    /* \"#utility.yul\":8120:8157   */\n  tag_58\n  jump\t// in\ntag_180:\n    /* \"#utility.yul\":8179:8180   */\n  0x00\n    /* \"#utility.yul\":8193:8401   */\ntag_181:\n    /* \"#utility.yul\":8207:8214   */\n  dup3\n    /* \"#utility.yul\":8204:8205   */\n  dup2\n    /* \"#utility.yul\":8201:8215   */\n  lt\n    /* \"#utility.yul\":8193:8401   */\n  iszero\n  tag_183\n  jumpi\n    /* \"#utility.yul\":8286:8295   */\n  dup5\n    /* \"#utility.yul\":8281:8284   */\n  dup10\n    /* \"#utility.yul\":8277:8296   */\n  add\n    /* \"#utility.yul\":8271:8297   */\n  mload\n    /* \"#utility.yul\":8263:8269   */\n  dup3\n    /* \"#utility.yul\":8256:8298   */\n  sstore\n    /* \"#utility.yul\":8337:8338   */\n  0x01\n    /* \"#utility.yul\":8329:8335   */\n  dup3\n    /* \"#utility.yul\":8325:8339   */\n  add\n    /* \"#utility.yul\":8315:8339   */\n  swap2\n  pop\n    /* \"#utility.yul\":8384:8386   */\n  0x20\n    /* \"#utility.yul\":8373:8382   */\n  dup6\n    /* \"#utility.yul\":8369:8387   */\n  add\n    /* \"#utility.yul\":8356:8387   */\n  swap5\n  pop\n    /* \"#utility.yul\":8230:8234   */\n  0x20\n    /* \"#utility.yul\":8227:8228   */\n  dup2\n    /* \"#utility.yul\":8223:8235   */\n  add\n    /* \"#utility.yul\":8218:8235   */\n  swap1\n  pop\n    /* \"#utility.yul\":8193:8401   */\n  jump(tag_181)\ntag_183:\n    /* \"#utility.yul\":8429:8435   */\n  dup7\n    /* \"#utility.yul\":8420:8427   */\n  dup4\n    /* \"#utility.yul\":8417:8436   */\n  lt\n    /* \"#utility.yul\":8414:8593   */\n  iszero\n  tag_184\n  jumpi\n    /* \"#utility.yul\":8487:8496   */\n  dup5\n    /* \"#utility.yul\":8482:8485   */\n  dup10\n    /* \"#utility.yul\":8478:8497   */\n  add\n    /* \"#utility.yul\":8472:8498   */\n  mload\n    /* \"#utility.yul\":8530:8578   */\n  tag_185\n    /* \"#utility.yul\":8572:8576   */\n  0x1f\n    /* \"#utility.yul\":8564:8570   */\n  dup10\n    /* \"#utility.yul\":8560:8577   */\n  and\n    /* \"#utility.yul\":8549:8558   */\n  dup3\n    /* \"#utility.yul\":8530:8578   */\n  tag_71\n  jump\t// in\ntag_185:\n    /* \"#utility.yul\":8522:8528   */\n  dup4\n    /* \"#utility.yul\":8515:8579   */\n  sstore\n    /* \"#utility.yul\":8437:8593   */\n  pop\n    /* \"#utility.yul\":8414:8593   */\ntag_184:\n    /* \"#utility.yul\":8639:8640   */\n  0x01\n    /* \"#utility.yul\":8635:8636   */\n  0x02\n    /* \"#utility.yul\":8627:8633   */\n  dup9\n    /* \"#utility.yul\":8623:8637   */\n  mul\n    /* \"#utility.yul\":8619:8641   */\n  add\n    /* \"#utility.yul\":8613:8617   */\n  dup9\n    /* \"#utility.yul\":8606:8642   */\n  sstore\n    /* \"#utility.yul\":8041:8652   */\n  pop\n  pop\n  pop\n    /* \"#utility.yul\":8004:8891   */\ntag_176:\n  pop\n    /* \"#utility.yul\":7594:8897   */\n  pop\n  pop\n  pop\n    /* \"#utility.yul\":7502:8897   */\n  pop\n  pop\n  jump\t// out\n    /* \"#utility.yul\":8903:9083   */\ntag_73:\n    /* \"#utility.yul\":8951:9028   */\n  0x4e487b7100000000000000000000000000000000000000000000000000000000\n    /* \"#utility.yul\":8948:8949   */\n  0x00\n    /* \"#utility.yul\":8941:9029   */\n  mstore\n    /* \"#utility.yul\":9048:9052   */\n  0x11\n    /* \"#utility.yul\":9045:9046   */\n  0x04\n    /* \"#utility.yul\":9038:9053   */\n  mstore\n    /* \"#utility.yul\":9072:9076   */\n  0x24\n    /* \"#utility.yul\":9069:9070   */\n  0x00\n    /* \"#utility.yul\":9062:9077   */\n  revert\n    /* \"#utility.yul\":9089:9191   */\ntag_74:\n    /* \"#utility.yul\":9131:9139   */\n  0x00\n    /* \"#utility.yul\":9178:9183   */\n  dup2\n    /* \"#utility.yul\":9175:9176   */\n  0x01\n    /* \"#utility.yul\":9171:9184   */\n  shr\n    /* \"#utility.yul\":9150:9184   */\n  swap1\n  pop\n    /* \"#utility.yul\":9089:9191   */\n  swap2\n  swap1\n  pop\n  jump\t// out\n    /* \"#utility.yul\":9197:10045   */\ntag_75:\n    /* \"#utility.yul\":9258:9263   */\n  0x00\n    /* \"#utility.yul\":9265:9269   */\n  dup1\n    /* \"#utility.yul\":9289:9295   */\n  dup3\n    /* \"#utility.yul\":9280:9295   */\n  swap2\n  pop\n    /* \"#utility.yul\":9313:9318   */\n  dup4\n    /* \"#utility.yul\":9304:9318   */\n  swap1\n  pop\n    /* \"#utility.yul\":9327:10039   */\ntag_189:\n    /* \"#utility.yul\":9348:9349   */\n  0x01\n    /* \"#utility.yul\":9338:9346   */\n  dup6\n    /* \"#utility.yul\":9335:9350   */\n  gt\n    /* \"#utility.yul\":9327:10039   */\n  iszero\n  tag_191\n  jumpi\n    /* \"#utility.yul\":9443:9447   */\n  dup1\n    /* \"#utility.yul\":9438:9441   */\n  dup7\n    /* \"#utility.yul\":9434:9448   */\n  div\n    /* \"#utility.yul\":9428:9432   */\n  dup2\n    /* \"#utility.yul\":9425:9449   */\n  gt\n    /* \"#utility.yul\":9422:9472   */\n  iszero\n  tag_192\n  jumpi\n    /* \"#utility.yul\":9452:9470   */\n  tag_193\n  tag_73\n  jump\t// in\ntag_193:\n    /* \"#utility.yul\":9422:9472   */\ntag_192:\n    /* \"#utility.yul\":9502:9503   */\n  0x01\n    /* \"#utility.yul\":9492:9500   */\n  dup6\n    /* \"#utility.yul\":9488:9504   */\n  and\n    /* \"#utility.yul\":9485:9936   */\n  iszero\n  tag_194\n  jumpi\n    /* \"#utility.yul\":9917:9921   */\n  dup1\n    /* \"#utility.yul\":9910:9915   */\n  dup3\n    /* \"#utility.yul\":9906:9922   */\n  mul\n    /* \"#utility.yul\":9897:9922   */\n  swap2\n  pop\n    /* \"#utility.yul\":9485:9936   */\ntag_194:\n    /* \"#utility.yul\":9967:9971   */\n  dup1\n    /* \"#utility.yul\":9961:9965   */\n  dup2\n    /* \"#utility.yul\":9957:9972   */\n  mul\n    /* \"#utility.yul\":9949:9972   */\n  swap1\n  pop\n    /* \"#utility.yul\":9997:10029   */\n  tag_195\n    /* \"#utility.yul\":10020:10028   */\n  dup6\n    /* \"#utility.yul\":9997:10029   */\n  tag_74\n  jump\t// in\ntag_195:\n    /* \"#utility.yul\":9985:10029   */\n  swap5\n  pop\n    /* \"#utility.yul\":9327:10039   */\n  jump(tag_189)\ntag_191:\n    /* \"#utility.yul\":9197:10045   */\n  swap5\n  pop\n  swap5\n  swap3\n  pop\n  pop\n  pop\n  jump\t// out\n    /* \"#utility.yul\":10051:11124   */\ntag_76:\n    /* \"#utility.yul\":10105:10110   */\n  0x00\n    /* \"#utility.yul\":10296:10304   */\n  dup3\n    /* \"#utility.yul\":10286:10326   */\n  tag_197\n  jumpi\n    /* \"#utility.yul\":10317:10318   */\n  0x01\n    /* \"#utility.yul\":10308:10318   */\n  swap1\n  pop\n    /* \"#utility.yul\":10319:10324   */\n  jump(tag_196)\n    /* \"#utility.yul\":10286:10326   */\ntag_197:\n    /* \"#utility.yul\":10345:10349   */\n  dup2\n    /* \"#utility.yul\":10335:10371   */\n  tag_198\n  jumpi\n    /* \"#utility.yul\":10362:10363   */\n  0x00\n    /* \"#utility.yul\":10353:10363   */\n  swap1\n  pop\n    /* \"#utility.yul\":10364:10369   */\n  jump(tag_196)\n    /* \"#utility.yul\":10335:10371   */\ntag_198:\n    /* \"#utility.yul\":10431:10435   */\n  dup2\n    /* \"#utility.yul\":10479:10480   */\n  0x01\n    /* \"#utility.yul\":10474:10501   */\n  dup2\n  eq\n  tag_200\n  jumpi\n    /* \"#utility.yul\":10515:10516   */\n  0x02\n    /* \"#utility.yul\":10510:10701   */\n  dup2\n  eq\n  tag_201\n  jumpi\n    /* \"#utility.yul\":10424:10701   */\n  jump(tag_199)\n    /* \"#utility.yul\":10474:10501   */\ntag_200:\n    /* \"#utility.yul\":10492:10493   */\n  0x01\n    /* \"#utility.yul\":10483:10493   */\n  swap2\n  pop\n    /* \"#utility.yul\":10494:10499   */\n  pop\n  jump(tag_196)\n    /* \"#utility.yul\":10510:10701   */\ntag_201:\n    /* \"#utility.yul\":10555:10558   */\n  0xff\n    /* \"#utility.yul\":10545:10553   */\n  dup5\n    /* \"#utility.yul\":10542:10559   */\n  gt\n    /* \"#utility.yul\":10539:10582   */\n  iszero\n  tag_202\n  jumpi\n    /* \"#utility.yul\":10562:10580   */\n  tag_203\n  tag_73\n  jump\t// in\ntag_203:\n    /* \"#utility.yul\":10539:10582   */\ntag_202:\n    /* \"#utility.yul\":10611:10619   */\n  dup4\n    /* \"#utility.yul\":10608:10609   */\n  0x02\n    /* \"#utility.yul\":10604:10620   */\n  exp\n    /* \"#utility.yul\":10595:10620   */\n  swap2\n  pop\n    /* \"#utility.yul\":10646:10649   */\n  dup5\n    /* \"#utility.yul\":10639:10644   */\n  dup3\n    /* \"#utility.yul\":10636:10650   */\n  gt\n    /* \"#utility.yul\":10633:10673   */\n  iszero\n  tag_204\n  jumpi\n    /* \"#utility.yul\":10653:10671   */\n  tag_205\n  tag_73\n  jump\t// in\ntag_205:\n    /* \"#utility.yul\":10633:10673   */\ntag_204:\n    /* \"#utility.yul\":10686:10691   */\n  pop\n  jump(tag_196)\n    /* \"#utility.yul\":10424:10701   */\ntag_199:\n  pop\n    /* \"#utility.yul\":10810:10812   */\n  0x20\n    /* \"#utility.yul\":10800:10808   */\n  dup4\n    /* \"#utility.yul\":10797:10813   */\n  lt\n    /* \"#utility.yul\":10791:10794   */\n  0x0133\n    /* \"#utility.yul\":10785:10789   */\n  dup4\n    /* \"#utility.yul\":10782:10795   */\n  lt\n    /* \"#utility.yul\":10778:10814   */\n  and\n    /* \"#utility.yul\":10760:10762   */\n  0x4e\n    /* \"#utility.yul\":10750:10758   */\n  dup5\n    /* \"#utility.yul\":10747:10763   */\n  lt\n    /* \"#utility.yul\":10742:10744   */\n  0x0b\n    /* \"#utility.yul\":10736:10740   */\n  dup5\n    /* \"#utility.yul\":10733:10745   */\n  lt\n    /* \"#utility.yul\":10729:10764   */\n  and\n    /* \"#utility.yul\":10713:10824   */\n  or\n    /* \"#utility.yul\":10710:10956   */\n  iszero\n  tag_206\n  jumpi\n    /* \"#utility.yul\":10866:10874   */\n  dup3\n    /* \"#utility.yul\":10860:10864   */\n  dup3\n    /* \"#utility.yul\":10856:10875   */\n  exp\n    /* \"#utility.yul\":10847:10875   */\n  swap1\n  pop\n    /* \"#utility.yul\":10901:10904   */\n  dup4\n    /* \"#utility.yul\":10894:10899   */\n  dup2\n    /* \"#utility.yul\":10891:10905   */\n  gt\n    /* \"#utility.yul\":10888:10928   */\n  iszero\n  tag_207\n  jumpi\n    /* \"#utility.yul\":10908:10926   */\n  tag_208\n  tag_73\n  jump\t// in\ntag_208:\n    /* \"#utility.yul\":10888:10928   */\ntag_207:\n    /* \"#utility.yul\":10941:10946   */\n  jump(tag_196)\n    /* \"#utility.yul\":10710:10956   */\ntag_206:\n    /* \"#utility.yul\":10981:11023   */\n  tag_209\n    /* \"#utility.yul\":11019:11022   */\n  dup5\n    /* \"#utility.yul\":11009:11017   */\n  dup5\n    /* \"#utility.yul\":11003:11007   */\n  dup5\n    /* \"#utility.yul\":11000:11001   */\n  0x01\n    /* \"#utility.yul\":10981:11023   */\n  tag_75\n  jump\t// in\ntag_209:\n    /* \"#utility.yul\":10966:11023   */\n  swap3\n  pop\n  swap1\n  pop\n    /* \"#utility.yul\":11055:11059   */\n  dup2\n    /* \"#utility.yul\":11050:11053   */\n  dup5\n    /* \"#utility.yul\":11046:11060   */\n  div\n    /* \"#utility.yul\":11039:11044   */\n  dup2\n    /* \"#utility.yul\":11036:11061   */\n  gt\n    /* \"#utility.yul\":11033:11084   */\n  iszero\n  tag_210\n  jumpi\n    /* \"#utility.yul\":11064:11082   */\n  tag_211\n  tag_73\n  jump\t// in\ntag_211:\n    /* \"#utility.yul\":11033:11084   */\ntag_210:\n    /* \"#utility.yul\":11113:11117   */\n  dup2\n    /* \"#utility.yul\":11106:11111   */\n  dup2\n    /* \"#utility.yul\":11102:11118   */\n  mul\n    /* \"#utility.yul\":11093:11118   */\n  swap1\n  pop\n    /* \"#utility.yul\":10051:11124   */\ntag_196:\n  swap4\n  swap3\n  pop\n  pop\n  pop\n  jump\t// out\n    /* \"#utility.yul\":11130:11415   */\ntag_15:\n    /* \"#utility.yul\":11190:11195   */\n  0x00\n    /* \"#utility.yul\":11214:11237   */\n  tag_213\n    /* \"#utility.yul\":11232:11236   */\n  dup3\n    /* \"#utility.yul\":11214:11237   */\n  tag_52\n  jump\t// in\ntag_213:\n    /* \"#utility.yul\":11206:11237   */\n  swap2\n  pop\n    /* \"#utility.yul\":11258:11285   */\n  tag_214\n    /* \"#utility.yul\":11276:11284   */\n  dup4\n    /* \"#utility.yul\":11258:11285   */\n  tag_52\n  jump\t// in\ntag_214:\n    /* \"#utility.yul\":11246:11285   */\n  swap3\n  pop\n    /* \"#utility.yul\":11304:11408   */\n  tag_215\n    /* \"#utility.yul\":11341:11407   */\n  0xffffffffffffffffffffffffffffffffffffffffffffffffffffffffffffffff\n    /* \"#utility.yul\":11331:11339   */\n  dup5\n    /* \"#utility.yul\":11325:11329   */\n  dup5\n    /* \"#utility.yul\":11304:11408   */\n  tag_76\n  jump\t// in\ntag_215:\n    /* \"#utility.yul\":11295:11408   */\n  swap1\n  pop\n    /* \"#utility.yul\":11130:11415   */\n  swap3\n  swap2\n  pop\n  pop\n  jump\t// out\n    /* \"#utility.yul\":11421:11831   */\ntag_17:\n    /* \"#utility.yul\":11461:11468   */\n  0x00\n    /* \"#utility.yul\":11484:11504   */\n  tag_217\n    /* \"#utility.yul\":11502:11503   */\n  dup3\n    /* \"#utility.yul\":11484:11504   */\n  tag_52\n  jump\t// in\ntag_217:\n    /* \"#utility.yul\":11479:11504   */\n  swap2\n  pop\n    /* \"#utility.yul\":11518:11538   */\n  tag_218\n    /* \"#utility.yul\":11536:11537   */\n  dup4\n    /* \"#utility.yul\":11518:11538   */\n  tag_52\n  jump\t// in\ntag_218:\n    /* \"#utility.yul\":11513:11538   */\n  swap3\n  pop\n    /* \"#utility.yul\":11573:11574   */\n  dup3\n    /* \"#utility.yul\":11570:11571   */\n  dup3\n    /* \"#utility.yul\":11566:11575   */\n  mul\n    /* \"#utility.yul\":11595:11625   */\n  tag_219\n    /* \"#utility.yul\":11613:11624   */\n  dup2\n    /* \"#utility.yul\":11595:11625   */\n  tag_52\n  jump\t// in\ntag_219:\n    /* \"#utility.yul\":11584:11625   */\n  swap2\n  pop\n    /* \"#utility.yul\":11774:11775   */\n  dup3\n    /* \"#utility.yul\":11765:11772   */\n  dup3\n    /* \"#utility.yul\":11761:11776   */\n  div\n    /* \"#utility.yul\":11758:11759   */\n  dup5\n    /* \"#utility.yul\":11755:11777   */\n  eq\n    /* \"#utility.yul\":11735:11736   */\n  dup4\n    /* \"#utility.yul\":11728:11737   */\n  iszero\n    /* \"#utility.yul\":11708:11791   */\n  or\n    /* \"#utility.yul\":11685:11824   */\n  tag_220\n  jumpi\n    /* \"#utility.yul\":11804:11822   */\n  tag_221\n  tag_73\n  jump\t// in\ntag_221:\n    /* \"#utility.yul\":11685:11824   */\ntag_220:\n    /* \"#utility.yul\":11469:11831   */\n  pop\n    /* \"#utility.yul\":11421:11831   */\n  swap3\n  swap2\n  pop\n  pop\n  jump\t// out\n    /* \"#utility.yul\":11837:11963   */\ntag_77:\n    /* \"#utility.yul\":11874:11881   */\n  0x00\n    /* \"#utility.yul\":11914:11956   */\n  0xffffffffffffffffffffffffffffffffffffffff\n    /* \"#utility.yul\":11907:11912   */\n  dup3\n    /* \"#utility.yul\":11903:11957   */\n  and\n    /* \"#utility.yul\":11892:11957   */\n  swap1\n  pop\n    /* \"#utility.yul\":11837:11963   */\n  swap2\n  swap1\n  pop\n  jump\t// out\n    /* \"#utility.yul\":11969:12065   */\ntag_78:\n    /* \"#utility.yul\":12006:12013   */\n  0x00\n    /* \"#utility.yul\":12035:12059   */\n  tag_224\n    /* \"#utility.yul\":12053:12058   */\n  dup3\n    /* \"#utility.yul\":12035:12059   */\n  tag_77\n  jump\t// in\ntag_224:\n    /* \"#utility.yul\":12024:12059   */\n  swap1\n  pop\n    /* \"#utility.yul\":11969:12065   */\n  swap2\n  swap1\n  pop\n  jump\t// out\n    /* \"#utility.yul\":12071:12189   */\ntag_79:\n    /* \"#utility.yul\":12158:12182   */\n  tag_226\n    /* \"#utility.yul\":12176:12181   */\n  dup2\n    /* \"#utility.yul\":12158:12182   */\n  tag_78\n  jump\t// in\ntag_226:\n    /* \"#utility.yul\":12153:12156   */\n  dup3\n    /* \"#utility.yul\":12146:12183   */\n  mstore\n    /* \"#utility.yul\":12071:12189   */\n  pop\n  pop\n  jump\t// out\n    /* \"#utility.yul\":12195:12417   */\ntag_24:\n    /* \"#utility.yul\":12288:12292   */\n  0x00\n    /* \"#utility.yul\":12326:12328   */\n  0x20\n    /* \"#utility.yul\":12315:12324   */\n  dup3\n    /* \"#utility.yul\":12311:12329   */\n  add\n    /* \"#utility.yul\":12303:12329   */\n  swap1\n  pop\n    /* \"#utility.yul\":12339:12410   */\n  tag_228\n    /* \"#utility.yul\":12407:12408   */\n  0x00\n    /* \"#utility.yul\":12396:12405   */\n  dup4\n    /* \"#utility.yul\":12392:12409   */\n  add\n    /* \"#utility.yul\":12383:12389   */\n  dup5\n    /* \"#utility.yul\":12339:12410   */\n  tag_79\n  jump\t// in\ntag_228:\n    /* \"#utility.yul\":12195:12417   */\n  swap3\n  swap2\n  pop\n  pop\n  jump\t// out\n    /* \"#utility.yul\":12423:12614   */\ntag_30:\n    /* \"#utility.yul\":12463:12466   */\n  0x00\n    /* \"#utility.yul\":12482:12502   */\n  tag_230\n    /* \"#utility.yul\":12500:12501   */\n  dup3\n    /* \"#utility.yul\":12482:12502   */\n  tag_52\n  jump\t// in\ntag_230:\n    /* \"#utility.yul\":12477:12502   */\n  swap2\n  pop\n    /* \"#utility.yul\":12516:12536   */\n  tag_231\n    /* \"#utility.yul\":12534:12535   */\n  dup4\n    /* \"#utility.yul\":12516:12536   */\n  tag_52\n  jump\t// in\ntag_231:\n    /* \"#utility.yul\":12511:12536   */\n  swap3\n  pop\n    /* \"#utility.yul\":12559:12560   */\n  dup3\n    /* \"#utility.yul\":12556:12557   */\n  dup3\n    /* \"#utility.yul\":12552:12561   */\n  add\n    /* \"#utility.yul\":12545:12561   */\n  swap1\n  pop\n    /* \"#utility.yul\":12580:12583   */\n  dup1\n    /* \"#utility.yul\":12577:12578   */\n  dup3\n    /* \"#utility.yul\":12574:12584   */\n  gt\n    /* \"#utility.yul\":12571:12607   */\n  iszero\n  tag_232\n  jumpi\n    /* \"#utility.yul\":12587:12605   */\n  tag_233\n  tag_73\n  jump\t// in\ntag_233:\n    /* \"#utility.yul\":12571:12607   */\ntag_232:\n    /* \"#utility.yul\":12423:12614   */\n  swap3\n  swap2\n  pop\n  pop\n  jump\t// out\n    /* \"#utility.yul\":12620:12738   */\ntag_80:\n    /* \"#utility.yul\":12707:12731   */\n  tag_235\n    /* \"#utility.yul\":12725:12730   */\n  dup2\n    /* \"#utility.yul\":12707:12731   */\n  tag_52\n  jump\t// in\ntag_235:\n    /* \"#utility.yul\":12702:12705   */\n  dup3\n    /* \"#utility.yul\":12695:12732   */\n  mstore\n    /* \"#utility.yul\":12620:12738   */\n  pop\n  pop\n  jump\t// out\n    /* \"#utility.yul\":12744:13186   */\ntag_34:\n    /* \"#utility.yul\":12893:12897   */\n  0x00\n    /* \"#utility.yul\":12931:12933   */\n  0x60\n    /* \"#utility.yul\":12920:12929   */\n  dup3\n    /* \"#utility.yul\":12916:12934   */\n  add\n    /* \"#utility.yul\":12908:12934   */\n  swap1\n  pop\n    /* \"#utility.yul\":12944:13015   */\n  tag_237\n    /* \"#utility.yul\":13012:13013   */\n  0x00\n    /* \"#utility.yul\":13001:13010   */\n  dup4\n    /* \"#utility.yul\":12997:13014   */\n  add\n    /* \"#utility.yul\":12988:12994   */\n  dup7\n    /* \"#utility.yul\":12944:13015   */\n  tag_79\n  jump\t// in\ntag_237:\n    /* \"#utility.yul\":13025:13097   */\n  tag_238\n    /* \"#utility.yul\":13093:13095   */\n  0x20\n    /* \"#utility.yul\":13082:13091   */\n  dup4\n    /* \"#utility.yul\":13078:13096   */\n  add\n    /* \"#utility.yul\":13069:13075   */\n  dup6\n    /* \"#utility.yul\":13025:13097   */\n  tag_80\n  jump\t// in\ntag_238:\n    /* \"#utility.yul\":13107:13179   */\n  tag_239\n    /* \"#utility.yul\":13175:13177   */\n  0x40\n    /* \"#utility.yul\":13164:13173   */\n  dup4\n    /* \"#utility.yul\":13160:13178   */\n  add\n    /* \"#utility.yul\":13151:13157   */\n  dup5\n    /* \"#utility.yul\":13107:13179   */\n  tag_80\n  jump\t// in\ntag_239:\n    /* \"#utility.yul\":12744:13186   */\n  swap5\n  swap4\n  pop\n  pop\n  pop\n  pop\n  jump\t// out\n    /* \"#utility.yul\":13192:13414   */\ntag_38:\n    /* \"#utility.yul\":13285:13289   */\n  0x00\n    /* \"#utility.yul\":13323:13325   */\n  0x20\n    /* \"#utility.yul\":13312:13321   */\n  dup3\n    /* \"#utility.yul\":13308:13326   */\n  add\n    /* \"#utility.yul\":13300:13326   */\n  swap1\n  pop\n    /* \"#utility.yul\":13336:13407   */\n  tag_241\n    /* \"#utility.yul\":13404:13405   */\n  0x00\n    /* \"#utility.yul\":13393:13402   */\n  dup4\n    /* \"#utility.yul\":13389:13406   */\n  add\n    /* \"#utility.yul\":13380:13386   */\n  dup5\n    /* \"#utility.yul\":13336:13407   */\n  tag_80\n  jump\t// in\ntag_241:\n    /* \"#utility.yul\":13192:13414   */\n  swap3\n  swap2\n  pop\n  pop\n  jump\t// out\n    /* \"contracts/Token.sol\":154:449  contract Token is ERC20 {... */\ntag_19:\n  dataSize(sub_0)\n  dup1\n  dataOffset(sub_0)\n  0x00\n  codecopy\n  0x00\n  return\nstop\n\nsub_0: assembly {\n        /* \"contracts/Token.sol\":154:449  contract Token is ERC20 {... */\n      mstore(0x40, 0x80)\n      callvalue\n      dup1\n      iszero\n      tag_1\n      jumpi\n      0x00\n      dup1\n      revert\n    tag_1:\n      pop\n      jumpi(tag_2, lt(calldatasize, 0x04))\n      shr(0xe0, calldataload(0x00))\n      dup1\n      0x313ce567\n      gt\n      tag_12\n      jumpi\n      dup1\n      0x313ce567\n      eq\n      tag_7\n      jumpi\n      dup1\n      0x70a08231\n      eq\n      tag_8\n      jumpi\n      dup1\n      0x95d89b41\n      eq\n      tag_9\n      jumpi\n      dup1\n      0xa9059cbb\n      eq\n      tag_10\n      jumpi\n      dup1\n      0xdd62ed3e\n      eq\n      tag_11\n      jumpi\n      jump(tag_2)\n    tag_12:\n      dup1\n      0x06fdde03\n      eq\n      tag_3\n      jumpi\n      dup1\n      0x095ea7b3\n      eq\n      tag_4\n      jumpi\n      dup1\n      0x18160ddd\n      eq\n      tag_5\n      jumpi\n      dup1\n      0x23b872dd\n      eq\n      tag_6\n      jumpi\n    tag_2:\n      0x00\n      dup1\n      revert\n        /* \"@openzeppelin/contracts/token/ERC20/ERC20.sol\":2074:2163  function name() public view virtual returns (string memory) {... */\n    tag_3:\n      tag_13\n      tag_14\n      jump\t// in\n    tag_13:\n      mload(0x40)\n      tag_15\n      swap2\n      swap1\n      tag_16\n      jump\t// in\n    tag_15:\n      mload(0x40)\n      dup1\n      swap2\n      sub\n      swap1\n      return\n        /* \"@openzeppelin/contracts/token/ERC20/ERC20.sol\":4293:4479  function approve(address spender, uint256 value) public virtual returns (bool) {... */\n    tag_4:\n      tag_17\n      0x04\n      dup1\n      calldatasize\n      sub\n      dup2\n      add\n      swap1\n      tag_18\n      swap2\n      swap1\n      tag_19\n      jump\t// in\n    tag_18:\n      tag_20\n      jump\t// in\n    tag_17:\n      mload(0x40)\n      tag_21\n      swap2\n      swap1\n      tag_22\n      jump\t// in\n    tag_21:\n      mload(0x40)\n      dup1\n      swap2\n      sub\n      swap1\n      return\n        /* \"@openzeppelin/contracts/token/ERC20/ERC20.sol\":3144:3241  function totalSupply() public view virtual returns (uint256) {... */\n    tag_5:\n      tag_23\n      tag_24\n      jump\t// in\n    tag_23:\n      mload(0x40)\n      tag_25\n      swap2\n      swap1\n      tag_26\n      jump\t// in\n    tag_25:\n      mload(0x40)\n      dup1\n      swap2\n      sub\n      swap1\n      return\n        /* \"@openzeppelin/contracts/token/ERC20/ERC20.sol\":5039:5283  function transferFrom(address from, address to, uint256 value) public virtual returns (bool) {... */\n    tag_6:\n      tag_27\n      0x04\n      dup1\n      calldatasize\n      sub\n      dup2\n      add\n      swap1\n      tag_28\n      swap2\n      swap1\n      tag_29\n      jump\t// in\n    tag_28:\n      tag_30\n      jump\t// in\n    tag_27:\n      mload(0x40)\n      tag_31\n      swap2\n      swap1\n      tag_22\n      jump\t// in\n    tag_31:\n      mload(0x40)\n      dup1\n      swap2\n      sub\n      swap1\n      return\n        /* \"@openzeppelin/contracts/token/ERC20/ERC20.sol\":3002:3084  function decimals() public view virtual returns (uint8) {... */\n    tag_7:\n      tag_32\n      tag_33\n      jump\t// in\n    tag_32:\n      mload(0x40)\n      tag_34\n      swap2\n      swap1\n      tag_35\n      jump\t// in\n    tag_34:\n      mload(0x40)\n      dup1\n      swap2\n      sub\n      swap1\n      return\n        /* \"@openzeppelin/contracts/token/ERC20/ERC20.sol\":3299:3415  function balanceOf(address account) public view virtual returns (uint256) {... */\n    tag_8:\n      tag_36\n      0x04\n      dup1\n      calldatasize\n      sub\n      dup2\n      add\n      swap1\n      tag_37\n      swap2\n      swap1\n      tag_38\n      jump\t// in\n    tag_37:\n      tag_39\n      jump\t// in\n    tag_36:\n      mload(0x40)\n      tag_40\n      swap2\n      swap1\n      tag_26\n      jump\t// in\n    tag_40:\n      mload(0x40)\n      dup1\n      swap2\n      sub\n      swap1\n      return\n        /* \"@openzeppelin/contracts/token/ERC20/ERC20.sol\":2276:2369  function symbol() public view virtual returns (string memory) {... */\n    tag_9:\n      tag_41\n      tag_42\n      jump\t// in\n    tag_41:\n      mload(0x40)\n      tag_43\n      swap2\n      swap1\n      tag_16\n      jump\t// in\n    tag_43:\n      mload(0x40)\n      dup1\n      swap2\n      sub\n      swap1\n      return\n        /* \"@openzeppelin/contracts/token/ERC20/ERC20.sol\":3610:3788  function transfer(address to, uint256 value) public virtual returns (bool) {... */\n    tag_10:\n      tag_44\n      0x04\n      dup1\n      calldatasize\n      sub\n      dup2\n      add\n      swap1\n      tag_45\n      swap2\n      swap1\n      tag_19\n      jump\t// in\n    tag_45:\n      tag_46\n      jump\t// in\n    tag_44:\n      mload(0x40)\n      tag_47\n      swap2\n      swap1\n      tag_22\n      jump\t// in\n    tag_47:\n      mload(0x40)\n      dup1\n      swap2\n      sub\n      swap1\n      return\n        /* \"@openzeppelin/contracts/token/ERC20/ERC20.sol\":3846:3986  function allowance(address owner, address spender) public view virtual returns (uint256) {... */\n    tag_11:\n      tag_48\n      0x04\n      dup1\n      calldatasize\n      sub\n      dup2\n      add\n      swap1\n      tag_49\n      swap2\n      swap1\n      tag_50\n      jump\t// in\n    tag_49:\n      tag_51\n      jump\t// in\n    tag_48:\n      mload(0x40)\n      tag_52\n      swap2\n      swap1\n      tag_26\n      jump\t// in\n    tag_52:\n      mload(0x40)\n      dup1\n      swap2\n      sub\n      swap1\n      return\n        /* \"@openzeppelin/contracts/token/ERC20/ERC20.sol\":2074:2163  function name() public view virtual returns (string memory) {... */\n    tag_14:\n        /* \"@openzeppelin/contracts/token/ERC20/ERC20.sol\":2119:2132  string memory */\n      0x60\n        /* \"@openzeppelin/contracts/token/ERC20/ERC20.sol\":2151:2156  _name */\n      0x03\n        /* \"@openzeppelin/contracts/token/ERC20/ERC20.sol\":2144:2156  return _name */\n      dup1\n      sload\n      tag_54\n      swap1\n      tag_55\n      jump\t// in\n    tag_54:\n      dup1\n      0x1f\n      add\n      0x20\n      dup1\n      swap2\n      div\n      mul\n      0x20\n      add\n      mload(0x40)\n      swap1\n      dup2\n      add\n      0x40\n      mstore\n      dup1\n      swap3\n      swap2\n      swap1\n      dup2\n      dup2\n      mstore\n      0x20\n      add\n      dup3\n      dup1\n      sload\n      tag_56\n      swap1\n      tag_55\n      jump\t// in\n    tag_56:\n      dup1\n      iszero\n      tag_57\n      jumpi\n      dup1\n      0x1f\n      lt\n      tag_58\n      jumpi\n      0x0100\n      dup1\n      dup4\n      sload\n      div\n      mul\n      dup4\n      mstore\n      swap2\n      0x20\n      add\n      swap2\n      jump(tag_57)\n    tag_58:\n      dup3\n      add\n      swap2\n      swap1\n      0x00\n      mstore\n      keccak256(0x00, 0x20)\n      swap1\n    tag_59:\n      dup2\n      sload\n      dup2\n      mstore\n      swap1\n      0x01\n      add\n      swap1\n      0x20\n      add\n      dup1\n      dup4\n      gt\n      tag_59\n      jumpi\n      dup3\n      swap1\n      sub\n      0x1f\n      and\n      dup3\n      add\n      swap2\n    tag_57:\n      pop\n      pop\n      pop\n      pop\n      pop\n      swap1\n      pop\n        /* \"@openzeppelin/contracts/token/ERC20/ERC20.sol\":2074:2163  function name() public view virtual returns (string memory) {... */\n      swap1\n      jump\t// out\n        /* \"@openzeppelin/contracts/token/ERC20/ERC20.sol\":4293:4479  function approve(address spender, uint256 value) public virtual returns (bool) {... */\n    tag_20:\n        /* \"@openzeppelin/contracts/token/ERC20/ERC20.sol\":4366:4370  bool */\n      0x00\n        /* \"@openzeppelin/contracts/token/ERC20/ERC20.sol\":4382:4395  address owner */\n      dup1\n        /* \"@openzeppelin/contracts/token/ERC20/ERC20.sol\":4398:4410  _msgSender() */\n      tag_61\n        /* \"@openzeppelin/contracts/token/ERC20/ERC20.sol\":4398:4408  _msgSender */\n      tag_62\n        /* \"@openzeppelin/contracts/token/ERC20/ERC20.sol\":4398:4410  _msgSender() */\n      jump\t// in\n    tag_61:\n        /* \"@openzeppelin/contracts/token/ERC20/ERC20.sol\":4382:4410  address owner = _msgSender() */\n      swap1\n      pop\n        /* \"@openzeppelin/contracts/token/ERC20/ERC20.sol\":4420:4451  _approve(owner, spender, value) */\n      tag_63\n        /* \"@openzeppelin/contracts/token/ERC20/ERC20.sol\":4429:4434  owner */\n      dup2\n        /* \"@openzeppelin/contracts/token/ERC20/ERC20.sol\":4436:4443  spender */\n      dup6\n        /* \"@openzeppelin/contracts/token/ERC20/ERC20.sol\":4445:4450  value */\n      dup6\n        /* \"@openzeppelin/contracts/token/ERC20/ERC20.sol\":4420:4428  _approve */\n      tag_64\n        /* \"@openzeppelin/contracts/token/ERC20/ERC20.sol\":4420:4451  _approve(owner, spender, value) */\n      jump\t// in\n    tag_63:\n        /* \"@openzeppelin/contracts/token/ERC20/ERC20.sol\":4468:4472  true */\n      0x01\n        /* \"@openzeppelin/contracts/token/ERC20/ERC20.sol\":4461:4472  return true */\n      swap2\n      pop\n      pop\n        /* \"@openzeppelin/contracts/token/ERC20/ERC20.sol\":4293:4479  function approve(address spender, uint256 value) public virtual returns (bool) {... */\n      swap3\n      swap2\n      pop\n      pop\n      jump\t// out\n        /* \"@openzeppelin/contracts/token/ERC20/ERC20.sol\":3144:3241  function totalSupply() public view virtual returns (uint256) {... */\n    tag_24:\n        /* \"@openzeppelin/contracts/token/ERC20/ERC20.sol\":3196:3203  uint256 */\n      0x00\n        /* \"@openzeppelin/contracts/token/ERC20/ERC20.sol\":3222:3234  _totalSupply */\n      sload(0x02)\n        /* \"@openzeppelin/contracts/token/ERC20/ERC20.sol\":3215:3234  return _totalSupply */\n      swap1\n      pop\n        /* \"@openzeppelin/contracts/token/ERC20/ERC20.sol\":3144:3241  function totalSupply() public view virtual returns (uint256) {... */\n      swap1\n      jump\t// out\n        /* \"@openzeppelin/contracts/token/ERC20/ERC20.sol\":5039:5283  function transferFrom(address from, address to, uint256 value) public virtual returns (bool) {... */\n    tag_30:\n        /* \"@openzeppelin/contracts/token/ERC20/ERC20.sol\":5126:5130  bool */\n      0x00\n        /* \"@openzeppelin/contracts/token/ERC20/ERC20.sol\":5142:5157  address spender */\n      dup1\n        /* \"@openzeppelin/contracts/token/ERC20/ERC20.sol\":5160:5172  _msgSender() */\n      tag_67\n        /* \"@openzeppelin/contracts/token/ERC20/ERC20.sol\":5160:5170  _msgSender */\n      tag_62\n        /* \"@openzeppelin/contracts/token/ERC20/ERC20.sol\":5160:5172  _msgSender() */\n      jump\t// in\n    tag_67:\n        /* \"@openzeppelin/contracts/token/ERC20/ERC20.sol\":5142:5172  address spender = _msgSender() */\n      swap1\n      pop\n        /* \"@openzeppelin/contracts/token/ERC20/ERC20.sol\":5182:5219  _spendAllowance(from, spender, value) */\n      tag_68\n        /* \"@openzeppelin/contracts/token/ERC20/ERC20.sol\":5198:5202  from */\n      dup6\n        /* \"@openzeppelin/contracts/token/ERC20/ERC20.sol\":5204:5211  spender */\n      dup3\n        /* \"@openzeppelin/contracts/token/ERC20/ERC20.sol\":5213:5218  value */\n      dup6\n        /* \"@openzeppelin/contracts/token/ERC20/ERC20.sol\":5182:5197  _spendAllowance */\n      tag_69\n        /* \"@openzeppelin/contracts/token/ERC20/ERC20.sol\":5182:5219  _spendAllowance(from, spender, value) */\n      jump\t// in\n    tag_68:\n        /* \"@openzeppelin/contracts/token/ERC20/ERC20.sol\":5229:5255  _transfer(from, to, value) */\n      tag_70\n        /* \"@openzeppelin/contracts/token/ERC20/ERC20.sol\":5239:5243  from */\n      dup6\n        /* \"@openzeppelin/contracts/token/ERC20/ERC20.sol\":5245:5247  to */\n      dup6\n        /* \"@openzeppelin/contracts/token/ERC20/ERC20.sol\":5249:5254  value */\n      dup6\n        /* \"@openzeppelin/contracts/token/ERC20/ERC20.sol\":5229:5238  _transfer */\n      tag_71\n        /* \"@openzeppelin/contracts/token/ERC20/ERC20.sol\":5229:5255  _transfer(from, to, value) */\n      jump\t// in\n    tag_70:\n        /* \"@openzeppelin/contracts/token/ERC20/ERC20.sol\":5272:5276  true */\n      0x01\n        /* \"@openzeppelin/contracts/token/ERC20/ERC20.sol\":5265:5276  return true */\n      swap2\n      pop\n      pop\n        /* \"@openzeppelin/contracts/token/ERC20/ERC20.sol\":5039:5283  function transferFrom(address from, address to, uint256 value) public virtual returns (bool) {... */\n      swap4\n      swap3\n      pop\n      pop\n      pop\n      jump\t// out\n        /* \"@openzeppelin/contracts/token/ERC20/ERC20.sol\":3002:3084  function decimals() public view virtual returns (uint8) {... */\n    tag_33:\n        /* \"@openzeppelin/contracts/token/ERC20/ERC20.sol\":3051:3056  uint8 */\n      0x00\n        /* \"@openzeppelin/contracts/token/ERC20/ERC20.sol\":3075:3077  18 */\n      0x12\n        /* \"@openzeppelin/contracts/token/ERC20/ERC20.sol\":3068:3077  return 18 */\n      swap1\n      pop\n        /* \"@openzeppelin/contracts/token/ERC20/ERC20.sol\":3002:3084  function decimals() public view virtual returns (uint8) {... */\n      swap1\n      jump\t// out\n        /* \"@openzeppelin/contracts/token/ERC20/ERC20.sol\":3299:3415  function balanceOf(address account) public view virtual returns (uint256) {... */\n    tag_39:\n        /* \"@openzeppelin/contracts/token/ERC20/ERC20.sol\":3364:3371  uint256 */\n      0x00\n        /* \"@openzeppelin/contracts/token/ERC20/ERC20.sol\":3390:3399  _balances */\n      dup1\n        /* \"@openzeppelin/contracts/token/ERC20/ERC20.sol\":3390:3408  _balances[account] */\n      0x00\n        /* \"@openzeppelin/contracts/token/ERC20/ERC20.sol\":3400:3407  account */\n      dup4\n        /* \"@openzeppelin/contracts/token/ERC20/ERC20.sol\":3390:3408  _balances[account] */\n      0xffffffffffffffffffffffffffffffffffffffff\n      and\n      0xffffffffffffffffffffffffffffffffffffffff\n      and\n      dup2\n      mstore\n      0x20\n      add\n      swap1\n      dup2\n      mstore\n      0x20\n      add\n      0x00\n      keccak256\n      sload\n        /* \"@openzeppelin/contracts/token/ERC20/ERC20.sol\":3383:3408  return _balances[account] */\n      swap1\n      pop\n        /* \"@openzeppelin/contracts/token/ERC20/ERC20.sol\":3299:3415  function balanceOf(address account) public view virtual returns (uint256) {... */\n      swap2\n      swap1\n      pop\n      jump\t// out\n        /* \"@openzeppelin/contracts/token/ERC20/ERC20.sol\":2276:2369  function symbol() public view virtual returns (string memory) {... */\n    tag_42:\n        /* \"@openzeppelin/contracts/token/ERC20/ERC20.sol\":2323:2336  string memory */\n      0x60\n        /* \"@openzeppelin/contracts/token/ERC20/ERC20.sol\":2355:2362  _symbol */\n      0x04\n        /* \"@openzeppelin/contracts/token/ERC20/ERC20.sol\":2348:2362  return _symbol */\n      dup1\n      sload\n      tag_75\n      swap1\n      tag_55\n      jump\t// in\n    tag_75:\n      dup1\n      0x1f\n      add\n      0x20\n      dup1\n      swap2\n      div\n      mul\n      0x20\n      add\n      mload(0x40)\n      swap1\n      dup2\n      add\n      0x40\n      mstore\n      dup1\n      swap3\n      swap2\n      swap1\n      dup2\n      dup2\n      mstore\n      0x20\n      add\n      dup3\n      dup1\n      sload\n      tag_76\n      swap1\n      tag_55\n      jump\t// in\n    tag_76:\n      dup1\n      iszero\n      tag_77\n      jumpi\n      dup1\n      0x1f\n      lt\n      tag_78\n      jumpi\n      0x0100\n      dup1\n      dup4\n      sload\n      div\n      mul\n      dup4\n      mstore\n      swap2\n      0x20\n      add\n      swap2\n      jump(tag_77)\n    tag_78:\n      dup3\n      add\n      swap2\n      swap1\n      0x00\n      mstore\n      keccak256(0x00, 0x20)\n      swap1\n    tag_79:\n      dup2\n      sload\n      dup2\n      mstore\n      swap1\n      0x01\n      add\n      swap1\n      0x20\n      add\n      dup1\n      dup4\n      gt\n      tag_79\n      jumpi\n      dup3\n      swap1\n      sub\n      0x1f\n      and\n      dup3\n      add\n      swap2\n    tag_77:\n      pop\n      pop\n      pop\n      pop\n      pop\n      swap1\n      pop\n        /* \"@openzeppelin/contracts/token/ERC20/ERC20.sol\":2276:2369  function symbol() public view virtual returns (string memory) {... */\n      swap1\n      jump\t// out\n        /* \"@openzeppelin/contracts/token/ERC20/ERC20.sol\":3610:3788  function transfer(address to, uint256 value) public virtual returns (bool) {... */\n    tag_46:\n        /* \"@openzeppelin/contracts/token/ERC20/ERC20.sol\":3679:3683  bool */\n      0x00\n        /* \"@openzeppelin/contracts/token/ERC20/ERC20.sol\":3695:3708  address owner */\n      dup1\n        /* \"@openzeppelin/contracts/token/ERC20/ERC20.sol\":3711:3723  _msgSender() */\n      tag_81\n        /* \"@openzeppelin/contracts/token/ERC20/ERC20.sol\":3711:3721  _msgSender */\n      tag_62\n        /* \"@openzeppelin/contracts/token/ERC20/ERC20.sol\":3711:3723  _msgSender() */\n      jump\t// in\n    tag_81:\n        /* \"@openzeppelin/contracts/token/ERC20/ERC20.sol\":3695:3723  address owner = _msgSender() */\n      swap1\n      pop\n        /* \"@openzeppelin/contracts/token/ERC20/ERC20.sol\":3733:3760  _transfer(owner, to, value) */\n      tag_82\n        /* \"@openzeppelin/contracts/token/ERC20/ERC20.sol\":3743:3748  owner */\n      dup2\n        /* \"@openzeppelin/contracts/token/ERC20/ERC20.sol\":3750:3752  to */\n      dup6\n        /* \"@openzeppelin/contracts/token/ERC20/ERC20.sol\":3754:3759  value */\n      dup6\n        /* \"@openzeppelin/contracts/token/ERC20/ERC20.sol\":3733:3742  _transfer */\n      tag_71\n        /* \"@openzeppelin/contracts/token/ERC20/ERC20.sol\":3733:3760  _transfer(owner, to, value) */\n      jump\t// in\n    tag_82:\n        /* \"@openzeppelin/contracts/token/ERC20/ERC20.sol\":3777:3781  true */\n      0x01\n        /* \"@openzeppelin/contracts/token/ERC20/ERC20.sol\":3770:3781  return true */\n      swap2\n      pop\n      pop\n        /* \"@openzeppelin/contracts/token/ERC20/ERC20.sol\":3610:3788  function transfer(address to, uint256 value) public virtual returns (bool) {... */\n      swap3\n      swap2\n      pop\n      pop\n      jump\t// out\n        /* \"@openzeppelin/contracts/token/ERC20/ERC20.sol\":3846:3986  function allowance(address owner, address spender) public view virtual returns (uint256) {... */\n    tag_51:\n        /* \"@openzeppelin/contracts/token/ERC20/ERC20.sol\":3926:3933  uint256 */\n      0x00\n        /* \"@openzeppelin/contracts/token/ERC20/ERC20.sol\":3952:3963  _allowances */\n      0x01\n        /* \"@openzeppelin/contracts/token/ERC20/ERC20.sol\":3952:3970  _allowances[owner] */\n      0x00\n        /* \"@openzeppelin/contracts/token/ERC20/ERC20.sol\":3964:3969  owner */\n      dup5\n        /* \"@openzeppelin/contracts/token/ERC20/ERC20.sol\":3952:3970  _allowances[owner] */\n      0xffffffffffffffffffffffffffffffffffffffff\n      and\n      0xffffffffffffffffffffffffffffffffffffffff\n      and\n      dup2\n      mstore\n      0x20\n      add\n      swap1\n      dup2\n      mstore\n      0x20\n      add\n      0x00\n      keccak256\n        /* \"@openzeppelin/contracts/token/ERC20/ERC20.sol\":3952:3979  _allowances[owner][spender] */\n      0x00\n        /* \"@openzeppelin/contracts/token/ERC20/ERC20.sol\":3971:3978  spender */\n      dup4\n        /* \"@openzeppelin/contracts/token/ERC20/ERC20.sol\":3952:3979  _allowances[owner][spender] */\n      0xffffffffffffffffffffffffffffffffffffffff\n      and\n      0xffffffffffffffffffffffffffffffffffffffff\n      and\n      dup2\n      mstore\n      0x20\n      add\n      swap1\n      dup2\n      mstore\n      0x20\n      add\n      0x00\n      keccak256\n      sload\n        /* \"@openzeppelin/contracts/token/ERC20/ERC20.sol\":3945:3979  return _allowances[owner][spender] */\n      swap1\n      pop\n        /* \"@openzeppelin/contracts/token/ERC20/ERC20.sol\":3846:3986  function allowance(address owner, address spender) public view virtual returns (uint256) {... */\n      swap3\n      swap2\n      pop\n      pop\n      jump\t// out\n        /* \"@openzeppelin/contracts/utils/Context.sol\":656:752  function _msgSender() internal view virtual returns (address) {... */\n    tag_62:\n        /* \"@openzeppelin/contracts/utils/Context.sol\":709:716  address */\n      0x00\n        /* \"@openzeppelin/contracts/utils/Context.sol\":735:745  msg.sender */\n      caller\n        /* \"@openzeppelin/contracts/utils/Context.sol\":728:745  return msg.sender */\n      swap1\n      pop\n        /* \"@openzeppelin/contracts/utils/Context.sol\":656:752  function _msgSender() internal view virtual returns (address) {... */\n      swap1\n      jump\t// out\n        /* \"@openzeppelin/contracts/token/ERC20/ERC20.sol\":8989:9117  function _approve(address owner, address spender, uint256 value) internal {... */\n    tag_64:\n        /* \"@openzeppelin/contracts/token/ERC20/ERC20.sol\":9073:9110  _approve(owner, spender, value, true) */\n      tag_86\n        /* \"@openzeppelin/contracts/token/ERC20/ERC20.sol\":9082:9087  owner */\n      dup4\n        /* \"@openzeppelin/contracts/token/ERC20/ERC20.sol\":9089:9096  spender */\n      dup4\n        /* \"@openzeppelin/contracts/token/ERC20/ERC20.sol\":9098:9103  value */\n      dup4\n        /* \"@openzeppelin/contracts/token/ERC20/ERC20.sol\":9105:9109  true */\n      0x01\n        /* \"@openzeppelin/contracts/token/ERC20/ERC20.sol\":9073:9081  _approve */\n      tag_87\n        /* \"@openzeppelin/contracts/token/ERC20/ERC20.sol\":9073:9110  _approve(owner, spender, value, true) */\n      jump\t// in\n    tag_86:\n        /* \"@openzeppelin/contracts/token/ERC20/ERC20.sol\":8989:9117  function _approve(address owner, address spender, uint256 value) internal {... */\n      pop\n      pop\n      pop\n      jump\t// out\n        /* \"@openzeppelin/contracts/token/ERC20/ERC20.sol\":10663:11140  function _spendAllowance(address owner, address spender, uint256 value) internal virtual {... */\n    tag_69:\n        /* \"@openzeppelin/contracts/token/ERC20/ERC20.sol\":10762:10786  uint256 currentAllowance */\n      0x00\n        /* \"@openzeppelin/contracts/token/ERC20/ERC20.sol\":10789:10814  allowance(owner, spender) */\n      tag_89\n        /* \"@openzeppelin/contracts/token/ERC20/ERC20.sol\":10799:10804  owner */\n      dup5\n        /* \"@openzeppelin/contracts/token/ERC20/ERC20.sol\":10806:10813  spender */\n      dup5\n        /* \"@openzeppelin/contracts/token/ERC20/ERC20.sol\":10789:10798  allowance */\n      tag_51\n        /* \"@openzeppelin/contracts/token/ERC20/ERC20.sol\":10789:10814  allowance(owner, spender) */\n      jump\t// in\n    tag_89:\n        /* \"@openzeppelin/contracts/token/ERC20/ERC20.sol\":10762:10814  uint256 currentAllowance = allowance(owner, spender) */\n      swap1\n      pop\n        /* \"@openzeppelin/contracts/token/ERC20/ERC20.sol\":10848:10865  type(uint256).max */\n      0xffffffffffffffffffffffffffffffffffffffffffffffffffffffffffffffff\n        /* \"@openzeppelin/contracts/token/ERC20/ERC20.sol\":10828:10844  currentAllowance */\n      dup2\n        /* \"@openzeppelin/contracts/token/ERC20/ERC20.sol\":10828:10865  currentAllowance != type(uint256).max */\n      eq\n        /* \"@openzeppelin/contracts/token/ERC20/ERC20.sol\":10824:11134  if (currentAllowance != type(uint256).max) {... */\n      tag_90\n      jumpi\n        /* \"@openzeppelin/contracts/token/ERC20/ERC20.sol\":10904:10909  value */\n      dup2\n        /* \"@openzeppelin/contracts/token/ERC20/ERC20.sol\":10885:10901  currentAllowance */\n      dup2\n        /* \"@openzeppelin/contracts/token/ERC20/ERC20.sol\":10885:10909  currentAllowance < value */\n      lt\n        /* \"@openzeppelin/contracts/token/ERC20/ERC20.sol\":10881:11011  if (currentAllowance < value) {... */\n      iszero\n      tag_91\n      jumpi\n        /* \"@openzeppelin/contracts/token/ERC20/ERC20.sol\":10963:10970  spender */\n      dup3\n        /* \"@openzeppelin/contracts/token/ERC20/ERC20.sol\":10972:10988  currentAllowance */\n      dup2\n        /* \"@openzeppelin/contracts/token/ERC20/ERC20.sol\":10990:10995  value */\n      dup4\n        /* \"@openzeppelin/contracts/token/ERC20/ERC20.sol\":10936:10996  ERC20InsufficientAllowance(spender, currentAllowance, value) */\n      mload(0x40)\n      0xfb8f41b200000000000000000000000000000000000000000000000000000000\n      dup2\n      mstore\n      0x04\n      add\n      tag_92\n      swap4\n      swap3\n      swap2\n      swap1\n      tag_93\n      jump\t// in\n    tag_92:\n      mload(0x40)\n      dup1\n      swap2\n      sub\n      swap1\n      revert\n        /* \"@openzeppelin/contracts/token/ERC20/ERC20.sol\":10881:11011  if (currentAllowance < value) {... */\n    tag_91:\n        /* \"@openzeppelin/contracts/token/ERC20/ERC20.sol\":11052:11109  _approve(owner, spender, currentAllowance - value, false) */\n      tag_94\n        /* \"@openzeppelin/contracts/token/ERC20/ERC20.sol\":11061:11066  owner */\n      dup5\n        /* \"@openzeppelin/contracts/token/ERC20/ERC20.sol\":11068:11075  spender */\n      dup5\n        /* \"@openzeppelin/contracts/token/ERC20/ERC20.sol\":11096:11101  value */\n      dup5\n        /* \"@openzeppelin/contracts/token/ERC20/ERC20.sol\":11077:11093  currentAllowance */\n      dup5\n        /* \"@openzeppelin/contracts/token/ERC20/ERC20.sol\":11077:11101  currentAllowance - value */\n      sub\n        /* \"@openzeppelin/contracts/token/ERC20/ERC20.sol\":11103:11108  false */\n      0x00\n        /* \"@openzeppelin/contracts/token/ERC20/ERC20.sol\":11052:11060  _approve */\n      tag_87\n        /* \"@openzeppelin/contracts/token/ERC20/ERC20.sol\":11052:11109  _approve(owner, spender, currentAllowance - value, false) */\n      jump\t// in\n    tag_94:\n        /* \"@openzeppelin/contracts/token/ERC20/ERC20.sol\":10824:11134  if (currentAllowance != type(uint256).max) {... */\n    tag_90:\n        /* \"@openzeppelin/contracts/token/ERC20/ERC20.sol\":10752:11140  {... */\n      pop\n        /* \"@openzeppelin/contracts/token/ERC20/ERC20.sol\":10663:11140  function _spendAllowance(address owner, address spender, uint256 value) internal virtual {... */\n      pop\n      pop\n      pop\n      jump\t// out\n        /* \"@openzeppelin/contracts/token/ERC20/ERC20.sol\":5656:5956  function _transfer(address from, address to, uint256 value) internal {... */\n    tag_71:\n        /* \"@openzeppelin/contracts/token/ERC20/ERC20.sol\":5755:5756  0 */\n      0x00\n        /* \"@openzeppelin/contracts/token/ERC20/ERC20.sol\":5739:5757  from == address(0) */\n      0xffffffffffffffffffffffffffffffffffffffff\n      and\n        /* \"@openzeppelin/contracts/token/ERC20/ERC20.sol\":5739:5743  from */\n      dup4\n        /* \"@openzeppelin/contracts/token/ERC20/ERC20.sol\":5739:5757  from == address(0) */\n      0xffffffffffffffffffffffffffffffffffffffff\n      and\n      sub\n        /* \"@openzeppelin/contracts/token/ERC20/ERC20.sol\":5735:5821  if (from == address(0)) {... */\n      tag_96\n      jumpi\n        /* \"@openzeppelin/contracts/token/ERC20/ERC20.sol\":5807:5808  0 */\n      0x00\n        /* \"@openzeppelin/contracts/token/ERC20/ERC20.sol\":5780:5810  ERC20InvalidSender(address(0)) */\n      mload(0x40)\n      0x96c6fd1e00000000000000000000000000000000000000000000000000000000\n      dup2\n      mstore\n      0x04\n      add\n      tag_97\n      swap2\n      swap1\n      tag_98\n      jump\t// in\n    tag_97:\n      mload(0x40)\n      dup1\n      swap2\n      sub\n      swap1\n      revert\n        /* \"@openzeppelin/contracts/token/ERC20/ERC20.sol\":5735:5821  if (from == address(0)) {... */\n    tag_96:\n        /* \"@openzeppelin/contracts/token/ERC20/ERC20.sol\":5848:5849  0 */\n      0x00\n        /* \"@openzeppelin/contracts/token/ERC20/ERC20.sol\":5834:5850  to == address(0) */\n      0xffffffffffffffffffffffffffffffffffffffff\n      and\n        /* \"@openzeppelin/contracts/token/ERC20/ERC20.sol\":5834:5836  to */\n      dup3\n        /* \"@openzeppelin/contracts/token/ERC20/ERC20.sol\":5834:5850  to == address(0) */\n      0xffffffffffffffffffffffffffffffffffffffff\n      and\n      sub\n        /* \"@openzeppelin/contracts/token/ERC20/ERC20.sol\":5830:5916  if (to == address(0)) {... */\n      tag_99\n      jumpi\n        /* \"@openzeppelin/contracts/token/ERC20/ERC20.sol\":5902:5903  0 */\n      0x00\n        /* \"@openzeppelin/contracts/token/ERC20/ERC20.sol\":5873:5905  ERC20InvalidReceiver(address(0)) */\n      mload(0x40)\n      0xec442f0500000000000000000000000000000000000000000000000000000000\n      dup2\n      mstore\n      0x04\n      add\n      tag_100\n      swap2\n      swap1\n      tag_98\n      jump\t// in\n    tag_100:\n      mload(0x40)\n      dup1\n      swap2\n      sub\n      swap1\n      revert\n        /* \"@openzeppelin/contracts/token/ERC20/ERC20.sol\":5830:5916  if (to == address(0)) {... */\n    tag_99:\n        /* \"@openzeppelin/contracts/token/ERC20/ERC20.sol\":5925:5949  _update(from, to, value) */\n      tag_101\n        /* \"@openzeppelin/contracts/token/ERC20/ERC20.sol\":5933:5937  from */\n      dup4\n        /* \"@openzeppelin/contracts/token/ERC20/ERC20.sol\":5939:5941  to */\n      dup4\n        /* \"@openzeppelin/contracts/token/ERC20/ERC20.sol\":5943:5948  value */\n      dup4\n        /* \"@openzeppelin/contracts/token/ERC20/ERC20.sol\":5925:5932  _update */\n      tag_102\n        /* \"@openzeppelin/contracts/token/ERC20/ERC20.sol\":5925:5949  _update(from, to, value) */\n      jump\t// in\n    tag_101:\n        /* \"@openzeppelin/contracts/token/ERC20/ERC20.sol\":5656:5956  function _transfer(address from, address to, uint256 value) internal {... */\n      pop\n      pop\n      pop\n      jump\t// out\n        /* \"@openzeppelin/contracts/token/ERC20/ERC20.sol\":9949:10381  function _approve(address owner, address spender, uint256 value, bool emitEvent) internal virtual {... */\n    tag_87:\n        /* \"@openzeppelin/contracts/token/ERC20/ERC20.sol\":10078:10079  0 */\n      0x00\n        /* \"@openzeppelin/contracts/token/ERC20/ERC20.sol\":10061:10080  owner == address(0) */\n      0xffffffffffffffffffffffffffffffffffffffff\n      and\n        /* \"@openzeppelin/contracts/token/ERC20/ERC20.sol\":10061:10066  owner */\n      dup5\n        /* \"@openzeppelin/contracts/token/ERC20/ERC20.sol\":10061:10080  owner == address(0) */\n      0xffffffffffffffffffffffffffffffffffffffff\n      and\n      sub\n        /* \"@openzeppelin/contracts/token/ERC20/ERC20.sol\":10057:10146  if (owner == address(0)) {... */\n      tag_104\n      jumpi\n        /* \"@openzeppelin/contracts/token/ERC20/ERC20.sol\":10132:10133  0 */\n      0x00\n        /* \"@openzeppelin/contracts/token/ERC20/ERC20.sol\":10103:10135  ERC20InvalidApprover(address(0)) */\n      mload(0x40)\n      0xe602df0500000000000000000000000000000000000000000000000000000000\n      dup2\n      mstore\n      0x04\n      add\n      tag_105\n      swap2\n      swap1\n      tag_98\n      jump\t// in\n    tag_105:\n      mload(0x40)\n      dup1\n      swap2\n      sub\n      swap1\n      revert\n        /* \"@openzeppelin/contracts/token/ERC20/ERC20.sol\":10057:10146  if (owner == address(0)) {... */\n    tag_104:\n        /* \"@openzeppelin/contracts/token/ERC20/ERC20.sol\":10178:10179  0 */\n      0x00\n        /* \"@openzeppelin/contracts/token/ERC20/ERC20.sol\":10159:10180  spender == address(0) */\n      0xffffffffffffffffffffffffffffffffffffffff\n      and\n        /* \"@openzeppelin/contracts/token/ERC20/ERC20.sol\":10159:10166  spender */\n      dup4\n        /* \"@openzeppelin/contracts/token/ERC20/ERC20.sol\":10159:10180  spender == address(0) */\n      0xffffffffffffffffffffffffffffffffffffffff\n      and\n      sub\n        /* \"@openzeppelin/contracts/token/ERC20/ERC20.sol\":10155:10245  if (spender == address(0)) {... */\n      tag_106\n      jumpi\n        /* \"@openzeppelin/contracts/token/ERC20/ERC20.sol\":10231:10232  0 */\n      0x00\n        /* \"@openzeppelin/contracts/token/ERC20/ERC20.sol\":10203:10234  ERC20InvalidSpender(address(0)) */\n      mload(0x40)\n      0x94280d6200000000000000000000000000000000000000000000000000000000\n      dup2\n      mstore\n      0x04\n      add\n      tag_107\n      swap2\n      swap1\n      tag_98\n      jump\t// in\n    tag_107:\n      mload(0x40)\n      dup1\n      swap2\n      sub\n      swap1\n      revert\n        /* \"@openzeppelin/contracts/token/ERC20/ERC20.sol\":10155:10245  if (spender == address(0)) {... */\n    tag_106:\n        /* \"@openzeppelin/contracts/token/ERC20/ERC20.sol\":10284:10289  value */\n      dup2\n        /* \"@openzeppelin/contracts/token/ERC20/ERC20.sol\":10254:10265  _allowances */\n      0x01\n        /* \"@openzeppelin/contracts/token/ERC20/ERC20.sol\":10254:10272  _allowances[owner] */\n      0x00\n        /* \"@openzeppelin/contracts/token/ERC20/ERC20.sol\":10266:10271  owner */\n      dup7\n        /* \"@openzeppelin/contracts/token/ERC20/ERC20.sol\":10254:10272  _allowances[owner] */\n      0xffffffffffffffffffffffffffffffffffffffff\n      and\n      0xffffffffffffffffffffffffffffffffffffffff\n      and\n      dup2\n      mstore\n      0x20\n      add\n      swap1\n      dup2\n      mstore\n      0x20\n      add\n      0x00\n      keccak256\n        /* \"@openzeppelin/contracts/token/ERC20/ERC20.sol\":10254:10281  _allowances[owner][spender] */\n      0x00\n        /* \"@openzeppelin/contracts/token/ERC20/ERC20.sol\":10273:10280  spender */\n      dup6\n        /* \"@openzeppelin/contracts/token/ERC20/ERC20.sol\":10254:10281  _allowances[owner][spender] */\n      0xffffffffffffffffffffffffffffffffffffffff\n      and\n      0xffffffffffffffffffffffffffffffffffffffff\n      and\n      dup2\n      mstore\n      0x20\n      add\n      swap1\n      dup2\n      mstore\n      0x20\n      add\n      0x00\n      keccak256\n        /* \"@openzeppelin/contracts/token/ERC20/ERC20.sol\":10254:10289  _allowances[owner][spender] = value */\n      dup2\n      swap1\n      sstore\n      pop\n        /* \"@openzeppelin/contracts/token/ERC20/ERC20.sol\":10303:10312  emitEvent */\n      dup1\n        /* \"@openzeppelin/contracts/token/ERC20/ERC20.sol\":10299:10375  if (emitEvent) {... */\n      iszero\n      tag_108\n      jumpi\n        /* \"@openzeppelin/contracts/token/ERC20/ERC20.sol\":10349:10356  spender */\n      dup3\n        /* \"@openzeppelin/contracts/token/ERC20/ERC20.sol\":10333:10364  Approval(owner, spender, value) */\n      0xffffffffffffffffffffffffffffffffffffffff\n      and\n        /* \"@openzeppelin/contracts/token/ERC20/ERC20.sol\":10342:10347  owner */\n      dup5\n        /* \"@openzeppelin/contracts/token/ERC20/ERC20.sol\":10333:10364  Approval(owner, spender, value) */\n      0xffffffffffffffffffffffffffffffffffffffff\n      and\n      0x8c5be1e5ebec7d5bd14f71427d1e84f3dd0314c0f7b2291e5b200ac8c7c3b925\n        /* \"@openzeppelin/contracts/token/ERC20/ERC20.sol\":10358:10363  value */\n      dup5\n        /* \"@openzeppelin/contracts/token/ERC20/ERC20.sol\":10333:10364  Approval(owner, spender, value) */\n      mload(0x40)\n      tag_109\n      swap2\n      swap1\n      tag_26\n      jump\t// in\n    tag_109:\n      mload(0x40)\n      dup1\n      swap2\n      sub\n      swap1\n      log3\n        /* \"@openzeppelin/contracts/token/ERC20/ERC20.sol\":10299:10375  if (emitEvent) {... */\n    tag_108:\n        /* \"@openzeppelin/contracts/token/ERC20/ERC20.sol\":9949:10381  function _approve(address owner, address spender, uint256 value, bool emitEvent) internal virtual {... */\n      pop\n      pop\n      pop\n      pop\n      jump\t// out\n        /* \"@openzeppelin/contracts/token/ERC20/ERC20.sol\":6271:7378  function _update(address from, address to, uint256 value) internal virtual {... */\n    tag_102:\n        /* \"@openzeppelin/contracts/token/ERC20/ERC20.sol\":6376:6377  0 */\n      0x00\n        /* \"@openzeppelin/contracts/token/ERC20/ERC20.sol\":6360:6378  from == address(0) */\n      0xffffffffffffffffffffffffffffffffffffffff\n      and\n        /* \"@openzeppelin/contracts/token/ERC20/ERC20.sol\":6360:6364  from */\n      dup4\n        /* \"@openzeppelin/contracts/token/ERC20/ERC20.sol\":6360:6378  from == address(0) */\n      0xffffffffffffffffffffffffffffffffffffffff\n      and\n      sub\n        /* \"@openzeppelin/contracts/token/ERC20/ERC20.sol\":6356:6896  if (from == address(0)) {... */\n      tag_111\n      jumpi\n        /* \"@openzeppelin/contracts/token/ERC20/ERC20.sol\":6512:6517  value */\n      dup1\n        /* \"@openzeppelin/contracts/token/ERC20/ERC20.sol\":6496:6508  _totalSupply */\n      0x02\n      0x00\n        /* \"@openzeppelin/contracts/token/ERC20/ERC20.sol\":6496:6517  _totalSupply += value */\n      dup3\n      dup3\n      sload\n      tag_112\n      swap2\n      swap1\n      tag_113\n      jump\t// in\n    tag_112:\n      swap3\n      pop\n      pop\n      dup2\n      swap1\n      sstore\n      pop\n        /* \"@openzeppelin/contracts/token/ERC20/ERC20.sol\":6356:6896  if (from == address(0)) {... */\n      jump(tag_114)\n    tag_111:\n        /* \"@openzeppelin/contracts/token/ERC20/ERC20.sol\":6548:6567  uint256 fromBalance */\n      0x00\n        /* \"@openzeppelin/contracts/token/ERC20/ERC20.sol\":6570:6579  _balances */\n      dup1\n        /* \"@openzeppelin/contracts/token/ERC20/ERC20.sol\":6570:6585  _balances[from] */\n      0x00\n        /* \"@openzeppelin/contracts/token/ERC20/ERC20.sol\":6580:6584  from */\n      dup6\n        /* \"@openzeppelin/contracts/token/ERC20/ERC20.sol\":6570:6585  _balances[from] */\n      0xffffffffffffffffffffffffffffffffffffffff\n      and\n      0xffffffffffffffffffffffffffffffffffffffff\n      and\n      dup2\n      mstore\n      0x20\n      add\n      swap1\n      dup2\n      mstore\n      0x20\n      add\n      0x00\n      keccak256\n      sload\n        /* \"@openzeppelin/contracts/token/ERC20/ERC20.sol\":6548:6585  uint256 fromBalance = _balances[from] */\n      swap1\n      pop\n        /* \"@openzeppelin/contracts/token/ERC20/ERC20.sol\":6617:6622  value */\n      dup2\n        /* \"@openzeppelin/contracts/token/ERC20/ERC20.sol\":6603:6614  fromBalance */\n      dup2\n        /* \"@openzeppelin/contracts/token/ERC20/ERC20.sol\":6603:6622  fromBalance < value */\n      lt\n        /* \"@openzeppelin/contracts/token/ERC20/ERC20.sol\":6599:6714  if (fromBalance < value) {... */\n      iszero\n      tag_115\n      jumpi\n        /* \"@openzeppelin/contracts/token/ERC20/ERC20.sol\":6674:6678  from */\n      dup4\n        /* \"@openzeppelin/contracts/token/ERC20/ERC20.sol\":6680:6691  fromBalance */\n      dup2\n        /* \"@openzeppelin/contracts/token/ERC20/ERC20.sol\":6693:6698  value */\n      dup4\n        /* \"@openzeppelin/contracts/token/ERC20/ERC20.sol\":6649:6699  ERC20InsufficientBalance(from, fromBalance, value) */\n      mload(0x40)\n      0xe450d38c00000000000000000000000000000000000000000000000000000000\n      dup2\n      mstore\n      0x04\n      add\n      tag_116\n      swap4\n      swap3\n      swap2\n      swap1\n      tag_93\n      jump\t// in\n    tag_116:\n      mload(0x40)\n      dup1\n      swap2\n      sub\n      swap1\n      revert\n        /* \"@openzeppelin/contracts/token/ERC20/ERC20.sol\":6599:6714  if (fromBalance < value) {... */\n    tag_115:\n        /* \"@openzeppelin/contracts/token/ERC20/ERC20.sol\":6866:6871  value */\n      dup2\n        /* \"@openzeppelin/contracts/token/ERC20/ERC20.sol\":6852:6863  fromBalance */\n      dup2\n        /* \"@openzeppelin/contracts/token/ERC20/ERC20.sol\":6852:6871  fromBalance - value */\n      sub\n        /* \"@openzeppelin/contracts/token/ERC20/ERC20.sol\":6834:6843  _balances */\n      0x00\n        /* \"@openzeppelin/contracts/token/ERC20/ERC20.sol\":6834:6849  _balances[from] */\n      dup1\n        /* \"@openzeppelin/contracts/token/ERC20/ERC20.sol\":6844:6848  from */\n      dup7\n        /* \"@openzeppelin/contracts/token/ERC20/ERC20.sol\":6834:6849  _balances[from] */\n      0xffffffffffffffffffffffffffffffffffffffff\n      and\n      0xffffffffffffffffffffffffffffffffffffffff\n      and\n      dup2\n      mstore\n      0x20\n      add\n      swap1\n      dup2\n      mstore\n      0x20\n      add\n      0x00\n      keccak256\n        /* \"@openzeppelin/contracts/token/ERC20/ERC20.sol\":6834:6871  _balances[from] = fromBalance - value */\n      dup2\n      swap1\n      sstore\n      pop\n        /* \"@openzeppelin/contracts/token/ERC20/ERC20.sol\":6534:6896  {... */\n      pop\n        /* \"@openzeppelin/contracts/token/ERC20/ERC20.sol\":6356:6896  if (from == address(0)) {... */\n    tag_114:\n        /* \"@openzeppelin/contracts/token/ERC20/ERC20.sol\":6924:6925  0 */\n      0x00\n        /* \"@openzeppelin/contracts/token/ERC20/ERC20.sol\":6910:6926  to == address(0) */\n      0xffffffffffffffffffffffffffffffffffffffff\n      and\n        /* \"@openzeppelin/contracts/token/ERC20/ERC20.sol\":6910:6912  to */\n      dup3\n        /* \"@openzeppelin/contracts/token/ERC20/ERC20.sol\":6910:6926  to == address(0) */\n      0xffffffffffffffffffffffffffffffffffffffff\n      and\n      sub\n        /* \"@openzeppelin/contracts/token/ERC20/ERC20.sol\":6906:7331  if (to == address(0)) {... */\n      tag_117\n      jumpi\n        /* \"@openzeppelin/contracts/token/ERC20/ERC20.sol\":7089:7094  value */\n      dup1\n        /* \"@openzeppelin/contracts/token/ERC20/ERC20.sol\":7073:7085  _totalSupply */\n      0x02\n      0x00\n        /* \"@openzeppelin/contracts/token/ERC20/ERC20.sol\":7073:7094  _totalSupply -= value */\n      dup3\n      dup3\n      sload\n      sub\n      swap3\n      pop\n      pop\n      dup2\n      swap1\n      sstore\n      pop\n        /* \"@openzeppelin/contracts/token/ERC20/ERC20.sol\":6906:7331  if (to == address(0)) {... */\n      jump(tag_118)\n    tag_117:\n        /* \"@openzeppelin/contracts/token/ERC20/ERC20.sol\":7301:7306  value */\n      dup1\n        /* \"@openzeppelin/contracts/token/ERC20/ERC20.sol\":7284:7293  _balances */\n      0x00\n        /* \"@openzeppelin/contracts/token/ERC20/ERC20.sol\":7284:7297  _balances[to] */\n      dup1\n        /* \"@openzeppelin/contracts/token/ERC20/ERC20.sol\":7294:7296  to */\n      dup5\n        /* \"@openzeppelin/contracts/token/ERC20/ERC20.sol\":7284:7297  _balances[to] */\n      0xffffffffffffffffffffffffffffffffffffffff\n      and\n      0xffffffffffffffffffffffffffffffffffffffff\n      and\n      dup2\n      mstore\n      0x20\n      add\n      swap1\n      dup2\n      mstore\n      0x20\n      add\n      0x00\n      keccak256\n      0x00\n        /* \"@openzeppelin/contracts/token/ERC20/ERC20.sol\":7284:7306  _balances[to] += value */\n      dup3\n      dup3\n      sload\n      add\n      swap3\n      pop\n      pop\n      dup2\n      swap1\n      sstore\n      pop\n        /* \"@openzeppelin/contracts/token/ERC20/ERC20.sol\":6906:7331  if (to == address(0)) {... */\n    tag_118:\n        /* \"@openzeppelin/contracts/token/ERC20/ERC20.sol\":7361:7363  to */\n      dup2\n        /* \"@openzeppelin/contracts/token/ERC20/ERC20.sol\":7346:7371  Transfer(from, to, value) */\n      0xffffffffffffffffffffffffffffffffffffffff\n      and\n        /* \"@openzeppelin/contracts/token/ERC20/ERC20.sol\":7355:7359  from */\n      dup4\n        /* \"@openzeppelin/contracts/token/ERC20/ERC20.sol\":7346:7371  Transfer(from, to, value) */\n      0xffffffffffffffffffffffffffffffffffffffff\n      and\n      0xddf252ad1be2c89b69c2b068fc378daa952ba7f163c4a11628f55a4df523b3ef\n        /* \"@openzeppelin/contracts/token/ERC20/ERC20.sol\":7365:7370  value */\n      dup4\n        /* \"@openzeppelin/contracts/token/ERC20/ERC20.sol\":7346:7371  Transfer(from, to, value) */\n      mload(0x40)\n      tag_119\n      swap2\n      swap1\n      tag_26\n      jump\t// in\n    tag_119:\n      mload(0x40)\n      dup1\n      swap2\n      sub\n      swap1\n      log3\n        /* \"@openzeppelin/contracts/token/ERC20/ERC20.sol\":6271:7378  function _update(address from, address to, uint256 value) internal virtual {... */\n      pop\n      pop\n      pop\n      jump\t// out\n        /* \"#utility.yul\":7:106   */\n    tag_120:\n        /* \"#utility.yul\":59:65   */\n      0x00\n        /* \"#utility.yul\":93:98   */\n      dup2\n        /* \"#utility.yul\":87:99   */\n      mload\n        /* \"#utility.yul\":77:99   */\n      swap1\n      pop\n        /* \"#utility.yul\":7:106   */\n      swap2\n      swap1\n      pop\n      jump\t// out\n        /* \"#utility.yul\":112:281   */\n    tag_121:\n        /* \"#utility.yul\":196:207   */\n      0x00\n        /* \"#utility.yul\":230:236   */\n      dup3\n        /* \"#utility.yul\":225:228   */\n      dup3\n        /* \"#utility.yul\":218:237   */\n      mstore\n        /* \"#utility.yul\":270:274   */\n      0x20\n        /* \"#utility.yul\":265:268   */\n      dup3\n        /* \"#utility.yul\":261:275   */\n      add\n        /* \"#utility.yul\":246:275   */\n      swap1\n      pop\n        /* \"#utility.yul\":112:281   */\n      swap3\n      swap2\n      pop\n      pop\n      jump\t// out\n        /* \"#utility.yul\":287:426   */\n    tag_122:\n        /* \"#utility.yul\":376:382   */\n      dup3\n        /* \"#utility.yul\":371:374   */\n      dup2\n        /* \"#utility.yul\":366:369   */\n      dup4\n        /* \"#utility.yul\":360:383   */\n      mcopy\n        /* \"#utility.yul\":417:418   */\n      0x00\n        /* \"#utility.yul\":408:414   */\n      dup4\n        /* \"#utility.yul\":403:406   */\n      dup4\n        /* \"#utility.yul\":399:415   */\n      add\n        /* \"#utility.yul\":392:419   */\n      mstore\n        /* \"#utility.yul\":287:426   */\n      pop\n      pop\n      pop\n      jump\t// out\n        /* \"#utility.yul\":432:534   */\n    tag_123:\n        /* \"#utility.yul\":473:479   */\n      0x00\n        /* \"#utility.yul\":524:526   */\n      0x1f\n        /* \"#utility.yul\":520:527   */\n      not\n        /* \"#utility.yul\":515:517   */\n      0x1f\n        /* \"#utility.yul\":508:513   */\n      dup4\n        /* \"#utility.yul\":504:518   */\n      add\n        /* \"#utility.yul\":500:528   */\n      and\n        /* \"#utility.yul\":490:528   */\n      swap1\n      pop\n        /* \"#utility.yul\":432:534   */\n      swap2\n      swap1\n      pop\n      jump\t// out\n        /* \"#utility.yul\":540:917   */\n    tag_124:\n        /* \"#utility.yul\":628:631   */\n      0x00\n        /* \"#utility.yul\":656:695   */\n      tag_149\n        /* \"#utility.yul\":689:694   */\n      dup3\n        /* \"#utility.yul\":656:695   */\n      tag_120\n      jump\t// in\n    tag_149:\n        /* \"#utility.yul\":711:782   */\n      tag_150\n        /* \"#utility.yul\":775:781   */\n      dup2\n        /* \"#utility.yul\":770:773   */\n      dup6\n        /* \"#utility.yul\":711:782   */\n      tag_121\n      jump\t// in\n    tag_150:\n        /* \"#utility.yul\":704:782   */\n      swap4\n      pop\n        /* \"#utility.yul\":791:856   */\n      tag_151\n        /* \"#utility.yul\":849:855   */\n      dup2\n        /* \"#utility.yul\":844:847   */\n      dup6\n        /* \"#utility.yul\":837:841   */\n      0x20\n        /* \"#utility.yul\":830:835   */\n      dup7\n        /* \"#utility.yul\":826:842   */\n      add\n        /* \"#utility.yul\":791:856   */\n      tag_122\n      jump\t// in\n    tag_151:\n        /* \"#utility.yul\":881:910   */\n      tag_152\n        /* \"#utility.yul\":903:909   */\n      dup2\n        /* \"#utility.yul\":881:910   */\n      tag_123\n      jump\t// in\n    tag_152:\n        /* \"#utility.yul\":876:879   */\n      dup5\n        /* \"#utility.yul\":872:911   */\n      add\n        /* \"#utility.yul\":865:911   */\n      swap2\n      pop\n        /* \"#utility.yul\":632:917   */\n      pop\n        /* \"#utility.yul\":540:917   */\n      swap3\n      swap2\n      pop\n      pop\n      jump\t// out\n        /* \"#utility.yul\":923:1236   */\n    tag_16:\n        /* \"#utility.yul\":1036:1040   */\n      0x00\n        /* \"#utility.yul\":1074:1076   */\n      0x20\n        /* \"#utility.yul\":1063:1072   */\n      dup3\n        /* \"#utility.yul\":1059:1077   */\n      add\n        /* \"#utility.yul\":1051:1077   */\n      swap1\n      pop\n        /* \"#utility.yul\":1123:1132   */\n      dup2\n        /* \"#utility.yul\":1117:1121   */\n      dup2\n        /* \"#utility.yul\":1113:1133   */\n      sub\n        /* \"#utility.yul\":1109:1110   */\n      0x00\n        /* \"#utility.yul\":1098:1107   */\n      dup4\n        /* \"#utility.yul\":1094:1111   */\n      add\n        /* \"#utility.yul\":1087:1134   */\n      mstore\n        /* \"#utility.yul\":1151:1229   */\n      tag_154\n        /* \"#utility.yul\":1224:1228   */\n      dup2\n        /* \"#utility.yul\":1215:1221   */\n      dup5\n        /* \"#utility.yul\":1151:1229   */\n      tag_124\n      jump\t// in\n    tag_154:\n        /* \"#utility.yul\":1143:1229   */\n      swap1\n      pop\n        /* \"#utility.yul\":923:1236   */\n      swap3\n      swap2\n      pop\n      pop\n      jump\t// out\n        /* \"#utility.yul\":1323:1440   */\n    tag_126:\n        /* \"#utility.yul\":1432:1433   */\n      0x00\n        /* \"#utility.yul\":1429:1430   */\n      dup1\n        /* \"#utility.yul\":1422:1434   */\n      revert\n        /* \"#utility.yul\":1569:1695   */\n    tag_128:\n        /* \"#utility.yul\":1606:1613   */\n      0x00\n        /* \"#utility.yul\":1646:1688   */\n      0xffffffffffffffffffffffffffffffffffffffff\n        /* \"#utility.yul\":1639:1644   */\n      dup3\n        /* \"#utility.yul\":1635:1689   */\n      and\n        /* \"#utility.yul\":1624:1689   */\n      swap1\n      pop\n        /* \"#utility.yul\":1569:1695   */\n      swap2\n      swap1\n      pop\n      jump\t// out\n        /* \"#utility.yul\":1701:1797   */\n    tag_129:\n        /* \"#utility.yul\":1738:1745   */\n      0x00\n        /* \"#utility.yul\":1767:1791   */\n      tag_160\n        /* \"#utility.yul\":1785:1790   */\n      dup3\n        /* \"#utility.yul\":1767:1791   */\n      tag_128\n      jump\t// in\n    tag_160:\n        /* \"#utility.yul\":1756:1791   */\n      swap1\n      pop\n        /* \"#utility.yul\":1701:1797   */\n      swap2\n      swap1\n      pop\n      jump\t// out\n        /* \"#utility.yul\":1803:1925   */\n    tag_130:\n        /* \"#utility.yul\":1876:1900   */\n      tag_162\n        /* \"#utility.yul\":1894:1899   */\n      dup2\n        /* \"#utility.yul\":1876:1900   */\n      tag_129\n      jump\t// in\n    tag_162:\n        /* \"#utility.yul\":1869:1874   */\n      dup2\n        /* \"#utility.yul\":1866:1901   */\n      eq\n        /* \"#utility.yul\":1856:1919   */\n      tag_163\n      jumpi\n        /* \"#utility.yul\":1915:1916   */\n      0x00\n        /* \"#utility.yul\":1912:1913   */\n      dup1\n        /* \"#utility.yul\":1905:1917   */\n      revert\n        /* \"#utility.yul\":1856:1919   */\n    tag_163:\n        /* \"#utility.yul\":1803:1925   */\n      pop\n      jump\t// out\n        /* \"#utility.yul\":1931:2070   */\n    tag_131:\n        /* \"#utility.yul\":1977:1982   */\n      0x00\n        /* \"#utility.yul\":2015:2021   */\n      dup2\n        /* \"#utility.yul\":2002:2022   */\n      calldataload\n        /* \"#utility.yul\":1993:2022   */\n      swap1\n      pop\n        /* \"#utility.yul\":2031:2064   */\n      tag_165\n        /* \"#utility.yul\":2058:2063   */\n      dup2\n        /* \"#utility.yul\":2031:2064   */\n      tag_130\n      jump\t// in\n    tag_165:\n        /* \"#utility.yul\":1931:2070   */\n      swap3\n      swap2\n      pop\n      pop\n      jump\t// out\n        /* \"#utility.yul\":2076:2153   */\n    tag_132:\n        /* \"#utility.yul\":2113:2120   */\n      0x00\n        /* \"#utility.yul\":2142:2147   */\n      dup2\n        /* \"#utility.yul\":2131:2147   */\n      swap1\n      pop\n        /* \"#utility.yul\":2076:2153   */\n      swap2\n      swap1\n      pop\n      jump\t// out\n        /* \"#utility.yul\":2159:2281   */\n    tag_133:\n        /* \"#utility.yul\":2232:2256   */\n      tag_168\n        /* \"#utility.yul\":2250:2255   */\n      dup2\n        /* \"#utility.yul\":2232:2256   */\n      tag_132\n      jump\t// in\n    tag_168:\n        /* \"#utility.yul\":2225:2230   */\n      dup2\n        /* \"#utility.yul\":2222:2257   */\n      eq\n        /* \"#utility.yul\":2212:2275   */\n      tag_169\n      jumpi\n        /* \"#utility.yul\":2271:2272   */\n      0x00\n        /* \"#utility.yul\":2268:2269   */\n      dup1\n        /* \"#utility.yul\":2261:2273   */\n      revert\n        /* \"#utility.yul\":2212:2275   */\n    tag_169:\n        /* \"#utility.yul\":2159:2281   */\n      pop\n      jump\t// out\n        /* \"#utility.yul\":2287:2426   */\n    tag_134:\n        /* \"#utility.yul\":2333:2338   */\n      0x00\n        /* \"#utility.yul\":2371:2377   */\n      dup2\n        /* \"#utility.yul\":2358:2378   */\n      calldataload\n        /* \"#utility.yul\":2349:2378   */\n      swap1\n      pop\n        /* \"#utility.yul\":2387:2420   */\n      tag_171\n        /* \"#utility.yul\":2414:2419   */\n      dup2\n        /* \"#utility.yul\":2387:2420   */\n      tag_133\n      jump\t// in\n    tag_171:\n        /* \"#utility.yul\":2287:2426   */\n      swap3\n      swap2\n      pop\n      pop\n      jump\t// out\n        /* \"#utility.yul\":2432:2906   */\n    tag_19:\n        /* \"#utility.yul\":2500:2506   */\n      0x00\n        /* \"#utility.yul\":2508:2514   */\n      dup1\n        /* \"#utility.yul\":2557:2559   */\n      0x40\n        /* \"#utility.yul\":2545:2554   */\n      dup4\n        /* \"#utility.yul\":2536:2543   */\n      dup6\n        /* \"#utility.yul\":2532:2555   */\n      sub\n        /* \"#utility.yul\":2528:2560   */\n      slt\n        /* \"#utility.yul\":2525:2644   */\n      iszero\n      tag_173\n      jumpi\n        /* \"#utility.yul\":2563:2642   */\n      tag_174\n      tag_126\n      jump\t// in\n    tag_174:\n        /* \"#utility.yul\":2525:2644   */\n    tag_173:\n        /* \"#utility.yul\":2683:2684   */\n      0x00\n        /* \"#utility.yul\":2708:2761   */\n      tag_175\n        /* \"#utility.yul\":2753:2760   */\n      dup6\n        /* \"#utility.yul\":2744:2750   */\n      dup3\n        /* \"#utility.yul\":2733:2742   */\n      dup7\n        /* \"#utility.yul\":2729:2751   */\n      add\n        /* \"#utility.yul\":2708:2761   */\n      tag_131\n      jump\t// in\n    tag_175:\n        /* \"#utility.yul\":2698:2761   */\n      swap3\n      pop\n        /* \"#utility.yul\":2654:2771   */\n      pop\n        /* \"#utility.yul\":2810:2812   */\n      0x20\n        /* \"#utility.yul\":2836:2889   */\n      tag_176\n        /* \"#utility.yul\":2881:2888   */\n      dup6\n        /* \"#utility.yul\":2872:2878   */\n      dup3\n        /* \"#utility.yul\":2861:2870   */\n      dup7\n        /* \"#utility.yul\":2857:2879   */\n      add\n        /* \"#utility.yul\":2836:2889   */\n      tag_134\n      jump\t// in\n    tag_176:\n        /* \"#utility.yul\":2826:2889   */\n      swap2\n      pop\n        /* \"#utility.yul\":2781:2899   */\n      pop\n        /* \"#utility.yul\":2432:2906   */\n      swap3\n      pop\n      swap3\n      swap1\n      pop\n      jump\t// out\n        /* \"#utility.yul\":2912:3002   */\n    tag_135:\n        /* \"#utility.yul\":2946:2953   */\n      0x00\n        /* \"#utility.yul\":2989:2994   */\n      dup2\n        /* \"#utility.yul\":2982:2995   */\n      iszero\n        /* \"#utility.yul\":2975:2996   */\n      iszero\n        /* \"#utility.yul\":2964:2996   */\n      swap1\n      pop\n        /* \"#utility.yul\":2912:3002   */\n      swap2\n      swap1\n      pop\n      jump\t// out\n        /* \"#utility.yul\":3008:3117   */\n    tag_136:\n        /* \"#utility.yul\":3089:3110   */\n      tag_179\n        /* \"#utility.yul\":3104:3109   */\n      dup2\n        /* \"#utility.yul\":3089:3110   */\n      tag_135\n      jump\t// in\n    tag_179:\n        /* \"#utility.yul\":3084:3087   */\n      dup3\n        /* \"#utility.yul\":3077:3111   */\n      mstore\n        /* \"#utility.yul\":3008:3117   */\n      pop\n      pop\n      jump\t// out\n        /* \"#utility.yul\":3123:3333   */\n    tag_22:\n        /* \"#utility.yul\":3210:3214   */\n      0x00\n        /* \"#utility.yul\":3248:3250   */\n      0x20\n        /* \"#utility.yul\":3237:3246   */\n      dup3\n        /* \"#utility.yul\":3233:3251   */\n      add\n        /* \"#utility.yul\":3225:3251   */\n      swap1\n      pop\n        /* \"#utility.yul\":3261:3326   */\n      tag_181\n        /* \"#utility.yul\":3323:3324   */\n      0x00\n        /* \"#utility.yul\":3312:3321   */\n      dup4\n        /* \"#utility.yul\":3308:3325   */\n      add\n        /* \"#utility.yul\":3299:3305   */\n      dup5\n        /* \"#utility.yul\":3261:3326   */\n      tag_136\n      jump\t// in\n    tag_181:\n        /* \"#utility.yul\":3123:3333   */\n      swap3\n      swap2\n      pop\n      pop\n      jump\t// out\n        /* \"#utility.yul\":3339:3457   */\n    tag_137:\n        /* \"#utility.yul\":3426:3450   */\n      tag_183\n        /* \"#utility.yul\":3444:3449   */\n      dup2\n        /* \"#utility.yul\":3426:3450   */\n      tag_132\n      jump\t// in\n    tag_183:\n        /* \"#utility.yul\":3421:3424   */\n      dup3\n        /* \"#utility.yul\":3414:3451   */\n      mstore\n        /* \"#utility.yul\":3339:3457   */\n      pop\n      pop\n      jump\t// out\n        /* \"#utility.yul\":3463:3685   */\n    tag_26:\n        /* \"#utility.yul\":3556:3560   */\n      0x00\n        /* \"#utility.yul\":3594:3596   */\n      0x20\n        /* \"#utility.yul\":3583:3592   */\n      dup3\n        /* \"#utility.yul\":3579:3597   */\n      add\n        /* \"#utility.yul\":3571:3597   */\n      swap1\n      pop\n        /* \"#utility.yul\":3607:3678   */\n      tag_185\n        /* \"#utility.yul\":3675:3676   */\n      0x00\n        /* \"#utility.yul\":3664:3673   */\n      dup4\n        /* \"#utility.yul\":3660:3677   */\n      add\n        /* \"#utility.yul\":3651:3657   */\n      dup5\n        /* \"#utility.yul\":3607:3678   */\n      tag_137\n      jump\t// in\n    tag_185:\n        /* \"#utility.yul\":3463:3685   */\n      swap3\n      swap2\n      pop\n      pop\n      jump\t// out\n        /* \"#utility.yul\":3691:4310   */\n    tag_29:\n        /* \"#utility.yul\":3768:3774   */\n      0x00\n        /* \"#utility.yul\":3776:3782   */\n      dup1\n        /* \"#utility.yul\":3784:3790   */\n      0x00\n        /* \"#utility.yul\":3833:3835   */\n      0x60\n        /* \"#utility.yul\":3821:3830   */\n      dup5\n        /* \"#utility.yul\":3812:3819   */\n      dup7\n        /* \"#utility.yul\":3808:3831   */\n      sub\n        /* \"#utility.yul\":3804:3836   */\n      slt\n        /* \"#utility.yul\":3801:3920   */\n      iszero\n      tag_187\n      jumpi\n        /* \"#utility.yul\":3839:3918   */\n      tag_188\n      tag_126\n      jump\t// in\n    tag_188:\n        /* \"#utility.yul\":3801:3920   */\n    tag_187:\n        /* \"#utility.yul\":3959:3960   */\n      0x00\n        /* \"#utility.yul\":3984:4037   */\n      tag_189\n        /* \"#utility.yul\":4029:4036   */\n      dup7\n        /* \"#utility.yul\":4020:4026   */\n      dup3\n        /* \"#utility.yul\":4009:4018   */\n      dup8\n        /* \"#utility.yul\":4005:4027   */\n      add\n        /* \"#utility.yul\":3984:4037   */\n      tag_131\n      jump\t// in\n    tag_189:\n        /* \"#utility.yul\":3974:4037   */\n      swap4\n      pop\n        /* \"#utility.yul\":3930:4047   */\n      pop\n        /* \"#utility.yul\":4086:4088   */\n      0x20\n        /* \"#utility.yul\":4112:4165   */\n      tag_190\n        /* \"#utility.yul\":4157:4164   */\n      dup7\n        /* \"#utility.yul\":4148:4154   */\n      dup3\n        /* \"#utility.yul\":4137:4146   */\n      dup8\n        /* \"#utility.yul\":4133:4155   */\n      add\n        /* \"#utility.yul\":4112:4165   */\n      tag_131\n      jump\t// in\n    tag_190:\n        /* \"#utility.yul\":4102:4165   */\n      swap3\n      pop\n        /* \"#utility.yul\":4057:4175   */\n      pop\n        /* \"#utility.yul\":4214:4216   */\n      0x40\n        /* \"#utility.yul\":4240:4293   */\n      tag_191\n        /* \"#utility.yul\":4285:4292   */\n      dup7\n        /* \"#utility.yul\":4276:4282   */\n      dup3\n        /* \"#utility.yul\":4265:4274   */\n      dup8\n        /* \"#utility.yul\":4261:4283   */\n      add\n        /* \"#utility.yul\":4240:4293   */\n      tag_134\n      jump\t// in\n    tag_191:\n        /* \"#utility.yul\":4230:4293   */\n      swap2\n      pop\n        /* \"#utility.yul\":4185:4303   */\n      pop\n        /* \"#utility.yul\":3691:4310   */\n      swap3\n      pop\n      swap3\n      pop\n      swap3\n      jump\t// out\n        /* \"#utility.yul\":4316:4402   */\n    tag_138:\n        /* \"#utility.yul\":4351:4358   */\n      0x00\n        /* \"#utility.yul\":4391:4395   */\n      0xff\n        /* \"#utility.yul\":4384:4389   */\n      dup3\n        /* \"#utility.yul\":4380:4396   */\n      and\n        /* \"#utility.yul\":4369:4396   */\n      swap1\n      pop\n        /* \"#utility.yul\":4316:4402   */\n      swap2\n      swap1\n      pop\n      jump\t// out\n        /* \"#utility.yul\":4408:4520   */\n    tag_139:\n        /* \"#utility.yul\":4491:4513   */\n      tag_194\n        /* \"#utility.yul\":4507:4512   */\n      dup2\n        /* \"#utility.yul\":4491:4513   */\n      tag_138\n      jump\t// in\n    tag_194:\n        /* \"#utility.yul\":4486:4489   */\n      dup3\n        /* \"#utility.yul\":4479:4514   */\n      mstore\n        /* \"#utility.yul\":4408:4520   */\n      pop\n      pop\n      jump\t// out\n        /* \"#utility.yul\":4526:4740   */\n    tag_35:\n        /* \"#utility.yul\":4615:4619   */\n      0x00\n        /* \"#utility.yul\":4653:4655   */\n      0x20\n        /* \"#utility.yul\":4642:4651   */\n      dup3\n        /* \"#utility.yul\":4638:4656   */\n      add\n        /* \"#utility.yul\":4630:4656   */\n      swap1\n      pop\n        /* \"#utility.yul\":4666:4733   */\n      tag_196\n        /* \"#utility.yul\":4730:4731   */\n      0x00\n        /* \"#utility.yul\":4719:4728   */\n      dup4\n        /* \"#utility.yul\":4715:4732   */\n      add\n        /* \"#utility.yul\":4706:4712   */\n      dup5\n        /* \"#utility.yul\":4666:4733   */\n      tag_139\n      jump\t// in\n    tag_196:\n        /* \"#utility.yul\":4526:4740   */\n      swap3\n      swap2\n      pop\n      pop\n      jump\t// out\n        /* \"#utility.yul\":4746:5075   */\n    tag_38:\n        /* \"#utility.yul\":4805:4811   */\n      0x00\n        /* \"#utility.yul\":4854:4856   */\n      0x20\n        /* \"#utility.yul\":4842:4851   */\n      dup3\n        /* \"#utility.yul\":4833:4840   */\n      dup5\n        /* \"#utility.yul\":4829:4852   */\n      sub\n        /* \"#utility.yul\":4825:4857   */\n      slt\n        /* \"#utility.yul\":4822:4941   */\n      iszero\n      tag_198\n      jumpi\n        /* \"#utility.yul\":4860:4939   */\n      tag_199\n      tag_126\n      jump\t// in\n    tag_199:\n        /* \"#utility.yul\":4822:4941   */\n    tag_198:\n        /* \"#utility.yul\":4980:4981   */\n      0x00\n        /* \"#utility.yul\":5005:5058   */\n      tag_200\n        /* \"#utility.yul\":5050:5057   */\n      dup5\n        /* \"#utility.yul\":5041:5047   */\n      dup3\n        /* \"#utility.yul\":5030:5039   */\n      dup6\n        /* \"#utility.yul\":5026:5048   */\n      add\n        /* \"#utility.yul\":5005:5058   */\n      tag_131\n      jump\t// in\n    tag_200:\n        /* \"#utility.yul\":4995:5058   */\n      swap2\n      pop\n        /* \"#utility.yul\":4951:5068   */\n      pop\n        /* \"#utility.yul\":4746:5075   */\n      swap3\n      swap2\n      pop\n      pop\n      jump\t// out\n        /* \"#utility.yul\":5081:5555   */\n    tag_50:\n        /* \"#utility.yul\":5149:5155   */\n      0x00\n        /* \"#utility.yul\":5157:5163   */\n      dup1\n        /* \"#utility.yul\":5206:5208   */\n      0x40\n        /* \"#utility.yul\":5194:5203   */\n      dup4\n        /* \"#utility.yul\":5185:5192   */\n      dup6\n        /* \"#utility.yul\":5181:5204   */\n      sub\n        /* \"#utility.yul\":5177:5209   */\n      slt\n        /* \"#utility.yul\":5174:5293   */\n      iszero\n      tag_202\n      jumpi\n        /* \"#utility.yul\":5212:5291   */\n      tag_203\n      tag_126\n      jump\t// in\n    tag_203:\n        /* \"#utility.yul\":5174:5293   */\n    tag_202:\n        /* \"#utility.yul\":5332:5333   */\n      0x00\n        /* \"#utility.yul\":5357:5410   */\n      tag_204\n        /* \"#utility.yul\":5402:5409   */\n      dup6\n        /* \"#utility.yul\":5393:5399   */\n      dup3\n        /* \"#utility.yul\":5382:5391   */\n      dup7\n        /* \"#utility.yul\":5378:5400   */\n      add\n        /* \"#utility.yul\":5357:5410   */\n      tag_131\n      jump\t// in\n    tag_204:\n        /* \"#utility.yul\":5347:5410   */\n      swap3\n      pop\n        /* \"#utility.yul\":5303:5420   */\n      pop\n        /* \"#utility.yul\":5459:5461   */\n      0x20\n        /* \"#utility.yul\":5485:5538   */\n      tag_205\n        /* \"#utility.yul\":5530:5537   */\n      dup6\n        /* \"#utility.yul\":5521:5527   */\n      dup3\n        /* \"#utility.yul\":5510:5519   */\n      dup7\n        /* \"#utility.yul\":5506:5528   */\n      add\n        /* \"#utility.yul\":5485:5538   */\n      tag_131\n      jump\t// in\n    tag_205:\n        /* \"#utility.yul\":5475:5538   */\n      swap2\n      pop\n        /* \"#utility.yul\":5430:5548   */\n      pop\n        /* \"#utility.yul\":5081:5555   */\n      swap3\n      pop\n      swap3\n      swap1\n      pop\n      jump\t// out\n        /* \"#utility.yul\":5561:5741   */\n    tag_140:\n        /* \"#utility.yul\":5609:5686   */\n      0x4e487b7100000000000000000000000000000000000000000000000000000000\n        /* \"#utility.yul\":5606:5607   */\n      0x00\n        /* \"#utility.yul\":5599:5687   */\n      mstore\n        /* \"#utility.yul\":5706:5710   */\n      0x22\n        /* \"#utility.yul\":5703:5704   */\n      0x04\n        /* \"#utility.yul\":5696:5711   */\n      mstore\n        /* \"#utility.yul\":5730:5734   */\n      0x24\n        /* \"#utility.yul\":5727:5728   */\n      0x00\n        /* \"#utility.yul\":5720:5735   */\n      revert\n        /* \"#utility.yul\":5747:6067   */\n    tag_55:\n        /* \"#utility.yul\":5791:5797   */\n      0x00\n        /* \"#utility.yul\":5828:5829   */\n      0x02\n        /* \"#utility.yul\":5822:5826   */\n      dup3\n        /* \"#utility.yul\":5818:5830   */\n      div\n        /* \"#utility.yul\":5808:5830   */\n      swap1\n      pop\n        /* \"#utility.yul\":5875:5876   */\n      0x01\n        /* \"#utility.yul\":5869:5873   */\n      dup3\n        /* \"#utility.yul\":5865:5877   */\n      and\n        /* \"#utility.yul\":5896:5914   */\n      dup1\n        /* \"#utility.yul\":5886:5967   */\n      tag_208\n      jumpi\n        /* \"#utility.yul\":5952:5956   */\n      0x7f\n        /* \"#utility.yul\":5944:5950   */\n      dup3\n        /* \"#utility.yul\":5940:5957   */\n      and\n        /* \"#utility.yul\":5930:5957   */\n      swap2\n      pop\n        /* \"#utility.yul\":5886:5967   */\n    tag_208:\n        /* \"#utility.yul\":6014:6016   */\n      0x20\n        /* \"#utility.yul\":6006:6012   */\n      dup3\n        /* \"#utility.yul\":6003:6017   */\n      lt\n        /* \"#utility.yul\":5983:6001   */\n      dup2\n        /* \"#utility.yul\":5980:6018   */\n      sub\n        /* \"#utility.yul\":5977:6061   */\n      tag_209\n      jumpi\n        /* \"#utility.yul\":6033:6051   */\n      tag_210\n      tag_140\n      jump\t// in\n    tag_210:\n        /* \"#utility.yul\":5977:6061   */\n    tag_209:\n        /* \"#utility.yul\":5798:6067   */\n      pop\n        /* \"#utility.yul\":5747:6067   */\n      swap2\n      swap1\n      pop\n      jump\t// out\n        /* \"#utility.yul\":6073:6191   */\n    tag_141:\n        /* \"#utility.yul\":6160:6184   */\n      tag_212\n        /* \"#utility.yul\":6178:6183   */\n      dup2\n        /* \"#utility.yul\":6160:6184   */\n      tag_129\n      jump\t// in\n    tag_212:\n        /* \"#utility.yul\":6155:6158   */\n      dup3\n        /* \"#utility.yul\":6148:6185   */\n      mstore\n        /* \"#utility.yul\":6073:6191   */\n      pop\n      pop\n      jump\t// out\n        /* \"#utility.yul\":6197:6639   */\n    tag_93:\n        /* \"#utility.yul\":6346:6350   */\n      0x00\n        /* \"#utility.yul\":6384:6386   */\n      0x60\n        /* \"#utility.yul\":6373:6382   */\n      dup3\n        /* \"#utility.yul\":6369:6387   */\n      add\n        /* \"#utility.yul\":6361:6387   */\n      swap1\n      pop\n        /* \"#utility.yul\":6397:6468   */\n      tag_214\n        /* \"#utility.yul\":6465:6466   */\n      0x00\n        /* \"#utility.yul\":6454:6463   */\n      dup4\n        /* \"#utility.yul\":6450:6467   */\n      add\n        /* \"#utility.yul\":6441:6447   */\n      dup7\n        /* \"#utility.yul\":6397:6468   */\n      tag_141\n      jump\t// in\n    tag_214:\n        /* \"#utility.yul\":6478:6550   */\n      tag_215\n        /* \"#utility.yul\":6546:6548   */\n      0x20\n        /* \"#utility.yul\":6535:6544   */\n      dup4\n        /* \"#utility.yul\":6531:6549   */\n      add\n        /* \"#utility.yul\":6522:6528   */\n      dup6\n        /* \"#utility.yul\":6478:6550   */\n      tag_137\n      jump\t// in\n    tag_215:\n        /* \"#utility.yul\":6560:6632   */\n      tag_216\n        /* \"#utility.yul\":6628:6630   */\n      0x40\n        /* \"#utility.yul\":6617:6626   */\n      dup4\n        /* \"#utility.yul\":6613:6631   */\n      add\n        /* \"#utility.yul\":6604:6610   */\n      dup5\n        /* \"#utility.yul\":6560:6632   */\n      tag_137\n      jump\t// in\n    tag_216:\n        /* \"#utility.yul\":6197:6639   */\n      swap5\n      swap4\n      pop\n      pop\n      pop\n      pop\n      jump\t// out\n        /* \"#utility.yul\":6645:6867   */\n    tag_98:\n        /* \"#utility.yul\":6738:6742   */\n      0x00\n        /* \"#utility.yul\":6776:6778   */\n      0x20\n        /* \"#utility.yul\":6765:6774   */\n      dup3\n        /* \"#utility.yul\":6761:6779   */\n      add\n        /* \"#utility.yul\":6753:6779   */\n      swap1\n      pop\n        /* \"#utility.yul\":6789:6860   */\n      tag_218\n        /* \"#utility.yul\":6857:6858   */\n      0x00\n        /* \"#utility.yul\":6846:6855   */\n      dup4\n        /* \"#utility.yul\":6842:6859   */\n      add\n        /* \"#utility.yul\":6833:6839   */\n      dup5\n        /* \"#utility.yul\":6789:6860   */\n      tag_141\n      jump\t// in\n    tag_218:\n        /* \"#utility.yul\":6645:6867   */\n      swap3\n      swap2\n      pop\n      pop\n      jump\t// out\n        /* \"#utility.yul\":6873:7053   */\n    tag_142:\n        /* \"#utility.yul\":6921:6998   */\n      0x4e487b7100000000000000000000000000000000000000000000000000000000\n        /* \"#utility.yul\":6918:6919   */\n      0x00\n        /* \"#utility.yul\":6911:6999   */\n      mstore\n        /* \"#utility.yul\":7018:7022   */\n      0x11\n        /* \"#utility.yul\":7015:7016   */\n      0x04\n        /* \"#utility.yul\":7008:7023   */\n      mstore\n        /* \"#utility.yul\":7042:7046   */\n      0x24\n        /* \"#utility.yul\":7039:7040   */\n      0x00\n        /* \"#utility.yul\":7032:7047   */\n      revert\n        /* \"#utility.yul\":7059:7250   */\n    tag_113:\n        /* \"#utility.yul\":7099:7102   */\n      0x00\n        /* \"#utility.yul\":7118:7138   */\n      tag_221\n        /* \"#utility.yul\":7136:7137   */\n      dup3\n        /* \"#utility.yul\":7118:7138   */\n      tag_132\n      jump\t// in\n    tag_221:\n        /* \"#utility.yul\":7113:7138   */\n      swap2\n      pop\n        /* \"#utility.yul\":7152:7172   */\n      tag_222\n        /* \"#utility.yul\":7170:7171   */\n      dup4\n        /* \"#utility.yul\":7152:7172   */\n      tag_132\n      jump\t// in\n    tag_222:\n        /* \"#utility.yul\":7147:7172   */\n      swap3\n      pop\n        /* \"#utility.yul\":7195:7196   */\n      dup3\n        /* \"#utility.yul\":7192:7193   */\n      dup3\n        /* \"#utility.yul\":7188:7197   */\n      add\n        /* \"#utility.yul\":7181:7197   */\n      swap1\n      pop\n        /* \"#utility.yul\":7216:7219   */\n      dup1\n        /* \"#utility.yul\":7213:7214   */\n      dup3\n        /* \"#utility.yul\":7210:7220   */\n      gt\n        /* \"#utility.yul\":7207:7243   */\n      iszero\n      tag_223\n      jumpi\n        /* \"#utility.yul\":7223:7241   */\n      tag_224\n      tag_142\n      jump\t// in\n    tag_224:\n        /* \"#utility.yul\":7207:7243   */\n    tag_223:\n        /* \"#utility.yul\":7059:7250   */\n      swap3\n      swap2\n      pop\n      pop\n      jump\t// out\n\n    auxdata: 0xa2646970667358221220ec6baa39e7bb7a51b0fc5b6a9728ffb32ea9402bd8ce254f1e1d3a54baf210b064736f6c634300081a0033\n}\n",
				"bytecode": {
					"linkReferences": {},
					"object": "608060405234801561000f575f80fd5b506040516118d23803806118d2833981810160405281019061003191906104ba565b828281600390816100429190610746565b5080600490816100529190610746565b50505061008c3361006761009460201b60201c565b60ff16600a6100769190610971565b8361008191906109bb565b61009c60201b60201c565b505050610ae4565b5f6012905090565b5f73ffffffffffffffffffffffffffffffffffffffff168273ffffffffffffffffffffffffffffffffffffffff160361010c575f6040517fec442f050000000000000000000000000000000000000000000000000000000081526004016101039190610a3b565b60405180910390fd5b61011d5f838361012160201b60201c565b5050565b5f73ffffffffffffffffffffffffffffffffffffffff168373ffffffffffffffffffffffffffffffffffffffff1603610171578060025f8282546101659190610a54565b9250508190555061023f565b5f805f8573ffffffffffffffffffffffffffffffffffffffff1673ffffffffffffffffffffffffffffffffffffffff1681526020019081526020015f20549050818110156101fa578381836040517fe450d38c0000000000000000000000000000000000000000000000000000000081526004016101f193929190610a96565b60405180910390fd5b8181035f808673ffffffffffffffffffffffffffffffffffffffff1673ffffffffffffffffffffffffffffffffffffffff1681526020019081526020015f2081905550505b5f73ffffffffffffffffffffffffffffffffffffffff168273ffffffffffffffffffffffffffffffffffffffff1603610286578060025f82825403925050819055506102d0565b805f808473ffffffffffffffffffffffffffffffffffffffff1673ffffffffffffffffffffffffffffffffffffffff1681526020019081526020015f205f82825401925050819055505b8173ffffffffffffffffffffffffffffffffffffffff168373ffffffffffffffffffffffffffffffffffffffff167fddf252ad1be2c89b69c2b068fc378daa952ba7f163c4a11628f55a4df523b3ef8360405161032d9190610acb565b60405180910390a3505050565b5f604051905090565b5f80fd5b5f80fd5b5f80fd5b5f80fd5b5f601f19601f8301169050919050565b7f4e487b71000000000000000000000000000000000000000000000000000000005f52604160045260245ffd5b61039982610353565b810181811067ffffffffffffffff821117156103b8576103b7610363565b5b80604052505050565b5f6103ca61033a565b90506103d68282610390565b919050565b5f67ffffffffffffffff8211156103f5576103f4610363565b5b6103fe82610353565b9050602081019050919050565b8281835e5f83830152505050565b5f61042b610426846103db565b6103c1565b9050828152602081018484840111156104475761044661034f565b5b61045284828561040b565b509392505050565b5f82601f83011261046e5761046d61034b565b5b815161047e848260208601610419565b91505092915050565b5f819050919050565b61049981610487565b81146104a3575f80fd5b50565b5f815190506104b481610490565b92915050565b5f805f606084860312156104d1576104d0610343565b5b5f84015167ffffffffffffffff8111156104ee576104ed610347565b5b6104fa8682870161045a565b935050602084015167ffffffffffffffff81111561051b5761051a610347565b5b6105278682870161045a565b9250506040610538868287016104a6565b9150509250925092565b5f81519050919050565b7f4e487b71000000000000000000000000000000000000000000000000000000005f52602260045260245ffd5b5f600282049050600182168061059057607f821691505b6020821081036105a3576105a261054c565b5b50919050565b5f819050815f5260205f209050919050565b5f6020601f8301049050919050565b5f82821b905092915050565b5f600883026106057fffffffffffffffffffffffffffffffffffffffffffffffffffffffffffffffff826105ca565b61060f86836105ca565b95508019841693508086168417925050509392505050565b5f819050919050565b5f61064a61064561064084610487565b610627565b610487565b9050919050565b5f819050919050565b61066383610630565b61067761066f82610651565b8484546105d6565b825550505050565b5f90565b61068b61067f565b61069681848461065a565b505050565b5b818110156106b9576106ae5f82610683565b60018101905061069c565b5050565b601f8211156106fe576106cf816105a9565b6106d8846105bb565b810160208510156106e7578190505b6106fb6106f3856105bb565b83018261069b565b50505b505050565b5f82821c905092915050565b5f61071e5f1984600802610703565b1980831691505092915050565b5f610736838361070f565b9150826002028217905092915050565b61074f82610542565b67ffffffffffffffff81111561076857610767610363565b5b6107728254610579565b61077d8282856106bd565b5f60209050601f8311600181146107ae575f841561079c578287015190505b6107a6858261072b565b86555061080d565b601f1984166107bc866105a9565b5f5b828110156107e3578489015182556001820191506020850194506020810190506107be565b8683101561080057848901516107fc601f89168261070f565b8355505b6001600288020188555050505b505050505050565b7f4e487b71000000000000000000000000000000000000000000000000000000005f52601160045260245ffd5b5f8160011c9050919050565b5f808291508390505b60018511156108975780860481111561087357610872610815565b5b60018516156108825780820291505b808102905061089085610842565b9450610857565b94509492505050565b5f826108af576001905061096a565b816108bc575f905061096a565b81600181146108d257600281146108dc5761090b565b600191505061096a565b60ff8411156108ee576108ed610815565b5b8360020a91508482111561090557610904610815565b5b5061096a565b5060208310610133831016604e8410600b84101617156109405782820a90508381111561093b5761093a610815565b5b61096a565b61094d848484600161084e565b9250905081840481111561096457610963610815565b5b81810290505b9392505050565b5f61097b82610487565b915061098683610487565b92506109b37fffffffffffffffffffffffffffffffffffffffffffffffffffffffffffffffff84846108a0565b905092915050565b5f6109c582610487565b91506109d083610487565b92508282026109de81610487565b915082820484148315176109f5576109f4610815565b5b5092915050565b5f73ffffffffffffffffffffffffffffffffffffffff82169050919050565b5f610a25826109fc565b9050919050565b610a3581610a1b565b82525050565b5f602082019050610a4e5f830184610a2c565b92915050565b5f610a5e82610487565b9150610a6983610487565b9250828201905080821115610a8157610a80610815565b5b92915050565b610a9081610487565b82525050565b5f606082019050610aa95f830186610a2c565b610ab66020830185610a87565b610ac36040830184610a87565b949350505050565b5f602082019050610ade5f830184610a87565b92915050565b610de180610af15f395ff3fe608060405234801561000f575f80fd5b5060043610610091575f3560e01c8063313ce56711610064578063313ce5671461013157806370a082311461014f57806395d89b411461017f578063a9059cbb1461019d578063dd62ed3e146101cd57610091565b806306fdde0314610095578063095ea7b3146100b357806318160ddd146100e357806323b872dd14610101575b5f80fd5b61009d6101fd565b6040516100aa9190610a5a565b60405180910390f35b6100cd60048036038101906100c89190610b0b565b61028d565b6040516100da9190610b63565b60405180910390f35b6100eb6102af565b6040516100f89190610b8b565b60405180910390f35b61011b60048036038101906101169190610ba4565b6102b8565b6040516101289190610b63565b60405180910390f35b6101396102e6565b6040516101469190610c0f565b60405180910390f35b61016960048036038101906101649190610c28565b6102ee565b6040516101769190610b8b565b60405180910390f35b610187610333565b6040516101949190610a5a565b60405180910390f35b6101b760048036038101906101b29190610b0b565b6103c3565b6040516101c49190610b63565b60405180910390f35b6101e760048036038101906101e29190610c53565b6103e5565b6040516101f49190610b8b565b60405180910390f35b60606003805461020c90610cbe565b80601f016020809104026020016040519081016040528092919081815260200182805461023890610cbe565b80156102835780601f1061025a57610100808354040283529160200191610283565b820191905f5260205f20905b81548152906001019060200180831161026657829003601f168201915b5050505050905090565b5f80610297610467565b90506102a481858561046e565b600191505092915050565b5f600254905090565b5f806102c2610467565b90506102cf858285610480565b6102da858585610512565b60019150509392505050565b5f6012905090565b5f805f8373ffffffffffffffffffffffffffffffffffffffff1673ffffffffffffffffffffffffffffffffffffffff1681526020019081526020015f20549050919050565b60606004805461034290610cbe565b80601f016020809104026020016040519081016040528092919081815260200182805461036e90610cbe565b80156103b95780601f10610390576101008083540402835291602001916103b9565b820191905f5260205f20905b81548152906001019060200180831161039c57829003601f168201915b5050505050905090565b5f806103cd610467565b90506103da818585610512565b600191505092915050565b5f60015f8473ffffffffffffffffffffffffffffffffffffffff1673ffffffffffffffffffffffffffffffffffffffff1681526020019081526020015f205f8373ffffffffffffffffffffffffffffffffffffffff1673ffffffffffffffffffffffffffffffffffffffff1681526020019081526020015f2054905092915050565b5f33905090565b61047b8383836001610602565b505050565b5f61048b84846103e5565b90507fffffffffffffffffffffffffffffffffffffffffffffffffffffffffffffffff811461050c57818110156104fd578281836040517ffb8f41b20000000000000000000000000000000000000000000000000000000081526004016104f493929190610cfd565b60405180910390fd5b61050b84848484035f610602565b5b50505050565b5f73ffffffffffffffffffffffffffffffffffffffff168373ffffffffffffffffffffffffffffffffffffffff1603610582575f6040517f96c6fd1e0000000000000000000000000000000000000000000000000000000081526004016105799190610d32565b60405180910390fd5b5f73ffffffffffffffffffffffffffffffffffffffff168273ffffffffffffffffffffffffffffffffffffffff16036105f2575f6040517fec442f050000000000000000000000000000000000000000000000000000000081526004016105e99190610d32565b60405180910390fd5b6105fd8383836107d1565b505050565b5f73ffffffffffffffffffffffffffffffffffffffff168473ffffffffffffffffffffffffffffffffffffffff1603610672575f6040517fe602df050000000000000000000000000000000000000000000000000000000081526004016106699190610d32565b60405180910390fd5b5f73ffffffffffffffffffffffffffffffffffffffff168373ffffffffffffffffffffffffffffffffffffffff16036106e2575f6040517f94280d620000000000000000000000000000000000000000000000000000000081526004016106d99190610d32565b60405180910390fd5b8160015f8673ffffffffffffffffffffffffffffffffffffffff1673ffffffffffffffffffffffffffffffffffffffff1681526020019081526020015f205f8573ffffffffffffffffffffffffffffffffffffffff1673ffffffffffffffffffffffffffffffffffffffff1681526020019081526020015f208190555080156107cb578273ffffffffffffffffffffffffffffffffffffffff168473ffffffffffffffffffffffffffffffffffffffff167f8c5be1e5ebec7d5bd14f71427d1e84f3dd0314c0f7b2291e5b200ac8c7c3b925846040516107c29190610b8b565b60405180910390a35b50505050565b5f73ffffffffffffffffffffffffffffffffffffffff168373ffffffffffffffffffffffffffffffffffffffff1603610821578060025f8282546108159190610d78565b925050819055506108ef565b5f805f8573ffffffffffffffffffffffffffffffffffffffff1673ffffffffffffffffffffffffffffffffffffffff1681526020019081526020015f20549050818110156108aa578381836040517fe450d38c0000000000000000000000000000000000000000000000000000000081526004016108a193929190610cfd565b60405180910390fd5b8181035f808673ffffffffffffffffffffffffffffffffffffffff1673ffffffffffffffffffffffffffffffffffffffff1681526020019081526020015f2081905550505b5f73ffffffffffffffffffffffffffffffffffffffff168273ffffffffffffffffffffffffffffffffffffffff1603610936578060025f8282540392505081905550610980565b805f808473ffffffffffffffffffffffffffffffffffffffff1673ffffffffffffffffffffffffffffffffffffffff1681526020019081526020015f205f82825401925050819055505b8173ffffffffffffffffffffffffffffffffffffffff168373ffffffffffffffffffffffffffffffffffffffff167fddf252ad1be2c89b69c2b068fc378daa952ba7f163c4a11628f55a4df523b3ef836040516109dd9190610b8b565b60405180910390a3505050565b5f81519050919050565b5f82825260208201905092915050565b8281835e5f83830152505050565b5f601f19601f8301169050919050565b5f610a2c826109ea565b610a3681856109f4565b9350610a46818560208601610a04565b610a4f81610a12565b840191505092915050565b5f6020820190508181035f830152610a728184610a22565b905092915050565b5f80fd5b5f73ffffffffffffffffffffffffffffffffffffffff82169050919050565b5f610aa782610a7e565b9050919050565b610ab781610a9d565b8114610ac1575f80fd5b50565b5f81359050610ad281610aae565b92915050565b5f819050919050565b610aea81610ad8565b8114610af4575f80fd5b50565b5f81359050610b0581610ae1565b92915050565b5f8060408385031215610b2157610b20610a7a565b5b5f610b2e85828601610ac4565b9250506020610b3f85828601610af7565b9150509250929050565b5f8115159050919050565b610b5d81610b49565b82525050565b5f602082019050610b765f830184610b54565b92915050565b610b8581610ad8565b82525050565b5f602082019050610b9e5f830184610b7c565b92915050565b5f805f60608486031215610bbb57610bba610a7a565b5b5f610bc886828701610ac4565b9350506020610bd986828701610ac4565b9250506040610bea86828701610af7565b9150509250925092565b5f60ff82169050919050565b610c0981610bf4565b82525050565b5f602082019050610c225f830184610c00565b92915050565b5f60208284031215610c3d57610c3c610a7a565b5b5f610c4a84828501610ac4565b91505092915050565b5f8060408385031215610c6957610c68610a7a565b5b5f610c7685828601610ac4565b9250506020610c8785828601610ac4565b9150509250929050565b7f4e487b71000000000000000000000000000000000000000000000000000000005f52602260045260245ffd5b5f6002820490506001821680610cd557607f821691505b602082108103610ce857610ce7610c91565b5b50919050565b610cf781610a9d565b82525050565b5f606082019050610d105f830186610cee565b610d1d6020830185610b7c565b610d2a6040830184610b7c565b949350505050565b5f602082019050610d455f830184610cee565b92915050565b7f4e487b71000000000000000000000000000000000000000000000000000000005f52601160045260245ffd5b5f610d8282610ad8565b9150610d8d83610ad8565b9250828201905080821115610da557610da4610d4b565b5b9291505056fea2646970667358221220ec6baa39e7bb7a51b0fc5b6a9728ffb32ea9402bd8ce254f1e1d3a54baf210b064736f6c634300081a0033",
					"opcodes": "PUSH1 0x80 PUSH1 0x40 MSTORE CALLVALUE DUP1 ISZERO PUSH2 0xF JUMPI PUSH0 DUP1 REVERT JUMPDEST POP PUSH1 0x40 MLOAD PUSH2 0x18D2 CODESIZE SUB DUP1 PUSH2 0x18D2 DUP4 CODECOPY DUP2 DUP2 ADD PUSH1 0x40 MSTORE DUP2 ADD SWAP1 PUSH2 0x31 SWAP2 SWAP1 PUSH2 0x4BA JUMP JUMPDEST DUP3 DUP3 DUP2 PUSH1 0x3 SWAP1 DUP2 PUSH2 0x42 SWAP2 SWAP1 PUSH2 0x746 JUMP JUMPDEST POP DUP1 PUSH1 0x4 SWAP1 DUP2 PUSH2 0x52 SWAP2 SWAP1 PUSH2 0x746 JUMP JUMPDEST POP POP POP PUSH2 0x8C CALLER PUSH2 0x67 PUSH2 0x94 PUSH1 0x20 SHL PUSH1 0x20 SHR JUMP JUMPDEST PUSH1 0xFF AND PUSH1 0xA PUSH2 0x76 SWAP2 SWAP1 PUSH2 0x971 JUMP JUMPDEST DUP4 PUSH2 0x81 SWAP2 SWAP1 PUSH2 0x9BB JUMP JUMPDEST PUSH2 0x9C PUSH1 0x20 SHL PUSH1 0x20 SHR JUMP JUMPDEST POP POP POP PUSH2 0xAE4 JUMP JUMPDEST PUSH0 PUSH1 0x12 SWAP1 POP SWAP1 JUMP JUMPDEST PUSH0 PUSH20 0xFFFFFFFFFFFFFFFFFFFFFFFFFFFFFFFFFFFFFFFF AND DUP3 PUSH20 0xFFFFFFFFFFFFFFFFFFFFFFFFFFFFFFFFFFFFFFFF AND SUB PUSH2 0x10C JUMPI PUSH0 PUSH1 0x40 MLOAD PUSH32 0xEC442F0500000000000000000000000000000000000000000000000000000000 DUP2 MSTORE PUSH1 0x4 ADD PUSH2 0x103 SWAP2 SWAP1 PUSH2 0xA3B JUMP JUMPDEST PUSH1 0x40 MLOAD DUP1 SWAP2 SUB SWAP1 REVERT JUMPDEST PUSH2 0x11D PUSH0 DUP4 DUP4 PUSH2 0x121 PUSH1 0x20 SHL PUSH1 0x20 SHR JUMP JUMPDEST POP POP JUMP JUMPDEST PUSH0 PUSH20 0xFFFFFFFFFFFFFFFFFFFFFFFFFFFFFFFFFFFFFFFF AND DUP4 PUSH20 0xFFFFFFFFFFFFFFFFFFFFFFFFFFFFFFFFFFFFFFFF AND SUB PUSH2 0x171 JUMPI DUP1 PUSH1 0x2 PUSH0 DUP3 DUP3 SLOAD PUSH2 0x165 SWAP2 SWAP1 PUSH2 0xA54 JUMP JUMPDEST SWAP3 POP POP DUP2 SWAP1 SSTORE POP PUSH2 0x23F JUMP JUMPDEST PUSH0 DUP1 PUSH0 DUP6 PUSH20 0xFFFFFFFFFFFFFFFFFFFFFFFFFFFFFFFFFFFFFFFF AND PUSH20 0xFFFFFFFFFFFFFFFFFFFFFFFFFFFFFFFFFFFFFFFF AND DUP2 MSTORE PUSH1 0x20 ADD SWAP1 DUP2 MSTORE PUSH1 0x20 ADD PUSH0 KECCAK256 SLOAD SWAP1 POP DUP2 DUP2 LT ISZERO PUSH2 0x1FA JUMPI DUP4 DUP2 DUP4 PUSH1 0x40 MLOAD PUSH32 0xE450D38C00000000000000000000000000000000000000000000000000000000 DUP2 MSTORE PUSH1 0x4 ADD PUSH2 0x1F1 SWAP4 SWAP3 SWAP2 SWAP1 PUSH2 0xA96 JUMP JUMPDEST PUSH1 0x40 MLOAD DUP1 SWAP2 SUB SWAP1 REVERT JUMPDEST DUP2 DUP2 SUB PUSH0 DUP1 DUP7 PUSH20 0xFFFFFFFFFFFFFFFFFFFFFFFFFFFFFFFFFFFFFFFF AND PUSH20 0xFFFFFFFFFFFFFFFFFFFFFFFFFFFFFFFFFFFFFFFF AND DUP2 MSTORE PUSH1 0x20 ADD SWAP1 DUP2 MSTORE PUSH1 0x20 ADD PUSH0 KECCAK256 DUP2 SWAP1 SSTORE POP POP JUMPDEST PUSH0 PUSH20 0xFFFFFFFFFFFFFFFFFFFFFFFFFFFFFFFFFFFFFFFF AND DUP3 PUSH20 0xFFFFFFFFFFFFFFFFFFFFFFFFFFFFFFFFFFFFFFFF AND SUB PUSH2 0x286 JUMPI DUP1 PUSH1 0x2 PUSH0 DUP3 DUP3 SLOAD SUB SWAP3 POP POP DUP2 SWAP1 SSTORE POP PUSH2 0x2D0 JUMP JUMPDEST DUP1 PUSH0 DUP1 DUP5 PUSH20 0xFFFFFFFFFFFFFFFFFFFFFFFFFFFFFFFFFFFFFFFF AND PUSH20 0xFFFFFFFFFFFFFFFFFFFFFFFFFFFFFFFFFFFFFFFF AND DUP2 MSTORE PUSH1 0x20 ADD SWAP1 DUP2 MSTORE PUSH1 0x20 ADD PUSH0 KECCAK256 PUSH0 DUP3 DUP3 SLOAD ADD SWAP3 POP POP DUP2 SWAP1 SSTORE POP JUMPDEST DUP2 PUSH20 0xFFFFFFFFFFFFFFFFFFFFFFFFFFFFFFFFFFFFFFFF AND DUP4 PUSH20 0xFFFFFFFFFFFFFFFFFFFFFFFFFFFFFFFFFFFFFFFF AND PUSH32 0xDDF252AD1BE2C89B69C2B068FC378DAA952BA7F163C4A11628F55A4DF523B3EF DUP4 PUSH1 0x40 MLOAD PUSH2 0x32D SWAP2 SWAP1 PUSH2 0xACB JUMP JUMPDEST PUSH1 0x40 MLOAD DUP1 SWAP2 SUB SWAP1 LOG3 POP POP POP JUMP JUMPDEST PUSH0 PUSH1 0x40 MLOAD SWAP1 POP SWAP1 JUMP JUMPDEST PUSH0 DUP1 REVERT JUMPDEST PUSH0 DUP1 REVERT JUMPDEST PUSH0 DUP1 REVERT JUMPDEST PUSH0 DUP1 REVERT JUMPDEST PUSH0 PUSH1 0x1F NOT PUSH1 0x1F DUP4 ADD AND SWAP1 POP SWAP2 SWAP1 POP JUMP JUMPDEST PUSH32 0x4E487B7100000000000000000000000000000000000000000000000000000000 PUSH0 MSTORE PUSH1 0x41 PUSH1 0x4 MSTORE PUSH1 0x24 PUSH0 REVERT JUMPDEST PUSH2 0x399 DUP3 PUSH2 0x353 JUMP JUMPDEST DUP2 ADD DUP2 DUP2 LT PUSH8 0xFFFFFFFFFFFFFFFF DUP3 GT OR ISZERO PUSH2 0x3B8 JUMPI PUSH2 0x3B7 PUSH2 0x363 JUMP JUMPDEST JUMPDEST DUP1 PUSH1 0x40 MSTORE POP POP POP JUMP JUMPDEST PUSH0 PUSH2 0x3CA PUSH2 0x33A JUMP JUMPDEST SWAP1 POP PUSH2 0x3D6 DUP3 DUP3 PUSH2 0x390 JUMP JUMPDEST SWAP2 SWAP1 POP JUMP JUMPDEST PUSH0 PUSH8 0xFFFFFFFFFFFFFFFF DUP3 GT ISZERO PUSH2 0x3F5 JUMPI PUSH2 0x3F4 PUSH2 0x363 JUMP JUMPDEST JUMPDEST PUSH2 0x3FE DUP3 PUSH2 0x353 JUMP JUMPDEST SWAP1 POP PUSH1 0x20 DUP2 ADD SWAP1 POP SWAP2 SWAP1 POP JUMP JUMPDEST DUP3 DUP2 DUP4 MCOPY PUSH0 DUP4 DUP4 ADD MSTORE POP POP POP JUMP JUMPDEST PUSH0 PUSH2 0x42B PUSH2 0x426 DUP5 PUSH2 0x3DB JUMP JUMPDEST PUSH2 0x3C1 JUMP JUMPDEST SWAP1 POP DUP3 DUP2 MSTORE PUSH1 0x20 DUP2 ADD DUP5 DUP5 DUP5 ADD GT ISZERO PUSH2 0x447 JUMPI PUSH2 0x446 PUSH2 0x34F JUMP JUMPDEST JUMPDEST PUSH2 0x452 DUP5 DUP3 DUP6 PUSH2 0x40B JUMP JUMPDEST POP SWAP4 SWAP3 POP POP POP JUMP JUMPDEST PUSH0 DUP3 PUSH1 0x1F DUP4 ADD SLT PUSH2 0x46E JUMPI PUSH2 0x46D PUSH2 0x34B JUMP JUMPDEST JUMPDEST DUP2 MLOAD PUSH2 0x47E DUP5 DUP3 PUSH1 0x20 DUP7 ADD PUSH2 0x419 JUMP JUMPDEST SWAP2 POP POP SWAP3 SWAP2 POP POP JUMP JUMPDEST PUSH0 DUP2 SWAP1 POP SWAP2 SWAP1 POP JUMP JUMPDEST PUSH2 0x499 DUP2 PUSH2 0x487 JUMP JUMPDEST DUP2 EQ PUSH2 0x4A3 JUMPI PUSH0 DUP1 REVERT JUMPDEST POP JUMP JUMPDEST PUSH0 DUP2 MLOAD SWAP1 POP PUSH2 0x4B4 DUP2 PUSH2 0x490 JUMP JUMPDEST SWAP3 SWAP2 POP POP JUMP JUMPDEST PUSH0 DUP1 PUSH0 PUSH1 0x60 DUP5 DUP7 SUB SLT ISZERO PUSH2 0x4D1 JUMPI PUSH2 0x4D0 PUSH2 0x343 JUMP JUMPDEST JUMPDEST PUSH0 DUP5 ADD MLOAD PUSH8 0xFFFFFFFFFFFFFFFF DUP2 GT ISZERO PUSH2 0x4EE JUMPI PUSH2 0x4ED PUSH2 0x347 JUMP JUMPDEST JUMPDEST PUSH2 0x4FA DUP7 DUP3 DUP8 ADD PUSH2 0x45A JUMP JUMPDEST SWAP4 POP POP PUSH1 0x20 DUP5 ADD MLOAD PUSH8 0xFFFFFFFFFFFFFFFF DUP2 GT ISZERO PUSH2 0x51B JUMPI PUSH2 0x51A PUSH2 0x347 JUMP JUMPDEST JUMPDEST PUSH2 0x527 DUP7 DUP3 DUP8 ADD PUSH2 0x45A JUMP JUMPDEST SWAP3 POP POP PUSH1 0x40 PUSH2 0x538 DUP7 DUP3 DUP8 ADD PUSH2 0x4A6 JUMP JUMPDEST SWAP2 POP POP SWAP3 POP SWAP3 POP SWAP3 JUMP JUMPDEST PUSH0 DUP2 MLOAD SWAP1 POP SWAP2 SWAP1 POP JUMP JUMPDEST PUSH32 0x4E487B7100000000000000000000000000000000000000000000000000000000 PUSH0 MSTORE PUSH1 0x22 PUSH1 0x4 MSTORE PUSH1 0x24 PUSH0 REVERT JUMPDEST PUSH0 PUSH1 0x2 DUP3 DIV SWAP1 POP PUSH1 0x1 DUP3 AND DUP1 PUSH2 0x590 JUMPI PUSH1 0x7F DUP3 AND SWAP2 POP JUMPDEST PUSH1 0x20 DUP3 LT DUP2 SUB PUSH2 0x5A3 JUMPI PUSH2 0x5A2 PUSH2 0x54C JUMP JUMPDEST JUMPDEST POP SWAP2 SWAP1 POP JUMP JUMPDEST PUSH0 DUP2 SWAP1 POP DUP2 PUSH0 MSTORE PUSH1 0x20 PUSH0 KECCAK256 SWAP1 POP SWAP2 SWAP1 POP JUMP JUMPDEST PUSH0 PUSH1 0x20 PUSH1 0x1F DUP4 ADD DIV SWAP1 POP SWAP2 SWAP1 POP JUMP JUMPDEST PUSH0 DUP3 DUP3 SHL SWAP1 POP SWAP3 SWAP2 POP POP JUMP JUMPDEST PUSH0 PUSH1 0x8 DUP4 MUL PUSH2 0x605 PUSH32 0xFFFFFFFFFFFFFFFFFFFFFFFFFFFFFFFFFFFFFFFFFFFFFFFFFFFFFFFFFFFFFFFF DUP3 PUSH2 0x5CA JUMP JUMPDEST PUSH2 0x60F DUP7 DUP4 PUSH2 0x5CA JUMP JUMPDEST SWAP6 POP DUP1 NOT DUP5 AND SWAP4 POP DUP1 DUP7 AND DUP5 OR SWAP3 POP POP POP SWAP4 SWAP3 POP POP POP JUMP JUMPDEST PUSH0 DUP2 SWAP1 POP SWAP2 SWAP1 POP JUMP JUMPDEST PUSH0 PUSH2 0x64A PUSH2 0x645 PUSH2 0x640 DUP5 PUSH2 0x487 JUMP JUMPDEST PUSH2 0x627 JUMP JUMPDEST PUSH2 0x487 JUMP JUMPDEST SWAP1 POP SWAP2 SWAP1 POP JUMP JUMPDEST PUSH0 DUP2 SWAP1 POP SWAP2 SWAP1 POP JUMP JUMPDEST PUSH2 0x663 DUP4 PUSH2 0x630 JUMP JUMPDEST PUSH2 0x677 PUSH2 0x66F DUP3 PUSH2 0x651 JUMP JUMPDEST DUP5 DUP5 SLOAD PUSH2 0x5D6 JUMP JUMPDEST DUP3 SSTORE POP POP POP POP JUMP JUMPDEST PUSH0 SWAP1 JUMP JUMPDEST PUSH2 0x68B PUSH2 0x67F JUMP JUMPDEST PUSH2 0x696 DUP2 DUP5 DUP5 PUSH2 0x65A JUMP JUMPDEST POP POP POP JUMP JUMPDEST JUMPDEST DUP2 DUP2 LT ISZERO PUSH2 0x6B9 JUMPI PUSH2 0x6AE PUSH0 DUP3 PUSH2 0x683 JUMP JUMPDEST PUSH1 0x1 DUP2 ADD SWAP1 POP PUSH2 0x69C JUMP JUMPDEST POP POP JUMP JUMPDEST PUSH1 0x1F DUP3 GT ISZERO PUSH2 0x6FE JUMPI PUSH2 0x6CF DUP2 PUSH2 0x5A9 JUMP JUMPDEST PUSH2 0x6D8 DUP5 PUSH2 0x5BB JUMP JUMPDEST DUP2 ADD PUSH1 0x20 DUP6 LT ISZERO PUSH2 0x6E7 JUMPI DUP2 SWAP1 POP JUMPDEST PUSH2 0x6FB PUSH2 0x6F3 DUP6 PUSH2 0x5BB JUMP JUMPDEST DUP4 ADD DUP3 PUSH2 0x69B JUMP JUMPDEST POP POP JUMPDEST POP POP POP JUMP JUMPDEST PUSH0 DUP3 DUP3 SHR SWAP1 POP SWAP3 SWAP2 POP POP JUMP JUMPDEST PUSH0 PUSH2 0x71E PUSH0 NOT DUP5 PUSH1 0x8 MUL PUSH2 0x703 JUMP JUMPDEST NOT DUP1 DUP4 AND SWAP2 POP POP SWAP3 SWAP2 POP POP JUMP JUMPDEST PUSH0 PUSH2 0x736 DUP4 DUP4 PUSH2 0x70F JUMP JUMPDEST SWAP2 POP DUP3 PUSH1 0x2 MUL DUP3 OR SWAP1 POP SWAP3 SWAP2 POP POP JUMP JUMPDEST PUSH2 0x74F DUP3 PUSH2 0x542 JUMP JUMPDEST PUSH8 0xFFFFFFFFFFFFFFFF DUP2 GT ISZERO PUSH2 0x768 JUMPI PUSH2 0x767 PUSH2 0x363 JUMP JUMPDEST JUMPDEST PUSH2 0x772 DUP3 SLOAD PUSH2 0x579 JUMP JUMPDEST PUSH2 0x77D DUP3 DUP3 DUP6 PUSH2 0x6BD JUMP JUMPDEST PUSH0 PUSH1 0x20 SWAP1 POP PUSH1 0x1F DUP4 GT PUSH1 0x1 DUP2 EQ PUSH2 0x7AE JUMPI PUSH0 DUP5 ISZERO PUSH2 0x79C JUMPI DUP3 DUP8 ADD MLOAD SWAP1 POP JUMPDEST PUSH2 0x7A6 DUP6 DUP3 PUSH2 0x72B JUMP JUMPDEST DUP7 SSTORE POP PUSH2 0x80D JUMP JUMPDEST PUSH1 0x1F NOT DUP5 AND PUSH2 0x7BC DUP7 PUSH2 0x5A9 JUMP JUMPDEST PUSH0 JUMPDEST DUP3 DUP2 LT ISZERO PUSH2 0x7E3 JUMPI DUP5 DUP10 ADD MLOAD DUP3 SSTORE PUSH1 0x1 DUP3 ADD SWAP2 POP PUSH1 0x20 DUP6 ADD SWAP5 POP PUSH1 0x20 DUP2 ADD SWAP1 POP PUSH2 0x7BE JUMP JUMPDEST DUP7 DUP4 LT ISZERO PUSH2 0x800 JUMPI DUP5 DUP10 ADD MLOAD PUSH2 0x7FC PUSH1 0x1F DUP10 AND DUP3 PUSH2 0x70F JUMP JUMPDEST DUP4 SSTORE POP JUMPDEST PUSH1 0x1 PUSH1 0x2 DUP9 MUL ADD DUP9 SSTORE POP POP POP JUMPDEST POP POP POP POP POP POP JUMP JUMPDEST PUSH32 0x4E487B7100000000000000000000000000000000000000000000000000000000 PUSH0 MSTORE PUSH1 0x11 PUSH1 0x4 MSTORE PUSH1 0x24 PUSH0 REVERT JUMPDEST PUSH0 DUP2 PUSH1 0x1 SHR SWAP1 POP SWAP2 SWAP1 POP JUMP JUMPDEST PUSH0 DUP1 DUP3 SWAP2 POP DUP4 SWAP1 POP JUMPDEST PUSH1 0x1 DUP6 GT ISZERO PUSH2 0x897 JUMPI DUP1 DUP7 DIV DUP2 GT ISZERO PUSH2 0x873 JUMPI PUSH2 0x872 PUSH2 0x815 JUMP JUMPDEST JUMPDEST PUSH1 0x1 DUP6 AND ISZERO PUSH2 0x882 JUMPI DUP1 DUP3 MUL SWAP2 POP JUMPDEST DUP1 DUP2 MUL SWAP1 POP PUSH2 0x890 DUP6 PUSH2 0x842 JUMP JUMPDEST SWAP5 POP PUSH2 0x857 JUMP JUMPDEST SWAP5 POP SWAP5 SWAP3 POP POP POP JUMP JUMPDEST PUSH0 DUP3 PUSH2 0x8AF JUMPI PUSH1 0x1 SWAP1 POP PUSH2 0x96A JUMP JUMPDEST DUP2 PUSH2 0x8BC JUMPI PUSH0 SWAP1 POP PUSH2 0x96A JUMP JUMPDEST DUP2 PUSH1 0x1 DUP2 EQ PUSH2 0x8D2 JUMPI PUSH1 0x2 DUP2 EQ PUSH2 0x8DC JUMPI PUSH2 0x90B JUMP JUMPDEST PUSH1 0x1 SWAP2 POP POP PUSH2 0x96A JUMP JUMPDEST PUSH1 0xFF DUP5 GT ISZERO PUSH2 0x8EE JUMPI PUSH2 0x8ED PUSH2 0x815 JUMP JUMPDEST JUMPDEST DUP4 PUSH1 0x2 EXP SWAP2 POP DUP5 DUP3 GT ISZERO PUSH2 0x905 JUMPI PUSH2 0x904 PUSH2 0x815 JUMP JUMPDEST JUMPDEST POP PUSH2 0x96A JUMP JUMPDEST POP PUSH1 0x20 DUP4 LT PUSH2 0x133 DUP4 LT AND PUSH1 0x4E DUP5 LT PUSH1 0xB DUP5 LT AND OR ISZERO PUSH2 0x940 JUMPI DUP3 DUP3 EXP SWAP1 POP DUP4 DUP2 GT ISZERO PUSH2 0x93B JUMPI PUSH2 0x93A PUSH2 0x815 JUMP JUMPDEST JUMPDEST PUSH2 0x96A JUMP JUMPDEST PUSH2 0x94D DUP5 DUP5 DUP5 PUSH1 0x1 PUSH2 0x84E JUMP JUMPDEST SWAP3 POP SWAP1 POP DUP2 DUP5 DIV DUP2 GT ISZERO PUSH2 0x964 JUMPI PUSH2 0x963 PUSH2 0x815 JUMP JUMPDEST JUMPDEST DUP2 DUP2 MUL SWAP1 POP JUMPDEST SWAP4 SWAP3 POP POP POP JUMP JUMPDEST PUSH0 PUSH2 0x97B DUP3 PUSH2 0x487 JUMP JUMPDEST SWAP2 POP PUSH2 0x986 DUP4 PUSH2 0x487 JUMP JUMPDEST SWAP3 POP PUSH2 0x9B3 PUSH32 0xFFFFFFFFFFFFFFFFFFFFFFFFFFFFFFFFFFFFFFFFFFFFFFFFFFFFFFFFFFFFFFFF DUP5 DUP5 PUSH2 0x8A0 JUMP JUMPDEST SWAP1 POP SWAP3 SWAP2 POP POP JUMP JUMPDEST PUSH0 PUSH2 0x9C5 DUP3 PUSH2 0x487 JUMP JUMPDEST SWAP2 POP PUSH2 0x9D0 DUP4 PUSH2 0x487 JUMP JUMPDEST SWAP3 POP DUP3 DUP3 MUL PUSH2 0x9DE DUP2 PUSH2 0x487 JUMP JUMPDEST SWAP2 POP DUP3 DUP3 DIV DUP5 EQ DUP4 ISZERO OR PUSH2 0x9F5 JUMPI PUSH2 0x9F4 PUSH2 0x815 JUMP JUMPDEST JUMPDEST POP SWAP3 SWAP2 POP POP JUMP JUMPDEST PUSH0 PUSH20 0xFFFFFFFFFFFFFFFFFFFFFFFFFFFFFFFFFFFFFFFF DUP3 AND SWAP1 POP SWAP2 SWAP1 POP JUMP JUMPDEST PUSH0 PUSH2 0xA25 DUP3 PUSH2 0x9FC JUMP JUMPDEST SWAP1 POP SWAP2 SWAP1 POP JUMP JUMPDEST PUSH2 0xA35 DUP2 PUSH2 0xA1B JUMP JUMPDEST DUP3 MSTORE POP POP JUMP JUMPDEST PUSH0 PUSH1 0x20 DUP3 ADD SWAP1 POP PUSH2 0xA4E PUSH0 DUP4 ADD DUP5 PUSH2 0xA2C JUMP JUMPDEST SWAP3 SWAP2 POP POP JUMP JUMPDEST PUSH0 PUSH2 0xA5E DUP3 PUSH2 0x487 JUMP JUMPDEST SWAP2 POP PUSH2 0xA69 DUP4 PUSH2 0x487 JUMP JUMPDEST SWAP3 POP DUP3 DUP3 ADD SWAP1 POP DUP1 DUP3 GT ISZERO PUSH2 0xA81 JUMPI PUSH2 0xA80 PUSH2 0x815 JUMP JUMPDEST JUMPDEST SWAP3 SWAP2 POP POP JUMP JUMPDEST PUSH2 0xA90 DUP2 PUSH2 0x487 JUMP JUMPDEST DUP3 MSTORE POP POP JUMP JUMPDEST PUSH0 PUSH1 0x60 DUP3 ADD SWAP1 POP PUSH2 0xAA9 PUSH0 DUP4 ADD DUP7 PUSH2 0xA2C JUMP JUMPDEST PUSH2 0xAB6 PUSH1 0x20 DUP4 ADD DUP6 PUSH2 0xA87 JUMP JUMPDEST PUSH2 0xAC3 PUSH1 0x40 DUP4 ADD DUP5 PUSH2 0xA87 JUMP JUMPDEST SWAP5 SWAP4 POP POP POP POP JUMP JUMPDEST PUSH0 PUSH1 0x20 DUP3 ADD SWAP1 POP PUSH2 0xADE PUSH0 DUP4 ADD DUP5 PUSH2 0xA87 JUMP JUMPDEST SWAP3 SWAP2 POP POP JUMP JUMPDEST PUSH2 0xDE1 DUP1 PUSH2 0xAF1 PUSH0 CODECOPY PUSH0 RETURN INVALID PUSH1 0x80 PUSH1 0x40 MSTORE CALLVALUE DUP1 ISZERO PUSH2 0xF JUMPI PUSH0 DUP1 REVERT JUMPDEST POP PUSH1 0x4 CALLDATASIZE LT PUSH2 0x91 JUMPI PUSH0 CALLDATALOAD PUSH1 0xE0 SHR DUP1 PUSH4 0x313CE567 GT PUSH2 0x64 JUMPI DUP1 PUSH4 0x313CE567 EQ PUSH2 0x131 JUMPI DUP1 PUSH4 0x70A08231 EQ PUSH2 0x14F JUMPI DUP1 PUSH4 0x95D89B41 EQ PUSH2 0x17F JUMPI DUP1 PUSH4 0xA9059CBB EQ PUSH2 0x19D JUMPI DUP1 PUSH4 0xDD62ED3E EQ PUSH2 0x1CD JUMPI PUSH2 0x91 JUMP JUMPDEST DUP1 PUSH4 0x6FDDE03 EQ PUSH2 0x95 JUMPI DUP1 PUSH4 0x95EA7B3 EQ PUSH2 0xB3 JUMPI DUP1 PUSH4 0x18160DDD EQ PUSH2 0xE3 JUMPI DUP1 PUSH4 0x23B872DD EQ PUSH2 0x101 JUMPI JUMPDEST PUSH0 DUP1 REVERT JUMPDEST PUSH2 0x9D PUSH2 0x1FD JUMP JUMPDEST PUSH1 0x40 MLOAD PUSH2 0xAA SWAP2 SWAP1 PUSH2 0xA5A JUMP JUMPDEST PUSH1 0x40 MLOAD DUP1 SWAP2 SUB SWAP1 RETURN JUMPDEST PUSH2 0xCD PUSH1 0x4 DUP1 CALLDATASIZE SUB DUP2 ADD SWAP1 PUSH2 0xC8 SWAP2 SWAP1 PUSH2 0xB0B JUMP JUMPDEST PUSH2 0x28D JUMP JUMPDEST PUSH1 0x40 MLOAD PUSH2 0xDA SWAP2 SWAP1 PUSH2 0xB63 JUMP JUMPDEST PUSH1 0x40 MLOAD DUP1 SWAP2 SUB SWAP1 RETURN JUMPDEST PUSH2 0xEB PUSH2 0x2AF JUMP JUMPDEST PUSH1 0x40 MLOAD PUSH2 0xF8 SWAP2 SWAP1 PUSH2 0xB8B JUMP JUMPDEST PUSH1 0x40 MLOAD DUP1 SWAP2 SUB SWAP1 RETURN JUMPDEST PUSH2 0x11B PUSH1 0x4 DUP1 CALLDATASIZE SUB DUP2 ADD SWAP1 PUSH2 0x116 SWAP2 SWAP1 PUSH2 0xBA4 JUMP JUMPDEST PUSH2 0x2B8 JUMP JUMPDEST PUSH1 0x40 MLOAD PUSH2 0x128 SWAP2 SWAP1 PUSH2 0xB63 JUMP JUMPDEST PUSH1 0x40 MLOAD DUP1 SWAP2 SUB SWAP1 RETURN JUMPDEST PUSH2 0x139 PUSH2 0x2E6 JUMP JUMPDEST PUSH1 0x40 MLOAD PUSH2 0x146 SWAP2 SWAP1 PUSH2 0xC0F JUMP JUMPDEST PUSH1 0x40 MLOAD DUP1 SWAP2 SUB SWAP1 RETURN JUMPDEST PUSH2 0x169 PUSH1 0x4 DUP1 CALLDATASIZE SUB DUP2 ADD SWAP1 PUSH2 0x164 SWAP2 SWAP1 PUSH2 0xC28 JUMP JUMPDEST PUSH2 0x2EE JUMP JUMPDEST PUSH1 0x40 MLOAD PUSH2 0x176 SWAP2 SWAP1 PUSH2 0xB8B JUMP JUMPDEST PUSH1 0x40 MLOAD DUP1 SWAP2 SUB SWAP1 RETURN JUMPDEST PUSH2 0x187 PUSH2 0x333 JUMP JUMPDEST PUSH1 0x40 MLOAD PUSH2 0x194 SWAP2 SWAP1 PUSH2 0xA5A JUMP JUMPDEST PUSH1 0x40 MLOAD DUP1 SWAP2 SUB SWAP1 RETURN JUMPDEST PUSH2 0x1B7 PUSH1 0x4 DUP1 CALLDATASIZE SUB DUP2 ADD SWAP1 PUSH2 0x1B2 SWAP2 SWAP1 PUSH2 0xB0B JUMP JUMPDEST PUSH2 0x3C3 JUMP JUMPDEST PUSH1 0x40 MLOAD PUSH2 0x1C4 SWAP2 SWAP1 PUSH2 0xB63 JUMP JUMPDEST PUSH1 0x40 MLOAD DUP1 SWAP2 SUB SWAP1 RETURN JUMPDEST PUSH2 0x1E7 PUSH1 0x4 DUP1 CALLDATASIZE SUB DUP2 ADD SWAP1 PUSH2 0x1E2 SWAP2 SWAP1 PUSH2 0xC53 JUMP JUMPDEST PUSH2 0x3E5 JUMP JUMPDEST PUSH1 0x40 MLOAD PUSH2 0x1F4 SWAP2 SWAP1 PUSH2 0xB8B JUMP JUMPDEST PUSH1 0x40 MLOAD DUP1 SWAP2 SUB SWAP1 RETURN JUMPDEST PUSH1 0x60 PUSH1 0x3 DUP1 SLOAD PUSH2 0x20C SWAP1 PUSH2 0xCBE JUMP JUMPDEST DUP1 PUSH1 0x1F ADD PUSH1 0x20 DUP1 SWAP2 DIV MUL PUSH1 0x20 ADD PUSH1 0x40 MLOAD SWAP1 DUP2 ADD PUSH1 0x40 MSTORE DUP1 SWAP3 SWAP2 SWAP1 DUP2 DUP2 MSTORE PUSH1 0x20 ADD DUP3 DUP1 SLOAD PUSH2 0x238 SWAP1 PUSH2 0xCBE JUMP JUMPDEST DUP1 ISZERO PUSH2 0x283 JUMPI DUP1 PUSH1 0x1F LT PUSH2 0x25A JUMPI PUSH2 0x100 DUP1 DUP4 SLOAD DIV MUL DUP4 MSTORE SWAP2 PUSH1 0x20 ADD SWAP2 PUSH2 0x283 JUMP JUMPDEST DUP3 ADD SWAP2 SWAP1 PUSH0 MSTORE PUSH1 0x20 PUSH0 KECCAK256 SWAP1 JUMPDEST DUP2 SLOAD DUP2 MSTORE SWAP1 PUSH1 0x1 ADD SWAP1 PUSH1 0x20 ADD DUP1 DUP4 GT PUSH2 0x266 JUMPI DUP3 SWAP1 SUB PUSH1 0x1F AND DUP3 ADD SWAP2 JUMPDEST POP POP POP POP POP SWAP1 POP SWAP1 JUMP JUMPDEST PUSH0 DUP1 PUSH2 0x297 PUSH2 0x467 JUMP JUMPDEST SWAP1 POP PUSH2 0x2A4 DUP2 DUP6 DUP6 PUSH2 0x46E JUMP JUMPDEST PUSH1 0x1 SWAP2 POP POP SWAP3 SWAP2 POP POP JUMP JUMPDEST PUSH0 PUSH1 0x2 SLOAD SWAP1 POP SWAP1 JUMP JUMPDEST PUSH0 DUP1 PUSH2 0x2C2 PUSH2 0x467 JUMP JUMPDEST SWAP1 POP PUSH2 0x2CF DUP6 DUP3 DUP6 PUSH2 0x480 JUMP JUMPDEST PUSH2 0x2DA DUP6 DUP6 DUP6 PUSH2 0x512 JUMP JUMPDEST PUSH1 0x1 SWAP2 POP POP SWAP4 SWAP3 POP POP POP JUMP JUMPDEST PUSH0 PUSH1 0x12 SWAP1 POP SWAP1 JUMP JUMPDEST PUSH0 DUP1 PUSH0 DUP4 PUSH20 0xFFFFFFFFFFFFFFFFFFFFFFFFFFFFFFFFFFFFFFFF AND PUSH20 0xFFFFFFFFFFFFFFFFFFFFFFFFFFFFFFFFFFFFFFFF AND DUP2 MSTORE PUSH1 0x20 ADD SWAP1 DUP2 MSTORE PUSH1 0x20 ADD PUSH0 KECCAK256 SLOAD SWAP1 POP SWAP2 SWAP1 POP JUMP JUMPDEST PUSH1 0x60 PUSH1 0x4 DUP1 SLOAD PUSH2 0x342 SWAP1 PUSH2 0xCBE JUMP JUMPDEST DUP1 PUSH1 0x1F ADD PUSH1 0x20 DUP1 SWAP2 DIV MUL PUSH1 0x20 ADD PUSH1 0x40 MLOAD SWAP1 DUP2 ADD PUSH1 0x40 MSTORE DUP1 SWAP3 SWAP2 SWAP1 DUP2 DUP2 MSTORE PUSH1 0x20 ADD DUP3 DUP1 SLOAD PUSH2 0x36E SWAP1 PUSH2 0xCBE JUMP JUMPDEST DUP1 ISZERO PUSH2 0x3B9 JUMPI DUP1 PUSH1 0x1F LT PUSH2 0x390 JUMPI PUSH2 0x100 DUP1 DUP4 SLOAD DIV MUL DUP4 MSTORE SWAP2 PUSH1 0x20 ADD SWAP2 PUSH2 0x3B9 JUMP JUMPDEST DUP3 ADD SWAP2 SWAP1 PUSH0 MSTORE PUSH1 0x20 PUSH0 KECCAK256 SWAP1 JUMPDEST DUP2 SLOAD DUP2 MSTORE SWAP1 PUSH1 0x1 ADD SWAP1 PUSH1 0x20 ADD DUP1 DUP4 GT PUSH2 0x39C JUMPI DUP3 SWAP1 SUB PUSH1 0x1F AND DUP3 ADD SWAP2 JUMPDEST POP POP POP POP POP SWAP1 POP SWAP1 JUMP JUMPDEST PUSH0 DUP1 PUSH2 0x3CD PUSH2 0x467 JUMP JUMPDEST SWAP1 POP PUSH2 0x3DA DUP2 DUP6 DUP6 PUSH2 0x512 JUMP JUMPDEST PUSH1 0x1 SWAP2 POP POP SWAP3 SWAP2 POP POP JUMP JUMPDEST PUSH0 PUSH1 0x1 PUSH0 DUP5 PUSH20 0xFFFFFFFFFFFFFFFFFFFFFFFFFFFFFFFFFFFFFFFF AND PUSH20 0xFFFFFFFFFFFFFFFFFFFFFFFFFFFFFFFFFFFFFFFF AND DUP2 MSTORE PUSH1 0x20 ADD SWAP1 DUP2 MSTORE PUSH1 0x20 ADD PUSH0 KECCAK256 PUSH0 DUP4 PUSH20 0xFFFFFFFFFFFFFFFFFFFFFFFFFFFFFFFFFFFFFFFF AND PUSH20 0xFFFFFFFFFFFFFFFFFFFFFFFFFFFFFFFFFFFFFFFF AND DUP2 MSTORE PUSH1 0x20 ADD SWAP1 DUP2 MSTORE PUSH1 0x20 ADD PUSH0 KECCAK256 SLOAD SWAP1 POP SWAP3 SWAP2 POP POP JUMP JUMPDEST PUSH0 CALLER SWAP1 POP SWAP1 JUMP JUMPDEST PUSH2 0x47B DUP4 DUP4 DUP4 PUSH1 0x1 PUSH2 0x602 JUMP JUMPDEST POP POP POP JUMP JUMPDEST PUSH0 PUSH2 0x48B DUP5 DUP5 PUSH2 0x3E5 JUMP JUMPDEST SWAP1 POP PUSH32 0xFFFFFFFFFFFFFFFFFFFFFFFFFFFFFFFFFFFFFFFFFFFFFFFFFFFFFFFFFFFFFFFF DUP2 EQ PUSH2 0x50C JUMPI DUP2 DUP2 LT ISZERO PUSH2 0x4FD JUMPI DUP3 DUP2 DUP4 PUSH1 0x40 MLOAD PUSH32 0xFB8F41B200000000000000000000000000000000000000000000000000000000 DUP2 MSTORE PUSH1 0x4 ADD PUSH2 0x4F4 SWAP4 SWAP3 SWAP2 SWAP1 PUSH2 0xCFD JUMP JUMPDEST PUSH1 0x40 MLOAD DUP1 SWAP2 SUB SWAP1 REVERT JUMPDEST PUSH2 0x50B DUP5 DUP5 DUP5 DUP5 SUB PUSH0 PUSH2 0x602 JUMP JUMPDEST JUMPDEST POP POP POP POP JUMP JUMPDEST PUSH0 PUSH20 0xFFFFFFFFFFFFFFFFFFFFFFFFFFFFFFFFFFFFFFFF AND DUP4 PUSH20 0xFFFFFFFFFFFFFFFFFFFFFFFFFFFFFFFFFFFFFFFF AND SUB PUSH2 0x582 JUMPI PUSH0 PUSH1 0x40 MLOAD PUSH32 0x96C6FD1E00000000000000000000000000000000000000000000000000000000 DUP2 MSTORE PUSH1 0x4 ADD PUSH2 0x579 SWAP2 SWAP1 PUSH2 0xD32 JUMP JUMPDEST PUSH1 0x40 MLOAD DUP1 SWAP2 SUB SWAP1 REVERT JUMPDEST PUSH0 PUSH20 0xFFFFFFFFFFFFFFFFFFFFFFFFFFFFFFFFFFFFFFFF AND DUP3 PUSH20 0xFFFFFFFFFFFFFFFFFFFFFFFFFFFFFFFFFFFFFFFF AND SUB PUSH2 0x5F2 JUMPI PUSH0 PUSH1 0x40 MLOAD PUSH32 0xEC442F0500000000000000000000000000000000000000000000000000000000 DUP2 MSTORE PUSH1 0x4 ADD PUSH2 0x5E9 SWAP2 SWAP1 PUSH2 0xD32 JUMP JUMPDEST PUSH1 0x40 MLOAD DUP1 SWAP2 SUB SWAP1 REVERT JUMPDEST PUSH2 0x5FD DUP4 DUP4 DUP4 PUSH2 0x7D1 JUMP JUMPDEST POP POP POP JUMP JUMPDEST PUSH0 PUSH20 0xFFFFFFFFFFFFFFFFFFFFFFFFFFFFFFFFFFFFFFFF AND DUP5 PUSH20 0xFFFFFFFFFFFFFFFFFFFFFFFFFFFFFFFFFFFFFFFF AND SUB PUSH2 0x672 JUMPI PUSH0 PUSH1 0x40 MLOAD PUSH32 0xE602DF0500000000000000000000000000000000000000000000000000000000 DUP2 MSTORE PUSH1 0x4 ADD PUSH2 0x669 SWAP2 SWAP1 PUSH2 0xD32 JUMP JUMPDEST PUSH1 0x40 MLOAD DUP1 SWAP2 SUB SWAP1 REVERT JUMPDEST PUSH0 PUSH20 0xFFFFFFFFFFFFFFFFFFFFFFFFFFFFFFFFFFFFFFFF AND DUP4 PUSH20 0xFFFFFFFFFFFFFFFFFFFFFFFFFFFFFFFFFFFFFFFF AND SUB PUSH2 0x6E2 JUMPI PUSH0 PUSH1 0x40 MLOAD PUSH32 0x94280D6200000000000000000000000000000000000000000000000000000000 DUP2 MSTORE PUSH1 0x4 ADD PUSH2 0x6D9 SWAP2 SWAP1 PUSH2 0xD32 JUMP JUMPDEST PUSH1 0x40 MLOAD DUP1 SWAP2 SUB SWAP1 REVERT JUMPDEST DUP2 PUSH1 0x1 PUSH0 DUP7 PUSH20 0xFFFFFFFFFFFFFFFFFFFFFFFFFFFFFFFFFFFFFFFF AND PUSH20 0xFFFFFFFFFFFFFFFFFFFFFFFFFFFFFFFFFFFFFFFF AND DUP2 MSTORE PUSH1 0x20 ADD SWAP1 DUP2 MSTORE PUSH1 0x20 ADD PUSH0 KECCAK256 PUSH0 DUP6 PUSH20 0xFFFFFFFFFFFFFFFFFFFFFFFFFFFFFFFFFFFFFFFF AND PUSH20 0xFFFFFFFFFFFFFFFFFFFFFFFFFFFFFFFFFFFFFFFF AND DUP2 MSTORE PUSH1 0x20 ADD SWAP1 DUP2 MSTORE PUSH1 0x20 ADD PUSH0 KECCAK256 DUP2 SWAP1 SSTORE POP DUP1 ISZERO PUSH2 0x7CB JUMPI DUP3 PUSH20 0xFFFFFFFFFFFFFFFFFFFFFFFFFFFFFFFFFFFFFFFF AND DUP5 PUSH20 0xFFFFFFFFFFFFFFFFFFFFFFFFFFFFFFFFFFFFFFFF AND PUSH32 0x8C5BE1E5EBEC7D5BD14F71427D1E84F3DD0314C0F7B2291E5B200AC8C7C3B925 DUP5 PUSH1 0x40 MLOAD PUSH2 0x7C2 SWAP2 SWAP1 PUSH2 0xB8B JUMP JUMPDEST PUSH1 0x40 MLOAD DUP1 SWAP2 SUB SWAP1 LOG3 JUMPDEST POP POP POP POP JUMP JUMPDEST PUSH0 PUSH20 0xFFFFFFFFFFFFFFFFFFFFFFFFFFFFFFFFFFFFFFFF AND DUP4 PUSH20 0xFFFFFFFFFFFFFFFFFFFFFFFFFFFFFFFFFFFFFFFF AND SUB PUSH2 0x821 JUMPI DUP1 PUSH1 0x2 PUSH0 DUP3 DUP3 SLOAD PUSH2 0x815 SWAP2 SWAP1 PUSH2 0xD78 JUMP JUMPDEST SWAP3 POP POP DUP2 SWAP1 SSTORE POP PUSH2 0x8EF JUMP JUMPDEST PUSH0 DUP1 PUSH0 DUP6 PUSH20 0xFFFFFFFFFFFFFFFFFFFFFFFFFFFFFFFFFFFFFFFF AND PUSH20 0xFFFFFFFFFFFFFFFFFFFFFFFFFFFFFFFFFFFFFFFF AND DUP2 MSTORE PUSH1 0x20 ADD SWAP1 DUP2 MSTORE PUSH1 0x20 ADD PUSH0 KECCAK256 SLOAD SWAP1 POP DUP2 DUP2 LT ISZERO PUSH2 0x8AA JUMPI DUP4 DUP2 DUP4 PUSH1 0x40 MLOAD PUSH32 0xE450D38C00000000000000000000000000000000000000000000000000000000 DUP2 MSTORE PUSH1 0x4 ADD PUSH2 0x8A1 SWAP4 SWAP3 SWAP2 SWAP1 PUSH2 0xCFD JUMP JUMPDEST PUSH1 0x40 MLOAD DUP1 SWAP2 SUB SWAP1 REVERT JUMPDEST DUP2 DUP2 SUB PUSH0 DUP1 DUP7 PUSH20 0xFFFFFFFFFFFFFFFFFFFFFFFFFFFFFFFFFFFFFFFF AND PUSH20 0xFFFFFFFFFFFFFFFFFFFFFFFFFFFFFFFFFFFFFFFF AND DUP2 MSTORE PUSH1 0x20 ADD SWAP1 DUP2 MSTORE PUSH1 0x20 ADD PUSH0 KECCAK256 DUP2 SWAP1 SSTORE POP POP JUMPDEST PUSH0 PUSH20 0xFFFFFFFFFFFFFFFFFFFFFFFFFFFFFFFFFFFFFFFF AND DUP3 PUSH20 0xFFFFFFFFFFFFFFFFFFFFFFFFFFFFFFFFFFFFFFFF AND SUB PUSH2 0x936 JUMPI DUP1 PUSH1 0x2 PUSH0 DUP3 DUP3 SLOAD SUB SWAP3 POP POP DUP2 SWAP1 SSTORE POP PUSH2 0x980 JUMP JUMPDEST DUP1 PUSH0 DUP1 DUP5 PUSH20 0xFFFFFFFFFFFFFFFFFFFFFFFFFFFFFFFFFFFFFFFF AND PUSH20 0xFFFFFFFFFFFFFFFFFFFFFFFFFFFFFFFFFFFFFFFF AND DUP2 MSTORE PUSH1 0x20 ADD SWAP1 DUP2 MSTORE PUSH1 0x20 ADD PUSH0 KECCAK256 PUSH0 DUP3 DUP3 SLOAD ADD SWAP3 POP POP DUP2 SWAP1 SSTORE POP JUMPDEST DUP2 PUSH20 0xFFFFFFFFFFFFFFFFFFFFFFFFFFFFFFFFFFFFFFFF AND DUP4 PUSH20 0xFFFFFFFFFFFFFFFFFFFFFFFFFFFFFFFFFFFFFFFF AND PUSH32 0xDDF252AD1BE2C89B69C2B068FC378DAA952BA7F163C4A11628F55A4DF523B3EF DUP4 PUSH1 0x40 MLOAD PUSH2 0x9DD SWAP2 SWAP1 PUSH2 0xB8B JUMP JUMPDEST PUSH1 0x40 MLOAD DUP1 SWAP2 SUB SWAP1 LOG3 POP POP POP JUMP JUMPDEST PUSH0 DUP2 MLOAD SWAP1 POP SWAP2 SWAP1 POP JUMP JUMPDEST PUSH0 DUP3 DUP3 MSTORE PUSH1 0x20 DUP3 ADD SWAP1 POP SWAP3 SWAP2 POP POP JUMP JUMPDEST DUP3 DUP2 DUP4 MCOPY PUSH0 DUP4 DUP4 ADD MSTORE POP POP POP JUMP JUMPDEST PUSH0 PUSH1 0x1F NOT PUSH1 0x1F DUP4 ADD AND SWAP1 POP SWAP2 SWAP1 POP JUMP JUMPDEST PUSH0 PUSH2 0xA2C DUP3 PUSH2 0x9EA JUMP JUMPDEST PUSH2 0xA36 DUP2 DUP6 PUSH2 0x9F4 JUMP JUMPDEST SWAP4 POP PUSH2 0xA46 DUP2 DUP6 PUSH1 0x20 DUP7 ADD PUSH2 0xA04 JUMP JUMPDEST PUSH2 0xA4F DUP2 PUSH2 0xA12 JUMP JUMPDEST DUP5 ADD SWAP2 POP POP SWAP3 SWAP2 POP POP JUMP JUMPDEST PUSH0 PUSH1 0x20 DUP3 ADD SWAP1 POP DUP2 DUP2 SUB PUSH0 DUP4 ADD MSTORE PUSH2 0xA72 DUP2 DUP5 PUSH2 0xA22 JUMP JUMPDEST SWAP1 POP SWAP3 SWAP2 POP POP JUMP JUMPDEST PUSH0 DUP1 REVERT JUMPDEST PUSH0 PUSH20 0xFFFFFFFFFFFFFFFFFFFFFFFFFFFFFFFFFFFFFFFF DUP3 AND SWAP1 POP SWAP2 SWAP1 POP JUMP JUMPDEST PUSH0 PUSH2 0xAA7 DUP3 PUSH2 0xA7E JUMP JUMPDEST SWAP1 POP SWAP2 SWAP1 POP JUMP JUMPDEST PUSH2 0xAB7 DUP2 PUSH2 0xA9D JUMP JUMPDEST DUP2 EQ PUSH2 0xAC1 JUMPI PUSH0 DUP1 REVERT JUMPDEST POP JUMP JUMPDEST PUSH0 DUP2 CALLDATALOAD SWAP1 POP PUSH2 0xAD2 DUP2 PUSH2 0xAAE JUMP JUMPDEST SWAP3 SWAP2 POP POP JUMP JUMPDEST PUSH0 DUP2 SWAP1 POP SWAP2 SWAP1 POP JUMP JUMPDEST PUSH2 0xAEA DUP2 PUSH2 0xAD8 JUMP JUMPDEST DUP2 EQ PUSH2 0xAF4 JUMPI PUSH0 DUP1 REVERT JUMPDEST POP JUMP JUMPDEST PUSH0 DUP2 CALLDATALOAD SWAP1 POP PUSH2 0xB05 DUP2 PUSH2 0xAE1 JUMP JUMPDEST SWAP3 SWAP2 POP POP JUMP JUMPDEST PUSH0 DUP1 PUSH1 0x40 DUP4 DUP6 SUB SLT ISZERO PUSH2 0xB21 JUMPI PUSH2 0xB20 PUSH2 0xA7A JUMP JUMPDEST JUMPDEST PUSH0 PUSH2 0xB2E DUP6 DUP3 DUP7 ADD PUSH2 0xAC4 JUMP JUMPDEST SWAP3 POP POP PUSH1 0x20 PUSH2 0xB3F DUP6 DUP3 DUP7 ADD PUSH2 0xAF7 JUMP JUMPDEST SWAP2 POP POP SWAP3 POP SWAP3 SWAP1 POP JUMP JUMPDEST PUSH0 DUP2 ISZERO ISZERO SWAP1 POP SWAP2 SWAP1 POP JUMP JUMPDEST PUSH2 0xB5D DUP2 PUSH2 0xB49 JUMP JUMPDEST DUP3 MSTORE POP POP JUMP JUMPDEST PUSH0 PUSH1 0x20 DUP3 ADD SWAP1 POP PUSH2 0xB76 PUSH0 DUP4 ADD DUP5 PUSH2 0xB54 JUMP JUMPDEST SWAP3 SWAP2 POP POP JUMP JUMPDEST PUSH2 0xB85 DUP2 PUSH2 0xAD8 JUMP JUMPDEST DUP3 MSTORE POP POP JUMP JUMPDEST PUSH0 PUSH1 0x20 DUP3 ADD SWAP1 POP PUSH2 0xB9E PUSH0 DUP4 ADD DUP5 PUSH2 0xB7C JUMP JUMPDEST SWAP3 SWAP2 POP POP JUMP JUMPDEST PUSH0 DUP1 PUSH0 PUSH1 0x60 DUP5 DUP7 SUB SLT ISZERO PUSH2 0xBBB JUMPI PUSH2 0xBBA PUSH2 0xA7A JUMP JUMPDEST JUMPDEST PUSH0 PUSH2 0xBC8 DUP7 DUP3 DUP8 ADD PUSH2 0xAC4 JUMP JUMPDEST SWAP4 POP POP PUSH1 0x20 PUSH2 0xBD9 DUP7 DUP3 DUP8 ADD PUSH2 0xAC4 JUMP JUMPDEST SWAP3 POP POP PUSH1 0x40 PUSH2 0xBEA DUP7 DUP3 DUP8 ADD PUSH2 0xAF7 JUMP JUMPDEST SWAP2 POP POP SWAP3 POP SWAP3 POP SWAP3 JUMP JUMPDEST PUSH0 PUSH1 0xFF DUP3 AND SWAP1 POP SWAP2 SWAP1 POP JUMP JUMPDEST PUSH2 0xC09 DUP2 PUSH2 0xBF4 JUMP JUMPDEST DUP3 MSTORE POP POP JUMP JUMPDEST PUSH0 PUSH1 0x20 DUP3 ADD SWAP1 POP PUSH2 0xC22 PUSH0 DUP4 ADD DUP5 PUSH2 0xC00 JUMP JUMPDEST SWAP3 SWAP2 POP POP JUMP JUMPDEST PUSH0 PUSH1 0x20 DUP3 DUP5 SUB SLT ISZERO PUSH2 0xC3D JUMPI PUSH2 0xC3C PUSH2 0xA7A JUMP JUMPDEST JUMPDEST PUSH0 PUSH2 0xC4A DUP5 DUP3 DUP6 ADD PUSH2 0xAC4 JUMP JUMPDEST SWAP2 POP POP SWAP3 SWAP2 POP POP JUMP JUMPDEST PUSH0 DUP1 PUSH1 0x40 DUP4 DUP6 SUB SLT ISZERO PUSH2 0xC69 JUMPI PUSH2 0xC68 PUSH2 0xA7A JUMP JUMPDEST JUMPDEST PUSH0 PUSH2 0xC76 DUP6 DUP3 DUP7 ADD PUSH2 0xAC4 JUMP JUMPDEST SWAP3 POP POP PUSH1 0x20 PUSH2 0xC87 DUP6 DUP3 DUP7 ADD PUSH2 0xAC4 JUMP JUMPDEST SWAP2 POP POP SWAP3 POP SWAP3 SWAP1 POP JUMP JUMPDEST PUSH32 0x4E487B7100000000000000000000000000000000000000000000000000000000 PUSH0 MSTORE PUSH1 0x22 PUSH1 0x4 MSTORE PUSH1 0x24 PUSH0 REVERT JUMPDEST PUSH0 PUSH1 0x2 DUP3 DIV SWAP1 POP PUSH1 0x1 DUP3 AND DUP1 PUSH2 0xCD5 JUMPI PUSH1 0x7F DUP3 AND SWAP2 POP JUMPDEST PUSH1 0x20 DUP3 LT DUP2 SUB PUSH2 0xCE8 JUMPI PUSH2 0xCE7 PUSH2 0xC91 JUMP JUMPDEST JUMPDEST POP SWAP2 SWAP1 POP JUMP JUMPDEST PUSH2 0xCF7 DUP2 PUSH2 0xA9D JUMP JUMPDEST DUP3 MSTORE POP POP JUMP JUMPDEST PUSH0 PUSH1 0x60 DUP3 ADD SWAP1 POP PUSH2 0xD10 PUSH0 DUP4 ADD DUP7 PUSH2 0xCEE JUMP JUMPDEST PUSH2 0xD1D PUSH1 0x20 DUP4 ADD DUP6 PUSH2 0xB7C JUMP JUMPDEST PUSH2 0xD2A PUSH1 0x40 DUP4 ADD DUP5 PUSH2 0xB7C JUMP JUMPDEST SWAP5 SWAP4 POP POP POP POP JUMP JUMPDEST PUSH0 PUSH1 0x20 DUP3 ADD SWAP1 POP PUSH2 0xD45 PUSH0 DUP4 ADD DUP5 PUSH2 0xCEE JUMP JUMPDEST SWAP3 SWAP2 POP POP JUMP JUMPDEST PUSH32 0x4E487B7100000000000000000000000000000000000000000000000000000000 PUSH0 MSTORE PUSH1 0x11 PUSH1 0x4 MSTORE PUSH1 0x24 PUSH0 REVERT JUMPDEST PUSH0 PUSH2 0xD82 DUP3 PUSH2 0xAD8 JUMP JUMPDEST SWAP2 POP PUSH2 0xD8D DUP4 PUSH2 0xAD8 JUMP JUMPDEST SWAP3 POP DUP3 DUP3 ADD SWAP1 POP DUP1 DUP3 GT ISZERO PUSH2 0xDA5 JUMPI PUSH2 0xDA4 PUSH2 0xD4B JUMP JUMPDEST JUMPDEST SWAP3 SWAP2 POP POP JUMP INVALID LOG2 PUSH5 0x6970667358 0x22 SLT KECCAK256 0xEC PUSH12 0xAA39E7BB7A51B0FC5B6A9728 SELFDESTRUCT 0xB3 0x2E 0xA9 BLOCKHASH 0x2B 0xD8 0xCE 0x25 0x4F 0x1E SAR GASPRICE SLOAD 0xBA CALLCODE LT 0xB0 PUSH5 0x736F6C6343 STOP ADDMOD BYTE STOP CALLER "
				},
				"gasEstimates": {
					"creation": {
						"codeDepositCost": "710600",
						"executionCost": "infinite",
						"totalCost": "infinite"
					},
					"external": {
						"allowance(address,address)": "infinite",
						"approve(address,uint256)": "infinite",
						"balanceOf(address)": "2851",
						"decimals()": "338",
						"name()": "infinite",
						"symbol()": "infinite",
						"totalSupply()": "2477",
						"transfer(address,uint256)": "infinite",
						"transferFrom(address,address,uint256)": "infinite"
					}
				},
				"methodIdentifiers": {
					"allowance(address,address)": "dd62ed3e",
					"approve(address,uint256)": "095ea7b3",
					"balanceOf(address)": "70a08231",
					"decimals()": "313ce567",
					"name()": "06fdde03",
					"symbol()": "95d89b41",
					"totalSupply()": "18160ddd",
					"transfer(address,uint256)": "a9059cbb",
					"transferFrom(address,address,uint256)": "23b872dd"
				}
			},
			"storageLayout": {
				"storage": [
					{
						"astId": 159,
						"contract": "contracts/Token.sol:Token",
						"label": "_balances",
						"offset": 0,
						"slot": "0",
						"type": "t_mapping(t_address,t_uint256)"
					},
					{
						"astId": 165,
						"contract": "contracts/Token.sol:Token",
						"label": "_allowances",
						"offset": 0,
						"slot": "1",
						"type": "t_mapping(t_address,t_mapping(t_address,t_uint256))"
					},
					{
						"astId": 167,
						"contract": "contracts/Token.sol:Token",
						"label": "_totalSupply",
						"offset": 0,
						"slot": "2",
						"type": "t_uint256"
					},
					{
						"astId": 169,
						"contract": "contracts/Token.sol:Token",
						"label": "_name",
						"offset": 0,
						"slot": "3",
						"type": "t_string_storage"
					},
					{
						"astId": 171,
						"contract": "contracts/Token.sol:Token",
						"label": "_symbol",
						"offset": 0,
						"slot": "4",
						"type": "t_string_storage"
					}
				],
				"types": {
					"t_address": {
						"encoding": "inplace",
						"label": "address",
						"numberOfBytes": "20"
					},
					"t_mapping(t_address,t_mapping(t_address,t_uint256))": {
						"encoding": "mapping",
						"key": "t_address",
						"label": "mapping(address => mapping(address => uint256))",
						"numberOfBytes": "32",
						"value": "t_mapping(t_address,t_uint256)"
					},
					"t_mapping(t_address,t_uint256)": {
						"encoding": "mapping",
						"key": "t_address",
						"label": "mapping(address => uint256)",
						"numberOfBytes": "32",
						"value": "t_uint256"
					},
					"t_string_storage": {
						"encoding": "bytes",
						"label": "string",
						"numberOfBytes": "32"
					},
					"t_uint256": {
						"encoding": "inplace",
						"label": "uint256",
						"numberOfBytes": "32"
					}
				}
			},
			"userdoc": {
				"kind": "user",
				"methods": {},
				"version": 1
			}
		}
	}
}