{
	"data": {
		"bytecode": {
			"linkReferences": {},
			"object": "608060405234801561000f575f80fd5b50604051612597380380612597833981810160405281019061003191906102b7565b61004d61004261019160201b60201c565b61019860201b60201c565b600180819055505f73ffffffffffffffffffffffffffffffffffffffff168273ffffffffffffffffffffffffffffffffffffffff16141580156100bc57505f73ffffffffffffffffffffffffffffffffffffffff168173ffffffffffffffffffffffffffffffffffffffff1614155b6100fb576040517f08c379a00000000000000000000000000000000000000000000000000000000081526004016100f29061034f565b60405180910390fd5b8160025f6101000a81548173ffffffffffffffffffffffffffffffffffffffff021916908373ffffffffffffffffffffffffffffffffffffffff1602179055508060035f6101000a81548173ffffffffffffffffffffffffffffffffffffffff021916908373ffffffffffffffffffffffffffffffffffffffff16021790555061018a3361019860201b60201c565b505061036d565b5f33905090565b5f805f9054906101000a900473ffffffffffffffffffffffffffffffffffffffff169050815f806101000a81548173ffffffffffffffffffffffffffffffffffffffff021916908373ffffffffffffffffffffffffffffffffffffffff1602179055508173ffffffffffffffffffffffffffffffffffffffff168173ffffffffffffffffffffffffffffffffffffffff167f8be0079c531659141344cd1fd0a4f28419497f9722a3daafe3b4186f6b6457e060405160405180910390a35050565b5f80fd5b5f73ffffffffffffffffffffffffffffffffffffffff82169050919050565b5f6102868261025d565b9050919050565b6102968161027c565b81146102a0575f80fd5b50565b5f815190506102b18161028d565b92915050565b5f80604083850312156102cd576102cc610259565b5b5f6102da858286016102a3565b92505060206102eb858286016102a3565b9150509250929050565b5f82825260208201905092915050565b7f496e76616c696420746f6b656e206164647265737365730000000000000000005f82015250565b5f6103396017836102f5565b915061034482610305565b602082019050919050565b5f6020820190508181035f8301526103668161032d565b9050919050565b61221d8061037a5f395ff3fe608060405234801561000f575f80fd5b50600436106100cd575f3560e01c80638da5cb5b1161008a578063b9ffa6a811610064578063b9ffa6a8146101ec578063d004f0f71461020a578063d21220a71461023a578063f2fde38b14610258576100cd565b80638da5cb5b146101965780639cd441da146101b45780639d7de6b3146101d0576100cd565b80630902f1ac146100d157806325be124e146100f0578063449e815d1461010e57806368a455f11461013e578063709c50f61461015c578063715018a61461018c575b5f80fd5b6100d9610274565b6040516100e7929190611582565b60405180910390f35b6100f8610284565b6040516101059190611623565b60405180910390f35b610128600480360381019061012391906116a5565b6102a9565b60405161013591906116e3565b60405180910390f35b6101466102bc565b60405161015391906116e3565b60405180910390f35b610176600480360381019061017191906116fc565b6102c2565b60405161018391906116e3565b60405180910390f35b610194610329565b005b61019e61033c565b6040516101ab919061175b565b60405180910390f35b6101ce60048036038101906101c99190611774565b610363565b005b6101ea60048036038101906101e59190611774565b610864565b005b6101f4610a4d565b60405161020191906116e3565b60405180910390f35b610224600480360381019061021f91906116a5565b610a53565b60405161023191906116e3565b60405180910390f35b610242610e70565b60405161024f9190611623565b60405180910390f35b610272600480360381019061026d91906117b2565b610e95565b005b5f80600454600554915091509091565b60035f9054906101000a900473ffffffffffffffffffffffffffffffffffffffff1681565b5f6102b48383610f17565b905092915050565b60055481565b5f6102cb611033565b6102d58484610a53565b90508181101561031a576040517f08c379a000000000000000000000000000000000000000000000000000000000815260040161031190611837565b60405180910390fd5b610322611082565b9392505050565b61033161108b565b61033a5f611109565b565b5f805f9054906101000a900473ffffffffffffffffffffffffffffffffffffffff16905090565b61036b611033565b5f8211801561037957505f81115b6103b8576040517f08c379a00000000000000000000000000000000000000000000000000000000081526004016103af9061189f565b60405180910390fd5b5f60025f9054906101000a900473ffffffffffffffffffffffffffffffffffffffff1673ffffffffffffffffffffffffffffffffffffffff1663dd62ed3e33306040518363ffffffff1660e01b81526004016104159291906118bd565b602060405180830381865afa158015610430573d5f803e3d5ffd5b505050506040513d601f19601f8201168201806040525081019061045491906118f8565b90505f60035f9054906101000a900473ffffffffffffffffffffffffffffffffffffffff1673ffffffffffffffffffffffffffffffffffffffff1663dd62ed3e33306040518363ffffffff1660e01b81526004016104b39291906118bd565b602060405180830381865afa1580156104ce573d5f803e3d5ffd5b505050506040513d601f19601f820116820180604052508101906104f291906118f8565b905083821015610537576040517f08c379a000000000000000000000000000000000000000000000000000000000815260040161052e9061196d565b60405180910390fd5b8281101561057a576040517f08c379a0000000000000000000000000000000000000000000000000000000008152600401610571906119d5565b60405180910390fd5b5f60025f9054906101000a900473ffffffffffffffffffffffffffffffffffffffff1673ffffffffffffffffffffffffffffffffffffffff166370a08231336040518263ffffffff1660e01b81526004016105d5919061175b565b602060405180830381865afa1580156105f0573d5f803e3d5ffd5b505050506040513d601f19601f8201168201806040525081019061061491906118f8565b90505f60035f9054906101000a900473ffffffffffffffffffffffffffffffffffffffff1673ffffffffffffffffffffffffffffffffffffffff166370a08231336040518263ffffffff1660e01b8152600401610671919061175b565b602060405180830381865afa15801561068c573d5f803e3d5ffd5b505050506040513d601f19601f820116820180604052508101906106b091906118f8565b9050858210156106f5576040517f08c379a00000000000000000000000000000000000000000000000000000000081526004016106ec90611a3d565b60405180910390fd5b84811015610738576040517f08c379a000000000000000000000000000000000000000000000000000000000815260040161072f90611aa5565b60405180910390fd5b61078633308860025f9054906101000a900473ffffffffffffffffffffffffffffffffffffffff1673ffffffffffffffffffffffffffffffffffffffff166111ca909392919063ffffffff16565b6107d433308760035f9054906101000a900473ffffffffffffffffffffffffffffffffffffffff1673ffffffffffffffffffffffffffffffffffffffff166111ca909392919063ffffffff16565b8560045f8282546107e59190611af0565b925050819055508460055f8282546107fd9190611af0565b925050819055503373ffffffffffffffffffffffffffffffffffffffff167fac1d76749e5447b7b16f5ab61447e1bd502f3bb4807af3b28e620d1700a6ee45878760405161084c929190611582565b60405180910390a250505050610860611082565b5050565b61086c61108b565b610874611033565b5f8211801561088257505f81115b6108c1576040517f08c379a00000000000000000000000000000000000000000000000000000000081526004016108b89061189f565b60405180910390fd5b81600454101580156108d557508060055410155b610914576040517f08c379a000000000000000000000000000000000000000000000000000000000815260040161090b90611b6d565b60405180910390fd5b8160045f8282546109259190611b8b565b925050819055508060055f82825461093d9190611b8b565b9250508190555061099761094f61033c565b8360025f9054906101000a900473ffffffffffffffffffffffffffffffffffffffff1673ffffffffffffffffffffffffffffffffffffffff166112539092919063ffffffff16565b6109ea6109a261033c565b8260035f9054906101000a900473ffffffffffffffffffffffffffffffffffffffff1673ffffffffffffffffffffffffffffffffffffffff166112539092919063ffffffff16565b6109f261033c565b73ffffffffffffffffffffffffffffffffffffffff167f96cd817c6329656790ef8fba7675405193677d39619571282f5e21f3a98cd0598383604051610a39929190611582565b60405180910390a2610a49611082565b5050565b60045481565b5f610a5c611033565b60025f9054906101000a900473ffffffffffffffffffffffffffffffffffffffff1673ffffffffffffffffffffffffffffffffffffffff168373ffffffffffffffffffffffffffffffffffffffff161480610b03575060035f9054906101000a900473ffffffffffffffffffffffffffffffffffffffff1673ffffffffffffffffffffffffffffffffffffffff168373ffffffffffffffffffffffffffffffffffffffff16145b610b42576040517f08c379a0000000000000000000000000000000000000000000000000000000008152600401610b3990611c08565b60405180910390fd5b5f8211610b84576040517f08c379a0000000000000000000000000000000000000000000000000000000008152600401610b7b90611c70565b60405180910390fd5b5f8390505f60025f9054906101000a900473ffffffffffffffffffffffffffffffffffffffff1673ffffffffffffffffffffffffffffffffffffffff168573ffffffffffffffffffffffffffffffffffffffff1614610c045760025f9054906101000a900473ffffffffffffffffffffffffffffffffffffffff16610c27565b60035f9054906101000a900473ffffffffffffffffffffffffffffffffffffffff165b9050610c338585610f17565b92505f83118015610cbb57508073ffffffffffffffffffffffffffffffffffffffff166370a08231306040518263ffffffff1660e01b8152600401610c78919061175b565b602060405180830381865afa158015610c93573d5f803e3d5ffd5b505050506040513d601f19601f82011682018060405250810190610cb791906118f8565b8311155b610cfa576040517f08c379a0000000000000000000000000000000000000000000000000000000008152600401610cf190611b6d565b60405180910390fd5b610d273330868573ffffffffffffffffffffffffffffffffffffffff166111ca909392919063ffffffff16565b610d5233848373ffffffffffffffffffffffffffffffffffffffff166112539092919063ffffffff16565b60025f9054906101000a900473ffffffffffffffffffffffffffffffffffffffff1673ffffffffffffffffffffffffffffffffffffffff168573ffffffffffffffffffffffffffffffffffffffff1603610ddb578360045f828254610db79190611af0565b925050819055508260055f828254610dcf9190611b8b565b92505081905550610e0c565b8360055f828254610dec9190611af0565b925050819055508260045f828254610e049190611b8b565b925050819055505b3373ffffffffffffffffffffffffffffffffffffffff167f5380cf97d8f645d3c4896da60c053458dca03a3a31cec642ac80e1ddf0d8d02a86868487604051610e589493929190611c8e565b60405180910390a25050610e6a611082565b92915050565b60025f9054906101000a900473ffffffffffffffffffffffffffffffffffffffff1681565b610e9d61108b565b5f73ffffffffffffffffffffffffffffffffffffffff168173ffffffffffffffffffffffffffffffffffffffff1603610f0b576040517f08c379a0000000000000000000000000000000000000000000000000000000008152600401610f0290611d41565b60405180910390fd5b610f1481611109565b50565b5f8060025f9054906101000a900473ffffffffffffffffffffffffffffffffffffffff1673ffffffffffffffffffffffffffffffffffffffff168473ffffffffffffffffffffffffffffffffffffffff1614610f7557600554610f79565b6004545b90505f60025f9054906101000a900473ffffffffffffffffffffffffffffffffffffffff1673ffffffffffffffffffffffffffffffffffffffff168573ffffffffffffffffffffffffffffffffffffffff1614610fd857600454610fdc565b6005545b90505f6103e585610fed9190611d5f565b90505f8282610ffc9190611d5f565b90505f826103e88661100e9190611d5f565b6110189190611af0565b905080826110269190611dcd565b9550505050505092915050565b600260015403611078576040517f08c379a000000000000000000000000000000000000000000000000000000000815260040161106f90611e47565b60405180910390fd5b6002600181905550565b60018081905550565b6110936112d9565b73ffffffffffffffffffffffffffffffffffffffff166110b161033c565b73ffffffffffffffffffffffffffffffffffffffff1614611107576040517f08c379a00000000000000000000000000000000000000000000000000000000081526004016110fe90611eaf565b60405180910390fd5b565b5f805f9054906101000a900473ffffffffffffffffffffffffffffffffffffffff169050815f806101000a81548173ffffffffffffffffffffffffffffffffffffffff021916908373ffffffffffffffffffffffffffffffffffffffff1602179055508173ffffffffffffffffffffffffffffffffffffffff168173ffffffffffffffffffffffffffffffffffffffff167f8be0079c531659141344cd1fd0a4f28419497f9722a3daafe3b4186f6b6457e060405160405180910390a35050565b61124d846323b872dd60e01b8585856040516024016111eb93929190611ecd565b604051602081830303815290604052907bffffffffffffffffffffffffffffffffffffffffffffffffffffffff19166020820180517bffffffffffffffffffffffffffffffffffffffffffffffffffffffff83818316178352505050506112e0565b50505050565b6112d48363a9059cbb60e01b8484604051602401611272929190611f02565b604051602081830303815290604052907bffffffffffffffffffffffffffffffffffffffffffffffffffffffff19166020820180517bffffffffffffffffffffffffffffffffffffffffffffffffffffffff83818316178352505050506112e0565b505050565b5f33905090565b5f611341826040518060400160405280602081526020017f5361666545524332303a206c6f772d6c6576656c2063616c6c206661696c65648152508573ffffffffffffffffffffffffffffffffffffffff166113a59092919063ffffffff16565b90505f815111156113a057808060200190518101906113609190611f5e565b61139f576040517f08c379a000000000000000000000000000000000000000000000000000000000815260040161139690611ff9565b60405180910390fd5b5b505050565b60606113b384845f856113bc565b90509392505050565b606082471015611401576040517f08c379a00000000000000000000000000000000000000000000000000000000081526004016113f890612087565b60405180910390fd5b5f808673ffffffffffffffffffffffffffffffffffffffff16858760405161142991906120f7565b5f6040518083038185875af1925050503d805f8114611463576040519150601f19603f3d011682016040523d82523d5f602084013e611468565b606091505b509150915061147987838387611485565b92505050949350505050565b606083156114e6575f8351036114de5761149e856114f9565b6114dd576040517f08c379a00000000000000000000000000000000000000000000000000000000081526004016114d490612157565b60405180910390fd5b5b8290506114f1565b6114f0838361151b565b5b949350505050565b5f808273ffffffffffffffffffffffffffffffffffffffff163b119050919050565b5f8251111561152d5781518083602001fd5b806040517f08c379a000000000000000000000000000000000000000000000000000000000815260040161156191906121c7565b60405180910390fd5b5f819050919050565b61157c8161156a565b82525050565b5f6040820190506115955f830185611573565b6115a26020830184611573565b9392505050565b5f73ffffffffffffffffffffffffffffffffffffffff82169050919050565b5f819050919050565b5f6115eb6115e66115e1846115a9565b6115c8565b6115a9565b9050919050565b5f6115fc826115d1565b9050919050565b5f61160d826115f2565b9050919050565b61161d81611603565b82525050565b5f6020820190506116365f830184611614565b92915050565b5f80fd5b5f61164a826115a9565b9050919050565b61165a81611640565b8114611664575f80fd5b50565b5f8135905061167581611651565b92915050565b6116848161156a565b811461168e575f80fd5b50565b5f8135905061169f8161167b565b92915050565b5f80604083850312156116bb576116ba61163c565b5b5f6116c885828601611667565b92505060206116d985828601611691565b9150509250929050565b5f6020820190506116f65f830184611573565b92915050565b5f805f606084860312156117135761171261163c565b5b5f61172086828701611667565b935050602061173186828701611691565b925050604061174286828701611691565b9150509250925092565b61175581611640565b82525050565b5f60208201905061176e5f83018461174c565b92915050565b5f806040838503121561178a5761178961163c565b5b5f61179785828601611691565b92505060206117a885828601611691565b9150509250929050565b5f602082840312156117c7576117c661163c565b5b5f6117d484828501611667565b91505092915050565b5f82825260208201905092915050565b7f536c69707061676520746f6c6572616e636520657863656564656400000000005f82015250565b5f611821601b836117dd565b915061182c826117ed565b602082019050919050565b5f6020820190508181035f83015261184e81611815565b9050919050565b7f416d6f756e7473206d7573742062652067726561746572207468616e203000005f82015250565b5f611889601e836117dd565b915061189482611855565b602082019050919050565b5f6020820190508181035f8301526118b68161187d565b9050919050565b5f6040820190506118d05f83018561174c565b6118dd602083018461174c565b9392505050565b5f815190506118f28161167b565b92915050565b5f6020828403121561190d5761190c61163c565b5b5f61191a848285016118e4565b91505092915050565b7f496e73756666696369656e7420746f6b656e3120616c6c6f77616e63650000005f82015250565b5f611957601d836117dd565b915061196282611923565b602082019050919050565b5f6020820190508181035f8301526119848161194b565b9050919050565b7f496e73756666696369656e7420746f6b656e3220616c6c6f77616e63650000005f82015250565b5f6119bf601d836117dd565b91506119ca8261198b565b602082019050919050565b5f6020820190508181035f8301526119ec816119b3565b9050919050565b7f496e73756666696369656e7420746f6b656e312062616c616e636500000000005f82015250565b5f611a27601b836117dd565b9150611a32826119f3565b602082019050919050565b5f6020820190508181035f830152611a5481611a1b565b9050919050565b7f496e73756666696369656e7420746f6b656e322062616c616e636500000000005f82015250565b5f611a8f601b836117dd565b9150611a9a82611a5b565b602082019050919050565b5f6020820190508181035f830152611abc81611a83565b9050919050565b7f4e487b71000000000000000000000000000000000000000000000000000000005f52601160045260245ffd5b5f611afa8261156a565b9150611b058361156a565b9250828201905080821115611b1d57611b1c611ac3565b5b92915050565b7f496e73756666696369656e74206c6971756964697479000000000000000000005f82015250565b5f611b576016836117dd565b9150611b6282611b23565b602082019050919050565b5f6020820190508181035f830152611b8481611b4b565b9050919050565b5f611b958261156a565b9150611ba08361156a565b9250828203905081811115611bb857611bb7611ac3565b5b92915050565b7f496e76616c696420746f6b656e000000000000000000000000000000000000005f82015250565b5f611bf2600d836117dd565b9150611bfd82611bbe565b602082019050919050565b5f6020820190508181035f830152611c1f81611be6565b9050919050565b7f416d6f756e74206d7573742062652067726561746572207468616e20300000005f82015250565b5f611c5a601d836117dd565b9150611c6582611c26565b602082019050919050565b5f6020820190508181035f830152611c8781611c4e565b9050919050565b5f608082019050611ca15f83018761174c565b611cae6020830186611573565b611cbb604083018561174c565b611cc86060830184611573565b95945050505050565b7f4f776e61626c653a206e6577206f776e657220697320746865207a65726f20615f8201527f6464726573730000000000000000000000000000000000000000000000000000602082015250565b5f611d2b6026836117dd565b9150611d3682611cd1565b604082019050919050565b5f6020820190508181035f830152611d5881611d1f565b9050919050565b5f611d698261156a565b9150611d748361156a565b9250828202611d828161156a565b91508282048414831517611d9957611d98611ac3565b5b5092915050565b7f4e487b71000000000000000000000000000000000000000000000000000000005f52601260045260245ffd5b5f611dd78261156a565b9150611de28361156a565b925082611df257611df1611da0565b5b828204905092915050565b7f5265656e7472616e637947756172643a207265656e7472616e742063616c6c005f82015250565b5f611e31601f836117dd565b9150611e3c82611dfd565b602082019050919050565b5f6020820190508181035f830152611e5e81611e25565b9050919050565b7f4f776e61626c653a2063616c6c6572206973206e6f7420746865206f776e65725f82015250565b5f611e996020836117dd565b9150611ea482611e65565b602082019050919050565b5f6020820190508181035f830152611ec681611e8d565b9050919050565b5f606082019050611ee05f83018661174c565b611eed602083018561174c565b611efa6040830184611573565b949350505050565b5f604082019050611f155f83018561174c565b611f226020830184611573565b9392505050565b5f8115159050919050565b611f3d81611f29565b8114611f47575f80fd5b50565b5f81519050611f5881611f34565b92915050565b5f60208284031215611f7357611f7261163c565b5b5f611f8084828501611f4a565b91505092915050565b7f5361666545524332303a204552433230206f7065726174696f6e20646964206e5f8201527f6f74207375636365656400000000000000000000000000000000000000000000602082015250565b5f611fe3602a836117dd565b9150611fee82611f89565b604082019050919050565b5f6020820190508181035f83015261201081611fd7565b9050919050565b7f416464726573733a20696e73756666696369656e742062616c616e636520666f5f8201527f722063616c6c0000000000000000000000000000000000000000000000000000602082015250565b5f6120716026836117dd565b915061207c82612017565b604082019050919050565b5f6020820190508181035f83015261209e81612065565b9050919050565b5f81519050919050565b5f81905092915050565b8281835e5f83830152505050565b5f6120d1826120a5565b6120db81856120af565b93506120eb8185602086016120b9565b80840191505092915050565b5f61210282846120c7565b915081905092915050565b7f416464726573733a2063616c6c20746f206e6f6e2d636f6e74726163740000005f82015250565b5f612141601d836117dd565b915061214c8261210d565b602082019050919050565b5f6020820190508181035f83015261216e81612135565b9050919050565b5f81519050919050565b5f601f19601f8301169050919050565b5f61219982612175565b6121a381856117dd565b93506121b38185602086016120b9565b6121bc8161217f565b840191505092915050565b5f6020820190508181035f8301526121df818461218f565b90509291505056fea2646970667358221220fb3c24b6afe65d3df84ef4e9bd6b5a659bd2811d27c75690f46467ce8c0fd19864736f6c634300081a0033",
			"opcodes": "PUSH1 0x80 PUSH1 0x40 MSTORE CALLVALUE DUP1 ISZERO PUSH2 0xF JUMPI PUSH0 DUP1 REVERT JUMPDEST POP PUSH1 0x40 MLOAD PUSH2 0x2597 CODESIZE SUB DUP1 PUSH2 0x2597 DUP4 CODECOPY DUP2 DUP2 ADD PUSH1 0x40 MSTORE DUP2 ADD SWAP1 PUSH2 0x31 SWAP2 SWAP1 PUSH2 0x2B7 JUMP JUMPDEST PUSH2 0x4D PUSH2 0x42 PUSH2 0x191 PUSH1 0x20 SHL PUSH1 0x20 SHR JUMP JUMPDEST PUSH2 0x198 PUSH1 0x20 SHL PUSH1 0x20 SHR JUMP JUMPDEST PUSH1 0x1 DUP1 DUP2 SWAP1 SSTORE POP PUSH0 PUSH20 0xFFFFFFFFFFFFFFFFFFFFFFFFFFFFFFFFFFFFFFFF AND DUP3 PUSH20 0xFFFFFFFFFFFFFFFFFFFFFFFFFFFFFFFFFFFFFFFF AND EQ ISZERO DUP1 ISZERO PUSH2 0xBC JUMPI POP PUSH0 PUSH20 0xFFFFFFFFFFFFFFFFFFFFFFFFFFFFFFFFFFFFFFFF AND DUP2 PUSH20 0xFFFFFFFFFFFFFFFFFFFFFFFFFFFFFFFFFFFFFFFF AND EQ ISZERO JUMPDEST PUSH2 0xFB JUMPI PUSH1 0x40 MLOAD PUSH32 0x8C379A000000000000000000000000000000000000000000000000000000000 DUP2 MSTORE PUSH1 0x4 ADD PUSH2 0xF2 SWAP1 PUSH2 0x34F JUMP JUMPDEST PUSH1 0x40 MLOAD DUP1 SWAP2 SUB SWAP1 REVERT JUMPDEST DUP2 PUSH1 0x2 PUSH0 PUSH2 0x100 EXP DUP2 SLOAD DUP2 PUSH20 0xFFFFFFFFFFFFFFFFFFFFFFFFFFFFFFFFFFFFFFFF MUL NOT AND SWAP1 DUP4 PUSH20 0xFFFFFFFFFFFFFFFFFFFFFFFFFFFFFFFFFFFFFFFF AND MUL OR SWAP1 SSTORE POP DUP1 PUSH1 0x3 PUSH0 PUSH2 0x100 EXP DUP2 SLOAD DUP2 PUSH20 0xFFFFFFFFFFFFFFFFFFFFFFFFFFFFFFFFFFFFFFFF MUL NOT AND SWAP1 DUP4 PUSH20 0xFFFFFFFFFFFFFFFFFFFFFFFFFFFFFFFFFFFFFFFF AND MUL OR SWAP1 SSTORE POP PUSH2 0x18A CALLER PUSH2 0x198 PUSH1 0x20 SHL PUSH1 0x20 SHR JUMP JUMPDEST POP POP PUSH2 0x36D JUMP JUMPDEST PUSH0 CALLER SWAP1 POP SWAP1 JUMP JUMPDEST PUSH0 DUP1 PUSH0 SWAP1 SLOAD SWAP1 PUSH2 0x100 EXP SWAP1 DIV PUSH20 0xFFFFFFFFFFFFFFFFFFFFFFFFFFFFFFFFFFFFFFFF AND SWAP1 POP DUP2 PUSH0 DUP1 PUSH2 0x100 EXP DUP2 SLOAD DUP2 PUSH20 0xFFFFFFFFFFFFFFFFFFFFFFFFFFFFFFFFFFFFFFFF MUL NOT AND SWAP1 DUP4 PUSH20 0xFFFFFFFFFFFFFFFFFFFFFFFFFFFFFFFFFFFFFFFF AND MUL OR SWAP1 SSTORE POP DUP2 PUSH20 0xFFFFFFFFFFFFFFFFFFFFFFFFFFFFFFFFFFFFFFFF AND DUP2 PUSH20 0xFFFFFFFFFFFFFFFFFFFFFFFFFFFFFFFFFFFFFFFF AND PUSH32 0x8BE0079C531659141344CD1FD0A4F28419497F9722A3DAAFE3B4186F6B6457E0 PUSH1 0x40 MLOAD PUSH1 0x40 MLOAD DUP1 SWAP2 SUB SWAP1 LOG3 POP POP JUMP JUMPDEST PUSH0 DUP1 REVERT JUMPDEST PUSH0 PUSH20 0xFFFFFFFFFFFFFFFFFFFFFFFFFFFFFFFFFFFFFFFF DUP3 AND SWAP1 POP SWAP2 SWAP1 POP JUMP JUMPDEST PUSH0 PUSH2 0x286 DUP3 PUSH2 0x25D JUMP JUMPDEST SWAP1 POP SWAP2 SWAP1 POP JUMP JUMPDEST PUSH2 0x296 DUP2 PUSH2 0x27C JUMP JUMPDEST DUP2 EQ PUSH2 0x2A0 JUMPI PUSH0 DUP1 REVERT JUMPDEST POP JUMP JUMPDEST PUSH0 DUP2 MLOAD SWAP1 POP PUSH2 0x2B1 DUP2 PUSH2 0x28D JUMP JUMPDEST SWAP3 SWAP2 POP POP JUMP JUMPDEST PUSH0 DUP1 PUSH1 0x40 DUP4 DUP6 SUB SLT ISZERO PUSH2 0x2CD JUMPI PUSH2 0x2CC PUSH2 0x259 JUMP JUMPDEST JUMPDEST PUSH0 PUSH2 0x2DA DUP6 DUP3 DUP7 ADD PUSH2 0x2A3 JUMP JUMPDEST SWAP3 POP POP PUSH1 0x20 PUSH2 0x2EB DUP6 DUP3 DUP7 ADD PUSH2 0x2A3 JUMP JUMPDEST SWAP2 POP POP SWAP3 POP SWAP3 SWAP1 POP JUMP JUMPDEST PUSH0 DUP3 DUP3 MSTORE PUSH1 0x20 DUP3 ADD SWAP1 POP SWAP3 SWAP2 POP POP JUMP JUMPDEST PUSH32 0x496E76616C696420746F6B656E20616464726573736573000000000000000000 PUSH0 DUP3 ADD MSTORE POP JUMP JUMPDEST PUSH0 PUSH2 0x339 PUSH1 0x17 DUP4 PUSH2 0x2F5 JUMP JUMPDEST SWAP2 POP PUSH2 0x344 DUP3 PUSH2 0x305 JUMP JUMPDEST PUSH1 0x20 DUP3 ADD SWAP1 POP SWAP2 SWAP1 POP JUMP JUMPDEST PUSH0 PUSH1 0x20 DUP3 ADD SWAP1 POP DUP2 DUP2 SUB PUSH0 DUP4 ADD MSTORE PUSH2 0x366 DUP2 PUSH2 0x32D JUMP JUMPDEST SWAP1 POP SWAP2 SWAP1 POP JUMP JUMPDEST PUSH2 0x221D DUP1 PUSH2 0x37A PUSH0 CODECOPY PUSH0 RETURN INVALID PUSH1 0x80 PUSH1 0x40 MSTORE CALLVALUE DUP1 ISZERO PUSH2 0xF JUMPI PUSH0 DUP1 REVERT JUMPDEST POP PUSH1 0x4 CALLDATASIZE LT PUSH2 0xCD JUMPI PUSH0 CALLDATALOAD PUSH1 0xE0 SHR DUP1 PUSH4 0x8DA5CB5B GT PUSH2 0x8A JUMPI DUP1 PUSH4 0xB9FFA6A8 GT PUSH2 0x64 JUMPI DUP1 PUSH4 0xB9FFA6A8 EQ PUSH2 0x1EC JUMPI DUP1 PUSH4 0xD004F0F7 EQ PUSH2 0x20A JUMPI DUP1 PUSH4 0xD21220A7 EQ PUSH2 0x23A JUMPI DUP1 PUSH4 0xF2FDE38B EQ PUSH2 0x258 JUMPI PUSH2 0xCD JUMP JUMPDEST DUP1 PUSH4 0x8DA5CB5B EQ PUSH2 0x196 JUMPI DUP1 PUSH4 0x9CD441DA EQ PUSH2 0x1B4 JUMPI DUP1 PUSH4 0x9D7DE6B3 EQ PUSH2 0x1D0 JUMPI PUSH2 0xCD JUMP JUMPDEST DUP1 PUSH4 0x902F1AC EQ PUSH2 0xD1 JUMPI DUP1 PUSH4 0x25BE124E EQ PUSH2 0xF0 JUMPI DUP1 PUSH4 0x449E815D EQ PUSH2 0x10E JUMPI DUP1 PUSH4 0x68A455F1 EQ PUSH2 0x13E JUMPI DUP1 PUSH4 0x709C50F6 EQ PUSH2 0x15C JUMPI DUP1 PUSH4 0x715018A6 EQ PUSH2 0x18C JUMPI JUMPDEST PUSH0 DUP1 REVERT JUMPDEST PUSH2 0xD9 PUSH2 0x274 JUMP JUMPDEST PUSH1 0x40 MLOAD PUSH2 0xE7 SWAP3 SWAP2 SWAP1 PUSH2 0x1582 JUMP JUMPDEST PUSH1 0x40 MLOAD DUP1 SWAP2 SUB SWAP1 RETURN JUMPDEST PUSH2 0xF8 PUSH2 0x284 JUMP JUMPDEST PUSH1 0x40 MLOAD PUSH2 0x105 SWAP2 SWAP1 PUSH2 0x1623 JUMP JUMPDEST PUSH1 0x40 MLOAD DUP1 SWAP2 SUB SWAP1 RETURN JUMPDEST PUSH2 0x128 PUSH1 0x4 DUP1 CALLDATASIZE SUB DUP2 ADD SWAP1 PUSH2 0x123 SWAP2 SWAP1 PUSH2 0x16A5 JUMP JUMPDEST PUSH2 0x2A9 JUMP JUMPDEST PUSH1 0x40 MLOAD PUSH2 0x135 SWAP2 SWAP1 PUSH2 0x16E3 JUMP JUMPDEST PUSH1 0x40 MLOAD DUP1 SWAP2 SUB SWAP1 RETURN JUMPDEST PUSH2 0x146 PUSH2 0x2BC JUMP JUMPDEST PUSH1 0x40 MLOAD PUSH2 0x153 SWAP2 SWAP1 PUSH2 0x16E3 JUMP JUMPDEST PUSH1 0x40 MLOAD DUP1 SWAP2 SUB SWAP1 RETURN JUMPDEST PUSH2 0x176 PUSH1 0x4 DUP1 CALLDATASIZE SUB DUP2 ADD SWAP1 PUSH2 0x171 SWAP2 SWAP1 PUSH2 0x16FC JUMP JUMPDEST PUSH2 0x2C2 JUMP JUMPDEST PUSH1 0x40 MLOAD PUSH2 0x183 SWAP2 SWAP1 PUSH2 0x16E3 JUMP JUMPDEST PUSH1 0x40 MLOAD DUP1 SWAP2 SUB SWAP1 RETURN JUMPDEST PUSH2 0x194 PUSH2 0x329 JUMP JUMPDEST STOP JUMPDEST PUSH2 0x19E PUSH2 0x33C JUMP JUMPDEST PUSH1 0x40 MLOAD PUSH2 0x1AB SWAP2 SWAP1 PUSH2 0x175B JUMP JUMPDEST PUSH1 0x40 MLOAD DUP1 SWAP2 SUB SWAP1 RETURN JUMPDEST PUSH2 0x1CE PUSH1 0x4 DUP1 CALLDATASIZE SUB DUP2 ADD SWAP1 PUSH2 0x1C9 SWAP2 SWAP1 PUSH2 0x1774 JUMP JUMPDEST PUSH2 0x363 JUMP JUMPDEST STOP JUMPDEST PUSH2 0x1EA PUSH1 0x4 DUP1 CALLDATASIZE SUB DUP2 ADD SWAP1 PUSH2 0x1E5 SWAP2 SWAP1 PUSH2 0x1774 JUMP JUMPDEST PUSH2 0x864 JUMP JUMPDEST STOP JUMPDEST PUSH2 0x1F4 PUSH2 0xA4D JUMP JUMPDEST PUSH1 0x40 MLOAD PUSH2 0x201 SWAP2 SWAP1 PUSH2 0x16E3 JUMP JUMPDEST PUSH1 0x40 MLOAD DUP1 SWAP2 SUB SWAP1 RETURN JUMPDEST PUSH2 0x224 PUSH1 0x4 DUP1 CALLDATASIZE SUB DUP2 ADD SWAP1 PUSH2 0x21F SWAP2 SWAP1 PUSH2 0x16A5 JUMP JUMPDEST PUSH2 0xA53 JUMP JUMPDEST PUSH1 0x40 MLOAD PUSH2 0x231 SWAP2 SWAP1 PUSH2 0x16E3 JUMP JUMPDEST PUSH1 0x40 MLOAD DUP1 SWAP2 SUB SWAP1 RETURN JUMPDEST PUSH2 0x242 PUSH2 0xE70 JUMP JUMPDEST PUSH1 0x40 MLOAD PUSH2 0x24F SWAP2 SWAP1 PUSH2 0x1623 JUMP JUMPDEST PUSH1 0x40 MLOAD DUP1 SWAP2 SUB SWAP1 RETURN JUMPDEST PUSH2 0x272 PUSH1 0x4 DUP1 CALLDATASIZE SUB DUP2 ADD SWAP1 PUSH2 0x26D SWAP2 SWAP1 PUSH2 0x17B2 JUMP JUMPDEST PUSH2 0xE95 JUMP JUMPDEST STOP JUMPDEST PUSH0 DUP1 PUSH1 0x4 SLOAD PUSH1 0x5 SLOAD SWAP2 POP SWAP2 POP SWAP1 SWAP2 JUMP JUMPDEST PUSH1 0x3 PUSH0 SWAP1 SLOAD SWAP1 PUSH2 0x100 EXP SWAP1 DIV PUSH20 0xFFFFFFFFFFFFFFFFFFFFFFFFFFFFFFFFFFFFFFFF AND DUP2 JUMP JUMPDEST PUSH0 PUSH2 0x2B4 DUP4 DUP4 PUSH2 0xF17 JUMP JUMPDEST SWAP1 POP SWAP3 SWAP2 POP POP JUMP JUMPDEST PUSH1 0x5 SLOAD DUP2 JUMP JUMPDEST PUSH0 PUSH2 0x2CB PUSH2 0x1033 JUMP JUMPDEST PUSH2 0x2D5 DUP5 DUP5 PUSH2 0xA53 JUMP JUMPDEST SWAP1 POP DUP2 DUP2 LT ISZERO PUSH2 0x31A JUMPI PUSH1 0x40 MLOAD PUSH32 0x8C379A000000000000000000000000000000000000000000000000000000000 DUP2 MSTORE PUSH1 0x4 ADD PUSH2 0x311 SWAP1 PUSH2 0x1837 JUMP JUMPDEST PUSH1 0x40 MLOAD DUP1 SWAP2 SUB SWAP1 REVERT JUMPDEST PUSH2 0x322 PUSH2 0x1082 JUMP JUMPDEST SWAP4 SWAP3 POP POP POP JUMP JUMPDEST PUSH2 0x331 PUSH2 0x108B JUMP JUMPDEST PUSH2 0x33A PUSH0 PUSH2 0x1109 JUMP JUMPDEST JUMP JUMPDEST PUSH0 DUP1 PUSH0 SWAP1 SLOAD SWAP1 PUSH2 0x100 EXP SWAP1 DIV PUSH20 0xFFFFFFFFFFFFFFFFFFFFFFFFFFFFFFFFFFFFFFFF AND SWAP1 POP SWAP1 JUMP JUMPDEST PUSH2 0x36B PUSH2 0x1033 JUMP JUMPDEST PUSH0 DUP3 GT DUP1 ISZERO PUSH2 0x379 JUMPI POP PUSH0 DUP2 GT JUMPDEST PUSH2 0x3B8 JUMPI PUSH1 0x40 MLOAD PUSH32 0x8C379A000000000000000000000000000000000000000000000000000000000 DUP2 MSTORE PUSH1 0x4 ADD PUSH2 0x3AF SWAP1 PUSH2 0x189F JUMP JUMPDEST PUSH1 0x40 MLOAD DUP1 SWAP2 SUB SWAP1 REVERT JUMPDEST PUSH0 PUSH1 0x2 PUSH0 SWAP1 SLOAD SWAP1 PUSH2 0x100 EXP SWAP1 DIV PUSH20 0xFFFFFFFFFFFFFFFFFFFFFFFFFFFFFFFFFFFFFFFF AND PUSH20 0xFFFFFFFFFFFFFFFFFFFFFFFFFFFFFFFFFFFFFFFF AND PUSH4 0xDD62ED3E CALLER ADDRESS PUSH1 0x40 MLOAD DUP4 PUSH4 0xFFFFFFFF AND PUSH1 0xE0 SHL DUP2 MSTORE PUSH1 0x4 ADD PUSH2 0x415 SWAP3 SWAP2 SWAP1 PUSH2 0x18BD JUMP JUMPDEST PUSH1 0x20 PUSH1 0x40 MLOAD DUP1 DUP4 SUB DUP2 DUP7 GAS STATICCALL ISZERO DUP1 ISZERO PUSH2 0x430 JUMPI RETURNDATASIZE PUSH0 DUP1 RETURNDATACOPY RETURNDATASIZE PUSH0 REVERT JUMPDEST POP POP POP POP PUSH1 0x40 MLOAD RETURNDATASIZE PUSH1 0x1F NOT PUSH1 0x1F DUP3 ADD AND DUP3 ADD DUP1 PUSH1 0x40 MSTORE POP DUP2 ADD SWAP1 PUSH2 0x454 SWAP2 SWAP1 PUSH2 0x18F8 JUMP JUMPDEST SWAP1 POP PUSH0 PUSH1 0x3 PUSH0 SWAP1 SLOAD SWAP1 PUSH2 0x100 EXP SWAP1 DIV PUSH20 0xFFFFFFFFFFFFFFFFFFFFFFFFFFFFFFFFFFFFFFFF AND PUSH20 0xFFFFFFFFFFFFFFFFFFFFFFFFFFFFFFFFFFFFFFFF AND PUSH4 0xDD62ED3E CALLER ADDRESS PUSH1 0x40 MLOAD DUP4 PUSH4 0xFFFFFFFF AND PUSH1 0xE0 SHL DUP2 MSTORE PUSH1 0x4 ADD PUSH2 0x4B3 SWAP3 SWAP2 SWAP1 PUSH2 0x18BD JUMP JUMPDEST PUSH1 0x20 PUSH1 0x40 MLOAD DUP1 DUP4 SUB DUP2 DUP7 GAS STATICCALL ISZERO DUP1 ISZERO PUSH2 0x4CE JUMPI RETURNDATASIZE PUSH0 DUP1 RETURNDATACOPY RETURNDATASIZE PUSH0 REVERT JUMPDEST POP POP POP POP PUSH1 0x40 MLOAD RETURNDATASIZE PUSH1 0x1F NOT PUSH1 0x1F DUP3 ADD AND DUP3 ADD DUP1 PUSH1 0x40 MSTORE POP DUP2 ADD SWAP1 PUSH2 0x4F2 SWAP2 SWAP1 PUSH2 0x18F8 JUMP JUMPDEST SWAP1 POP DUP4 DUP3 LT ISZERO PUSH2 0x537 JUMPI PUSH1 0x40 MLOAD PUSH32 0x8C379A000000000000000000000000000000000000000000000000000000000 DUP2 MSTORE PUSH1 0x4 ADD PUSH2 0x52E SWAP1 PUSH2 0x196D JUMP JUMPDEST PUSH1 0x40 MLOAD DUP1 SWAP2 SUB SWAP1 REVERT JUMPDEST DUP3 DUP2 LT ISZERO PUSH2 0x57A JUMPI PUSH1 0x40 MLOAD PUSH32 0x8C379A000000000000000000000000000000000000000000000000000000000 DUP2 MSTORE PUSH1 0x4 ADD PUSH2 0x571 SWAP1 PUSH2 0x19D5 JUMP JUMPDEST PUSH1 0x40 MLOAD DUP1 SWAP2 SUB SWAP1 REVERT JUMPDEST PUSH0 PUSH1 0x2 PUSH0 SWAP1 SLOAD SWAP1 PUSH2 0x100 EXP SWAP1 DIV PUSH20 0xFFFFFFFFFFFFFFFFFFFFFFFFFFFFFFFFFFFFFFFF AND PUSH20 0xFFFFFFFFFFFFFFFFFFFFFFFFFFFFFFFFFFFFFFFF AND PUSH4 0x70A08231 CALLER PUSH1 0x40 MLOAD DUP3 PUSH4 0xFFFFFFFF AND PUSH1 0xE0 SHL DUP2 MSTORE PUSH1 0x4 ADD PUSH2 0x5D5 SWAP2 SWAP1 PUSH2 0x175B JUMP JUMPDEST PUSH1 0x20 PUSH1 0x40 MLOAD DUP1 DUP4 SUB DUP2 DUP7 GAS STATICCALL ISZERO DUP1 ISZERO PUSH2 0x5F0 JUMPI RETURNDATASIZE PUSH0 DUP1 RETURNDATACOPY RETURNDATASIZE PUSH0 REVERT JUMPDEST POP POP POP POP PUSH1 0x40 MLOAD RETURNDATASIZE PUSH1 0x1F NOT PUSH1 0x1F DUP3 ADD AND DUP3 ADD DUP1 PUSH1 0x40 MSTORE POP DUP2 ADD SWAP1 PUSH2 0x614 SWAP2 SWAP1 PUSH2 0x18F8 JUMP JUMPDEST SWAP1 POP PUSH0 PUSH1 0x3 PUSH0 SWAP1 SLOAD SWAP1 PUSH2 0x100 EXP SWAP1 DIV PUSH20 0xFFFFFFFFFFFFFFFFFFFFFFFFFFFFFFFFFFFFFFFF AND PUSH20 0xFFFFFFFFFFFFFFFFFFFFFFFFFFFFFFFFFFFFFFFF AND PUSH4 0x70A08231 CALLER PUSH1 0x40 MLOAD DUP3 PUSH4 0xFFFFFFFF AND PUSH1 0xE0 SHL DUP2 MSTORE PUSH1 0x4 ADD PUSH2 0x671 SWAP2 SWAP1 PUSH2 0x175B JUMP JUMPDEST PUSH1 0x20 PUSH1 0x40 MLOAD DUP1 DUP4 SUB DUP2 DUP7 GAS STATICCALL ISZERO DUP1 ISZERO PUSH2 0x68C JUMPI RETURNDATASIZE PUSH0 DUP1 RETURNDATACOPY RETURNDATASIZE PUSH0 REVERT JUMPDEST POP POP POP POP PUSH1 0x40 MLOAD RETURNDATASIZE PUSH1 0x1F NOT PUSH1 0x1F DUP3 ADD AND DUP3 ADD DUP1 PUSH1 0x40 MSTORE POP DUP2 ADD SWAP1 PUSH2 0x6B0 SWAP2 SWAP1 PUSH2 0x18F8 JUMP JUMPDEST SWAP1 POP DUP6 DUP3 LT ISZERO PUSH2 0x6F5 JUMPI PUSH1 0x40 MLOAD PUSH32 0x8C379A000000000000000000000000000000000000000000000000000000000 DUP2 MSTORE PUSH1 0x4 ADD PUSH2 0x6EC SWAP1 PUSH2 0x1A3D JUMP JUMPDEST PUSH1 0x40 MLOAD DUP1 SWAP2 SUB SWAP1 REVERT JUMPDEST DUP5 DUP2 LT ISZERO PUSH2 0x738 JUMPI PUSH1 0x40 MLOAD PUSH32 0x8C379A000000000000000000000000000000000000000000000000000000000 DUP2 MSTORE PUSH1 0x4 ADD PUSH2 0x72F SWAP1 PUSH2 0x1AA5 JUMP JUMPDEST PUSH1 0x40 MLOAD DUP1 SWAP2 SUB SWAP1 REVERT JUMPDEST PUSH2 0x786 CALLER ADDRESS DUP9 PUSH1 0x2 PUSH0 SWAP1 SLOAD SWAP1 PUSH2 0x100 EXP SWAP1 DIV PUSH20 0xFFFFFFFFFFFFFFFFFFFFFFFFFFFFFFFFFFFFFFFF AND PUSH20 0xFFFFFFFFFFFFFFFFFFFFFFFFFFFFFFFFFFFFFFFF AND PUSH2 0x11CA SWAP1 SWAP4 SWAP3 SWAP2 SWAP1 PUSH4 0xFFFFFFFF AND JUMP JUMPDEST PUSH2 0x7D4 CALLER ADDRESS DUP8 PUSH1 0x3 PUSH0 SWAP1 SLOAD SWAP1 PUSH2 0x100 EXP SWAP1 DIV PUSH20 0xFFFFFFFFFFFFFFFFFFFFFFFFFFFFFFFFFFFFFFFF AND PUSH20 0xFFFFFFFFFFFFFFFFFFFFFFFFFFFFFFFFFFFFFFFF AND PUSH2 0x11CA SWAP1 SWAP4 SWAP3 SWAP2 SWAP1 PUSH4 0xFFFFFFFF AND JUMP JUMPDEST DUP6 PUSH1 0x4 PUSH0 DUP3 DUP3 SLOAD PUSH2 0x7E5 SWAP2 SWAP1 PUSH2 0x1AF0 JUMP JUMPDEST SWAP3 POP POP DUP2 SWAP1 SSTORE POP DUP5 PUSH1 0x5 PUSH0 DUP3 DUP3 SLOAD PUSH2 0x7FD SWAP2 SWAP1 PUSH2 0x1AF0 JUMP JUMPDEST SWAP3 POP POP DUP2 SWAP1 SSTORE POP CALLER PUSH20 0xFFFFFFFFFFFFFFFFFFFFFFFFFFFFFFFFFFFFFFFF AND PUSH32 0xAC1D76749E5447B7B16F5AB61447E1BD502F3BB4807AF3B28E620D1700A6EE45 DUP8 DUP8 PUSH1 0x40 MLOAD PUSH2 0x84C SWAP3 SWAP2 SWAP1 PUSH2 0x1582 JUMP JUMPDEST PUSH1 0x40 MLOAD DUP1 SWAP2 SUB SWAP1 LOG2 POP POP POP POP PUSH2 0x860 PUSH2 0x1082 JUMP JUMPDEST POP POP JUMP JUMPDEST PUSH2 0x86C PUSH2 0x108B JUMP JUMPDEST PUSH2 0x874 PUSH2 0x1033 JUMP JUMPDEST PUSH0 DUP3 GT DUP1 ISZERO PUSH2 0x882 JUMPI POP PUSH0 DUP2 GT JUMPDEST PUSH2 0x8C1 JUMPI PUSH1 0x40 MLOAD PUSH32 0x8C379A000000000000000000000000000000000000000000000000000000000 DUP2 MSTORE PUSH1 0x4 ADD PUSH2 0x8B8 SWAP1 PUSH2 0x189F JUMP JUMPDEST PUSH1 0x40 MLOAD DUP1 SWAP2 SUB SWAP1 REVERT JUMPDEST DUP2 PUSH1 0x4 SLOAD LT ISZERO DUP1 ISZERO PUSH2 0x8D5 JUMPI POP DUP1 PUSH1 0x5 SLOAD LT ISZERO JUMPDEST PUSH2 0x914 JUMPI PUSH1 0x40 MLOAD PUSH32 0x8C379A000000000000000000000000000000000000000000000000000000000 DUP2 MSTORE PUSH1 0x4 ADD PUSH2 0x90B SWAP1 PUSH2 0x1B6D JUMP JUMPDEST PUSH1 0x40 MLOAD DUP1 SWAP2 SUB SWAP1 REVERT JUMPDEST DUP2 PUSH1 0x4 PUSH0 DUP3 DUP3 SLOAD PUSH2 0x925 SWAP2 SWAP1 PUSH2 0x1B8B JUMP JUMPDEST SWAP3 POP POP DUP2 SWAP1 SSTORE POP DUP1 PUSH1 0x5 PUSH0 DUP3 DUP3 SLOAD PUSH2 0x93D SWAP2 SWAP1 PUSH2 0x1B8B JUMP JUMPDEST SWAP3 POP POP DUP2 SWAP1 SSTORE POP PUSH2 0x997 PUSH2 0x94F PUSH2 0x33C JUMP JUMPDEST DUP4 PUSH1 0x2 PUSH0 SWAP1 SLOAD SWAP1 PUSH2 0x100 EXP SWAP1 DIV PUSH20 0xFFFFFFFFFFFFFFFFFFFFFFFFFFFFFFFFFFFFFFFF AND PUSH20 0xFFFFFFFFFFFFFFFFFFFFFFFFFFFFFFFFFFFFFFFF AND PUSH2 0x1253 SWAP1 SWAP3 SWAP2 SWAP1 PUSH4 0xFFFFFFFF AND JUMP JUMPDEST PUSH2 0x9EA PUSH2 0x9A2 PUSH2 0x33C JUMP JUMPDEST DUP3 PUSH1 0x3 PUSH0 SWAP1 SLOAD SWAP1 PUSH2 0x100 EXP SWAP1 DIV PUSH20 0xFFFFFFFFFFFFFFFFFFFFFFFFFFFFFFFFFFFFFFFF AND PUSH20 0xFFFFFFFFFFFFFFFFFFFFFFFFFFFFFFFFFFFFFFFF AND PUSH2 0x1253 SWAP1 SWAP3 SWAP2 SWAP1 PUSH4 0xFFFFFFFF AND JUMP JUMPDEST PUSH2 0x9F2 PUSH2 0x33C JUMP JUMPDEST PUSH20 0xFFFFFFFFFFFFFFFFFFFFFFFFFFFFFFFFFFFFFFFF AND PUSH32 0x96CD817C6329656790EF8FBA7675405193677D39619571282F5E21F3A98CD059 DUP4 DUP4 PUSH1 0x40 MLOAD PUSH2 0xA39 SWAP3 SWAP2 SWAP1 PUSH2 0x1582 JUMP JUMPDEST PUSH1 0x40 MLOAD DUP1 SWAP2 SUB SWAP1 LOG2 PUSH2 0xA49 PUSH2 0x1082 JUMP JUMPDEST POP POP JUMP JUMPDEST PUSH1 0x4 SLOAD DUP2 JUMP JUMPDEST PUSH0 PUSH2 0xA5C PUSH2 0x1033 JUMP JUMPDEST PUSH1 0x2 PUSH0 SWAP1 SLOAD SWAP1 PUSH2 0x100 EXP SWAP1 DIV PUSH20 0xFFFFFFFFFFFFFFFFFFFFFFFFFFFFFFFFFFFFFFFF AND PUSH20 0xFFFFFFFFFFFFFFFFFFFFFFFFFFFFFFFFFFFFFFFF AND DUP4 PUSH20 0xFFFFFFFFFFFFFFFFFFFFFFFFFFFFFFFFFFFFFFFF AND EQ DUP1 PUSH2 0xB03 JUMPI POP PUSH1 0x3 PUSH0 SWAP1 SLOAD SWAP1 PUSH2 0x100 EXP SWAP1 DIV PUSH20 0xFFFFFFFFFFFFFFFFFFFFFFFFFFFFFFFFFFFFFFFF AND PUSH20 0xFFFFFFFFFFFFFFFFFFFFFFFFFFFFFFFFFFFFFFFF AND DUP4 PUSH20 0xFFFFFFFFFFFFFFFFFFFFFFFFFFFFFFFFFFFFFFFF AND EQ JUMPDEST PUSH2 0xB42 JUMPI PUSH1 0x40 MLOAD PUSH32 0x8C379A000000000000000000000000000000000000000000000000000000000 DUP2 MSTORE PUSH1 0x4 ADD PUSH2 0xB39 SWAP1 PUSH2 0x1C08 JUMP JUMPDEST PUSH1 0x40 MLOAD DUP1 SWAP2 SUB SWAP1 REVERT JUMPDEST PUSH0 DUP3 GT PUSH2 0xB84 JUMPI PUSH1 0x40 MLOAD PUSH32 0x8C379A000000000000000000000000000000000000000000000000000000000 DUP2 MSTORE PUSH1 0x4 ADD PUSH2 0xB7B SWAP1 PUSH2 0x1C70 JUMP JUMPDEST PUSH1 0x40 MLOAD DUP1 SWAP2 SUB SWAP1 REVERT JUMPDEST PUSH0 DUP4 SWAP1 POP PUSH0 PUSH1 0x2 PUSH0 SWAP1 SLOAD SWAP1 PUSH2 0x100 EXP SWAP1 DIV PUSH20 0xFFFFFFFFFFFFFFFFFFFFFFFFFFFFFFFFFFFFFFFF AND PUSH20 0xFFFFFFFFFFFFFFFFFFFFFFFFFFFFFFFFFFFFFFFF AND DUP6 PUSH20 0xFFFFFFFFFFFFFFFFFFFFFFFFFFFFFFFFFFFFFFFF AND EQ PUSH2 0xC04 JUMPI PUSH1 0x2 PUSH0 SWAP1 SLOAD SWAP1 PUSH2 0x100 EXP SWAP1 DIV PUSH20 0xFFFFFFFFFFFFFFFFFFFFFFFFFFFFFFFFFFFFFFFF AND PUSH2 0xC27 JUMP JUMPDEST PUSH1 0x3 PUSH0 SWAP1 SLOAD SWAP1 PUSH2 0x100 EXP SWAP1 DIV PUSH20 0xFFFFFFFFFFFFFFFFFFFFFFFFFFFFFFFFFFFFFFFF AND JUMPDEST SWAP1 POP PUSH2 0xC33 DUP6 DUP6 PUSH2 0xF17 JUMP JUMPDEST SWAP3 POP PUSH0 DUP4 GT DUP1 ISZERO PUSH2 0xCBB JUMPI POP DUP1 PUSH20 0xFFFFFFFFFFFFFFFFFFFFFFFFFFFFFFFFFFFFFFFF AND PUSH4 0x70A08231 ADDRESS PUSH1 0x40 MLOAD DUP3 PUSH4 0xFFFFFFFF AND PUSH1 0xE0 SHL DUP2 MSTORE PUSH1 0x4 ADD PUSH2 0xC78 SWAP2 SWAP1 PUSH2 0x175B JUMP JUMPDEST PUSH1 0x20 PUSH1 0x40 MLOAD DUP1 DUP4 SUB DUP2 DUP7 GAS STATICCALL ISZERO DUP1 ISZERO PUSH2 0xC93 JUMPI RETURNDATASIZE PUSH0 DUP1 RETURNDATACOPY RETURNDATASIZE PUSH0 REVERT JUMPDEST POP POP POP POP PUSH1 0x40 MLOAD RETURNDATASIZE PUSH1 0x1F NOT PUSH1 0x1F DUP3 ADD AND DUP3 ADD DUP1 PUSH1 0x40 MSTORE POP DUP2 ADD SWAP1 PUSH2 0xCB7 SWAP2 SWAP1 PUSH2 0x18F8 JUMP JUMPDEST DUP4 GT ISZERO JUMPDEST PUSH2 0xCFA JUMPI PUSH1 0x40 MLOAD PUSH32 0x8C379A000000000000000000000000000000000000000000000000000000000 DUP2 MSTORE PUSH1 0x4 ADD PUSH2 0xCF1 SWAP1 PUSH2 0x1B6D JUMP JUMPDEST PUSH1 0x40 MLOAD DUP1 SWAP2 SUB SWAP1 REVERT JUMPDEST PUSH2 0xD27 CALLER ADDRESS DUP7 DUP6 PUSH20 0xFFFFFFFFFFFFFFFFFFFFFFFFFFFFFFFFFFFFFFFF AND PUSH2 0x11CA SWAP1 SWAP4 SWAP3 SWAP2 SWAP1 PUSH4 0xFFFFFFFF AND JUMP JUMPDEST PUSH2 0xD52 CALLER DUP5 DUP4 PUSH20 0xFFFFFFFFFFFFFFFFFFFFFFFFFFFFFFFFFFFFFFFF AND PUSH2 0x1253 SWAP1 SWAP3 SWAP2 SWAP1 PUSH4 0xFFFFFFFF AND JUMP JUMPDEST PUSH1 0x2 PUSH0 SWAP1 SLOAD SWAP1 PUSH2 0x100 EXP SWAP1 DIV PUSH20 0xFFFFFFFFFFFFFFFFFFFFFFFFFFFFFFFFFFFFFFFF AND PUSH20 0xFFFFFFFFFFFFFFFFFFFFFFFFFFFFFFFFFFFFFFFF AND DUP6 PUSH20 0xFFFFFFFFFFFFFFFFFFFFFFFFFFFFFFFFFFFFFFFF AND SUB PUSH2 0xDDB JUMPI DUP4 PUSH1 0x4 PUSH0 DUP3 DUP3 SLOAD PUSH2 0xDB7 SWAP2 SWAP1 PUSH2 0x1AF0 JUMP JUMPDEST SWAP3 POP POP DUP2 SWAP1 SSTORE POP DUP3 PUSH1 0x5 PUSH0 DUP3 DUP3 SLOAD PUSH2 0xDCF SWAP2 SWAP1 PUSH2 0x1B8B JUMP JUMPDEST SWAP3 POP POP DUP2 SWAP1 SSTORE POP PUSH2 0xE0C JUMP JUMPDEST DUP4 PUSH1 0x5 PUSH0 DUP3 DUP3 SLOAD PUSH2 0xDEC SWAP2 SWAP1 PUSH2 0x1AF0 JUMP JUMPDEST SWAP3 POP POP DUP2 SWAP1 SSTORE POP DUP3 PUSH1 0x4 PUSH0 DUP3 DUP3 SLOAD PUSH2 0xE04 SWAP2 SWAP1 PUSH2 0x1B8B JUMP JUMPDEST SWAP3 POP POP DUP2 SWAP1 SSTORE POP JUMPDEST CALLER PUSH20 0xFFFFFFFFFFFFFFFFFFFFFFFFFFFFFFFFFFFFFFFF AND PUSH32 0x5380CF97D8F645D3C4896DA60C053458DCA03A3A31CEC642AC80E1DDF0D8D02A DUP7 DUP7 DUP5 DUP8 PUSH1 0x40 MLOAD PUSH2 0xE58 SWAP5 SWAP4 SWAP3 SWAP2 SWAP1 PUSH2 0x1C8E JUMP JUMPDEST PUSH1 0x40 MLOAD DUP1 SWAP2 SUB SWAP1 LOG2 POP POP PUSH2 0xE6A PUSH2 0x1082 JUMP JUMPDEST SWAP3 SWAP2 POP POP JUMP JUMPDEST PUSH1 0x2 PUSH0 SWAP1 SLOAD SWAP1 PUSH2 0x100 EXP SWAP1 DIV PUSH20 0xFFFFFFFFFFFFFFFFFFFFFFFFFFFFFFFFFFFFFFFF AND DUP2 JUMP JUMPDEST PUSH2 0xE9D PUSH2 0x108B JUMP JUMPDEST PUSH0 PUSH20 0xFFFFFFFFFFFFFFFFFFFFFFFFFFFFFFFFFFFFFFFF AND DUP2 PUSH20 0xFFFFFFFFFFFFFFFFFFFFFFFFFFFFFFFFFFFFFFFF AND SUB PUSH2 0xF0B JUMPI PUSH1 0x40 MLOAD PUSH32 0x8C379A000000000000000000000000000000000000000000000000000000000 DUP2 MSTORE PUSH1 0x4 ADD PUSH2 0xF02 SWAP1 PUSH2 0x1D41 JUMP JUMPDEST PUSH1 0x40 MLOAD DUP1 SWAP2 SUB SWAP1 REVERT JUMPDEST PUSH2 0xF14 DUP2 PUSH2 0x1109 JUMP JUMPDEST POP JUMP JUMPDEST PUSH0 DUP1 PUSH1 0x2 PUSH0 SWAP1 SLOAD SWAP1 PUSH2 0x100 EXP SWAP1 DIV PUSH20 0xFFFFFFFFFFFFFFFFFFFFFFFFFFFFFFFFFFFFFFFF AND PUSH20 0xFFFFFFFFFFFFFFFFFFFFFFFFFFFFFFFFFFFFFFFF AND DUP5 PUSH20 0xFFFFFFFFFFFFFFFFFFFFFFFFFFFFFFFFFFFFFFFF AND EQ PUSH2 0xF75 JUMPI PUSH1 0x5 SLOAD PUSH2 0xF79 JUMP JUMPDEST PUSH1 0x4 SLOAD JUMPDEST SWAP1 POP PUSH0 PUSH1 0x2 PUSH0 SWAP1 SLOAD SWAP1 PUSH2 0x100 EXP SWAP1 DIV PUSH20 0xFFFFFFFFFFFFFFFFFFFFFFFFFFFFFFFFFFFFFFFF AND PUSH20 0xFFFFFFFFFFFFFFFFFFFFFFFFFFFFFFFFFFFFFFFF AND DUP6 PUSH20 0xFFFFFFFFFFFFFFFFFFFFFFFFFFFFFFFFFFFFFFFF AND EQ PUSH2 0xFD8 JUMPI PUSH1 0x4 SLOAD PUSH2 0xFDC JUMP JUMPDEST PUSH1 0x5 SLOAD JUMPDEST SWAP1 POP PUSH0 PUSH2 0x3E5 DUP6 PUSH2 0xFED SWAP2 SWAP1 PUSH2 0x1D5F JUMP JUMPDEST SWAP1 POP PUSH0 DUP3 DUP3 PUSH2 0xFFC SWAP2 SWAP1 PUSH2 0x1D5F JUMP JUMPDEST SWAP1 POP PUSH0 DUP3 PUSH2 0x3E8 DUP7 PUSH2 0x100E SWAP2 SWAP1 PUSH2 0x1D5F JUMP JUMPDEST PUSH2 0x1018 SWAP2 SWAP1 PUSH2 0x1AF0 JUMP JUMPDEST SWAP1 POP DUP1 DUP3 PUSH2 0x1026 SWAP2 SWAP1 PUSH2 0x1DCD JUMP JUMPDEST SWAP6 POP POP POP POP POP POP SWAP3 SWAP2 POP POP JUMP JUMPDEST PUSH1 0x2 PUSH1 0x1 SLOAD SUB PUSH2 0x1078 JUMPI PUSH1 0x40 MLOAD PUSH32 0x8C379A000000000000000000000000000000000000000000000000000000000 DUP2 MSTORE PUSH1 0x4 ADD PUSH2 0x106F SWAP1 PUSH2 0x1E47 JUMP JUMPDEST PUSH1 0x40 MLOAD DUP1 SWAP2 SUB SWAP1 REVERT JUMPDEST PUSH1 0x2 PUSH1 0x1 DUP2 SWAP1 SSTORE POP JUMP JUMPDEST PUSH1 0x1 DUP1 DUP2 SWAP1 SSTORE POP JUMP JUMPDEST PUSH2 0x1093 PUSH2 0x12D9 JUMP JUMPDEST PUSH20 0xFFFFFFFFFFFFFFFFFFFFFFFFFFFFFFFFFFFFFFFF AND PUSH2 0x10B1 PUSH2 0x33C JUMP JUMPDEST PUSH20 0xFFFFFFFFFFFFFFFFFFFFFFFFFFFFFFFFFFFFFFFF AND EQ PUSH2 0x1107 JUMPI PUSH1 0x40 MLOAD PUSH32 0x8C379A000000000000000000000000000000000000000000000000000000000 DUP2 MSTORE PUSH1 0x4 ADD PUSH2 0x10FE SWAP1 PUSH2 0x1EAF JUMP JUMPDEST PUSH1 0x40 MLOAD DUP1 SWAP2 SUB SWAP1 REVERT JUMPDEST JUMP JUMPDEST PUSH0 DUP1 PUSH0 SWAP1 SLOAD SWAP1 PUSH2 0x100 EXP SWAP1 DIV PUSH20 0xFFFFFFFFFFFFFFFFFFFFFFFFFFFFFFFFFFFFFFFF AND SWAP1 POP DUP2 PUSH0 DUP1 PUSH2 0x100 EXP DUP2 SLOAD DUP2 PUSH20 0xFFFFFFFFFFFFFFFFFFFFFFFFFFFFFFFFFFFFFFFF MUL NOT AND SWAP1 DUP4 PUSH20 0xFFFFFFFFFFFFFFFFFFFFFFFFFFFFFFFFFFFFFFFF AND MUL OR SWAP1 SSTORE POP DUP2 PUSH20 0xFFFFFFFFFFFFFFFFFFFFFFFFFFFFFFFFFFFFFFFF AND DUP2 PUSH20 0xFFFFFFFFFFFFFFFFFFFFFFFFFFFFFFFFFFFFFFFF AND PUSH32 0x8BE0079C531659141344CD1FD0A4F28419497F9722A3DAAFE3B4186F6B6457E0 PUSH1 0x40 MLOAD PUSH1 0x40 MLOAD DUP1 SWAP2 SUB SWAP1 LOG3 POP POP JUMP JUMPDEST PUSH2 0x124D DUP5 PUSH4 0x23B872DD PUSH1 0xE0 SHL DUP6 DUP6 DUP6 PUSH1 0x40 MLOAD PUSH1 0x24 ADD PUSH2 0x11EB SWAP4 SWAP3 SWAP2 SWAP1 PUSH2 0x1ECD JUMP JUMPDEST PUSH1 0x40 MLOAD PUSH1 0x20 DUP2 DUP4 SUB SUB DUP2 MSTORE SWAP1 PUSH1 0x40 MSTORE SWAP1 PUSH28 0xFFFFFFFFFFFFFFFFFFFFFFFFFFFFFFFFFFFFFFFFFFFFFFFFFFFFFFFF NOT AND PUSH1 0x20 DUP3 ADD DUP1 MLOAD PUSH28 0xFFFFFFFFFFFFFFFFFFFFFFFFFFFFFFFFFFFFFFFFFFFFFFFFFFFFFFFF DUP4 DUP2 DUP4 AND OR DUP4 MSTORE POP POP POP POP PUSH2 0x12E0 JUMP JUMPDEST POP POP POP POP JUMP JUMPDEST PUSH2 0x12D4 DUP4 PUSH4 0xA9059CBB PUSH1 0xE0 SHL DUP5 DUP5 PUSH1 0x40 MLOAD PUSH1 0x24 ADD PUSH2 0x1272 SWAP3 SWAP2 SWAP1 PUSH2 0x1F02 JUMP JUMPDEST PUSH1 0x40 MLOAD PUSH1 0x20 DUP2 DUP4 SUB SUB DUP2 MSTORE SWAP1 PUSH1 0x40 MSTORE SWAP1 PUSH28 0xFFFFFFFFFFFFFFFFFFFFFFFFFFFFFFFFFFFFFFFFFFFFFFFFFFFFFFFF NOT AND PUSH1 0x20 DUP3 ADD DUP1 MLOAD PUSH28 0xFFFFFFFFFFFFFFFFFFFFFFFFFFFFFFFFFFFFFFFFFFFFFFFFFFFFFFFF DUP4 DUP2 DUP4 AND OR DUP4 MSTORE POP POP POP POP PUSH2 0x12E0 JUMP JUMPDEST POP POP POP JUMP JUMPDEST PUSH0 CALLER SWAP1 POP SWAP1 JUMP JUMPDEST PUSH0 PUSH2 0x1341 DUP3 PUSH1 0x40 MLOAD DUP1 PUSH1 0x40 ADD PUSH1 0x40 MSTORE DUP1 PUSH1 0x20 DUP2 MSTORE PUSH1 0x20 ADD PUSH32 0x5361666545524332303A206C6F772D6C6576656C2063616C6C206661696C6564 DUP2 MSTORE POP DUP6 PUSH20 0xFFFFFFFFFFFFFFFFFFFFFFFFFFFFFFFFFFFFFFFF AND PUSH2 0x13A5 SWAP1 SWAP3 SWAP2 SWAP1 PUSH4 0xFFFFFFFF AND JUMP JUMPDEST SWAP1 POP PUSH0 DUP2 MLOAD GT ISZERO PUSH2 0x13A0 JUMPI DUP1 DUP1 PUSH1 0x20 ADD SWAP1 MLOAD DUP2 ADD SWAP1 PUSH2 0x1360 SWAP2 SWAP1 PUSH2 0x1F5E JUMP JUMPDEST PUSH2 0x139F JUMPI PUSH1 0x40 MLOAD PUSH32 0x8C379A000000000000000000000000000000000000000000000000000000000 DUP2 MSTORE PUSH1 0x4 ADD PUSH2 0x1396 SWAP1 PUSH2 0x1FF9 JUMP JUMPDEST PUSH1 0x40 MLOAD DUP1 SWAP2 SUB SWAP1 REVERT JUMPDEST JUMPDEST POP POP POP JUMP JUMPDEST PUSH1 0x60 PUSH2 0x13B3 DUP5 DUP5 PUSH0 DUP6 PUSH2 0x13BC JUMP JUMPDEST SWAP1 POP SWAP4 SWAP3 POP POP POP JUMP JUMPDEST PUSH1 0x60 DUP3 SELFBALANCE LT ISZERO PUSH2 0x1401 JUMPI PUSH1 0x40 MLOAD PUSH32 0x8C379A000000000000000000000000000000000000000000000000000000000 DUP2 MSTORE PUSH1 0x4 ADD PUSH2 0x13F8 SWAP1 PUSH2 0x2087 JUMP JUMPDEST PUSH1 0x40 MLOAD DUP1 SWAP2 SUB SWAP1 REVERT JUMPDEST PUSH0 DUP1 DUP7 PUSH20 0xFFFFFFFFFFFFFFFFFFFFFFFFFFFFFFFFFFFFFFFF AND DUP6 DUP8 PUSH1 0x40 MLOAD PUSH2 0x1429 SWAP2 SWAP1 PUSH2 0x20F7 JUMP JUMPDEST PUSH0 PUSH1 0x40 MLOAD DUP1 DUP4 SUB DUP2 DUP6 DUP8 GAS CALL SWAP3 POP POP POP RETURNDATASIZE DUP1 PUSH0 DUP2 EQ PUSH2 0x1463 JUMPI PUSH1 0x40 MLOAD SWAP2 POP PUSH1 0x1F NOT PUSH1 0x3F RETURNDATASIZE ADD AND DUP3 ADD PUSH1 0x40 MSTORE RETURNDATASIZE DUP3 MSTORE RETURNDATASIZE PUSH0 PUSH1 0x20 DUP5 ADD RETURNDATACOPY PUSH2 0x1468 JUMP JUMPDEST PUSH1 0x60 SWAP2 POP JUMPDEST POP SWAP2 POP SWAP2 POP PUSH2 0x1479 DUP8 DUP4 DUP4 DUP8 PUSH2 0x1485 JUMP JUMPDEST SWAP3 POP POP POP SWAP5 SWAP4 POP POP POP POP JUMP JUMPDEST PUSH1 0x60 DUP4 ISZERO PUSH2 0x14E6 JUMPI PUSH0 DUP4 MLOAD SUB PUSH2 0x14DE JUMPI PUSH2 0x149E DUP6 PUSH2 0x14F9 JUMP JUMPDEST PUSH2 0x14DD JUMPI PUSH1 0x40 MLOAD PUSH32 0x8C379A000000000000000000000000000000000000000000000000000000000 DUP2 MSTORE PUSH1 0x4 ADD PUSH2 0x14D4 SWAP1 PUSH2 0x2157 JUMP JUMPDEST PUSH1 0x40 MLOAD DUP1 SWAP2 SUB SWAP1 REVERT JUMPDEST JUMPDEST DUP3 SWAP1 POP PUSH2 0x14F1 JUMP JUMPDEST PUSH2 0x14F0 DUP4 DUP4 PUSH2 0x151B JUMP JUMPDEST JUMPDEST SWAP5 SWAP4 POP POP POP POP JUMP JUMPDEST PUSH0 DUP1 DUP3 PUSH20 0xFFFFFFFFFFFFFFFFFFFFFFFFFFFFFFFFFFFFFFFF AND EXTCODESIZE GT SWAP1 POP SWAP2 SWAP1 POP JUMP JUMPDEST PUSH0 DUP3 MLOAD GT ISZERO PUSH2 0x152D JUMPI DUP2 MLOAD DUP1 DUP4 PUSH1 0x20 ADD REVERT JUMPDEST DUP1 PUSH1 0x40 MLOAD PUSH32 0x8C379A000000000000000000000000000000000000000000000000000000000 DUP2 MSTORE PUSH1 0x4 ADD PUSH2 0x1561 SWAP2 SWAP1 PUSH2 0x21C7 JUMP JUMPDEST PUSH1 0x40 MLOAD DUP1 SWAP2 SUB SWAP1 REVERT JUMPDEST PUSH0 DUP2 SWAP1 POP SWAP2 SWAP1 POP JUMP JUMPDEST PUSH2 0x157C DUP2 PUSH2 0x156A JUMP JUMPDEST DUP3 MSTORE POP POP JUMP JUMPDEST PUSH0 PUSH1 0x40 DUP3 ADD SWAP1 POP PUSH2 0x1595 PUSH0 DUP4 ADD DUP6 PUSH2 0x1573 JUMP JUMPDEST PUSH2 0x15A2 PUSH1 0x20 DUP4 ADD DUP5 PUSH2 0x1573 JUMP JUMPDEST SWAP4 SWAP3 POP POP POP JUMP JUMPDEST PUSH0 PUSH20 0xFFFFFFFFFFFFFFFFFFFFFFFFFFFFFFFFFFFFFFFF DUP3 AND SWAP1 POP SWAP2 SWAP1 POP JUMP JUMPDEST PUSH0 DUP2 SWAP1 POP SWAP2 SWAP1 POP JUMP JUMPDEST PUSH0 PUSH2 0x15EB PUSH2 0x15E6 PUSH2 0x15E1 DUP5 PUSH2 0x15A9 JUMP JUMPDEST PUSH2 0x15C8 JUMP JUMPDEST PUSH2 0x15A9 JUMP JUMPDEST SWAP1 POP SWAP2 SWAP1 POP JUMP JUMPDEST PUSH0 PUSH2 0x15FC DUP3 PUSH2 0x15D1 JUMP JUMPDEST SWAP1 POP SWAP2 SWAP1 POP JUMP JUMPDEST PUSH0 PUSH2 0x160D DUP3 PUSH2 0x15F2 JUMP JUMPDEST SWAP1 POP SWAP2 SWAP1 POP JUMP JUMPDEST PUSH2 0x161D DUP2 PUSH2 0x1603 JUMP JUMPDEST DUP3 MSTORE POP POP JUMP JUMPDEST PUSH0 PUSH1 0x20 DUP3 ADD SWAP1 POP PUSH2 0x1636 PUSH0 DUP4 ADD DUP5 PUSH2 0x1614 JUMP JUMPDEST SWAP3 SWAP2 POP POP JUMP JUMPDEST PUSH0 DUP1 REVERT JUMPDEST PUSH0 PUSH2 0x164A DUP3 PUSH2 0x15A9 JUMP JUMPDEST SWAP1 POP SWAP2 SWAP1 POP JUMP JUMPDEST PUSH2 0x165A DUP2 PUSH2 0x1640 JUMP JUMPDEST DUP2 EQ PUSH2 0x1664 JUMPI PUSH0 DUP1 REVERT JUMPDEST POP JUMP JUMPDEST PUSH0 DUP2 CALLDATALOAD SWAP1 POP PUSH2 0x1675 DUP2 PUSH2 0x1651 JUMP JUMPDEST SWAP3 SWAP2 POP POP JUMP JUMPDEST PUSH2 0x1684 DUP2 PUSH2 0x156A JUMP JUMPDEST DUP2 EQ PUSH2 0x168E JUMPI PUSH0 DUP1 REVERT JUMPDEST POP JUMP JUMPDEST PUSH0 DUP2 CALLDATALOAD SWAP1 POP PUSH2 0x169F DUP2 PUSH2 0x167B JUMP JUMPDEST SWAP3 SWAP2 POP POP JUMP JUMPDEST PUSH0 DUP1 PUSH1 0x40 DUP4 DUP6 SUB SLT ISZERO PUSH2 0x16BB JUMPI PUSH2 0x16BA PUSH2 0x163C JUMP JUMPDEST JUMPDEST PUSH0 PUSH2 0x16C8 DUP6 DUP3 DUP7 ADD PUSH2 0x1667 JUMP JUMPDEST SWAP3 POP POP PUSH1 0x20 PUSH2 0x16D9 DUP6 DUP3 DUP7 ADD PUSH2 0x1691 JUMP JUMPDEST SWAP2 POP POP SWAP3 POP SWAP3 SWAP1 POP JUMP JUMPDEST PUSH0 PUSH1 0x20 DUP3 ADD SWAP1 POP PUSH2 0x16F6 PUSH0 DUP4 ADD DUP5 PUSH2 0x1573 JUMP JUMPDEST SWAP3 SWAP2 POP POP JUMP JUMPDEST PUSH0 DUP1 PUSH0 PUSH1 0x60 DUP5 DUP7 SUB SLT ISZERO PUSH2 0x1713 JUMPI PUSH2 0x1712 PUSH2 0x163C JUMP JUMPDEST JUMPDEST PUSH0 PUSH2 0x1720 DUP7 DUP3 DUP8 ADD PUSH2 0x1667 JUMP JUMPDEST SWAP4 POP POP PUSH1 0x20 PUSH2 0x1731 DUP7 DUP3 DUP8 ADD PUSH2 0x1691 JUMP JUMPDEST SWAP3 POP POP PUSH1 0x40 PUSH2 0x1742 DUP7 DUP3 DUP8 ADD PUSH2 0x1691 JUMP JUMPDEST SWAP2 POP POP SWAP3 POP SWAP3 POP SWAP3 JUMP JUMPDEST PUSH2 0x1755 DUP2 PUSH2 0x1640 JUMP JUMPDEST DUP3 MSTORE POP POP JUMP JUMPDEST PUSH0 PUSH1 0x20 DUP3 ADD SWAP1 POP PUSH2 0x176E PUSH0 DUP4 ADD DUP5 PUSH2 0x174C JUMP JUMPDEST SWAP3 SWAP2 POP POP JUMP JUMPDEST PUSH0 DUP1 PUSH1 0x40 DUP4 DUP6 SUB SLT ISZERO PUSH2 0x178A JUMPI PUSH2 0x1789 PUSH2 0x163C JUMP JUMPDEST JUMPDEST PUSH0 PUSH2 0x1797 DUP6 DUP3 DUP7 ADD PUSH2 0x1691 JUMP JUMPDEST SWAP3 POP POP PUSH1 0x20 PUSH2 0x17A8 DUP6 DUP3 DUP7 ADD PUSH2 0x1691 JUMP JUMPDEST SWAP2 POP POP SWAP3 POP SWAP3 SWAP1 POP JUMP JUMPDEST PUSH0 PUSH1 0x20 DUP3 DUP5 SUB SLT ISZERO PUSH2 0x17C7 JUMPI PUSH2 0x17C6 PUSH2 0x163C JUMP JUMPDEST JUMPDEST PUSH0 PUSH2 0x17D4 DUP5 DUP3 DUP6 ADD PUSH2 0x1667 JUMP JUMPDEST SWAP2 POP POP SWAP3 SWAP2 POP POP JUMP JUMPDEST PUSH0 DUP3 DUP3 MSTORE PUSH1 0x20 DUP3 ADD SWAP1 POP SWAP3 SWAP2 POP POP JUMP JUMPDEST PUSH32 0x536C69707061676520746F6C6572616E63652065786365656465640000000000 PUSH0 DUP3 ADD MSTORE POP JUMP JUMPDEST PUSH0 PUSH2 0x1821 PUSH1 0x1B DUP4 PUSH2 0x17DD JUMP JUMPDEST SWAP2 POP PUSH2 0x182C DUP3 PUSH2 0x17ED JUMP JUMPDEST PUSH1 0x20 DUP3 ADD SWAP1 POP SWAP2 SWAP1 POP JUMP JUMPDEST PUSH0 PUSH1 0x20 DUP3 ADD SWAP1 POP DUP2 DUP2 SUB PUSH0 DUP4 ADD MSTORE PUSH2 0x184E DUP2 PUSH2 0x1815 JUMP JUMPDEST SWAP1 POP SWAP2 SWAP1 POP JUMP JUMPDEST PUSH32 0x416D6F756E7473206D7573742062652067726561746572207468616E20300000 PUSH0 DUP3 ADD MSTORE POP JUMP JUMPDEST PUSH0 PUSH2 0x1889 PUSH1 0x1E DUP4 PUSH2 0x17DD JUMP JUMPDEST SWAP2 POP PUSH2 0x1894 DUP3 PUSH2 0x1855 JUMP JUMPDEST PUSH1 0x20 DUP3 ADD SWAP1 POP SWAP2 SWAP1 POP JUMP JUMPDEST PUSH0 PUSH1 0x20 DUP3 ADD SWAP1 POP DUP2 DUP2 SUB PUSH0 DUP4 ADD MSTORE PUSH2 0x18B6 DUP2 PUSH2 0x187D JUMP JUMPDEST SWAP1 POP SWAP2 SWAP1 POP JUMP JUMPDEST PUSH0 PUSH1 0x40 DUP3 ADD SWAP1 POP PUSH2 0x18D0 PUSH0 DUP4 ADD DUP6 PUSH2 0x174C JUMP JUMPDEST PUSH2 0x18DD PUSH1 0x20 DUP4 ADD DUP5 PUSH2 0x174C JUMP JUMPDEST SWAP4 SWAP3 POP POP POP JUMP JUMPDEST PUSH0 DUP2 MLOAD SWAP1 POP PUSH2 0x18F2 DUP2 PUSH2 0x167B JUMP JUMPDEST SWAP3 SWAP2 POP POP JUMP JUMPDEST PUSH0 PUSH1 0x20 DUP3 DUP5 SUB SLT ISZERO PUSH2 0x190D JUMPI PUSH2 0x190C PUSH2 0x163C JUMP JUMPDEST JUMPDEST PUSH0 PUSH2 0x191A DUP5 DUP3 DUP6 ADD PUSH2 0x18E4 JUMP JUMPDEST SWAP2 POP POP SWAP3 SWAP2 POP POP JUMP JUMPDEST PUSH32 0x496E73756666696369656E7420746F6B656E3120616C6C6F77616E6365000000 PUSH0 DUP3 ADD MSTORE POP JUMP JUMPDEST PUSH0 PUSH2 0x1957 PUSH1 0x1D DUP4 PUSH2 0x17DD JUMP JUMPDEST SWAP2 POP PUSH2 0x1962 DUP3 PUSH2 0x1923 JUMP JUMPDEST PUSH1 0x20 DUP3 ADD SWAP1 POP SWAP2 SWAP1 POP JUMP JUMPDEST PUSH0 PUSH1 0x20 DUP3 ADD SWAP1 POP DUP2 DUP2 SUB PUSH0 DUP4 ADD MSTORE PUSH2 0x1984 DUP2 PUSH2 0x194B JUMP JUMPDEST SWAP1 POP SWAP2 SWAP1 POP JUMP JUMPDEST PUSH32 0x496E73756666696369656E7420746F6B656E3220616C6C6F77616E6365000000 PUSH0 DUP3 ADD MSTORE POP JUMP JUMPDEST PUSH0 PUSH2 0x19BF PUSH1 0x1D DUP4 PUSH2 0x17DD JUMP JUMPDEST SWAP2 POP PUSH2 0x19CA DUP3 PUSH2 0x198B JUMP JUMPDEST PUSH1 0x20 DUP3 ADD SWAP1 POP SWAP2 SWAP1 POP JUMP JUMPDEST PUSH0 PUSH1 0x20 DUP3 ADD SWAP1 POP DUP2 DUP2 SUB PUSH0 DUP4 ADD MSTORE PUSH2 0x19EC DUP2 PUSH2 0x19B3 JUMP JUMPDEST SWAP1 POP SWAP2 SWAP1 POP JUMP JUMPDEST PUSH32 0x496E73756666696369656E7420746F6B656E312062616C616E63650000000000 PUSH0 DUP3 ADD MSTORE POP JUMP JUMPDEST PUSH0 PUSH2 0x1A27 PUSH1 0x1B DUP4 PUSH2 0x17DD JUMP JUMPDEST SWAP2 POP PUSH2 0x1A32 DUP3 PUSH2 0x19F3 JUMP JUMPDEST PUSH1 0x20 DUP3 ADD SWAP1 POP SWAP2 SWAP1 POP JUMP JUMPDEST PUSH0 PUSH1 0x20 DUP3 ADD SWAP1 POP DUP2 DUP2 SUB PUSH0 DUP4 ADD MSTORE PUSH2 0x1A54 DUP2 PUSH2 0x1A1B JUMP JUMPDEST SWAP1 POP SWAP2 SWAP1 POP JUMP JUMPDEST PUSH32 0x496E73756666696369656E7420746F6B656E322062616C616E63650000000000 PUSH0 DUP3 ADD MSTORE POP JUMP JUMPDEST PUSH0 PUSH2 0x1A8F PUSH1 0x1B DUP4 PUSH2 0x17DD JUMP JUMPDEST SWAP2 POP PUSH2 0x1A9A DUP3 PUSH2 0x1A5B JUMP JUMPDEST PUSH1 0x20 DUP3 ADD SWAP1 POP SWAP2 SWAP1 POP JUMP JUMPDEST PUSH0 PUSH1 0x20 DUP3 ADD SWAP1 POP DUP2 DUP2 SUB PUSH0 DUP4 ADD MSTORE PUSH2 0x1ABC DUP2 PUSH2 0x1A83 JUMP JUMPDEST SWAP1 POP SWAP2 SWAP1 POP JUMP JUMPDEST PUSH32 0x4E487B7100000000000000000000000000000000000000000000000000000000 PUSH0 MSTORE PUSH1 0x11 PUSH1 0x4 MSTORE PUSH1 0x24 PUSH0 REVERT JUMPDEST PUSH0 PUSH2 0x1AFA DUP3 PUSH2 0x156A JUMP JUMPDEST SWAP2 POP PUSH2 0x1B05 DUP4 PUSH2 0x156A JUMP JUMPDEST SWAP3 POP DUP3 DUP3 ADD SWAP1 POP DUP1 DUP3 GT ISZERO PUSH2 0x1B1D JUMPI PUSH2 0x1B1C PUSH2 0x1AC3 JUMP JUMPDEST JUMPDEST SWAP3 SWAP2 POP POP JUMP JUMPDEST PUSH32 0x496E73756666696369656E74206C697175696469747900000000000000000000 PUSH0 DUP3 ADD MSTORE POP JUMP JUMPDEST PUSH0 PUSH2 0x1B57 PUSH1 0x16 DUP4 PUSH2 0x17DD JUMP JUMPDEST SWAP2 POP PUSH2 0x1B62 DUP3 PUSH2 0x1B23 JUMP JUMPDEST PUSH1 0x20 DUP3 ADD SWAP1 POP SWAP2 SWAP1 POP JUMP JUMPDEST PUSH0 PUSH1 0x20 DUP3 ADD SWAP1 POP DUP2 DUP2 SUB PUSH0 DUP4 ADD MSTORE PUSH2 0x1B84 DUP2 PUSH2 0x1B4B JUMP JUMPDEST SWAP1 POP SWAP2 SWAP1 POP JUMP JUMPDEST PUSH0 PUSH2 0x1B95 DUP3 PUSH2 0x156A JUMP JUMPDEST SWAP2 POP PUSH2 0x1BA0 DUP4 PUSH2 0x156A JUMP JUMPDEST SWAP3 POP DUP3 DUP3 SUB SWAP1 POP DUP2 DUP2 GT ISZERO PUSH2 0x1BB8 JUMPI PUSH2 0x1BB7 PUSH2 0x1AC3 JUMP JUMPDEST JUMPDEST SWAP3 SWAP2 POP POP JUMP JUMPDEST PUSH32 0x496E76616C696420746F6B656E00000000000000000000000000000000000000 PUSH0 DUP3 ADD MSTORE POP JUMP JUMPDEST PUSH0 PUSH2 0x1BF2 PUSH1 0xD DUP4 PUSH2 0x17DD JUMP JUMPDEST SWAP2 POP PUSH2 0x1BFD DUP3 PUSH2 0x1BBE JUMP JUMPDEST PUSH1 0x20 DUP3 ADD SWAP1 POP SWAP2 SWAP1 POP JUMP JUMPDEST PUSH0 PUSH1 0x20 DUP3 ADD SWAP1 POP DUP2 DUP2 SUB PUSH0 DUP4 ADD MSTORE PUSH2 0x1C1F DUP2 PUSH2 0x1BE6 JUMP JUMPDEST SWAP1 POP SWAP2 SWAP1 POP JUMP JUMPDEST PUSH32 0x416D6F756E74206D7573742062652067726561746572207468616E2030000000 PUSH0 DUP3 ADD MSTORE POP JUMP JUMPDEST PUSH0 PUSH2 0x1C5A PUSH1 0x1D DUP4 PUSH2 0x17DD JUMP JUMPDEST SWAP2 POP PUSH2 0x1C65 DUP3 PUSH2 0x1C26 JUMP JUMPDEST PUSH1 0x20 DUP3 ADD SWAP1 POP SWAP2 SWAP1 POP JUMP JUMPDEST PUSH0 PUSH1 0x20 DUP3 ADD SWAP1 POP DUP2 DUP2 SUB PUSH0 DUP4 ADD MSTORE PUSH2 0x1C87 DUP2 PUSH2 0x1C4E JUMP JUMPDEST SWAP1 POP SWAP2 SWAP1 POP JUMP JUMPDEST PUSH0 PUSH1 0x80 DUP3 ADD SWAP1 POP PUSH2 0x1CA1 PUSH0 DUP4 ADD DUP8 PUSH2 0x174C JUMP JUMPDEST PUSH2 0x1CAE PUSH1 0x20 DUP4 ADD DUP7 PUSH2 0x1573 JUMP JUMPDEST PUSH2 0x1CBB PUSH1 0x40 DUP4 ADD DUP6 PUSH2 0x174C JUMP JUMPDEST PUSH2 0x1CC8 PUSH1 0x60 DUP4 ADD DUP5 PUSH2 0x1573 JUMP JUMPDEST SWAP6 SWAP5 POP POP POP POP POP JUMP JUMPDEST PUSH32 0x4F776E61626C653A206E6577206F776E657220697320746865207A65726F2061 PUSH0 DUP3 ADD MSTORE PUSH32 0x6464726573730000000000000000000000000000000000000000000000000000 PUSH1 0x20 DUP3 ADD MSTORE POP JUMP JUMPDEST PUSH0 PUSH2 0x1D2B PUSH1 0x26 DUP4 PUSH2 0x17DD JUMP JUMPDEST SWAP2 POP PUSH2 0x1D36 DUP3 PUSH2 0x1CD1 JUMP JUMPDEST PUSH1 0x40 DUP3 ADD SWAP1 POP SWAP2 SWAP1 POP JUMP JUMPDEST PUSH0 PUSH1 0x20 DUP3 ADD SWAP1 POP DUP2 DUP2 SUB PUSH0 DUP4 ADD MSTORE PUSH2 0x1D58 DUP2 PUSH2 0x1D1F JUMP JUMPDEST SWAP1 POP SWAP2 SWAP1 POP JUMP JUMPDEST PUSH0 PUSH2 0x1D69 DUP3 PUSH2 0x156A JUMP JUMPDEST SWAP2 POP PUSH2 0x1D74 DUP4 PUSH2 0x156A JUMP JUMPDEST SWAP3 POP DUP3 DUP3 MUL PUSH2 0x1D82 DUP2 PUSH2 0x156A JUMP JUMPDEST SWAP2 POP DUP3 DUP3 DIV DUP5 EQ DUP4 ISZERO OR PUSH2 0x1D99 JUMPI PUSH2 0x1D98 PUSH2 0x1AC3 JUMP JUMPDEST JUMPDEST POP SWAP3 SWAP2 POP POP JUMP JUMPDEST PUSH32 0x4E487B7100000000000000000000000000000000000000000000000000000000 PUSH0 MSTORE PUSH1 0x12 PUSH1 0x4 MSTORE PUSH1 0x24 PUSH0 REVERT JUMPDEST PUSH0 PUSH2 0x1DD7 DUP3 PUSH2 0x156A JUMP JUMPDEST SWAP2 POP PUSH2 0x1DE2 DUP4 PUSH2 0x156A JUMP JUMPDEST SWAP3 POP DUP3 PUSH2 0x1DF2 JUMPI PUSH2 0x1DF1 PUSH2 0x1DA0 JUMP JUMPDEST JUMPDEST DUP3 DUP3 DIV SWAP1 POP SWAP3 SWAP2 POP POP JUMP JUMPDEST PUSH32 0x5265656E7472616E637947756172643A207265656E7472616E742063616C6C00 PUSH0 DUP3 ADD MSTORE POP JUMP JUMPDEST PUSH0 PUSH2 0x1E31 PUSH1 0x1F DUP4 PUSH2 0x17DD JUMP JUMPDEST SWAP2 POP PUSH2 0x1E3C DUP3 PUSH2 0x1DFD JUMP JUMPDEST PUSH1 0x20 DUP3 ADD SWAP1 POP SWAP2 SWAP1 POP JUMP JUMPDEST PUSH0 PUSH1 0x20 DUP3 ADD SWAP1 POP DUP2 DUP2 SUB PUSH0 DUP4 ADD MSTORE PUSH2 0x1E5E DUP2 PUSH2 0x1E25 JUMP JUMPDEST SWAP1 POP SWAP2 SWAP1 POP JUMP JUMPDEST PUSH32 0x4F776E61626C653A2063616C6C6572206973206E6F7420746865206F776E6572 PUSH0 DUP3 ADD MSTORE POP JUMP JUMPDEST PUSH0 PUSH2 0x1E99 PUSH1 0x20 DUP4 PUSH2 0x17DD JUMP JUMPDEST SWAP2 POP PUSH2 0x1EA4 DUP3 PUSH2 0x1E65 JUMP JUMPDEST PUSH1 0x20 DUP3 ADD SWAP1 POP SWAP2 SWAP1 POP JUMP JUMPDEST PUSH0 PUSH1 0x20 DUP3 ADD SWAP1 POP DUP2 DUP2 SUB PUSH0 DUP4 ADD MSTORE PUSH2 0x1EC6 DUP2 PUSH2 0x1E8D JUMP JUMPDEST SWAP1 POP SWAP2 SWAP1 POP JUMP JUMPDEST PUSH0 PUSH1 0x60 DUP3 ADD SWAP1 POP PUSH2 0x1EE0 PUSH0 DUP4 ADD DUP7 PUSH2 0x174C JUMP JUMPDEST PUSH2 0x1EED PUSH1 0x20 DUP4 ADD DUP6 PUSH2 0x174C JUMP JUMPDEST PUSH2 0x1EFA PUSH1 0x40 DUP4 ADD DUP5 PUSH2 0x1573 JUMP JUMPDEST SWAP5 SWAP4 POP POP POP POP JUMP JUMPDEST PUSH0 PUSH1 0x40 DUP3 ADD SWAP1 POP PUSH2 0x1F15 PUSH0 DUP4 ADD DUP6 PUSH2 0x174C JUMP JUMPDEST PUSH2 0x1F22 PUSH1 0x20 DUP4 ADD DUP5 PUSH2 0x1573 JUMP JUMPDEST SWAP4 SWAP3 POP POP POP JUMP JUMPDEST PUSH0 DUP2 ISZERO ISZERO SWAP1 POP SWAP2 SWAP1 POP JUMP JUMPDEST PUSH2 0x1F3D DUP2 PUSH2 0x1F29 JUMP JUMPDEST DUP2 EQ PUSH2 0x1F47 JUMPI PUSH0 DUP1 REVERT JUMPDEST POP JUMP JUMPDEST PUSH0 DUP2 MLOAD SWAP1 POP PUSH2 0x1F58 DUP2 PUSH2 0x1F34 JUMP JUMPDEST SWAP3 SWAP2 POP POP JUMP JUMPDEST PUSH0 PUSH1 0x20 DUP3 DUP5 SUB SLT ISZERO PUSH2 0x1F73 JUMPI PUSH2 0x1F72 PUSH2 0x163C JUMP JUMPDEST JUMPDEST PUSH0 PUSH2 0x1F80 DUP5 DUP3 DUP6 ADD PUSH2 0x1F4A JUMP JUMPDEST SWAP2 POP POP SWAP3 SWAP2 POP POP JUMP JUMPDEST PUSH32 0x5361666545524332303A204552433230206F7065726174696F6E20646964206E PUSH0 DUP3 ADD MSTORE PUSH32 0x6F74207375636365656400000000000000000000000000000000000000000000 PUSH1 0x20 DUP3 ADD MSTORE POP JUMP JUMPDEST PUSH0 PUSH2 0x1FE3 PUSH1 0x2A DUP4 PUSH2 0x17DD JUMP JUMPDEST SWAP2 POP PUSH2 0x1FEE DUP3 PUSH2 0x1F89 JUMP JUMPDEST PUSH1 0x40 DUP3 ADD SWAP1 POP SWAP2 SWAP1 POP JUMP JUMPDEST PUSH0 PUSH1 0x20 DUP3 ADD SWAP1 POP DUP2 DUP2 SUB PUSH0 DUP4 ADD MSTORE PUSH2 0x2010 DUP2 PUSH2 0x1FD7 JUMP JUMPDEST SWAP1 POP SWAP2 SWAP1 POP JUMP JUMPDEST PUSH32 0x416464726573733A20696E73756666696369656E742062616C616E636520666F PUSH0 DUP3 ADD MSTORE PUSH32 0x722063616C6C0000000000000000000000000000000000000000000000000000 PUSH1 0x20 DUP3 ADD MSTORE POP JUMP JUMPDEST PUSH0 PUSH2 0x2071 PUSH1 0x26 DUP4 PUSH2 0x17DD JUMP JUMPDEST SWAP2 POP PUSH2 0x207C DUP3 PUSH2 0x2017 JUMP JUMPDEST PUSH1 0x40 DUP3 ADD SWAP1 POP SWAP2 SWAP1 POP JUMP JUMPDEST PUSH0 PUSH1 0x20 DUP3 ADD SWAP1 POP DUP2 DUP2 SUB PUSH0 DUP4 ADD MSTORE PUSH2 0x209E DUP2 PUSH2 0x2065 JUMP JUMPDEST SWAP1 POP SWAP2 SWAP1 POP JUMP JUMPDEST PUSH0 DUP2 MLOAD SWAP1 POP SWAP2 SWAP1 POP JUMP JUMPDEST PUSH0 DUP2 SWAP1 POP SWAP3 SWAP2 POP POP JUMP JUMPDEST DUP3 DUP2 DUP4 MCOPY PUSH0 DUP4 DUP4 ADD MSTORE POP POP POP JUMP JUMPDEST PUSH0 PUSH2 0x20D1 DUP3 PUSH2 0x20A5 JUMP JUMPDEST PUSH2 0x20DB DUP2 DUP6 PUSH2 0x20AF JUMP JUMPDEST SWAP4 POP PUSH2 0x20EB DUP2 DUP6 PUSH1 0x20 DUP7 ADD PUSH2 0x20B9 JUMP JUMPDEST DUP1 DUP5 ADD SWAP2 POP POP SWAP3 SWAP2 POP POP JUMP JUMPDEST PUSH0 PUSH2 0x2102 DUP3 DUP5 PUSH2 0x20C7 JUMP JUMPDEST SWAP2 POP DUP2 SWAP1 POP SWAP3 SWAP2 POP POP JUMP JUMPDEST PUSH32 0x416464726573733A2063616C6C20746F206E6F6E2D636F6E7472616374000000 PUSH0 DUP3 ADD MSTORE POP JUMP JUMPDEST PUSH0 PUSH2 0x2141 PUSH1 0x1D DUP4 PUSH2 0x17DD JUMP JUMPDEST SWAP2 POP PUSH2 0x214C DUP3 PUSH2 0x210D JUMP JUMPDEST PUSH1 0x20 DUP3 ADD SWAP1 POP SWAP2 SWAP1 POP JUMP JUMPDEST PUSH0 PUSH1 0x20 DUP3 ADD SWAP1 POP DUP2 DUP2 SUB PUSH0 DUP4 ADD MSTORE PUSH2 0x216E DUP2 PUSH2 0x2135 JUMP JUMPDEST SWAP1 POP SWAP2 SWAP1 POP JUMP JUMPDEST PUSH0 DUP2 MLOAD SWAP1 POP SWAP2 SWAP1 POP JUMP JUMPDEST PUSH0 PUSH1 0x1F NOT PUSH1 0x1F DUP4 ADD AND SWAP1 POP SWAP2 SWAP1 POP JUMP JUMPDEST PUSH0 PUSH2 0x2199 DUP3 PUSH2 0x2175 JUMP JUMPDEST PUSH2 0x21A3 DUP2 DUP6 PUSH2 0x17DD JUMP JUMPDEST SWAP4 POP PUSH2 0x21B3 DUP2 DUP6 PUSH1 0x20 DUP7 ADD PUSH2 0x20B9 JUMP JUMPDEST PUSH2 0x21BC DUP2 PUSH2 0x217F JUMP JUMPDEST DUP5 ADD SWAP2 POP POP SWAP3 SWAP2 POP POP JUMP JUMPDEST PUSH0 PUSH1 0x20 DUP3 ADD SWAP1 POP DUP2 DUP2 SUB PUSH0 DUP4 ADD MSTORE PUSH2 0x21DF DUP2 DUP5 PUSH2 0x218F JUMP JUMPDEST SWAP1 POP SWAP3 SWAP2 POP POP JUMP INVALID LOG2 PUSH5 0x6970667358 0x22 SLT KECCAK256 0xFB EXTCODECOPY 0x24 0xB6 0xAF 0xE6 TSTORE RETURNDATASIZE 0xF8 0x4E DELEGATECALL 0xE9 0xBD PUSH12 0x5A659BD2811D27C75690F464 PUSH8 0xCE8C0FD19864736F PUSH13 0x634300081A0033000000000000 "
		},
		"gasEstimates": {
			"creation": {
				"codeDepositCost": "1746600",
				"executionCost": "infinite",
				"totalCost": "infinite"
			},
			"external": {
				"addLiquidity(uint256,uint256)": "infinite",
				"getPrice(address,uint256)": "infinite",
				"getReserves()": "infinite",
				"owner()": "2538",
				"removeLiquidity(uint256,uint256)": "infinite",
				"renounceOwnership()": "30501",
				"swap(address,uint256)": "infinite",
				"swapWithSlippage(address,uint256,uint256)": "infinite",
				"token1()": "infinite",
				"token1Balance()": "2447",
				"token2()": "infinite",
				"token2Balance()": "2492",
				"transferOwnership(address)": "30819"
			},
			"internal": {
				"calculateSwapOutput(address,uint256)": "infinite"
			}
		},
		"methodIdentifiers": {
			"addLiquidity(uint256,uint256)": "9cd441da",
			"getPrice(address,uint256)": "449e815d",
			"getReserves()": "0902f1ac",
			"owner()": "8da5cb5b",
			"removeLiquidity(uint256,uint256)": "9d7de6b3",
			"renounceOwnership()": "715018a6",
			"swap(address,uint256)": "d004f0f7",
			"swapWithSlippage(address,uint256,uint256)": "709c50f6",
			"token1()": "d21220a7",
			"token1Balance()": "b9ffa6a8",
			"token2()": "25be124e",
			"token2Balance()": "68a455f1",
			"transferOwnership(address)": "f2fde38b"
		}
	},
	"abi": [
		{
			"inputs": [
				{
					"internalType": "address",
					"name": "_token1",
					"type": "address"
				},
				{
					"internalType": "address",
					"name": "_token2",
					"type": "address"
				}
			],
			"stateMutability": "nonpayable",
			"type": "constructor"
		},
		{
			"anonymous": false,
			"inputs": [
				{
					"indexed": true,
					"internalType": "address",
					"name": "provider",
					"type": "address"
				},
				{
					"indexed": false,
					"internalType": "uint256",
					"name": "token1Amount",
					"type": "uint256"
				},
				{
					"indexed": false,
					"internalType": "uint256",
					"name": "token2Amount",
					"type": "uint256"
				}
			],
			"name": "LiquidityAdded",
			"type": "event"
		},
		{
			"anonymous": false,
			"inputs": [
				{
					"indexed": true,
					"internalType": "address",
					"name": "provider",
					"type": "address"
				},
				{
					"indexed": false,
					"internalType": "uint256",
					"name": "token1Amount",
					"type": "uint256"
				},
				{
					"indexed": false,
					"internalType": "uint256",
					"name": "token2Amount",
					"type": "uint256"
				}
			],
			"name": "LiquidityRemoved",
			"type": "event"
		},
		{
			"anonymous": false,
			"inputs": [
				{
					"indexed": true,
					"internalType": "address",
					"name": "previousOwner",
					"type": "address"
				},
				{
					"indexed": true,
					"internalType": "address",
					"name": "newOwner",
					"type": "address"
				}
			],
			"name": "OwnershipTransferred",
			"type": "event"
		},
		{
			"anonymous": false,
			"inputs": [
				{
					"indexed": true,
					"internalType": "address",
					"name": "user",
					"type": "address"
				},
				{
					"indexed": false,
					"internalType": "address",
					"name": "tokenIn",
					"type": "address"
				},
				{
					"indexed": false,
					"internalType": "uint256",
					"name": "amountIn",
					"type": "uint256"
				},
				{
					"indexed": false,
					"internalType": "address",
					"name": "tokenOut",
					"type": "address"
				},
				{
					"indexed": false,
					"internalType": "uint256",
					"name": "amountOut",
					"type": "uint256"
				}
			],
			"name": "Swap",
			"type": "event"
		},
		{
			"inputs": [
				{
					"internalType": "uint256",
					"name": "_token1Amount",
					"type": "uint256"
				},
				{
					"internalType": "uint256",
					"name": "_token2Amount",
					"type": "uint256"
				}
			],
			"name": "addLiquidity",
			"outputs": [],
			"stateMutability": "nonpayable",
			"type": "function"
		},
		{
			"inputs": [
				{
					"internalType": "address",
					"name": "_tokenIn",
					"type": "address"
				},
				{
					"internalType": "uint256",
					"name": "_amountIn",
					"type": "uint256"
				}
			],
			"name": "getPrice",
			"outputs": [
				{
					"internalType": "uint256",
					"name": "",
					"type": "uint256"
				}
			],
			"stateMutability": "view",
			"type": "function"
		},
		{
			"inputs": [],
			"name": "getReserves",
			"outputs": [
				{
					"internalType": "uint256",
					"name": "reserve1",
					"type": "uint256"
				},
				{
					"internalType": "uint256",
					"name": "reserve2",
					"type": "uint256"
				}
			],
			"stateMutability": "view",
			"type": "function"
		},
		{
			"inputs": [],
			"name": "owner",
			"outputs": [
				{
					"internalType": "address",
					"name": "",
					"type": "address"
				}
			],
			"stateMutability": "view",
			"type": "function"
		},
		{
			"inputs": [
				{
					"internalType": "uint256",
					"name": "_token1Amount",
					"type": "uint256"
				},
				{
					"internalType": "uint256",
					"name": "_token2Amount",
					"type": "uint256"
				}
			],
			"name": "removeLiquidity",
			"outputs": [],
			"stateMutability": "nonpayable",
			"type": "function"
		},
		{
			"inputs": [],
			"name": "renounceOwnership",
			"outputs": [],
			"stateMutability": "nonpayable",
			"type": "function"
		},
		{
			"inputs": [
				{
					"internalType": "address",
					"name": "_tokenIn",
					"type": "address"
				},
				{
					"internalType": "uint256",
					"name": "_amountIn",
					"type": "uint256"
				}
			],
			"name": "swap",
			"outputs": [
				{
					"internalType": "uint256",
					"name": "amountOut",
					"type": "uint256"
				}
			],
			"stateMutability": "nonpayable",
			"type": "function"
		},
		{
			"inputs": [
				{
					"internalType": "address",
					"name": "_tokenIn",
					"type": "address"
				},
				{
					"internalType": "uint256",
					"name": "_amountIn",
					"type": "uint256"
				},
				{
					"internalType": "uint256",
					"name": "_minAmountOut",
					"type": "uint256"
				}
			],
			"name": "swapWithSlippage",
			"outputs": [
				{
					"internalType": "uint256",
					"name": "amountOut",
					"type": "uint256"
				}
			],
			"stateMutability": "nonpayable",
			"type": "function"
		},
		{
			"inputs": [],
			"name": "token1",
			"outputs": [
				{
					"internalType": "contract IERC20",
					"name": "",
					"type": "address"
				}
			],
			"stateMutability": "view",
			"type": "function"
		},
		{
			"inputs": [],
			"name": "token1Balance",
			"outputs": [
				{
					"internalType": "uint256",
					"name": "",
					"type": "uint256"
				}
			],
			"stateMutability": "view",
			"type": "function"
		},
		{
			"inputs": [],
			"name": "token2",
			"outputs": [
				{
					"internalType": "contract IERC20",
					"name": "",
					"type": "address"
				}
			],
			"stateMutability": "view",
			"type": "function"
		},
		{
			"inputs": [],
			"name": "token2Balance",
			"outputs": [
				{
					"internalType": "uint256",
					"name": "",
					"type": "uint256"
				}
			],
			"stateMutability": "view",
			"type": "function"
		},
		{
			"inputs": [
				{
					"internalType": "address",
					"name": "newOwner",
					"type": "address"
				}
			],
			"name": "transferOwnership",
			"outputs": [],
			"stateMutability": "nonpayable",
			"type": "function"
		}
	]
}